{
  "_format": "hh-sol-artifact-1",
  "contractName": "CWBountyPool",
  "sourceName": "contracts/CWBountyPool.sol",
  "abi": [
    {
      "inputs": [
        {
          "internalType": "address",
          "name": "founderWallet",
          "type": "address"
        },
        {
          "internalType": "address payable",
          "name": "_treasury",
          "type": "address"
        }
      ],
      "stateMutability": "nonpayable",
      "type": "constructor"
    },
    {
      "inputs": [
        {
          "internalType": "address",
          "name": "owner",
          "type": "address"
        }
      ],
      "name": "OwnableInvalidOwner",
      "type": "error"
    },
    {
      "inputs": [
        {
          "internalType": "address",
          "name": "account",
          "type": "address"
        }
      ],
      "name": "OwnableUnauthorizedAccount",
      "type": "error"
    },
    {
      "inputs": [],
      "name": "ReentrancyGuardReentrantCall",
      "type": "error"
    },
    {
      "anonymous": false,
      "inputs": [
        {
          "indexed": true,
          "internalType": "uint256",
          "name": "bountyId",
          "type": "uint256"
        },
        {
          "indexed": false,
          "internalType": "uint256",
          "name": "refunded",
          "type": "uint256"
        }
      ],
      "name": "BountyCancelled",
      "type": "event"
    },
    {
      "anonymous": false,
      "inputs": [
        {
          "indexed": true,
          "internalType": "uint256",
          "name": "bountyId",
          "type": "uint256"
        },
        {
          "indexed": true,
          "internalType": "address",
          "name": "funder",
          "type": "address"
        },
        {
          "indexed": false,
          "internalType": "uint256",
          "name": "amount",
          "type": "uint256"
        },
        {
          "indexed": false,
          "internalType": "string",
          "name": "diseaseTag",
          "type": "string"
        }
      ],
      "name": "BountyCreated",
      "type": "event"
    },
    {
      "anonymous": false,
      "inputs": [
        {
          "indexed": true,
          "internalType": "uint256",
          "name": "bountyId",
          "type": "uint256"
        },
        {
          "indexed": false,
          "internalType": "uint256",
          "name": "totalPaid",
          "type": "uint256"
        }
      ],
      "name": "BountyFinalized",
      "type": "event"
    },
    {
      "anonymous": false,
      "inputs": [
        {
          "indexed": true,
          "internalType": "uint256",
          "name": "bountyId",
          "type": "uint256"
        },
        {
          "indexed": false,
          "internalType": "uint256",
          "name": "claimIndex",
          "type": "uint256"
        },
        {
          "indexed": false,
          "internalType": "uint16",
          "name": "shareBps",
          "type": "uint16"
        }
      ],
      "name": "ClaimApproved",
      "type": "event"
    },
    {
      "anonymous": false,
      "inputs": [
        {
          "indexed": true,
          "internalType": "uint256",
          "name": "bountyId",
          "type": "uint256"
        },
        {
          "indexed": false,
          "internalType": "uint256",
          "name": "claimIndex",
          "type": "uint256"
        }
      ],
      "name": "ClaimRejected",
      "type": "event"
    },
    {
      "anonymous": false,
      "inputs": [
        {
          "indexed": true,
          "internalType": "uint256",
          "name": "bountyId",
          "type": "uint256"
        },
        {
          "indexed": false,
          "internalType": "uint256",
          "name": "claimIndex",
          "type": "uint256"
        },
        {
          "indexed": true,
          "internalType": "address",
          "name": "scientist",
          "type": "address"
        },
        {
          "indexed": false,
          "internalType": "string",
          "name": "roId",
          "type": "string"
        }
      ],
      "name": "ClaimSubmitted",
      "type": "event"
    },
    {
      "anonymous": false,
      "inputs": [
        {
          "indexed": true,
          "internalType": "uint256",
          "name": "escrowId",
          "type": "uint256"
        },
        {
          "indexed": true,
          "internalType": "address",
          "name": "institutionWallet",
          "type": "address"
        },
        {
          "indexed": false,
          "internalType": "uint256",
          "name": "amount",
          "type": "uint256"
        }
      ],
      "name": "EscrowClaimed",
      "type": "event"
    },
    {
      "anonymous": false,
      "inputs": [
        {
          "indexed": true,
          "internalType": "uint256",
          "name": "escrowId",
          "type": "uint256"
        },
        {
          "indexed": true,
          "internalType": "address",
          "name": "scientist",
          "type": "address"
        },
        {
          "indexed": false,
          "internalType": "string",
          "name": "institutionName",
          "type": "string"
        },
        {
          "indexed": false,
          "internalType": "uint256",
          "name": "amount",
          "type": "uint256"
        }
      ],
      "name": "EscrowCreated",
      "type": "event"
    },
    {
      "anonymous": false,
      "inputs": [
        {
          "indexed": true,
          "internalType": "uint256",
          "name": "escrowId",
          "type": "uint256"
        },
        {
          "indexed": true,
          "internalType": "address",
          "name": "scientist",
          "type": "address"
        },
        {
          "indexed": false,
          "internalType": "uint256",
          "name": "amount",
          "type": "uint256"
        }
      ],
      "name": "EscrowExpiredWithdraw",
      "type": "event"
    },
    {
      "anonymous": false,
      "inputs": [
        {
          "indexed": false,
          "internalType": "string",
          "name": "institutionName",
          "type": "string"
        },
        {
          "indexed": false,
          "internalType": "address",
          "name": "wallet",
          "type": "address"
        }
      ],
      "name": "InstitutionWalletRegistered",
      "type": "event"
    },
    {
      "anonymous": false,
      "inputs": [
        {
          "indexed": true,
          "internalType": "address",
          "name": "previousOwner",
          "type": "address"
        },
        {
          "indexed": true,
          "internalType": "address",
          "name": "newOwner",
          "type": "address"
        }
      ],
      "name": "OwnershipTransferred",
      "type": "event"
    },
    {
      "anonymous": false,
      "inputs": [
        {
          "indexed": true,
          "internalType": "address",
          "name": "scientist",
          "type": "address"
        },
        {
          "indexed": false,
          "internalType": "string",
          "name": "institutionName",
          "type": "string"
        },
        {
          "indexed": false,
          "internalType": "uint16",
          "name": "splitBps",
          "type": "uint16"
        }
      ],
      "name": "ScientistRegistered",
      "type": "event"
    },
    {
      "inputs": [
        {
          "internalType": "uint256",
          "name": "bountyId",
          "type": "uint256"
        },
        {
          "internalType": "uint256",
          "name": "claimIndex",
          "type": "uint256"
        },
        {
          "internalType": "uint16",
          "name": "shareBps",
          "type": "uint16"
        }
      ],
      "name": "approveClaim",
      "outputs": [],
      "stateMutability": "nonpayable",
      "type": "function"
    },
    {
      "inputs": [
        {
          "internalType": "uint256",
          "name": "",
          "type": "uint256"
        }
      ],
      "name": "bounties",
      "outputs": [
        {
          "internalType": "address",
          "name": "funder",
          "type": "address"
        },
        {
          "internalType": "uint256",
          "name": "amount",
          "type": "uint256"
        },
        {
          "internalType": "string",
          "name": "diseaseTag",
          "type": "string"
        },
        {
          "internalType": "string",
          "name": "criteria",
          "type": "string"
        },
        {
          "internalType": "uint256",
          "name": "deadline",
          "type": "uint256"
        },
        {
          "internalType": "enum CWBountyPool.BountyStatus",
          "name": "status",
          "type": "uint8"
        },
        {
          "internalType": "uint256",
          "name": "claimCount",
          "type": "uint256"
        }
      ],
      "stateMutability": "view",
      "type": "function"
    },
    {
      "inputs": [
        {
          "internalType": "uint256",
          "name": "bountyId",
          "type": "uint256"
        }
      ],
      "name": "cancelBounty",
      "outputs": [],
      "stateMutability": "nonpayable",
      "type": "function"
    },
    {
      "inputs": [
        {
          "internalType": "uint256",
          "name": "escrowId",
          "type": "uint256"
        }
      ],
      "name": "claimEscrow",
      "outputs": [],
      "stateMutability": "nonpayable",
      "type": "function"
    },
    {
      "inputs": [
        {
          "internalType": "uint256",
          "name": "",
          "type": "uint256"
        },
        {
          "internalType": "uint256",
          "name": "",
          "type": "uint256"
        }
      ],
      "name": "claims",
      "outputs": [
        {
          "internalType": "address",
          "name": "scientist",
          "type": "address"
        },
        {
          "internalType": "string",
          "name": "roId",
          "type": "string"
        },
        {
          "internalType": "string",
          "name": "justification",
          "type": "string"
        },
        {
          "internalType": "enum CWBountyPool.ClaimStatus",
          "name": "status",
          "type": "uint8"
        },
        {
          "internalType": "uint16",
          "name": "shareBps",
          "type": "uint16"
        }
      ],
      "stateMutability": "view",
      "type": "function"
    },
    {
      "inputs": [
        {
          "internalType": "string",
          "name": "diseaseTag",
          "type": "string"
        },
        {
          "internalType": "string",
          "name": "criteria",
          "type": "string"
        },
        {
          "internalType": "uint256",
          "name": "deadline",
          "type": "uint256"
        }
      ],
      "name": "createBounty",
      "outputs": [
        {
          "internalType": "uint256",
          "name": "",
          "type": "uint256"
        }
      ],
      "stateMutability": "payable",
      "type": "function"
    },
    {
      "inputs": [],
      "name": "escrowCount",
      "outputs": [
        {
          "internalType": "uint256",
          "name": "",
          "type": "uint256"
        }
      ],
      "stateMutability": "view",
      "type": "function"
    },
    {
      "inputs": [],
      "name": "escrowPeriod",
      "outputs": [
        {
          "internalType": "uint256",
          "name": "",
          "type": "uint256"
        }
      ],
      "stateMutability": "view",
      "type": "function"
    },
    {
      "inputs": [
        {
          "internalType": "uint256",
          "name": "",
          "type": "uint256"
        }
      ],
      "name": "escrows",
      "outputs": [
        {
          "internalType": "uint256",
          "name": "amount",
          "type": "uint256"
        },
        {
          "internalType": "address",
          "name": "scientist",
          "type": "address"
        },
        {
          "internalType": "string",
          "name": "institutionName",
          "type": "string"
        },
        {
          "internalType": "uint256",
          "name": "createdAt",
          "type": "uint256"
        },
        {
          "internalType": "bool",
          "name": "claimed",
          "type": "bool"
        }
      ],
      "stateMutability": "view",
      "type": "function"
    },
    {
      "inputs": [
        {
          "internalType": "uint256",
          "name": "bountyId",
          "type": "uint256"
        }
      ],
      "name": "finalizeBounty",
      "outputs": [],
      "stateMutability": "nonpayable",
      "type": "function"
    },
    {
      "inputs": [
        {
          "internalType": "uint256",
          "name": "bountyId",
          "type": "uint256"
        }
      ],
      "name": "getBounty",
      "outputs": [
        {
          "components": [
            {
              "internalType": "address",
              "name": "funder",
              "type": "address"
            },
            {
              "internalType": "uint256",
              "name": "amount",
              "type": "uint256"
            },
            {
              "internalType": "string",
              "name": "diseaseTag",
              "type": "string"
            },
            {
              "internalType": "string",
              "name": "criteria",
              "type": "string"
            },
            {
              "internalType": "uint256",
              "name": "deadline",
              "type": "uint256"
            },
            {
              "internalType": "enum CWBountyPool.BountyStatus",
              "name": "status",
              "type": "uint8"
            },
            {
              "internalType": "uint256",
              "name": "claimCount",
              "type": "uint256"
            }
          ],
          "internalType": "struct CWBountyPool.Bounty",
          "name": "",
          "type": "tuple"
        }
      ],
      "stateMutability": "view",
      "type": "function"
    },
    {
      "inputs": [
        {
          "internalType": "uint256",
          "name": "bountyId",
          "type": "uint256"
        },
        {
          "internalType": "uint256",
          "name": "claimIndex",
          "type": "uint256"
        }
      ],
      "name": "getClaim",
      "outputs": [
        {
          "components": [
            {
              "internalType": "address",
              "name": "scientist",
              "type": "address"
            },
            {
              "internalType": "string",
              "name": "roId",
              "type": "string"
            },
            {
              "internalType": "string",
              "name": "justification",
              "type": "string"
            },
            {
              "internalType": "enum CWBountyPool.ClaimStatus",
              "name": "status",
              "type": "uint8"
            },
            {
              "internalType": "uint16",
              "name": "shareBps",
              "type": "uint16"
            }
          ],
          "internalType": "struct CWBountyPool.Claim",
          "name": "",
          "type": "tuple"
        }
      ],
      "stateMutability": "view",
      "type": "function"
    },
    {
      "inputs": [
        {
          "internalType": "uint256",
          "name": "escrowId",
          "type": "uint256"
        }
      ],
      "name": "getEscrow",
      "outputs": [
        {
          "components": [
            {
              "internalType": "uint256",
              "name": "amount",
              "type": "uint256"
            },
            {
              "internalType": "address",
              "name": "scientist",
              "type": "address"
            },
            {
              "internalType": "string",
              "name": "institutionName",
              "type": "string"
            },
            {
              "internalType": "uint256",
              "name": "createdAt",
              "type": "uint256"
            },
            {
              "internalType": "bool",
              "name": "claimed",
              "type": "bool"
            }
          ],
          "internalType": "struct CWBountyPool.Escrow",
          "name": "",
          "type": "tuple"
        }
      ],
      "stateMutability": "view",
      "type": "function"
    },
    {
      "inputs": [
        {
          "internalType": "address",
          "name": "addr",
          "type": "address"
        }
      ],
      "name": "getScientist",
      "outputs": [
        {
          "components": [
            {
              "internalType": "string",
              "name": "institutionName",
              "type": "string"
            },
            {
              "internalType": "uint16",
              "name": "institutionSplitBps",
              "type": "uint16"
            },
            {
              "internalType": "address payable",
              "name": "institutionWallet",
              "type": "address"
            },
            {
              "internalType": "bool",
              "name": "registered",
              "type": "bool"
            }
          ],
          "internalType": "struct CWBountyPool.ScientistProfile",
          "name": "",
          "type": "tuple"
        }
      ],
      "stateMutability": "view",
      "type": "function"
    },
    {
      "inputs": [
        {
          "internalType": "string",
          "name": "",
          "type": "string"
        }
      ],
      "name": "institutionWallets",
      "outputs": [
        {
          "internalType": "address payable",
          "name": "",
          "type": "address"
        }
      ],
      "stateMutability": "view",
      "type": "function"
    },
    {
      "inputs": [],
      "name": "nextBountyId",
      "outputs": [
        {
          "internalType": "uint256",
          "name": "",
          "type": "uint256"
        }
      ],
      "stateMutability": "view",
      "type": "function"
    },
    {
      "inputs": [],
      "name": "owner",
      "outputs": [
        {
          "internalType": "address",
          "name": "",
          "type": "address"
        }
      ],
      "stateMutability": "view",
      "type": "function"
    },
    {
      "inputs": [],
      "name": "platformFeeBps",
      "outputs": [
        {
          "internalType": "uint16",
          "name": "",
          "type": "uint16"
        }
      ],
      "stateMutability": "view",
      "type": "function"
    },
    {
      "inputs": [
        {
          "internalType": "string",
          "name": "institutionName",
          "type": "string"
        },
        {
          "internalType": "address payable",
          "name": "wallet",
          "type": "address"
        }
      ],
      "name": "registerInstitutionWallet",
      "outputs": [],
      "stateMutability": "nonpayable",
      "type": "function"
    },
    {
      "inputs": [
        {
          "internalType": "string",
          "name": "institutionName",
          "type": "string"
        },
        {
          "internalType": "uint16",
          "name": "institutionSplitBps",
          "type": "uint16"
        }
      ],
      "name": "registerScientist",
      "outputs": [],
      "stateMutability": "nonpayable",
      "type": "function"
    },
    {
      "inputs": [
        {
          "internalType": "uint256",
          "name": "bountyId",
          "type": "uint256"
        },
        {
          "internalType": "uint256",
          "name": "claimIndex",
          "type": "uint256"
        }
      ],
      "name": "rejectClaim",
      "outputs": [],
      "stateMutability": "nonpayable",
      "type": "function"
    },
    {
      "inputs": [],
      "name": "renounceOwnership",
      "outputs": [],
      "stateMutability": "nonpayable",
      "type": "function"
    },
    {
      "inputs": [
        {
          "internalType": "address",
          "name": "",
          "type": "address"
        }
      ],
      "name": "scientists",
      "outputs": [
        {
          "internalType": "string",
          "name": "institutionName",
          "type": "string"
        },
        {
          "internalType": "uint16",
          "name": "institutionSplitBps",
          "type": "uint16"
        },
        {
          "internalType": "address payable",
          "name": "institutionWallet",
          "type": "address"
        },
        {
          "internalType": "bool",
          "name": "registered",
          "type": "bool"
        }
      ],
      "stateMutability": "view",
      "type": "function"
    },
    {
      "inputs": [
        {
          "internalType": "uint256",
          "name": "_period",
          "type": "uint256"
        }
      ],
      "name": "setEscrowPeriod",
      "outputs": [],
      "stateMutability": "nonpayable",
      "type": "function"
    },
    {
      "inputs": [
        {
          "internalType": "uint16",
          "name": "_bps",
          "type": "uint16"
        }
      ],
      "name": "setPlatformFeeBps",
      "outputs": [],
      "stateMutability": "nonpayable",
      "type": "function"
    },
    {
      "inputs": [
        {
          "internalType": "address payable",
          "name": "_treasury",
          "type": "address"
        }
      ],
      "name": "setTreasury",
      "outputs": [],
      "stateMutability": "nonpayable",
      "type": "function"
    },
    {
      "inputs": [
        {
          "internalType": "uint256",
          "name": "bountyId",
          "type": "uint256"
        },
        {
          "internalType": "string",
          "name": "roId",
          "type": "string"
        },
        {
          "internalType": "string",
          "name": "justification",
          "type": "string"
        }
      ],
      "name": "submitClaim",
      "outputs": [
        {
          "internalType": "uint256",
          "name": "",
          "type": "uint256"
        }
      ],
      "stateMutability": "nonpayable",
      "type": "function"
    },
    {
      "inputs": [],
      "name": "totalBounties",
      "outputs": [
        {
          "internalType": "uint256",
          "name": "",
          "type": "uint256"
        }
      ],
      "stateMutability": "view",
      "type": "function"
    },
    {
      "inputs": [
        {
          "internalType": "address",
          "name": "newOwner",
          "type": "address"
        }
      ],
      "name": "transferOwnership",
      "outputs": [],
      "stateMutability": "nonpayable",
      "type": "function"
    },
    {
      "inputs": [],
      "name": "treasury",
      "outputs": [
        {
          "internalType": "address payable",
          "name": "",
          "type": "address"
        }
      ],
      "stateMutability": "view",
      "type": "function"
    },
    {
      "inputs": [
        {
          "internalType": "uint256",
          "name": "escrowId",
          "type": "uint256"
        }
      ],
      "name": "withdrawExpiredEscrow",
      "outputs": [],
      "stateMutability": "nonpayable",
      "type": "function"
    }
  ],
  "bytecode": "0x60806040526301e1338060085560fa600960006101000a81548161ffff021916908361ffff16021790555034801561003657600080fd5b506040516169d13803806169d1833981810160405281019061005891906102fe565b81600073ffffffffffffffffffffffffffffffffffffffff168173ffffffffffffffffffffffffffffffffffffffff16036100cb5760006040517f1e4fbdf70000000000000000000000000000000000000000000000000000000081526004016100c2919061034d565b60405180910390fd5b6100da8161019960201b60201c565b5060018081905550600073ffffffffffffffffffffffffffffffffffffffff168173ffffffffffffffffffffffffffffffffffffffff1603610151576040517f08c379a0000000000000000000000000000000000000000000000000000000008152600401610148906103c5565b60405180910390fd5b80600960026101000a81548173ffffffffffffffffffffffffffffffffffffffff021916908373ffffffffffffffffffffffffffffffffffffffff16021790555050506103e5565b60008060009054906101000a900473ffffffffffffffffffffffffffffffffffffffff169050816000806101000a81548173ffffffffffffffffffffffffffffffffffffffff021916908373ffffffffffffffffffffffffffffffffffffffff1602179055508173ffffffffffffffffffffffffffffffffffffffff168173ffffffffffffffffffffffffffffffffffffffff167f8be0079c531659141344cd1fd0a4f28419497f9722a3daafe3b4186f6b6457e060405160405180910390a35050565b600080fd5b600073ffffffffffffffffffffffffffffffffffffffff82169050919050565b600061028d82610262565b9050919050565b61029d81610282565b81146102a857600080fd5b50565b6000815190506102ba81610294565b92915050565b60006102cb82610262565b9050919050565b6102db816102c0565b81146102e657600080fd5b50565b6000815190506102f8816102d2565b92915050565b600080604083850312156103155761031461025d565b5b6000610323858286016102ab565b9250506020610334858286016102e9565b9150509250929050565b61034781610282565b82525050565b6000602082019050610362600083018461033e565b92915050565b600082825260208201905092915050565b7f54726561737572792063616e6e6f74206265207a65726f000000000000000000600082015250565b60006103af601783610368565b91506103ba82610379565b602082019050919050565b600060208201905081810360008301526103de816103a2565b9050919050565b6165dd806103f46000396000f3fe6080604052600436106101d85760003560e01c80637d19e59611610102578063dc2f874411610095578063f16b51c111610064578063f16b51c1146106f0578063f2fde38b1461071b578063f894160e14610744578063fd14fad414610785576101d8565b8063dc2f87441461061e578063e5e5dff114610661578063ee8c4bbf1461068a578063f0f44260146106c7576101d8565b8063b13fe055116100d1578063b13fe0551461053b578063b46f08bb14610578578063cb9e9f1d146105a1578063d8e59749146105de576101d8565b80637d19e5961461047f57806380d2d7e5146104bc57806385feeb23146104e55780638da5cb5b14610510576101d8565b80633cb749171161017a57806361d027b31161014957806361d027b3146103e957806363faf2d114610414578063675ac67a1461043d578063715018a614610468576101d8565b80633cb7491714610331578063427a2fc21461035a5780635102196b146103975780635dc20323146103c0576101d8565b806322dcd13e116101b657806322dcd13e146102845780632bfa7d60146102af5780632ce947db146102df5780633bc1f7b314610308576101d8565b8063012f52ee146101dd5780631681c04c1461021e578063191634c31461025b575b600080fd5b3480156101e957600080fd5b5061020460048036038101906101ff9190613f2d565b6107b0565b604051610215959493929190614055565b60405180910390f35b34801561022a57600080fd5b50610245600480360381019061024091906140db565b6108ab565b6040516102529190614202565b60405180910390f35b34801561026757600080fd5b50610282600480360381019061027d9190613f2d565b610a27565b005b34801561029057600080fd5b50610299611416565b6040516102a69190614233565b60405180910390f35b6102c960048036038101906102c491906142b3565b61142a565b6040516102d69190614348565b60405180910390f35b3480156102eb57600080fd5b5061030660048036038101906103019190613f2d565b611773565b005b34801561031457600080fd5b5061032f600480360381019061032a919061438f565b611a29565b005b34801561033d57600080fd5b50610358600480360381019061035391906143bc565b611a9a565b005b34801561036657600080fd5b50610381600480360381019061037c91906143bc565b611d0c565b60405161038e91906144ff565b60405180910390f35b3480156103a357600080fd5b506103be60048036038101906103b99190613f2d565b611f20565b005b3480156103cc57600080fd5b506103e760048036038101906103e2919061454d565b6122b6565b005b3480156103f557600080fd5b506103fe612412565b60405161040b91906145bc565b60405180910390f35b34801561042057600080fd5b5061043b600480360381019061043691906145d7565b612438565b005b34801561044957600080fd5b50610452612725565b60405161045f9190614348565b60405180910390f35b34801561047457600080fd5b5061047d612732565b005b34801561048b57600080fd5b506104a660048036038101906104a19190613f2d565b612746565b6040516104b391906146af565b60405180910390f35b3480156104c857600080fd5b506104e360048036038101906104de91906146d1565b6128e0565b005b3480156104f157600080fd5b506104fa612b70565b6040516105079190614348565b60405180910390f35b34801561051c57600080fd5b50610525612b7a565b6040516105329190614731565b60405180910390f35b34801561054757600080fd5b50610562600480360381019061055d919061474c565b612ba3565b60405161056f9190614348565b60405180910390f35b34801561058457600080fd5b5061059f600480360381019061059a9190613f2d565b6130da565b005b3480156105ad57600080fd5b506105c860048036038101906105c39190614911565b6130ec565b6040516105d591906145bc565b60405180910390f35b3480156105ea57600080fd5b50610605600480360381019061060091906140db565b613135565b604051610615949392919061495a565b60405180910390f35b34801561062a57600080fd5b5061064560048036038101906106409190613f2d565b613228565b60405161065897969594939291906149ee565b60405180910390f35b34801561066d57600080fd5b5061068860048036038101906106839190613f2d565b6133a7565b005b34801561069657600080fd5b506106b160048036038101906106ac9190613f2d565b61371b565b6040516106be9190614b1d565b60405180910390f35b3480156106d357600080fd5b506106ee60048036038101906106e99190614b3f565b61391b565b005b3480156106fc57600080fd5b506107056139d6565b6040516107129190614348565b60405180910390f35b34801561072757600080fd5b50610742600480360381019061073d91906140db565b6139dc565b005b34801561075057600080fd5b5061076b600480360381019061076691906143bc565b613a62565b60405161077c959493929190614b7b565b60405180910390f35b34801561079157600080fd5b5061079a613bf0565b6040516107a79190614348565b60405180910390f35b600781815481106107c057600080fd5b90600052602060002090600502016000915090508060000154908060010160009054906101000a900473ffffffffffffffffffffffffffffffffffffffff169080600201805461080f90614c0b565b80601f016020809104026020016040519081016040528092919081815260200182805461083b90614c0b565b80156108885780601f1061085d57610100808354040283529160200191610888565b820191906000526020600020905b81548152906001019060200180831161086b57829003601f168201915b5050505050908060030154908060040160009054906101000a900460ff16905085565b6108b3613d98565b600560008373ffffffffffffffffffffffffffffffffffffffff1673ffffffffffffffffffffffffffffffffffffffff16815260200190815260200160002060405180608001604052908160008201805461090d90614c0b565b80601f016020809104026020016040519081016040528092919081815260200182805461093990614c0b565b80156109865780601f1061095b57610100808354040283529160200191610986565b820191906000526020600020905b81548152906001019060200180831161096957829003601f168201915b505050505081526020016001820160009054906101000a900461ffff1661ffff1661ffff1681526020016001820160029054906101000a900473ffffffffffffffffffffffffffffffffffffffff1673ffffffffffffffffffffffffffffffffffffffff1673ffffffffffffffffffffffffffffffffffffffff1681526020016001820160169054906101000a900460ff1615151515815250509050919050565b610a2f613bf6565b60006002600083815260200190815260200160002090508060000160009054906101000a900473ffffffffffffffffffffffffffffffffffffffff1673ffffffffffffffffffffffffffffffffffffffff163373ffffffffffffffffffffffffffffffffffffffff1614610ad8576040517f08c379a0000000000000000000000000000000000000000000000000000000008152600401610acf90614c88565b60405180910390fd5b60006002811115610aec57610aeb61440b565b5b8160050160009054906101000a900460ff166002811115610b1057610b0f61440b565b5b14610b50576040517f08c379a0000000000000000000000000000000000000000000000000000000008152600401610b4790614cf4565b60405180910390fd5b60008060005b8360060154811015610c255760016002811115610b7657610b7561440b565b5b60046000878152602001908152602001600020600083815260200190815260200160002060030160009054906101000a900460ff166002811115610bbd57610bbc61440b565b5b03610c185760046000868152602001908152602001600020600082815260200190815260200160002060030160019054906101000a900461ffff1661ffff1683610c079190614d43565b92508180610c1490614d77565b9250505b8080600101915050610b56565b5060008111610c69576040517f08c379a0000000000000000000000000000000000000000000000000000000008152600401610c6090614e0b565b60405180910390fd5b6127108214610cad576040517f08c379a0000000000000000000000000000000000000000000000000000000008152600401610ca490614e9d565b60405180910390fd5b60018360050160006101000a81548160ff02191690836002811115610cd557610cd461440b565b5b02179055506000612710600960009054906101000a900461ffff1661ffff168560010154610d039190614ebd565b610d0d9190614f2e565b90506000818560010154610d219190614f5f565b90506000821115610dfc576000600960029054906101000a900473ffffffffffffffffffffffffffffffffffffffff1673ffffffffffffffffffffffffffffffffffffffff1683604051610d7490614fc4565b60006040518083038185875af1925050503d8060008114610db1576040519150601f19603f3d011682016040523d82523d6000602084013e610db6565b606091505b5050905080610dfa576040517f08c379a0000000000000000000000000000000000000000000000000000000008152600401610df190615025565b60405180910390fd5b505b600080600090505b86600601548110156113cc576000600460008a81526020019081526020016000206000838152602001908152602001600020905060016002811115610e4c57610e4b61440b565b5b8160030160009054906101000a900460ff166002811115610e7057610e6f61440b565b5b14610e7b57506113bf565b60006127108260030160019054906101000a900461ffff1661ffff1686610ea29190614ebd565b610eac9190614f2e565b905060008103610ebd5750506113bf565b6000600560008460000160009054906101000a900473ffffffffffffffffffffffffffffffffffffffff1673ffffffffffffffffffffffffffffffffffffffff1673ffffffffffffffffffffffffffffffffffffffff168152602001908152602001600020905060006127108260010160009054906101000a900461ffff1661ffff1684610f4b9190614ebd565b610f559190614f2e565b905060008184610f659190614f5f565b905060008111156110425760008560000160009054906101000a900473ffffffffffffffffffffffffffffffffffffffff1673ffffffffffffffffffffffffffffffffffffffff1682604051610fba90614fc4565b60006040518083038185875af1925050503d8060008114610ff7576040519150601f19603f3d011682016040523d82523d6000602084013e610ffc565b606091505b5050905080611040576040517f08c379a000000000000000000000000000000000000000000000000000000000815260040161103790615091565b60405180910390fd5b505b60008211156113ab5760006006846000016040516110609190615154565b908152602001604051809103902060009054906101000a900473ffffffffffffffffffffffffffffffffffffffff169050600073ffffffffffffffffffffffffffffffffffffffff168173ffffffffffffffffffffffffffffffffffffffff16146111775760008173ffffffffffffffffffffffffffffffffffffffff16846040516110eb90614fc4565b60006040518083038185875af1925050503d8060008114611128576040519150601f19603f3d011682016040523d82523d6000602084013e61112d565b606091505b5050905080611171576040517f08c379a0000000000000000000000000000000000000000000000000000000008152600401611168906151b7565b60405180910390fd5b506113a9565b6000600780549050905060076040518060a001604052808681526020018960000160009054906101000a900473ffffffffffffffffffffffffffffffffffffffff1673ffffffffffffffffffffffffffffffffffffffff1681526020018760000180546111e390614c0b565b80601f016020809104026020016040519081016040528092919081815260200182805461120f90614c0b565b801561125c5780601f106112315761010080835404028352916020019161125c565b820191906000526020600020905b81548152906001019060200180831161123f57829003601f168201915b505050505081526020014281526020016000151581525090806001815401808255809150506001900390600052602060002090600502016000909190919091506000820151816000015560208201518160010160006101000a81548173ffffffffffffffffffffffffffffffffffffffff021916908373ffffffffffffffffffffffffffffffffffffffff1602179055506040820151816002019081611302919061536e565b506060820151816003015560808201518160040160006101000a81548160ff02191690831515021790555050508660000160009054906101000a900473ffffffffffffffffffffffffffffffffffffffff1673ffffffffffffffffffffffffffffffffffffffff16817ff3dfba99b7fa142bf424d500b3d5fa25d30f8874511b7f3a64d7a8d8a24015ac876000018760405161139f9291906154c4565b60405180910390a3505b505b83876113b79190614d43565b965050505050505b8080600101915050610e04565b50867f8cebe0364fa3be34dd31d9de1e49c6f5ac7577378174d6b32c217cbc70f34374826040516113fd9190614348565b60405180910390a2505050505050611413613c3c565b50565b600960009054906101000a900461ffff1681565b600080341161146e576040517f08c379a000000000000000000000000000000000000000000000000000000000815260040161146590615540565b60405180910390fd5b600086869050116114b4576040517f08c379a00000000000000000000000000000000000000000000000000000000081526004016114ab906155ac565b60405180910390fd5b600084849050116114fa576040517f08c379a00000000000000000000000000000000000000000000000000000000081526004016114f190615618565b60405180910390fd5b42821161153c576040517f08c379a000000000000000000000000000000000000000000000000000000000815260040161153390615684565b60405180910390fd5b60006003600081548092919061155190614d77565b9190505590506040518060e001604052803373ffffffffffffffffffffffffffffffffffffffff16815260200134815260200188888080601f016020809104026020016040519081016040528093929190818152602001838380828437600081840152601f19601f82011690508083019250505050505050815260200186868080601f016020809104026020016040519081016040528093929190818152602001838380828437600081840152601f19601f820116905080830192505050505050508152602001848152602001600060028111156116325761163161440b565b5b815260200160008152506002600083815260200190815260200160002060008201518160000160006101000a81548173ffffffffffffffffffffffffffffffffffffffff021916908373ffffffffffffffffffffffffffffffffffffffff1602179055506020820151816001015560408201518160020190816116b5919061536e565b5060608201518160030190816116cb919061536e565b506080820151816004015560a08201518160050160006101000a81548160ff021916908360028111156117015761170061440b565b5b021790555060c082015181600601559050503373ffffffffffffffffffffffffffffffffffffffff16817faa830c985894057f0d100743defcad006f0a1abc40d080c9a23acc9a81106849348a8a60405161175e939291906156d1565b60405180910390a38091505095945050505050565b61177b613bf6565b60078054905081106117c2576040517f08c379a00000000000000000000000000000000000000000000000000000000081526004016117b99061574f565b60405180910390fd5b6000600782815481106117d8576117d761576f565b5b906000526020600020906005020190508060040160009054906101000a900460ff161561183a576040517f08c379a0000000000000000000000000000000000000000000000000000000008152600401611831906157ea565b60405180910390fd5b600060068260020160405161184f9190615154565b908152602001604051809103902060009054906101000a900473ffffffffffffffffffffffffffffffffffffffff169050600073ffffffffffffffffffffffffffffffffffffffff168173ffffffffffffffffffffffffffffffffffffffff16036118ef576040517f08c379a00000000000000000000000000000000000000000000000000000000081526004016118e69061587c565b60405180910390fd5b6000826000015490506000836000018190555060018360040160006101000a81548160ff02191690831515021790555060008273ffffffffffffffffffffffffffffffffffffffff168260405161194590614fc4565b60006040518083038185875af1925050503d8060008114611982576040519150601f19603f3d011682016040523d82523d6000602084013e611987565b606091505b50509050806119cb576040517f08c379a00000000000000000000000000000000000000000000000000000000081526004016119c2906158e8565b60405180910390fd5b8273ffffffffffffffffffffffffffffffffffffffff16857f264b84d6bb26c82423cfcb91b4220efaba80e38b8ea7a87b58a80fcaf095691284604051611a129190614348565b60405180910390a350505050611a26613c3c565b50565b611a31613c45565b6103e88161ffff161115611a7a576040517f08c379a0000000000000000000000000000000000000000000000000000000008152600401611a7190615954565b60405180910390fd5b80600960006101000a81548161ffff021916908361ffff16021790555050565b60006002600084815260200190815260200160002090508060000160009054906101000a900473ffffffffffffffffffffffffffffffffffffffff1673ffffffffffffffffffffffffffffffffffffffff163373ffffffffffffffffffffffffffffffffffffffff1614611b43576040517f08c379a0000000000000000000000000000000000000000000000000000000008152600401611b3a906159c0565b60405180910390fd5b60006002811115611b5757611b5661440b565b5b8160050160009054906101000a900460ff166002811115611b7b57611b7a61440b565b5b14611bbb576040517f08c379a0000000000000000000000000000000000000000000000000000000008152600401611bb290614cf4565b60405180910390fd5b80600601548210611c01576040517f08c379a0000000000000000000000000000000000000000000000000000000008152600401611bf890615a2c565b60405180910390fd5b6000600460008581526020019081526020016000206000848152602001908152602001600020905060006002811115611c3d57611c3c61440b565b5b8160030160009054906101000a900460ff166002811115611c6157611c6061440b565b5b14611ca1576040517f08c379a0000000000000000000000000000000000000000000000000000000008152600401611c9890615a98565b60405180910390fd5b60028160030160006101000a81548160ff02191690836002811115611cc957611cc861440b565b5b0217905550837f621ea19c1c391f183740fbd3d1b9f99b02a5726390a86366e23d2e729899bac184604051611cfe9190614348565b60405180910390a250505050565b611d14613ddc565b6004600084815260200190815260200160002060008381526020019081526020016000206040518060a00160405290816000820160009054906101000a900473ffffffffffffffffffffffffffffffffffffffff1673ffffffffffffffffffffffffffffffffffffffff1673ffffffffffffffffffffffffffffffffffffffff168152602001600182018054611da990614c0b565b80601f0160208091040260200160405190810160405280929190818152602001828054611dd590614c0b565b8015611e225780601f10611df757610100808354040283529160200191611e22565b820191906000526020600020905b815481529060010190602001808311611e0557829003601f168201915b50505050508152602001600282018054611e3b90614c0b565b80601f0160208091040260200160405190810160405280929190818152602001828054611e6790614c0b565b8015611eb45780601f10611e8957610100808354040283529160200191611eb4565b820191906000526020600020905b815481529060010190602001808311611e9757829003601f168201915b505050505081526020016003820160009054906101000a900460ff166002811115611ee257611ee161440b565b5b6002811115611ef457611ef361440b565b5b81526020016003820160019054906101000a900461ffff1661ffff1661ffff1681525050905092915050565b611f28613bf6565b6007805490508110611f6f576040517f08c379a0000000000000000000000000000000000000000000000000000000008152600401611f669061574f565b60405180910390fd5b600060078281548110611f8557611f8461576f565b5b906000526020600020906005020190508060040160009054906101000a900460ff1615611fe7576040517f08c379a0000000000000000000000000000000000000000000000000000000008152600401611fde906157ea565b60405180910390fd5b8060010160009054906101000a900473ffffffffffffffffffffffffffffffffffffffff1673ffffffffffffffffffffffffffffffffffffffff163373ffffffffffffffffffffffffffffffffffffffff1614612079576040517f08c379a000000000000000000000000000000000000000000000000000000000815260040161207090615b04565b60405180910390fd5b600854816003015461208b9190614d43565b4210156120cd576040517f08c379a00000000000000000000000000000000000000000000000000000000081526004016120c490615b70565b60405180910390fd5b600073ffffffffffffffffffffffffffffffffffffffff166006826002016040516120f89190615154565b908152602001604051809103902060009054906101000a900473ffffffffffffffffffffffffffffffffffffffff1673ffffffffffffffffffffffffffffffffffffffff161461217d576040517f08c379a000000000000000000000000000000000000000000000000000000000815260040161217490615c02565b60405180910390fd5b6000816000015490506000826000018190555060018260040160006101000a81548160ff02191690831515021790555060003373ffffffffffffffffffffffffffffffffffffffff16826040516121d390614fc4565b60006040518083038185875af1925050503d8060008114612210576040519150601f19603f3d011682016040523d82523d6000602084013e612215565b606091505b5050905080612259576040517f08c379a000000000000000000000000000000000000000000000000000000000815260040161225090615c6e565b60405180910390fd5b3373ffffffffffffffffffffffffffffffffffffffff16847fd8edbf57d0b48888b6382178c02e40585a009d26e3b9cec26123b7572a38a34b846040516122a09190614348565b60405180910390a35050506122b3613c3c565b50565b6122be613c45565b60008383905011612304576040517f08c379a00000000000000000000000000000000000000000000000000000000081526004016122fb90615cda565b60405180910390fd5b600073ffffffffffffffffffffffffffffffffffffffff168173ffffffffffffffffffffffffffffffffffffffff1603612373576040517f08c379a000000000000000000000000000000000000000000000000000000000815260040161236a90615d46565b60405180910390fd5b8060068484604051612386929190615d8b565b908152602001604051809103902060006101000a81548173ffffffffffffffffffffffffffffffffffffffff021916908373ffffffffffffffffffffffffffffffffffffffff1602179055507fc5ec352c9f47aabf14e60792158a4ff9ddf3c74c52ab50e2bf9b5f9fa68cdd9e83838360405161240593929190615df9565b60405180910390a1505050565b600960029054906101000a900473ffffffffffffffffffffffffffffffffffffffff1681565b60006002600085815260200190815260200160002090508060000160009054906101000a900473ffffffffffffffffffffffffffffffffffffffff1673ffffffffffffffffffffffffffffffffffffffff163373ffffffffffffffffffffffffffffffffffffffff16146124e1576040517f08c379a00000000000000000000000000000000000000000000000000000000081526004016124d890615e77565b60405180910390fd5b600060028111156124f5576124f461440b565b5b8160050160009054906101000a900460ff1660028111156125195761251861440b565b5b14612559576040517f08c379a000000000000000000000000000000000000000000000000000000000815260040161255090614cf4565b60405180910390fd5b8060060154831061259f576040517f08c379a000000000000000000000000000000000000000000000000000000000815260040161259690615a2c565b60405180910390fd5b60006004600086815260200190815260200160002060008581526020019081526020016000209050600060028111156125db576125da61440b565b5b8160030160009054906101000a900460ff1660028111156125ff576125fe61440b565b5b1461263f576040517f08c379a000000000000000000000000000000000000000000000000000000000815260040161263690615a98565b60405180910390fd5b60008361ffff1611801561265957506127108361ffff1611155b612698576040517f08c379a000000000000000000000000000000000000000000000000000000000815260040161268f90615ee3565b60405180910390fd5b60018160030160006101000a81548160ff021916908360028111156126c0576126bf61440b565b5b0217905550828160030160016101000a81548161ffff021916908361ffff160217905550847f6a40df006eed64e4ef1101fad4a98474571d4a8f883db17a17768f8cd2629fe38585604051612716929190615f03565b60405180910390a25050505050565b6000600780549050905090565b61273a613c45565b6127446000613ccc565b565b61274e613e37565b6007805490508210612795576040517f08c379a000000000000000000000000000000000000000000000000000000000815260040161278c9061574f565b60405180910390fd5b600782815481106127a9576127a861576f565b5b90600052602060002090600502016040518060a0016040529081600082015481526020016001820160009054906101000a900473ffffffffffffffffffffffffffffffffffffffff1673ffffffffffffffffffffffffffffffffffffffff1673ffffffffffffffffffffffffffffffffffffffff16815260200160028201805461283290614c0b565b80601f016020809104026020016040519081016040528092919081815260200182805461285e90614c0b565b80156128ab5780601f10612880576101008083540402835291602001916128ab565b820191906000526020600020905b81548152906001019060200180831161288e57829003601f168201915b50505050508152602001600382015481526020016004820160009054906101000a900460ff1615151515815250509050919050565b60008383905011612926576040517f08c379a000000000000000000000000000000000000000000000000000000000815260040161291d90615f78565b60405180910390fd5b6127108161ffff16111561296f576040517f08c379a000000000000000000000000000000000000000000000000000000000815260040161296690615fe4565b60405180910390fd5b600060068484604051612983929190615d8b565b908152602001604051809103902060009054906101000a900473ffffffffffffffffffffffffffffffffffffffff169050604051806080016040528085858080601f016020809104026020016040519081016040528093929190818152602001838380828437600081840152601f19601f8201169050808301925050505050505081526020018361ffff1681526020018273ffffffffffffffffffffffffffffffffffffffff16815260200160011515815250600560003373ffffffffffffffffffffffffffffffffffffffff1673ffffffffffffffffffffffffffffffffffffffff1681526020019081526020016000206000820151816000019081612a8a919061536e565b5060208201518160010160006101000a81548161ffff021916908361ffff16021790555060408201518160010160026101000a81548173ffffffffffffffffffffffffffffffffffffffff021916908373ffffffffffffffffffffffffffffffffffffffff16021790555060608201518160010160166101000a81548160ff0219169083151502179055509050503373ffffffffffffffffffffffffffffffffffffffff167f58f2326aff0feea69b09c6917f7a10e6901fe11ac31b655095fc012b713efd0b858585604051612b6293929190616004565b60405180910390a250505050565b6000600354905090565b60008060009054906101000a900473ffffffffffffffffffffffffffffffffffffffff16905090565b600080600260008881526020019081526020016000209050600073ffffffffffffffffffffffffffffffffffffffff168160000160009054906101000a900473ffffffffffffffffffffffffffffffffffffffff1673ffffffffffffffffffffffffffffffffffffffff1603612c4e576040517f08c379a0000000000000000000000000000000000000000000000000000000008152600401612c4590616082565b60405180910390fd5b60006002811115612c6257612c6161440b565b5b8160050160009054906101000a900460ff166002811115612c8657612c8561440b565b5b14612cc6576040517f08c379a0000000000000000000000000000000000000000000000000000000008152600401612cbd90614cf4565b60405180910390fd5b600560003373ffffffffffffffffffffffffffffffffffffffff1673ffffffffffffffffffffffffffffffffffffffff16815260200190815260200160002060010160169054906101000a900460ff16612d55576040517f08c379a0000000000000000000000000000000000000000000000000000000008152600401612d4c906160ee565b60405180910390fd5b60008686905011612d9b576040517f08c379a0000000000000000000000000000000000000000000000000000000008152600401612d929061615a565b60405180910390fd5b60008484905011612de1576040517f08c379a0000000000000000000000000000000000000000000000000000000008152600401612dd8906161c6565b60405180910390fd5b60005b8160060154811015612e91578686604051612e0092919061620b565b6040518091039020600460008a81526020019081526020016000206000838152602001908152602001600020600101604051612e3c91906162bc565b604051809103902003612e84576040517f08c379a0000000000000000000000000000000000000000000000000000000008152600401612e7b90616345565b60405180910390fd5b8080600101915050612de4565b506000816006016000815480929190612ea990614d77565b9190505590506040518060a001604052803373ffffffffffffffffffffffffffffffffffffffff16815260200188888080601f016020809104026020016040519081016040528093929190818152602001838380828437600081840152601f19601f82011690508083019250505050505050815260200186868080601f016020809104026020016040519081016040528093929190818152602001838380828437600081840152601f19601f82011690508083019250505050505050815260200160006002811115612f7e57612f7d61440b565b5b8152602001600061ffff16815250600460008a8152602001908152602001600020600083815260200190815260200160002060008201518160000160006101000a81548173ffffffffffffffffffffffffffffffffffffffff021916908373ffffffffffffffffffffffffffffffffffffffff160217905550602082015181600101908161300c919061536e565b506040820151816002019081613022919061536e565b5060608201518160030160006101000a81548160ff0219169083600281111561304e5761304d61440b565b5b021790555060808201518160030160016101000a81548161ffff021916908361ffff1602179055509050503373ffffffffffffffffffffffffffffffffffffffff16887fbee96127fc856f54721f3e15c7d0f27a7947ed6c05f35a313ef16b5ae6653a83838a8a6040516130c4939291906156d1565b60405180910390a3809250505095945050505050565b6130e2613c45565b8060088190555050565b6006818051602081018201805184825260208301602085012081835280955050505050506000915054906101000a900473ffffffffffffffffffffffffffffffffffffffff1681565b600560205280600052604060002060009150905080600001805461315890614c0b565b80601f016020809104026020016040519081016040528092919081815260200182805461318490614c0b565b80156131d15780601f106131a6576101008083540402835291602001916131d1565b820191906000526020600020905b8154815290600101906020018083116131b457829003601f168201915b5050505050908060010160009054906101000a900461ffff16908060010160029054906101000a900473ffffffffffffffffffffffffffffffffffffffff16908060010160169054906101000a900460ff16905084565b60026020528060005260406000206000915090508060000160009054906101000a900473ffffffffffffffffffffffffffffffffffffffff169080600101549080600201805461327790614c0b565b80601f01602080910402602001604051908101604052809291908181526020018280546132a390614c0b565b80156132f05780601f106132c5576101008083540402835291602001916132f0565b820191906000526020600020905b8154815290600101906020018083116132d357829003601f168201915b50505050509080600301805461330590614c0b565b80601f016020809104026020016040519081016040528092919081815260200182805461333190614c0b565b801561337e5780601f106133535761010080835404028352916020019161337e565b820191906000526020600020905b81548152906001019060200180831161336157829003601f168201915b5050505050908060040154908060050160009054906101000a900460ff16908060060154905087565b6133af613bf6565b60006002600083815260200190815260200160002090508060000160009054906101000a900473ffffffffffffffffffffffffffffffffffffffff1673ffffffffffffffffffffffffffffffffffffffff163373ffffffffffffffffffffffffffffffffffffffff1614613458576040517f08c379a000000000000000000000000000000000000000000000000000000000815260040161344f906163b1565b60405180910390fd5b6000600281111561346c5761346b61440b565b5b8160050160009054906101000a900460ff1660028111156134905761348f61440b565b5b146134d0576040517f08c379a00000000000000000000000000000000000000000000000000000000081526004016134c790614cf4565b60405180910390fd5b8060040154421015613517576040517f08c379a000000000000000000000000000000000000000000000000000000000815260040161350e9061641d565b60405180910390fd5b60005b81600601548110156135ce576001600281111561353a5761353961440b565b5b60046000858152602001908152602001600020600083815260200190815260200160002060030160009054906101000a900460ff1660028111156135815761358061440b565b5b036135c1576040517f08c379a00000000000000000000000000000000000000000000000000000000081526004016135b8906164af565b60405180910390fd5b808060010191505061351a565b5060028160050160006101000a81548160ff021916908360028111156135f7576135f661440b565b5b021790555060008160010154905060008260000160009054906101000a900473ffffffffffffffffffffffffffffffffffffffff1673ffffffffffffffffffffffffffffffffffffffff168260405161364f90614fc4565b60006040518083038185875af1925050503d806000811461368c576040519150601f19603f3d011682016040523d82523d6000602084013e613691565b606091505b50509050806136d5576040517f08c379a00000000000000000000000000000000000000000000000000000000081526004016136cc9061651b565b60405180910390fd5b837f4fe522caf12f0adba1b0532093b34bea60fc859fb838ae075b44bcd15fcde9ff836040516137059190614348565b60405180910390a2505050613718613c3c565b50565b613723613e7e565b600260008381526020019081526020016000206040518060e00160405290816000820160009054906101000a900473ffffffffffffffffffffffffffffffffffffffff1673ffffffffffffffffffffffffffffffffffffffff1673ffffffffffffffffffffffffffffffffffffffff168152602001600182015481526020016002820180546137b190614c0b565b80601f01602080910402602001604051908101604052809291908181526020018280546137dd90614c0b565b801561382a5780601f106137ff5761010080835404028352916020019161382a565b820191906000526020600020905b81548152906001019060200180831161380d57829003601f168201915b5050505050815260200160038201805461384390614c0b565b80601f016020809104026020016040519081016040528092919081815260200182805461386f90614c0b565b80156138bc5780601f10613891576101008083540402835291602001916138bc565b820191906000526020600020905b81548152906001019060200180831161389f57829003601f168201915b50505050508152602001600482015481526020016005820160009054906101000a900460ff1660028111156138f4576138f361440b565b5b60028111156139065761390561440b565b5b81526020016006820154815250509050919050565b613923613c45565b600073ffffffffffffffffffffffffffffffffffffffff168173ffffffffffffffffffffffffffffffffffffffff1603613992576040517f08c379a000000000000000000000000000000000000000000000000000000000815260040161398990616587565b60405180910390fd5b80600960026101000a81548173ffffffffffffffffffffffffffffffffffffffff021916908373ffffffffffffffffffffffffffffffffffffffff16021790555050565b60085481565b6139e4613c45565b600073ffffffffffffffffffffffffffffffffffffffff168173ffffffffffffffffffffffffffffffffffffffff1603613a565760006040517f1e4fbdf7000000000000000000000000000000000000000000000000000000008152600401613a4d9190614731565b60405180910390fd5b613a5f81613ccc565b50565b6004602052816000526040600020602052806000526040600020600091509150508060000160009054906101000a900473ffffffffffffffffffffffffffffffffffffffff1690806001018054613ab890614c0b565b80601f0160208091040260200160405190810160405280929190818152602001828054613ae490614c0b565b8015613b315780601f10613b0657610100808354040283529160200191613b31565b820191906000526020600020905b815481529060010190602001808311613b1457829003601f168201915b505050505090806002018054613b4690614c0b565b80601f0160208091040260200160405190810160405280929190818152602001828054613b7290614c0b565b8015613bbf5780601f10613b9457610100808354040283529160200191613bbf565b820191906000526020600020905b815481529060010190602001808311613ba257829003601f168201915b5050505050908060030160009054906101000a900460ff16908060030160019054906101000a900461ffff16905085565b60035481565b600260015403613c32576040517f3ee5aeb500000000000000000000000000000000000000000000000000000000815260040160405180910390fd5b6002600181905550565b60018081905550565b613c4d613d90565b73ffffffffffffffffffffffffffffffffffffffff16613c6b612b7a565b73ffffffffffffffffffffffffffffffffffffffff1614613cca57613c8e613d90565b6040517f118cdaa7000000000000000000000000000000000000000000000000000000008152600401613cc19190614731565b60405180910390fd5b565b60008060009054906101000a900473ffffffffffffffffffffffffffffffffffffffff169050816000806101000a81548173ffffffffffffffffffffffffffffffffffffffff021916908373ffffffffffffffffffffffffffffffffffffffff1602179055508173ffffffffffffffffffffffffffffffffffffffff168173ffffffffffffffffffffffffffffffffffffffff167f8be0079c531659141344cd1fd0a4f28419497f9722a3daafe3b4186f6b6457e060405160405180910390a35050565b600033905090565b604051806080016040528060608152602001600061ffff168152602001600073ffffffffffffffffffffffffffffffffffffffff1681526020016000151581525090565b6040518060a00160405280600073ffffffffffffffffffffffffffffffffffffffff168152602001606081526020016060815260200160006002811115613e2657613e2561440b565b5b8152602001600061ffff1681525090565b6040518060a0016040528060008152602001600073ffffffffffffffffffffffffffffffffffffffff16815260200160608152602001600081526020016000151581525090565b6040518060e00160405280600073ffffffffffffffffffffffffffffffffffffffff1681526020016000815260200160608152602001606081526020016000815260200160006002811115613ed657613ed561440b565b5b8152602001600081525090565b6000604051905090565b600080fd5b600080fd5b6000819050919050565b613f0a81613ef7565b8114613f1557600080fd5b50565b600081359050613f2781613f01565b92915050565b600060208284031215613f4357613f42613eed565b5b6000613f5184828501613f18565b91505092915050565b613f6381613ef7565b82525050565b600073ffffffffffffffffffffffffffffffffffffffff82169050919050565b6000613f9482613f69565b9050919050565b613fa481613f89565b82525050565b600081519050919050565b600082825260208201905092915050565b60005b83811015613fe4578082015181840152602081019050613fc9565b60008484015250505050565b6000601f19601f8301169050919050565b600061400c82613faa565b6140168185613fb5565b9350614026818560208601613fc6565b61402f81613ff0565b840191505092915050565b60008115159050919050565b61404f8161403a565b82525050565b600060a08201905061406a6000830188613f5a565b6140776020830187613f9b565b81810360408301526140898186614001565b90506140986060830185613f5a565b6140a56080830184614046565b9695505050505050565b6140b881613f89565b81146140c357600080fd5b50565b6000813590506140d5816140af565b92915050565b6000602082840312156140f1576140f0613eed565b5b60006140ff848285016140c6565b91505092915050565b600082825260208201905092915050565b600061412482613faa565b61412e8185614108565b935061413e818560208601613fc6565b61414781613ff0565b840191505092915050565b600061ffff82169050919050565b61416981614152565b82525050565b600061417a82613f69565b9050919050565b61418a8161416f565b82525050565b6141998161403a565b82525050565b600060808301600083015184820360008601526141bc8282614119565b91505060208301516141d16020860182614160565b5060408301516141e46040860182614181565b5060608301516141f76060860182614190565b508091505092915050565b6000602082019050818103600083015261421c818461419f565b905092915050565b61422d81614152565b82525050565b60006020820190506142486000830184614224565b92915050565b600080fd5b600080fd5b600080fd5b60008083601f8401126142735761427261424e565b5b8235905067ffffffffffffffff8111156142905761428f614253565b5b6020830191508360018202830111156142ac576142ab614258565b5b9250929050565b6000806000806000606086880312156142cf576142ce613eed565b5b600086013567ffffffffffffffff8111156142ed576142ec613ef2565b5b6142f98882890161425d565b9550955050602086013567ffffffffffffffff81111561431c5761431b613ef2565b5b6143288882890161425d565b9350935050604061433b88828901613f18565b9150509295509295909350565b600060208201905061435d6000830184613f5a565b92915050565b61436c81614152565b811461437757600080fd5b50565b60008135905061438981614363565b92915050565b6000602082840312156143a5576143a4613eed565b5b60006143b38482850161437a565b91505092915050565b600080604083850312156143d3576143d2613eed565b5b60006143e185828601613f18565b92505060206143f285828601613f18565b9150509250929050565b61440581613f89565b82525050565b7f4e487b7100000000000000000000000000000000000000000000000000000000600052602160045260246000fd5b6003811061444b5761444a61440b565b5b50565b600081905061445c8261443a565b919050565b600061446c8261444e565b9050919050565b61447c81614461565b82525050565b600060a08301600083015161449a60008601826143fc565b50602083015184820360208601526144b28282614119565b915050604083015184820360408601526144cc8282614119565b91505060608301516144e16060860182614473565b5060808301516144f46080860182614160565b508091505092915050565b600060208201905081810360008301526145198184614482565b905092915050565b61452a8161416f565b811461453557600080fd5b50565b60008135905061454781614521565b92915050565b60008060006040848603121561456657614565613eed565b5b600084013567ffffffffffffffff81111561458457614583613ef2565b5b6145908682870161425d565b935093505060206145a386828701614538565b9150509250925092565b6145b68161416f565b82525050565b60006020820190506145d160008301846145ad565b92915050565b6000806000606084860312156145f0576145ef613eed565b5b60006145fe86828701613f18565b935050602061460f86828701613f18565b92505060406146208682870161437a565b9150509250925092565b61463381613ef7565b82525050565b600060a083016000830151614651600086018261462a565b50602083015161466460208601826143fc565b506040830151848203604086015261467c8282614119565b9150506060830151614691606086018261462a565b5060808301516146a46080860182614190565b508091505092915050565b600060208201905081810360008301526146c98184614639565b905092915050565b6000806000604084860312156146ea576146e9613eed565b5b600084013567ffffffffffffffff81111561470857614707613ef2565b5b6147148682870161425d565b935093505060206147278682870161437a565b9150509250925092565b60006020820190506147466000830184613f9b565b92915050565b60008060008060006060868803121561476857614767613eed565b5b600061477688828901613f18565b955050602086013567ffffffffffffffff81111561479757614796613ef2565b5b6147a38882890161425d565b9450945050604086013567ffffffffffffffff8111156147c6576147c5613ef2565b5b6147d28882890161425d565b92509250509295509295909350565b600080fd5b7f4e487b7100000000000000000000000000000000000000000000000000000000600052604160045260246000fd5b61481e82613ff0565b810181811067ffffffffffffffff8211171561483d5761483c6147e6565b5b80604052505050565b6000614850613ee3565b905061485c8282614815565b919050565b600067ffffffffffffffff82111561487c5761487b6147e6565b5b61488582613ff0565b9050602081019050919050565b82818337600083830152505050565b60006148b46148af84614861565b614846565b9050828152602081018484840111156148d0576148cf6147e1565b5b6148db848285614892565b509392505050565b600082601f8301126148f8576148f761424e565b5b81356149088482602086016148a1565b91505092915050565b60006020828403121561492757614926613eed565b5b600082013567ffffffffffffffff81111561494557614944613ef2565b5b614951848285016148e3565b91505092915050565b600060808201905081810360008301526149748187614001565b90506149836020830186614224565b61499060408301856145ad565b61499d6060830184614046565b95945050505050565b600381106149b7576149b661440b565b5b50565b60008190506149c8826149a6565b919050565b60006149d8826149ba565b9050919050565b6149e8816149cd565b82525050565b600060e082019050614a03600083018a613f9b565b614a106020830189613f5a565b8181036040830152614a228188614001565b90508181036060830152614a368187614001565b9050614a456080830186613f5a565b614a5260a08301856149df565b614a5f60c0830184613f5a565b98975050505050505050565b614a74816149cd565b82525050565b600060e083016000830151614a9260008601826143fc565b506020830151614aa5602086018261462a565b5060408301518482036040860152614abd8282614119565b91505060608301518482036060860152614ad78282614119565b9150506080830151614aec608086018261462a565b5060a0830151614aff60a0860182614a6b565b5060c0830151614b1260c086018261462a565b508091505092915050565b60006020820190508181036000830152614b378184614a7a565b905092915050565b600060208284031215614b5557614b54613eed565b5b6000614b6384828501614538565b91505092915050565b614b7581614461565b82525050565b600060a082019050614b906000830188613f9b565b8181036020830152614ba28187614001565b90508181036040830152614bb68186614001565b9050614bc56060830185614b6c565b614bd26080830184614224565b9695505050505050565b7f4e487b7100000000000000000000000000000000000000000000000000000000600052602260045260246000fd5b60006002820490506001821680614c2357607f821691505b602082108103614c3657614c35614bdc565b5b50919050565b7f4f6e6c792066756e6465722063616e2066696e616c697a650000000000000000600082015250565b6000614c72601883613fb5565b9150614c7d82614c3c565b602082019050919050565b60006020820190508181036000830152614ca181614c65565b9050919050565b7f426f756e7479206e6f74206f70656e0000000000000000000000000000000000600082015250565b6000614cde600f83613fb5565b9150614ce982614ca8565b602082019050919050565b60006020820190508181036000830152614d0d81614cd1565b9050919050565b7f4e487b7100000000000000000000000000000000000000000000000000000000600052601160045260246000fd5b6000614d4e82613ef7565b9150614d5983613ef7565b9250828201905080821115614d7157614d70614d14565b5b92915050565b6000614d8282613ef7565b91507fffffffffffffffffffffffffffffffffffffffffffffffffffffffffffffffff8203614db457614db3614d14565b5b600182019050919050565b7f4e6f20617070726f76656420636c61696d730000000000000000000000000000600082015250565b6000614df5601283613fb5565b9150614e0082614dbf565b602082019050919050565b60006020820190508181036000830152614e2481614de8565b9050919050565b7f417070726f76656420736861726573206d7573742073756d20746f203130303060008201527f3000000000000000000000000000000000000000000000000000000000000000602082015250565b6000614e87602183613fb5565b9150614e9282614e2b565b604082019050919050565b60006020820190508181036000830152614eb681614e7a565b9050919050565b6000614ec882613ef7565b9150614ed383613ef7565b9250828202614ee181613ef7565b91508282048414831517614ef857614ef7614d14565b5b5092915050565b7f4e487b7100000000000000000000000000000000000000000000000000000000600052601260045260246000fd5b6000614f3982613ef7565b9150614f4483613ef7565b925082614f5457614f53614eff565b5b828204905092915050565b6000614f6a82613ef7565b9150614f7583613ef7565b9250828203905081811115614f8d57614f8c614d14565b5b92915050565b600081905092915050565b50565b6000614fae600083614f93565b9150614fb982614f9e565b600082019050919050565b6000614fcf82614fa1565b9150819050919050565b7f466565207472616e73666572206661696c656400000000000000000000000000600082015250565b600061500f601383613fb5565b915061501a82614fd9565b602082019050919050565b6000602082019050818103600083015261503e81615002565b9050919050565b7f536369656e74697374207061796d656e74206661696c65640000000000000000600082015250565b600061507b601883613fb5565b915061508682615045565b602082019050919050565b600060208201905081810360008301526150aa8161506e565b9050919050565b600081905092915050565b60008190508160005260206000209050919050565b600081546150de81614c0b565b6150e881866150b1565b9450600182166000811461510357600181146151185761514b565b60ff198316865281151582028601935061514b565b615121856150bc565b60005b8381101561514357815481890152600182019150602081019050615124565b838801955050505b50505092915050565b600061516082846150d1565b915081905092915050565b7f496e737469747574696f6e207061796d656e74206661696c6564000000000000600082015250565b60006151a1601a83613fb5565b91506151ac8261516b565b602082019050919050565b600060208201905081810360008301526151d081615194565b9050919050565b60006020601f8301049050919050565b600082821b905092915050565b6000600883026152247fffffffffffffffffffffffffffffffffffffffffffffffffffffffffffffffff826151e7565b61522e86836151e7565b95508019841693508086168417925050509392505050565b6000819050919050565b600061526b61526661526184613ef7565b615246565b613ef7565b9050919050565b6000819050919050565b61528583615250565b61529961529182615272565b8484546151f4565b825550505050565b600090565b6152ae6152a1565b6152b981848461527c565b505050565b5b818110156152dd576152d26000826152a6565b6001810190506152bf565b5050565b601f821115615322576152f3816150bc565b6152fc846151d7565b8101602085101561530b578190505b61531f615317856151d7565b8301826152be565b50505b505050565b600082821c905092915050565b600061534560001984600802615327565b1980831691505092915050565b600061535e8383615334565b9150826002028217905092915050565b61537782613faa565b67ffffffffffffffff8111156153905761538f6147e6565b5b61539a8254614c0b565b6153a58282856152e1565b600060209050601f8311600181146153d857600084156153c6578287015190505b6153d08582615352565b865550615438565b601f1984166153e6866150bc565b60005b8281101561540e578489015182556001820191506020850194506020810190506153e9565b8683101561542b5784890151615427601f891682615334565b8355505b6001600288020188555050505b505050505050565b6000815461544d81614c0b565b6154578186613fb5565b945060018216600081146154725760018114615488576154bb565b60ff1983168652811515602002860193506154bb565b615491856150bc565b60005b838110156154b357815481890152600182019150602081019050615494565b808801955050505b50505092915050565b600060408201905081810360008301526154de8185615440565b90506154ed6020830184613f5a565b9392505050565b7f4d757374206c6f636b2045544800000000000000000000000000000000000000600082015250565b600061552a600d83613fb5565b9150615535826154f4565b602082019050919050565b600060208201905081810360008301526155598161551d565b9050919050565b7f4469736561736520746167207265717569726564000000000000000000000000600082015250565b6000615596601483613fb5565b91506155a182615560565b602082019050919050565b600060208201905081810360008301526155c581615589565b9050919050565b7f4372697465726961207265717569726564000000000000000000000000000000600082015250565b6000615602601183613fb5565b915061560d826155cc565b602082019050919050565b60006020820190508181036000830152615631816155f5565b9050919050565b7f446561646c696e65206d75737420626520696e20667574757265000000000000600082015250565b600061566e601a83613fb5565b915061567982615638565b602082019050919050565b6000602082019050818103600083015261569d81615661565b9050919050565b60006156b08385613fb5565b93506156bd838584614892565b6156c683613ff0565b840190509392505050565b60006040820190506156e66000830186613f5a565b81810360208301526156f98184866156a4565b9050949350505050565b7f496e76616c696420657363726f77204944000000000000000000000000000000600082015250565b6000615739601183613fb5565b915061574482615703565b602082019050919050565b600060208201905081810360008301526157688161572c565b9050919050565b7f4e487b7100000000000000000000000000000000000000000000000000000000600052603260045260246000fd5b7f416c726561647920636c61696d65640000000000000000000000000000000000600082015250565b60006157d4600f83613fb5565b91506157df8261579e565b602082019050919050565b60006020820190508181036000830152615803816157c7565b9050919050565b7f496e737469747574696f6e2077616c6c6574206e6f742072656769737465726560008201527f6400000000000000000000000000000000000000000000000000000000000000602082015250565b6000615866602183613fb5565b91506158718261580a565b604082019050919050565b6000602082019050818103600083015261589581615859565b9050919050565b7f457363726f77207472616e73666572206661696c656400000000000000000000600082015250565b60006158d2601683613fb5565b91506158dd8261589c565b602082019050919050565b60006020820190508181036000830152615901816158c5565b9050919050565b7f4d61782031302500000000000000000000000000000000000000000000000000600082015250565b600061593e600783613fb5565b915061594982615908565b602082019050919050565b6000602082019050818103600083015261596d81615931565b9050919050565b7f4f6e6c792066756e6465722063616e2072656a65637400000000000000000000600082015250565b60006159aa601683613fb5565b91506159b582615974565b602082019050919050565b600060208201905081810360008301526159d98161599d565b9050919050565b7f496e76616c696420636c61696d20696e64657800000000000000000000000000600082015250565b6000615a16601383613fb5565b9150615a21826159e0565b602082019050919050565b60006020820190508181036000830152615a4581615a09565b9050919050565b7f436c61696d206e6f742070656e64696e67000000000000000000000000000000600082015250565b6000615a82601183613fb5565b9150615a8d82615a4c565b602082019050919050565b60006020820190508181036000830152615ab181615a75565b9050919050565b7f4f6e6c7920736369656e746973742063616e2077697468647261770000000000600082015250565b6000615aee601b83613fb5565b9150615af982615ab8565b602082019050919050565b60006020820190508181036000830152615b1d81615ae1565b9050919050565b7f457363726f7720706572696f64206e6f7420656c617073656400000000000000600082015250565b6000615b5a601983613fb5565b9150615b6582615b24565b602082019050919050565b60006020820190508181036000830152615b8981615b4d565b9050919050565b7f496e737469747574696f6e2077616c6c65742072656769737465726564202d2060008201527f75736520636c61696d457363726f770000000000000000000000000000000000602082015250565b6000615bec602f83613fb5565b9150615bf782615b90565b604082019050919050565b60006020820190508181036000830152615c1b81615bdf565b9050919050565b7f5769746864726177616c206661696c6564000000000000000000000000000000600082015250565b6000615c58601183613fb5565b9150615c6382615c22565b602082019050919050565b60006020820190508181036000830152615c8781615c4b565b9050919050565b7f4e616d6520726571756972656400000000000000000000000000000000000000600082015250565b6000615cc4600d83613fb5565b9150615ccf82615c8e565b602082019050919050565b60006020820190508181036000830152615cf381615cb7565b9050919050565b7f496e76616c69642077616c6c6574000000000000000000000000000000000000600082015250565b6000615d30600e83613fb5565b9150615d3b82615cfa565b602082019050919050565b60006020820190508181036000830152615d5f81615d23565b9050919050565b6000615d7283856150b1565b9350615d7f838584614892565b82840190509392505050565b6000615d98828486615d66565b91508190509392505050565b6000615dbf615dba615db584613f69565b615246565b613f69565b9050919050565b6000615dd182615da4565b9050919050565b6000615de382615dc6565b9050919050565b615df381615dd8565b82525050565b60006040820190508181036000830152615e148185876156a4565b9050615e236020830184615dea565b949350505050565b7f4f6e6c792066756e6465722063616e20617070726f7665000000000000000000600082015250565b6000615e61601783613fb5565b9150615e6c82615e2b565b602082019050919050565b60006020820190508181036000830152615e9081615e54565b9050919050565b7f496e76616c696420736861726500000000000000000000000000000000000000600082015250565b6000615ecd600d83613fb5565b9150615ed882615e97565b602082019050919050565b60006020820190508181036000830152615efc81615ec0565b9050919050565b6000604082019050615f186000830185613f5a565b615f256020830184614224565b9392505050565b7f496e737469747574696f6e206e616d6520726571756972656400000000000000600082015250565b6000615f62601983613fb5565b9150615f6d82615f2c565b602082019050919050565b60006020820190508181036000830152615f9181615f55565b9050919050565b7f53706c6974206578636565647320313030250000000000000000000000000000600082015250565b6000615fce601283613fb5565b9150615fd982615f98565b602082019050919050565b60006020820190508181036000830152615ffd81615fc1565b9050919050565b6000604082019050818103600083015261601f8185876156a4565b905061602e6020830184614224565b949350505050565b7f426f756e747920646f6573206e6f742065786973740000000000000000000000600082015250565b600061606c601583613fb5565b915061607782616036565b602082019050919050565b6000602082019050818103600083015261609b8161605f565b9050919050565b7f4d75737420726567697374657220617320736369656e74697374206669727374600082015250565b60006160d8602083613fb5565b91506160e3826160a2565b602082019050919050565b60006020820190508181036000830152616107816160cb565b9050919050565b7f524f204944207265717569726564000000000000000000000000000000000000600082015250565b6000616144600e83613fb5565b915061614f8261610e565b602082019050919050565b6000602082019050818103600083015261617381616137565b9050919050565b7f4a757374696669636174696f6e20726571756972656400000000000000000000600082015250565b60006161b0601683613fb5565b91506161bb8261617a565b602082019050919050565b600060208201905081810360008301526161df816161a3565b9050919050565b60006161f28385614f93565b93506161ff838584614892565b82840190509392505050565b60006162188284866161e6565b91508190509392505050565b60008190508160005260206000209050919050565b6000815461624681614c0b565b6162508186614f93565b9450600182166000811461626b5760018114616280576162b3565b60ff19831686528115158202860193506162b3565b61628985616224565b60005b838110156162ab5781548189015260018201915060208101905061628c565b838801955050505b50505092915050565b60006162c88284616239565b915081905092915050565b7f524f20616c726561647920636c61696d6564206f6e207468697320626f756e7460008201527f7900000000000000000000000000000000000000000000000000000000000000602082015250565b600061632f602183613fb5565b915061633a826162d3565b604082019050919050565b6000602082019050818103600083015261635e81616322565b9050919050565b7f4f6e6c792066756e6465722063616e2063616e63656c00000000000000000000600082015250565b600061639b601683613fb5565b91506163a682616365565b602082019050919050565b600060208201905081810360008301526163ca8161638e565b9050919050565b7f43616e6e6f742063616e63656c206265666f726520646561646c696e65000000600082015250565b6000616407601d83613fb5565b9150616412826163d1565b602082019050919050565b60006020820190508181036000830152616436816163fa565b9050919050565b7f43616e6e6f742063616e63656c207769746820617070726f76656420636c616960008201527f6d73000000000000000000000000000000000000000000000000000000000000602082015250565b6000616499602283613fb5565b91506164a48261643d565b604082019050919050565b600060208201905081810360008301526164c88161648c565b9050919050565b7f526566756e64206661696c656400000000000000000000000000000000000000600082015250565b6000616505600d83613fb5565b9150616510826164cf565b602082019050919050565b60006020820190508181036000830152616534816164f8565b9050919050565b7f496e76616c696420747265617375727900000000000000000000000000000000600082015250565b6000616571601083613fb5565b915061657c8261653b565b602082019050919050565b600060208201905081810360008301526165a081616564565b905091905056fea26469706673582212201e8aabf1bab50630292df3dd3448e13775f5bc4b848ee6eb6f37fed27cf9f44664736f6c634300081c0033",
  "linkReferences": {},
  "deployedLinkReferences": {}
}