{"contracts/CWTreasury.sol":{"CWTreasury":{"abi":[{"inputs":[{"internalType":"address","name":"founderWallet","type":"address"}],"stateMutability":"nonpayable","type":"constructor"},{"inputs":[{"internalType":"address","name":"owner","type":"address"}],"name":"OwnableInvalidOwner","type":"error"},{"inputs":[{"internalType":"address","name":"account","type":"address"}],"name":"OwnableUnauthorizedAccount","type":"error"},{"anonymous":false,"inputs":[{"indexed":false,"internalType":"uint256","name":"total","type":"uint256"}],"name":"Distributed","type":"event"},{"anonymous":false,"inputs":[{"indexed":true,"internalType":"address","name":"previousOwner","type":"address"},{"indexed":true,"internalType":"address","name":"newOwner","type":"address"}],"name":"OwnershipTransferred","type":"event"},{"anonymous":false,"inputs":[],"name":"RecipientsUpdated","type":"event"},{"inputs":[],"name":"distribute","outputs":[],"stateMutability":"nonpayable","type":"function"},{"inputs":[],"name":"owner","outputs":[{"internalType":"address","name":"","type":"address"}],"stateMutability":"view","type":"function"},{"inputs":[],"name":"recipientCount","outputs":[{"internalType":"uint256","name":"","type":"uint256"}],"stateMutability":"view","type":"function"},{"inputs":[{"internalType":"uint256","name":"","type":"uint256"}],"name":"recipients","outputs":[{"internalType":"address payable","name":"wallet","type":"address"},{"internalType":"uint16","name":"bps","type":"uint16"}],"stateMutability":"view","type":"function"},{"inputs":[],"name":"renounceOwnership","outputs":[],"stateMutability":"nonpayable","type":"function"},{"inputs":[{"components":[{"internalType":"address payable","name":"wallet","type":"address"},{"internalType":"uint16","name":"bps","type":"uint16"}],"internalType":"struct CWTreasury.Recipient[]","name":"_recipients","type":"tuple[]"}],"name":"setRecipients","outputs":[],"stateMutability":"nonpayable","type":"function"},{"inputs":[{"internalType":"address","name":"newOwner","type":"address"}],"name":"transferOwnership","outputs":[],"stateMutability":"nonpayable","type":"function"},{"stateMutability":"payable","type":"receive"}],"evm":{"bytecode":{"linkReferences":{},"object":"608060405234801561001057600080fd5b5060405161096d38038061096d83398101604081905261002f916101aa565b806001600160a01b03811661005e57604051631e4fbdf760e01b81526000600482015260240160405180910390fd5b6100678161015a565b506040805180820182526001600160a01b039283168082526111946020808401828152600180548082018255600082815296517fb10e2d527612073b26eecdfd717e6a320cf44b4afac2b0732d9fcbe2b7fa0cf691820180549451918b166001600160b01b031995861617600160a01b61ffff9384168102919091179091558951808b018b5288815280870197885284548086018655858b52905190840180549851918d16988716989098179083168202179096558851808a019099529588526103e8938801938452815480830183559190965295519590940180549151959096169316929092179216021790556101da565b600080546001600160a01b038381166001600160a01b0319831681178455604051919092169283917f8be0079c531659141344cd1fd0a4f28419497f9722a3daafe3b4186f6b6457e09190a35050565b6000602082840312156101bc57600080fd5b81516001600160a01b03811681146101d357600080fd5b9392505050565b610784806101e96000396000f3fe6080604052600436106100745760003560e01c8063c1426d0e1161004e578063c1426d0e146100e2578063d1bc76a114610102578063e4fc6b6d14610144578063f2fde38b1461015957600080fd5b806322eabb8e14610080578063715018a6146100a35780638da5cb5b146100ba57600080fd5b3661007b57005b600080fd5b34801561008c57600080fd5b506001546040519081526020015b60405180910390f35b3480156100af57600080fd5b506100b8610179565b005b3480156100c657600080fd5b506000546040516001600160a01b03909116815260200161009a565b3480156100ee57600080fd5b506100b86100fd366004610579565b61018d565b34801561010e57600080fd5b5061012261011d3660046105f0565b6102c2565b604080516001600160a01b03909316835261ffff90911660208301520161009a565b34801561015057600080fd5b506100b86102f8565b34801561016557600080fd5b506100b861017436600461061e565b610482565b6101816104c0565b61018b60006104ed565b565b6101956104c0565b6000805b828110156101df578383828181106101b3576101b3610642565b90506040020160200160208101906101cb9190610668565b6101d5908361069b565b9150600101610199565b508061ffff16612710146102325760405162461bcd60e51b81526020600482015260156024820152744d7573742073756d20746f2031303030302062707360581b60448201526064015b60405180910390fd5b61023e6001600061053d565b60005b8281101561029357600184848381811061025d5761025d610642565b8354600181018555600094855260209094206040909102929092019291909101905061028982826106bb565b5050600101610241565b506040517ffe5aef2d5039cc39e0fd84b8d27c87e4c9a26afd5536199c456b29ad08d73d2d90600090a1505050565b600181815481106102d257600080fd5b6000918252602090912001546001600160a01b0381169150600160a01b900461ffff1682565b478061033e5760405162461bcd60e51b81526020600482015260156024820152744e6f7468696e6720746f206469737472696275746560581b6044820152606401610229565b60005b60015481101561044b5760006127106001838154811061036357610363610642565b60009182526020909120015461038490600160a01b900461ffff1685610715565b61038e919061072c565b90506000600183815481106103a5576103a5610642565b60009182526020822001546040516001600160a01b039091169184919081818185875af1925050503d80600081146103f9576040519150601f19603f3d011682016040523d82523d6000602084013e6103fe565b606091505b50509050806104415760405162461bcd60e51b815260206004820152600f60248201526e151c985b9cd9995c8819985a5b1959608a1b6044820152606401610229565b5050600101610341565b506040518181527fddc9c30275a04c48091f24199f9c405765de34d979d6847f5b9798a57232d2e59060200160405180910390a150565b61048a6104c0565b6001600160a01b0381166104b457604051631e4fbdf760e01b815260006004820152602401610229565b6104bd816104ed565b50565b6000546001600160a01b0316331461018b5760405163118cdaa760e01b8152336004820152602401610229565b600080546001600160a01b038381166001600160a01b0319831681178455604051919092169283917f8be0079c531659141344cd1fd0a4f28419497f9722a3daafe3b4186f6b6457e09190a35050565b50805460008255906000526020600020908101906104bd91905b808211156105755780546001600160b01b0319168155600101610557565b5090565b6000806020838503121561058c57600080fd5b823567ffffffffffffffff8111156105a357600080fd5b8301601f810185136105b457600080fd5b803567ffffffffffffffff8111156105cb57600080fd5b8560208260061b84010111156105e057600080fd5b6020919091019590945092505050565b60006020828403121561060257600080fd5b5035919050565b6001600160a01b03811681146104bd57600080fd5b60006020828403121561063057600080fd5b813561063b81610609565b9392505050565b634e487b7160e01b600052603260045260246000fd5b61ffff811681146104bd57600080fd5b60006020828403121561067a57600080fd5b813561063b81610658565b634e487b7160e01b600052601160045260246000fd5b61ffff81811683821601908111156106b5576106b5610685565b92915050565b81356106c681610609565b81546001600160a01b031981166001600160a01b0392909216918217835560208401356106f281610658565b6001600160b01b03199190911690911760a09190911b61ffff60a01b1617905550565b80820281158282048414176106b5576106b5610685565b60008261074957634e487b7160e01b600052601260045260246000fd5b50049056fea2646970667358221220135711275c9bb358a6a2e262c2b9099641a850efc417fea79787332eb4fdebcc64736f6c634300081c0033","opcodes":"PUSH1 0x80 PUSH1 0x40 MSTORE CALLVALUE DUP1 ISZERO PUSH2 0x10 JUMPI PUSH1 0x0 DUP1 REVERT JUMPDEST POP PUSH1 0x40 MLOAD PUSH2 0x96D CODESIZE SUB DUP1 PUSH2 0x96D DUP4 CODECOPY DUP2 ADD PUSH1 0x40 DUP2 SWAP1 MSTORE PUSH2 0x2F SWAP2 PUSH2 0x1AA JUMP JUMPDEST DUP1 PUSH1 0x1 PUSH1 0x1 PUSH1 0xA0 SHL SUB DUP2 AND PUSH2 0x5E JUMPI PUSH1 0x40 MLOAD PUSH4 0x1E4FBDF7 PUSH1 0xE0 SHL DUP2 MSTORE PUSH1 0x0 PUSH1 0x4 DUP3 ADD MSTORE PUSH1 0x24 ADD PUSH1 0x40 MLOAD DUP1 SWAP2 SUB SWAP1 REVERT JUMPDEST PUSH2 0x67 DUP2 PUSH2 0x15A JUMP JUMPDEST POP PUSH1 0x40 DUP1 MLOAD DUP1 DUP3 ADD DUP3 MSTORE PUSH1 0x1 PUSH1 0x1 PUSH1 0xA0 SHL SUB SWAP3 DUP4 AND DUP1 DUP3 MSTORE PUSH2 0x1194 PUSH1 0x20 DUP1 DUP5 ADD DUP3 DUP2 MSTORE PUSH1 0x1 DUP1 SLOAD DUP1 DUP3 ADD DUP3 SSTORE PUSH1 0x0 DUP3 DUP2 MSTORE SWAP7 MLOAD PUSH32 0xB10E2D527612073B26EECDFD717E6A320CF44B4AFAC2B0732D9FCBE2B7FA0CF6 SWAP2 DUP3 ADD DUP1 SLOAD SWAP5 MLOAD SWAP2 DUP12 AND PUSH1 0x1 PUSH1 0x1 PUSH1 0xB0 SHL SUB NOT SWAP6 DUP7 AND OR PUSH1 0x1 PUSH1 0xA0 SHL PUSH2 0xFFFF SWAP4 DUP5 AND DUP2 MUL SWAP2 SWAP1 SWAP2 OR SWAP1 SWAP2 SSTORE DUP10 MLOAD DUP1 DUP12 ADD DUP12 MSTORE DUP9 DUP2 MSTORE DUP1 DUP8 ADD SWAP8 DUP9 MSTORE DUP5 SLOAD DUP1 DUP7 ADD DUP7 SSTORE DUP6 DUP12 MSTORE SWAP1 MLOAD SWAP1 DUP5 ADD DUP1 SLOAD SWAP9 MLOAD SWAP2 DUP14 AND SWAP9 DUP8 AND SWAP9 SWAP1 SWAP9 OR SWAP1 DUP4 AND DUP3 MUL OR SWAP1 SWAP7 SSTORE DUP9 MLOAD DUP1 DUP11 ADD SWAP1 SWAP10 MSTORE SWAP6 DUP9 MSTORE PUSH2 0x3E8 SWAP4 DUP9 ADD SWAP4 DUP5 MSTORE DUP2 SLOAD DUP1 DUP4 ADD DUP4 SSTORE SWAP2 SWAP1 SWAP7 MSTORE SWAP6 MLOAD SWAP6 SWAP1 SWAP5 ADD DUP1 SLOAD SWAP2 MLOAD SWAP6 SWAP1 SWAP7 AND SWAP4 AND SWAP3 SWAP1 SWAP3 OR SWAP3 AND MUL OR SWAP1 SSTORE PUSH2 0x1DA JUMP JUMPDEST PUSH1 0x0 DUP1 SLOAD PUSH1 0x1 PUSH1 0x1 PUSH1 0xA0 SHL SUB DUP4 DUP2 AND PUSH1 0x1 PUSH1 0x1 PUSH1 0xA0 SHL SUB NOT DUP4 AND DUP2 OR DUP5 SSTORE PUSH1 0x40 MLOAD SWAP2 SWAP1 SWAP3 AND SWAP3 DUP4 SWAP2 PUSH32 0x8BE0079C531659141344CD1FD0A4F28419497F9722A3DAAFE3B4186F6B6457E0 SWAP2 SWAP1 LOG3 POP POP JUMP JUMPDEST PUSH1 0x0 PUSH1 0x20 DUP3 DUP5 SUB SLT ISZERO PUSH2 0x1BC JUMPI PUSH1 0x0 DUP1 REVERT JUMPDEST DUP2 MLOAD PUSH1 0x1 PUSH1 0x1 PUSH1 0xA0 SHL SUB DUP2 AND DUP2 EQ PUSH2 0x1D3 JUMPI PUSH1 0x0 DUP1 REVERT JUMPDEST SWAP4 SWAP3 POP POP POP JUMP JUMPDEST PUSH2 0x784 DUP1 PUSH2 0x1E9 PUSH1 0x0 CODECOPY PUSH1 0x0 RETURN INVALID PUSH1 0x80 PUSH1 0x40 MSTORE PUSH1 0x4 CALLDATASIZE LT PUSH2 0x74 JUMPI PUSH1 0x0 CALLDATALOAD PUSH1 0xE0 SHR DUP1 PUSH4 0xC1426D0E GT PUSH2 0x4E JUMPI DUP1 PUSH4 0xC1426D0E EQ PUSH2 0xE2 JUMPI DUP1 PUSH4 0xD1BC76A1 EQ PUSH2 0x102 JUMPI DUP1 PUSH4 0xE4FC6B6D EQ PUSH2 0x144 JUMPI DUP1 PUSH4 0xF2FDE38B EQ PUSH2 0x159 JUMPI PUSH1 0x0 DUP1 REVERT JUMPDEST DUP1 PUSH4 0x22EABB8E EQ PUSH2 0x80 JUMPI DUP1 PUSH4 0x715018A6 EQ PUSH2 0xA3 JUMPI DUP1 PUSH4 0x8DA5CB5B EQ PUSH2 0xBA JUMPI PUSH1 0x0 DUP1 REVERT JUMPDEST CALLDATASIZE PUSH2 0x7B JUMPI STOP JUMPDEST PUSH1 0x0 DUP1 REVERT JUMPDEST CALLVALUE DUP1 ISZERO PUSH2 0x8C JUMPI PUSH1 0x0 DUP1 REVERT JUMPDEST POP PUSH1 0x1 SLOAD PUSH1 0x40 MLOAD SWAP1 DUP2 MSTORE PUSH1 0x20 ADD JUMPDEST PUSH1 0x40 MLOAD DUP1 SWAP2 SUB SWAP1 RETURN JUMPDEST CALLVALUE DUP1 ISZERO PUSH2 0xAF JUMPI PUSH1 0x0 DUP1 REVERT JUMPDEST POP PUSH2 0xB8 PUSH2 0x179 JUMP JUMPDEST STOP JUMPDEST CALLVALUE DUP1 ISZERO PUSH2 0xC6 JUMPI PUSH1 0x0 DUP1 REVERT JUMPDEST POP PUSH1 0x0 SLOAD PUSH1 0x40 MLOAD PUSH1 0x1 PUSH1 0x1 PUSH1 0xA0 SHL SUB SWAP1 SWAP2 AND DUP2 MSTORE PUSH1 0x20 ADD PUSH2 0x9A JUMP JUMPDEST CALLVALUE DUP1 ISZERO PUSH2 0xEE JUMPI PUSH1 0x0 DUP1 REVERT JUMPDEST POP PUSH2 0xB8 PUSH2 0xFD CALLDATASIZE PUSH1 0x4 PUSH2 0x579 JUMP JUMPDEST PUSH2 0x18D JUMP JUMPDEST CALLVALUE DUP1 ISZERO PUSH2 0x10E JUMPI PUSH1 0x0 DUP1 REVERT JUMPDEST POP PUSH2 0x122 PUSH2 0x11D CALLDATASIZE PUSH1 0x4 PUSH2 0x5F0 JUMP JUMPDEST PUSH2 0x2C2 JUMP JUMPDEST PUSH1 0x40 DUP1 MLOAD PUSH1 0x1 PUSH1 0x1 PUSH1 0xA0 SHL SUB SWAP1 SWAP4 AND DUP4 MSTORE PUSH2 0xFFFF SWAP1 SWAP2 AND PUSH1 0x20 DUP4 ADD MSTORE ADD PUSH2 0x9A JUMP JUMPDEST CALLVALUE DUP1 ISZERO PUSH2 0x150 JUMPI PUSH1 0x0 DUP1 REVERT JUMPDEST POP PUSH2 0xB8 PUSH2 0x2F8 JUMP JUMPDEST CALLVALUE DUP1 ISZERO PUSH2 0x165 JUMPI PUSH1 0x0 DUP1 REVERT JUMPDEST POP PUSH2 0xB8 PUSH2 0x174 CALLDATASIZE PUSH1 0x4 PUSH2 0x61E JUMP JUMPDEST PUSH2 0x482 JUMP JUMPDEST PUSH2 0x181 PUSH2 0x4C0 JUMP JUMPDEST PUSH2 0x18B PUSH1 0x0 PUSH2 0x4ED JUMP JUMPDEST JUMP JUMPDEST PUSH2 0x195 PUSH2 0x4C0 JUMP JUMPDEST PUSH1 0x0 DUP1 JUMPDEST DUP3 DUP2 LT ISZERO PUSH2 0x1DF JUMPI DUP4 DUP4 DUP3 DUP2 DUP2 LT PUSH2 0x1B3 JUMPI PUSH2 0x1B3 PUSH2 0x642 JUMP JUMPDEST SWAP1 POP PUSH1 0x40 MUL ADD PUSH1 0x20 ADD PUSH1 0x20 DUP2 ADD SWAP1 PUSH2 0x1CB SWAP2 SWAP1 PUSH2 0x668 JUMP JUMPDEST PUSH2 0x1D5 SWAP1 DUP4 PUSH2 0x69B JUMP JUMPDEST SWAP2 POP PUSH1 0x1 ADD PUSH2 0x199 JUMP JUMPDEST POP DUP1 PUSH2 0xFFFF AND PUSH2 0x2710 EQ PUSH2 0x232 JUMPI PUSH1 0x40 MLOAD PUSH3 0x461BCD PUSH1 0xE5 SHL DUP2 MSTORE PUSH1 0x20 PUSH1 0x4 DUP3 ADD MSTORE PUSH1 0x15 PUSH1 0x24 DUP3 ADD MSTORE PUSH21 0x4D7573742073756D20746F20313030303020627073 PUSH1 0x58 SHL PUSH1 0x44 DUP3 ADD MSTORE PUSH1 0x64 ADD JUMPDEST PUSH1 0x40 MLOAD DUP1 SWAP2 SUB SWAP1 REVERT JUMPDEST PUSH2 0x23E PUSH1 0x1 PUSH1 0x0 PUSH2 0x53D JUMP JUMPDEST PUSH1 0x0 JUMPDEST DUP3 DUP2 LT ISZERO PUSH2 0x293 JUMPI PUSH1 0x1 DUP5 DUP5 DUP4 DUP2 DUP2 LT PUSH2 0x25D JUMPI PUSH2 0x25D PUSH2 0x642 JUMP JUMPDEST DUP4 SLOAD PUSH1 0x1 DUP2 ADD DUP6 SSTORE PUSH1 0x0 SWAP5 DUP6 MSTORE PUSH1 0x20 SWAP1 SWAP5 KECCAK256 PUSH1 0x40 SWAP1 SWAP2 MUL SWAP3 SWAP1 SWAP3 ADD SWAP3 SWAP2 SWAP1 SWAP2 ADD SWAP1 POP PUSH2 0x289 DUP3 DUP3 PUSH2 0x6BB JUMP JUMPDEST POP POP PUSH1 0x1 ADD PUSH2 0x241 JUMP JUMPDEST POP PUSH1 0x40 MLOAD PUSH32 0xFE5AEF2D5039CC39E0FD84B8D27C87E4C9A26AFD5536199C456B29AD08D73D2D SWAP1 PUSH1 0x0 SWAP1 LOG1 POP POP POP JUMP JUMPDEST PUSH1 0x1 DUP2 DUP2 SLOAD DUP2 LT PUSH2 0x2D2 JUMPI PUSH1 0x0 DUP1 REVERT JUMPDEST PUSH1 0x0 SWAP2 DUP3 MSTORE PUSH1 0x20 SWAP1 SWAP2 KECCAK256 ADD SLOAD PUSH1 0x1 PUSH1 0x1 PUSH1 0xA0 SHL SUB DUP2 AND SWAP2 POP PUSH1 0x1 PUSH1 0xA0 SHL SWAP1 DIV PUSH2 0xFFFF AND DUP3 JUMP JUMPDEST SELFBALANCE DUP1 PUSH2 0x33E JUMPI PUSH1 0x40 MLOAD PUSH3 0x461BCD PUSH1 0xE5 SHL DUP2 MSTORE PUSH1 0x20 PUSH1 0x4 DUP3 ADD MSTORE PUSH1 0x15 PUSH1 0x24 DUP3 ADD MSTORE PUSH21 0x4E6F7468696E6720746F2064697374726962757465 PUSH1 0x58 SHL PUSH1 0x44 DUP3 ADD MSTORE PUSH1 0x64 ADD PUSH2 0x229 JUMP JUMPDEST PUSH1 0x0 JUMPDEST PUSH1 0x1 SLOAD DUP2 LT ISZERO PUSH2 0x44B JUMPI PUSH1 0x0 PUSH2 0x2710 PUSH1 0x1 DUP4 DUP2 SLOAD DUP2 LT PUSH2 0x363 JUMPI PUSH2 0x363 PUSH2 0x642 JUMP JUMPDEST PUSH1 0x0 SWAP2 DUP3 MSTORE PUSH1 0x20 SWAP1 SWAP2 KECCAK256 ADD SLOAD PUSH2 0x384 SWAP1 PUSH1 0x1 PUSH1 0xA0 SHL SWAP1 DIV PUSH2 0xFFFF AND DUP6 PUSH2 0x715 JUMP JUMPDEST PUSH2 0x38E SWAP2 SWAP1 PUSH2 0x72C JUMP JUMPDEST SWAP1 POP PUSH1 0x0 PUSH1 0x1 DUP4 DUP2 SLOAD DUP2 LT PUSH2 0x3A5 JUMPI PUSH2 0x3A5 PUSH2 0x642 JUMP JUMPDEST PUSH1 0x0 SWAP2 DUP3 MSTORE PUSH1 0x20 DUP3 KECCAK256 ADD SLOAD PUSH1 0x40 MLOAD PUSH1 0x1 PUSH1 0x1 PUSH1 0xA0 SHL SUB SWAP1 SWAP2 AND SWAP2 DUP5 SWAP2 SWAP1 DUP2 DUP2 DUP2 DUP6 DUP8 GAS CALL SWAP3 POP POP POP RETURNDATASIZE DUP1 PUSH1 0x0 DUP2 EQ PUSH2 0x3F9 JUMPI PUSH1 0x40 MLOAD SWAP2 POP PUSH1 0x1F NOT PUSH1 0x3F RETURNDATASIZE ADD AND DUP3 ADD PUSH1 0x40 MSTORE RETURNDATASIZE DUP3 MSTORE RETURNDATASIZE PUSH1 0x0 PUSH1 0x20 DUP5 ADD RETURNDATACOPY PUSH2 0x3FE JUMP JUMPDEST PUSH1 0x60 SWAP2 POP JUMPDEST POP POP SWAP1 POP DUP1 PUSH2 0x441 JUMPI PUSH1 0x40 MLOAD PUSH3 0x461BCD PUSH1 0xE5 SHL DUP2 MSTORE PUSH1 0x20 PUSH1 0x4 DUP3 ADD MSTORE PUSH1 0xF PUSH1 0x24 DUP3 ADD MSTORE PUSH15 0x151C985B9CD9995C8819985A5B1959 PUSH1 0x8A SHL PUSH1 0x44 DUP3 ADD MSTORE PUSH1 0x64 ADD PUSH2 0x229 JUMP JUMPDEST POP POP PUSH1 0x1 ADD PUSH2 0x341 JUMP JUMPDEST POP PUSH1 0x40 MLOAD DUP2 DUP2 MSTORE PUSH32 0xDDC9C30275A04C48091F24199F9C405765DE34D979D6847F5B9798A57232D2E5 SWAP1 PUSH1 0x20 ADD PUSH1 0x40 MLOAD DUP1 SWAP2 SUB SWAP1 LOG1 POP JUMP JUMPDEST PUSH2 0x48A PUSH2 0x4C0 JUMP JUMPDEST PUSH1 0x1 PUSH1 0x1 PUSH1 0xA0 SHL SUB DUP2 AND PUSH2 0x4B4 JUMPI PUSH1 0x40 MLOAD PUSH4 0x1E4FBDF7 PUSH1 0xE0 SHL DUP2 MSTORE PUSH1 0x0 PUSH1 0x4 DUP3 ADD MSTORE PUSH1 0x24 ADD PUSH2 0x229 JUMP JUMPDEST PUSH2 0x4BD DUP2 PUSH2 0x4ED JUMP JUMPDEST POP JUMP JUMPDEST PUSH1 0x0 SLOAD PUSH1 0x1 PUSH1 0x1 PUSH1 0xA0 SHL SUB AND CALLER EQ PUSH2 0x18B JUMPI PUSH1 0x40 MLOAD PUSH4 0x118CDAA7 PUSH1 0xE0 SHL DUP2 MSTORE CALLER PUSH1 0x4 DUP3 ADD MSTORE PUSH1 0x24 ADD PUSH2 0x229 JUMP JUMPDEST PUSH1 0x0 DUP1 SLOAD PUSH1 0x1 PUSH1 0x1 PUSH1 0xA0 SHL SUB DUP4 DUP2 AND PUSH1 0x1 PUSH1 0x1 PUSH1 0xA0 SHL SUB NOT DUP4 AND DUP2 OR DUP5 SSTORE PUSH1 0x40 MLOAD SWAP2 SWAP1 SWAP3 AND SWAP3 DUP4 SWAP2 PUSH32 0x8BE0079C531659141344CD1FD0A4F28419497F9722A3DAAFE3B4186F6B6457E0 SWAP2 SWAP1 LOG3 POP POP JUMP JUMPDEST POP DUP1 SLOAD PUSH1 0x0 DUP3 SSTORE SWAP1 PUSH1 0x0 MSTORE PUSH1 0x20 PUSH1 0x0 KECCAK256 SWAP1 DUP2 ADD SWAP1 PUSH2 0x4BD SWAP2 SWAP1 JUMPDEST DUP1 DUP3 GT ISZERO PUSH2 0x575 JUMPI DUP1 SLOAD PUSH1 0x1 PUSH1 0x1 PUSH1 0xB0 SHL SUB NOT AND DUP2 SSTORE PUSH1 0x1 ADD PUSH2 0x557 JUMP JUMPDEST POP SWAP1 JUMP JUMPDEST PUSH1 0x0 DUP1 PUSH1 0x20 DUP4 DUP6 SUB SLT ISZERO PUSH2 0x58C JUMPI PUSH1 0x0 DUP1 REVERT JUMPDEST DUP3 CALLDATALOAD PUSH8 0xFFFFFFFFFFFFFFFF DUP2 GT ISZERO PUSH2 0x5A3 JUMPI PUSH1 0x0 DUP1 REVERT JUMPDEST DUP4 ADD PUSH1 0x1F DUP2 ADD DUP6 SGT PUSH2 0x5B4 JUMPI PUSH1 0x0 DUP1 REVERT JUMPDEST DUP1 CALLDATALOAD PUSH8 0xFFFFFFFFFFFFFFFF DUP2 GT ISZERO PUSH2 0x5CB JUMPI PUSH1 0x0 DUP1 REVERT JUMPDEST DUP6 PUSH1 0x20 DUP3 PUSH1 0x6 SHL DUP5 ADD ADD GT ISZERO PUSH2 0x5E0 JUMPI PUSH1 0x0 DUP1 REVERT JUMPDEST PUSH1 0x20 SWAP2 SWAP1 SWAP2 ADD SWAP6 SWAP1 SWAP5 POP SWAP3 POP POP POP JUMP JUMPDEST PUSH1 0x0 PUSH1 0x20 DUP3 DUP5 SUB SLT ISZERO PUSH2 0x602 JUMPI PUSH1 0x0 DUP1 REVERT JUMPDEST POP CALLDATALOAD SWAP2 SWAP1 POP JUMP JUMPDEST PUSH1 0x1 PUSH1 0x1 PUSH1 0xA0 SHL SUB DUP2 AND DUP2 EQ PUSH2 0x4BD JUMPI PUSH1 0x0 DUP1 REVERT JUMPDEST PUSH1 0x0 PUSH1 0x20 DUP3 DUP5 SUB SLT ISZERO PUSH2 0x630 JUMPI PUSH1 0x0 DUP1 REVERT JUMPDEST DUP2 CALLDATALOAD PUSH2 0x63B DUP2 PUSH2 0x609 JUMP JUMPDEST SWAP4 SWAP3 POP POP POP JUMP JUMPDEST PUSH4 0x4E487B71 PUSH1 0xE0 SHL PUSH1 0x0 MSTORE PUSH1 0x32 PUSH1 0x4 MSTORE PUSH1 0x24 PUSH1 0x0 REVERT JUMPDEST PUSH2 0xFFFF DUP2 AND DUP2 EQ PUSH2 0x4BD JUMPI PUSH1 0x0 DUP1 REVERT JUMPDEST PUSH1 0x0 PUSH1 0x20 DUP3 DUP5 SUB SLT ISZERO PUSH2 0x67A JUMPI PUSH1 0x0 DUP1 REVERT JUMPDEST DUP2 CALLDATALOAD PUSH2 0x63B DUP2 PUSH2 0x658 JUMP JUMPDEST PUSH4 0x4E487B71 PUSH1 0xE0 SHL PUSH1 0x0 MSTORE PUSH1 0x11 PUSH1 0x4 MSTORE PUSH1 0x24 PUSH1 0x0 REVERT JUMPDEST PUSH2 0xFFFF DUP2 DUP2 AND DUP4 DUP3 AND ADD SWAP1 DUP2 GT ISZERO PUSH2 0x6B5 JUMPI PUSH2 0x6B5 PUSH2 0x685 JUMP JUMPDEST SWAP3 SWAP2 POP POP JUMP JUMPDEST DUP2 CALLDATALOAD PUSH2 0x6C6 DUP2 PUSH2 0x609 JUMP JUMPDEST DUP2 SLOAD PUSH1 0x1 PUSH1 0x1 PUSH1 0xA0 SHL SUB NOT DUP2 AND PUSH1 0x1 PUSH1 0x1 PUSH1 0xA0 SHL SUB SWAP3 SWAP1 SWAP3 AND SWAP2 DUP3 OR DUP4 SSTORE PUSH1 0x20 DUP5 ADD CALLDATALOAD PUSH2 0x6F2 DUP2 PUSH2 0x658 JUMP JUMPDEST PUSH1 0x1 PUSH1 0x1 PUSH1 0xB0 SHL SUB NOT SWAP2 SWAP1 SWAP2 AND SWAP1 SWAP2 OR PUSH1 0xA0 SWAP2 SWAP1 SWAP2 SHL PUSH2 0xFFFF PUSH1 0xA0 SHL AND OR SWAP1 SSTORE POP JUMP JUMPDEST DUP1 DUP3 MUL DUP2 ISZERO DUP3 DUP3 DIV DUP5 EQ OR PUSH2 0x6B5 JUMPI PUSH2 0x6B5 PUSH2 0x685 JUMP JUMPDEST PUSH1 0x0 DUP3 PUSH2 0x749 JUMPI PUSH4 0x4E487B71 PUSH1 0xE0 SHL PUSH1 0x0 MSTORE PUSH1 0x12 PUSH1 0x4 MSTORE PUSH1 0x24 PUSH1 0x0 REVERT JUMPDEST POP DIV SWAP1 JUMP INVALID LOG2 PUSH5 0x6970667358 0x22 SLT KECCAK256 SGT JUMPI GT 0x27 TLOAD SWAP12 0xB3 PC 0xA6 LOG2 0xE2 PUSH3 0xC2B909 SWAP7 COINBASE 0xA8 POP 0xEF 0xC4 OR INVALID 0xA7 SWAP8 DUP8 CALLER 0x2E 0xB4 REVERT 0xEB 0xCC PUSH5 0x736F6C6343 STOP ADDMOD SHR STOP CALLER "},"methodIdentifiers":{"distribute()":"e4fc6b6d","owner()":"8da5cb5b","recipientCount()":"22eabb8e","recipients(uint256)":"d1bc76a1","renounceOwnership()":"715018a6","setRecipients((address,uint16)[])":"c1426d0e","transferOwnership(address)":"f2fde38b"}}}}}