{"contracts/CWBountyPool.sol":{"CWBountyPool":{"abi":[{"inputs":[{"internalType":"address","name":"founderWallet","type":"address"},{"internalType":"address payable","name":"_treasury","type":"address"}],"stateMutability":"nonpayable","type":"constructor"},{"inputs":[{"internalType":"address","name":"owner","type":"address"}],"name":"OwnableInvalidOwner","type":"error"},{"inputs":[{"internalType":"address","name":"account","type":"address"}],"name":"OwnableUnauthorizedAccount","type":"error"},{"inputs":[],"name":"ReentrancyGuardReentrantCall","type":"error"},{"anonymous":false,"inputs":[{"indexed":true,"internalType":"uint256","name":"bountyId","type":"uint256"},{"indexed":false,"internalType":"uint256","name":"refunded","type":"uint256"}],"name":"BountyCancelled","type":"event"},{"anonymous":false,"inputs":[{"indexed":true,"internalType":"uint256","name":"bountyId","type":"uint256"},{"indexed":true,"internalType":"address","name":"funder","type":"address"},{"indexed":false,"internalType":"uint256","name":"amount","type":"uint256"},{"indexed":false,"internalType":"string","name":"diseaseTag","type":"string"}],"name":"BountyCreated","type":"event"},{"anonymous":false,"inputs":[{"indexed":true,"internalType":"uint256","name":"bountyId","type":"uint256"},{"indexed":false,"internalType":"uint256","name":"totalPaid","type":"uint256"}],"name":"BountyFinalized","type":"event"},{"anonymous":false,"inputs":[{"indexed":true,"internalType":"uint256","name":"bountyId","type":"uint256"},{"indexed":false,"internalType":"uint256","name":"claimIndex","type":"uint256"},{"indexed":false,"internalType":"uint16","name":"shareBps","type":"uint16"}],"name":"ClaimApproved","type":"event"},{"anonymous":false,"inputs":[{"indexed":true,"internalType":"uint256","name":"bountyId","type":"uint256"},{"indexed":false,"internalType":"uint256","name":"claimIndex","type":"uint256"}],"name":"ClaimRejected","type":"event"},{"anonymous":false,"inputs":[{"indexed":true,"internalType":"uint256","name":"bountyId","type":"uint256"},{"indexed":false,"internalType":"uint256","name":"claimIndex","type":"uint256"},{"indexed":true,"internalType":"address","name":"scientist","type":"address"},{"indexed":false,"internalType":"string","name":"roId","type":"string"}],"name":"ClaimSubmitted","type":"event"},{"anonymous":false,"inputs":[{"indexed":true,"internalType":"uint256","name":"escrowId","type":"uint256"},{"indexed":true,"internalType":"address","name":"institutionWallet","type":"address"},{"indexed":false,"internalType":"uint256","name":"amount","type":"uint256"}],"name":"EscrowClaimed","type":"event"},{"anonymous":false,"inputs":[{"indexed":true,"internalType":"uint256","name":"escrowId","type":"uint256"},{"indexed":true,"internalType":"address","name":"scientist","type":"address"},{"indexed":false,"internalType":"string","name":"institutionName","type":"string"},{"indexed":false,"internalType":"uint256","name":"amount","type":"uint256"}],"name":"EscrowCreated","type":"event"},{"anonymous":false,"inputs":[{"indexed":true,"internalType":"uint256","name":"escrowId","type":"uint256"},{"indexed":true,"internalType":"address","name":"scientist","type":"address"},{"indexed":false,"internalType":"uint256","name":"amount","type":"uint256"}],"name":"EscrowExpiredWithdraw","type":"event"},{"anonymous":false,"inputs":[{"indexed":false,"internalType":"string","name":"institutionName","type":"string"},{"indexed":false,"internalType":"address","name":"wallet","type":"address"}],"name":"InstitutionWalletRegistered","type":"event"},{"anonymous":false,"inputs":[{"indexed":true,"internalType":"address","name":"previousOwner","type":"address"},{"indexed":true,"internalType":"address","name":"newOwner","type":"address"}],"name":"OwnershipTransferred","type":"event"},{"anonymous":false,"inputs":[{"indexed":true,"internalType":"address","name":"scientist","type":"address"},{"indexed":false,"internalType":"string","name":"institutionName","type":"string"},{"indexed":false,"internalType":"uint16","name":"splitBps","type":"uint16"}],"name":"ScientistRegistered","type":"event"},{"inputs":[{"internalType":"uint256","name":"bountyId","type":"uint256"},{"internalType":"uint256","name":"claimIndex","type":"uint256"},{"internalType":"uint16","name":"shareBps","type":"uint16"}],"name":"approveClaim","outputs":[],"stateMutability":"nonpayable","type":"function"},{"inputs":[{"internalType":"uint256","name":"","type":"uint256"}],"name":"bounties","outputs":[{"internalType":"address","name":"funder","type":"address"},{"internalType":"uint256","name":"amount","type":"uint256"},{"internalType":"string","name":"diseaseTag","type":"string"},{"internalType":"string","name":"criteria","type":"string"},{"internalType":"uint256","name":"deadline","type":"uint256"},{"internalType":"enum CWBountyPool.BountyStatus","name":"status","type":"uint8"},{"internalType":"uint256","name":"claimCount","type":"uint256"}],"stateMutability":"view","type":"function"},{"inputs":[{"internalType":"uint256","name":"bountyId","type":"uint256"}],"name":"cancelBounty","outputs":[],"stateMutability":"nonpayable","type":"function"},{"inputs":[{"internalType":"uint256","name":"escrowId","type":"uint256"}],"name":"claimEscrow","outputs":[],"stateMutability":"nonpayable","type":"function"},{"inputs":[{"internalType":"uint256","name":"","type":"uint256"},{"internalType":"uint256","name":"","type":"uint256"}],"name":"claims","outputs":[{"internalType":"address","name":"scientist","type":"address"},{"internalType":"string","name":"roId","type":"string"},{"internalType":"string","name":"justification","type":"string"},{"internalType":"enum CWBountyPool.ClaimStatus","name":"status","type":"uint8"},{"internalType":"uint16","name":"shareBps","type":"uint16"}],"stateMutability":"view","type":"function"},{"inputs":[{"internalType":"string","name":"diseaseTag","type":"string"},{"internalType":"string","name":"criteria","type":"string"},{"internalType":"uint256","name":"deadline","type":"uint256"}],"name":"createBounty","outputs":[{"internalType":"uint256","name":"","type":"uint256"}],"stateMutability":"payable","type":"function"},{"inputs":[],"name":"escrowCount","outputs":[{"internalType":"uint256","name":"","type":"uint256"}],"stateMutability":"view","type":"function"},{"inputs":[],"name":"escrowPeriod","outputs":[{"internalType":"uint256","name":"","type":"uint256"}],"stateMutability":"view","type":"function"},{"inputs":[{"internalType":"uint256","name":"","type":"uint256"}],"name":"escrows","outputs":[{"internalType":"uint256","name":"amount","type":"uint256"},{"internalType":"address","name":"scientist","type":"address"},{"internalType":"string","name":"institutionName","type":"string"},{"internalType":"uint256","name":"createdAt","type":"uint256"},{"internalType":"bool","name":"claimed","type":"bool"}],"stateMutability":"view","type":"function"},{"inputs":[{"internalType":"uint256","name":"bountyId","type":"uint256"}],"name":"finalizeBounty","outputs":[],"stateMutability":"nonpayable","type":"function"},{"inputs":[{"internalType":"uint256","name":"bountyId","type":"uint256"}],"name":"getBounty","outputs":[{"components":[{"internalType":"address","name":"funder","type":"address"},{"internalType":"uint256","name":"amount","type":"uint256"},{"internalType":"string","name":"diseaseTag","type":"string"},{"internalType":"string","name":"criteria","type":"string"},{"internalType":"uint256","name":"deadline","type":"uint256"},{"internalType":"enum CWBountyPool.BountyStatus","name":"status","type":"uint8"},{"internalType":"uint256","name":"claimCount","type":"uint256"}],"internalType":"struct CWBountyPool.Bounty","name":"","type":"tuple"}],"stateMutability":"view","type":"function"},{"inputs":[{"internalType":"uint256","name":"bountyId","type":"uint256"},{"internalType":"uint256","name":"claimIndex","type":"uint256"}],"name":"getClaim","outputs":[{"components":[{"internalType":"address","name":"scientist","type":"address"},{"internalType":"string","name":"roId","type":"string"},{"internalType":"string","name":"justification","type":"string"},{"internalType":"enum CWBountyPool.ClaimStatus","name":"status","type":"uint8"},{"internalType":"uint16","name":"shareBps","type":"uint16"}],"internalType":"struct CWBountyPool.Claim","name":"","type":"tuple"}],"stateMutability":"view","type":"function"},{"inputs":[{"internalType":"uint256","name":"escrowId","type":"uint256"}],"name":"getEscrow","outputs":[{"components":[{"internalType":"uint256","name":"amount","type":"uint256"},{"internalType":"address","name":"scientist","type":"address"},{"internalType":"string","name":"institutionName","type":"string"},{"internalType":"uint256","name":"createdAt","type":"uint256"},{"internalType":"bool","name":"claimed","type":"bool"}],"internalType":"struct CWBountyPool.Escrow","name":"","type":"tuple"}],"stateMutability":"view","type":"function"},{"inputs":[{"internalType":"address","name":"addr","type":"address"}],"name":"getScientist","outputs":[{"components":[{"internalType":"string","name":"institutionName","type":"string"},{"internalType":"uint16","name":"institutionSplitBps","type":"uint16"},{"internalType":"address payable","name":"institutionWallet","type":"address"},{"internalType":"bool","name":"registered","type":"bool"}],"internalType":"struct CWBountyPool.ScientistProfile","name":"","type":"tuple"}],"stateMutability":"view","type":"function"},{"inputs":[{"internalType":"string","name":"","type":"string"}],"name":"institutionWallets","outputs":[{"internalType":"address payable","name":"","type":"address"}],"stateMutability":"view","type":"function"},{"inputs":[],"name":"nextBountyId","outputs":[{"internalType":"uint256","name":"","type":"uint256"}],"stateMutability":"view","type":"function"},{"inputs":[],"name":"owner","outputs":[{"internalType":"address","name":"","type":"address"}],"stateMutability":"view","type":"function"},{"inputs":[],"name":"platformFeeBps","outputs":[{"internalType":"uint16","name":"","type":"uint16"}],"stateMutability":"view","type":"function"},{"inputs":[{"internalType":"string","name":"institutionName","type":"string"},{"internalType":"address payable","name":"wallet","type":"address"}],"name":"registerInstitutionWallet","outputs":[],"stateMutability":"nonpayable","type":"function"},{"inputs":[{"internalType":"string","name":"institutionName","type":"string"},{"internalType":"uint16","name":"institutionSplitBps","type":"uint16"}],"name":"registerScientist","outputs":[],"stateMutability":"nonpayable","type":"function"},{"inputs":[{"internalType":"uint256","name":"bountyId","type":"uint256"},{"internalType":"uint256","name":"claimIndex","type":"uint256"}],"name":"rejectClaim","outputs":[],"stateMutability":"nonpayable","type":"function"},{"inputs":[],"name":"renounceOwnership","outputs":[],"stateMutability":"nonpayable","type":"function"},{"inputs":[{"internalType":"address","name":"","type":"address"}],"name":"scientists","outputs":[{"internalType":"string","name":"institutionName","type":"string"},{"internalType":"uint16","name":"institutionSplitBps","type":"uint16"},{"internalType":"address payable","name":"institutionWallet","type":"address"},{"internalType":"bool","name":"registered","type":"bool"}],"stateMutability":"view","type":"function"},{"inputs":[{"internalType":"uint256","name":"_period","type":"uint256"}],"name":"setEscrowPeriod","outputs":[],"stateMutability":"nonpayable","type":"function"},{"inputs":[{"internalType":"uint16","name":"_bps","type":"uint16"}],"name":"setPlatformFeeBps","outputs":[],"stateMutability":"nonpayable","type":"function"},{"inputs":[{"internalType":"address payable","name":"_treasury","type":"address"}],"name":"setTreasury","outputs":[],"stateMutability":"nonpayable","type":"function"},{"inputs":[{"internalType":"uint256","name":"bountyId","type":"uint256"},{"internalType":"string","name":"roId","type":"string"},{"internalType":"string","name":"justification","type":"string"}],"name":"submitClaim","outputs":[{"internalType":"uint256","name":"","type":"uint256"}],"stateMutability":"nonpayable","type":"function"},{"inputs":[],"name":"totalBounties","outputs":[{"internalType":"uint256","name":"","type":"uint256"}],"stateMutability":"view","type":"function"},{"inputs":[{"internalType":"address","name":"newOwner","type":"address"}],"name":"transferOwnership","outputs":[],"stateMutability":"nonpayable","type":"function"},{"inputs":[],"name":"treasury","outputs":[{"internalType":"address payable","name":"","type":"address"}],"stateMutability":"view","type":"function"},{"inputs":[{"internalType":"uint256","name":"escrowId","type":"uint256"}],"name":"withdrawExpiredEscrow","outputs":[],"stateMutability":"nonpayable","type":"function"}],"evm":{"bytecode":{"linkReferences":{},"object":"60806040526301e133806008556009805461ffff191660fa17905534801561002657600080fd5b50604051613beb380380613beb8339810160408190526100459161016f565b816001600160a01b03811661007557604051631e4fbdf760e01b8152600060048201526024015b60405180910390fd5b61007e81610107565b50600180556001600160a01b0381166100d95760405162461bcd60e51b815260206004820152601760248201527f54726561737572792063616e6e6f74206265207a65726f000000000000000000604482015260640161006c565b600980546001600160a01b03909216620100000262010000600160b01b0319909216919091179055506101a9565b600080546001600160a01b038381166001600160a01b0319831681178455604051919092169283917f8be0079c531659141344cd1fd0a4f28419497f9722a3daafe3b4186f6b6457e09190a35050565b6001600160a01b038116811461016c57600080fd5b50565b6000806040838503121561018257600080fd5b825161018d81610157565b602084015190925061019e81610157565b809150509250929050565b613a33806101b86000396000f3fe6080604052600436106101d85760003560e01c80637d19e59611610102578063dc2f874411610095578063f16b51c111610064578063f16b51c1146105db578063f2fde38b146105f1578063f894160e14610611578063fd14fad41461064257600080fd5b8063dc2f87441461053b578063e5e5dff11461056e578063ee8c4bbf1461058e578063f0f44260146105bb57600080fd5b8063b13fe055116100d1578063b13fe0551461048a578063b46f08bb146104aa578063cb9e9f1d146104ca578063d8e597491461050b57600080fd5b80637d19e5961461040a57806380d2d7e51461043757806385feeb23146104575780638da5cb5b1461046c57600080fd5b80633cb749171161017a57806361d027b31161014957806361d027b31461038257806363faf2d1146103c0578063675ac67a146103e0578063715018a6146103f557600080fd5b80633cb74917146102f5578063427a2fc2146103155780635102196b146103425780635dc203231461036257600080fd5b806322dcd13e116101b657806322dcd13e146102665780632bfa7d60146102945780632ce947db146102b55780633bc1f7b3146102d557600080fd5b8063012f52ee146101dd5780631681c04c14610217578063191634c314610244575b600080fd5b3480156101e957600080fd5b506101fd6101f8366004612f02565b610658565b60405161020e959493929190612f61565b60405180910390f35b34801561022357600080fd5b50610237610232366004612fb9565b610731565b60405161020e9190612fdd565b34801561025057600080fd5b5061026461025f366004612f02565b610845565b005b34801561027257600080fd5b506009546102819061ffff1681565b60405161ffff909116815260200161020e565b6102a76102a236600461307a565b610f78565b60405190815260200161020e565b3480156102c157600080fd5b506102646102d0366004612f02565b61123a565b3480156102e157600080fd5b506102646102f036600461310a565b611457565b34801561030157600080fd5b50610264610310366004613125565b6114b7565b34801561032157600080fd5b50610335610330366004613125565b611657565b60405161020e919061317b565b34801561034e57600080fd5b5061026461035d366004612f02565b611807565b34801561036e57600080fd5b5061026461037d3660046131f6565b611ada565b34801561038e57600080fd5b506009546103a8906201000090046001600160a01b031681565b6040516001600160a01b03909116815260200161020e565b3480156103cc57600080fd5b506102646103db36600461324d565b611be7565b3480156103ec57600080fd5b506007546102a7565b34801561040157600080fd5b50610264611dfe565b34801561041657600080fd5b5061042a610425366004612f02565b611e12565b60405161020e9190613282565b34801561044357600080fd5b506102646104523660046132dc565b611f87565b34801561046357600080fd5b506003546102a7565b34801561047857600080fd5b506000546001600160a01b03166103a8565b34801561049657600080fd5b506102a76104a5366004613327565b61215d565b3480156104b657600080fd5b506102646104c5366004612f02565b612546565b3480156104d657600080fd5b506103a86104e53660046133bc565b80516020818301810180516006825292820191909301209152546001600160a01b031681565b34801561051757600080fd5b5061052b610526366004612fb9565b612553565b60405161020e9493929190613475565b34801561054757600080fd5b5061055b610556366004612f02565b612618565b60405161020e97969594939291906134b3565b34801561057a57600080fd5b50610264610589366004612f02565b612775565b34801561059a57600080fd5b506105ae6105a9366004612f02565b6129f8565b60405161020e9190613513565b3480156105c757600080fd5b506102646105d6366004612fb9565b612ba8565b3480156105e757600080fd5b506102a760085481565b3480156105fd57600080fd5b5061026461060c366004612fb9565b612c23565b34801561061d57600080fd5b5061063161062c366004613125565b612c5e565b60405161020e95949392919061359f565b34801561064e57600080fd5b506102a760035481565b6007818154811061066857600080fd5b60009182526020909120600590910201805460018201546002830180549294506001600160a01b03909116929161069e906135fb565b80601f01602080910402602001604051908101604052809291908181526020018280546106ca906135fb565b80156107175780601f106106ec57610100808354040283529160200191610717565b820191906000526020600020905b8154815290600101906020018083116106fa57829003601f168201915b50505050600383015460049093015491929160ff16905085565b6040805160808101825260608082526000602083018190529282018390528101919091526001600160a01b03821660009081526005602052604090819020815160808101909252805482908290610787906135fb565b80601f01602080910402602001604051908101604052809291908181526020018280546107b3906135fb565b80156108005780601f106107d557610100808354040283529160200191610800565b820191906000526020600020905b8154815290600101906020018083116107e357829003601f168201915b50505091835250506001919091015461ffff811660208301526201000081046001600160a01b03166040830152600160b01b900460ff16151560609091015292915050565b61084d612dbb565b600081815260026020526040902080546001600160a01b031633146108b95760405162461bcd60e51b815260206004820152601860248201527f4f6e6c792066756e6465722063616e2066696e616c697a65000000000000000060448201526064015b60405180910390fd5b6000600582015460ff1660028111156108d4576108d4613147565b146108f15760405162461bcd60e51b81526004016108b090613635565b60008060005b8360060154811015610983576001600086815260046020908152604080832085845290915290206003015460ff16600281111561093657610936613147565b0361097b57600085815260046020908152604080832084845290915290206003015461096b90610100900461ffff1684613674565b92508161097781613687565b9250505b6001016108f7565b50600081116109c95760405162461bcd60e51b81526020600482015260126024820152714e6f20617070726f76656420636c61696d7360701b60448201526064016108b0565b8161271014610a245760405162461bcd60e51b815260206004820152602160248201527f417070726f76656420736861726573206d7573742073756d20746f20313030306044820152600360fc1b60648201526084016108b0565b60058301805460ff191660019081179091556009549084015460009161271091610a529161ffff16906136a0565b610a5c91906136b7565b90506000818560010154610a7091906136d9565b90508115610b19576009546040516000916201000090046001600160a01b03169084908381818185875af1925050503d8060008114610acb576040519150601f19603f3d011682016040523d82523d6000602084013e610ad0565b606091505b5050905080610b175760405162461bcd60e51b8152602060048201526013602482015272119959481d1c985b9cd9995c8819985a5b1959606a1b60448201526064016108b0565b505b6000805b8660060154811015610f2b57600088815260046020908152604080832084845290915290206001600382015460ff166002811115610b5d57610b5d613147565b14610b685750610f23565b600381015460009061271090610b8790610100900461ffff16876136a0565b610b9191906136b7565b905080600003610ba2575050610f23565b81546001600160a01b03166000908152600560205260408120600181015490919061271090610bd59061ffff16856136a0565b610bdf91906136b7565b90506000610bed82856136d9565b90508015610c995784546040516000916001600160a01b03169083908381818185875af1925050503d8060008114610c41576040519150601f19603f3d011682016040523d82523d6000602084013e610c46565b606091505b5050905080610c975760405162461bcd60e51b815260206004820152601860248201527f536369656e74697374207061796d656e74206661696c6564000000000000000060448201526064016108b0565b505b8115610f11576000600684600001604051610cb4919061375e565b908152604051908190036020019020546001600160a01b031690508015610d7e576000816001600160a01b03168460405160006040518083038185875af1925050503d8060008114610d22576040519150601f19603f3d011682016040523d82523d6000602084013e610d27565b606091505b5050905080610d785760405162461bcd60e51b815260206004820152601a60248201527f496e737469747574696f6e207061796d656e74206661696c656400000000000060448201526064016108b0565b50610f0f565b600780546040805160a08101825286815289546001600160a01b03166020820152875492939290918201908890610db4906135fb565b80601f0160208091040260200160405190810160405280929190818152602001828054610de0906135fb565b8015610e2d5780601f10610e0257610100808354040283529160200191610e2d565b820191906000526020600020905b815481529060010190602001808311610e1057829003601f168201915b505050918352505042602080830191909152600060409283018190528454600180820187559582529082902084516005909202019081559083015193810180546001600160a01b0319166001600160a01b03909516949094179093558101519091906002820190610e9e90826137b9565b50606082015160038201556080909101516004909101805460ff191691151591909117905586546040516001600160a01b039091169082907ff3dfba99b7fa142bf424d500b3d5fa25d30f8874511b7f3a64d7a8d8a24015ac90610f059089908990613878565b60405180910390a3505b505b610f1b8488613674565b965050505050505b600101610b1d565b50867f8cebe0364fa3be34dd31d9de1e49c6f5ac7577378174d6b32c217cbc70f3437482604051610f5e91815260200190565b60405180910390a2505050505050610f7560018055565b50565b6000803411610fb95760405162461bcd60e51b815260206004820152600d60248201526c09aeae6e840d8dec6d6408aa89609b1b60448201526064016108b0565b84610ffd5760405162461bcd60e51b8152602060048201526014602482015273111a5cd9585cd9481d1859c81c995c5d5a5c995960621b60448201526064016108b0565b8261103e5760405162461bcd60e51b815260206004820152601160248201527010dc9a5d195c9a58481c995c5d5a5c9959607a1b60448201526064016108b0565b42821161108d5760405162461bcd60e51b815260206004820152601a60248201527f446561646c696e65206d75737420626520696e2066757475726500000000000060448201526064016108b0565b600380546000918261109e83613687565b9190505590506040518060e00160405280336001600160a01b0316815260200134815260200188888080601f016020809104026020016040519081016040528093929190818152602001838380828437600092019190915250505090825250604080516020601f8901819004810282018101909252878152918101919088908890819084018382808284376000920182905250938552505050602082018690526040909101908152600060209182018190528381526002808352604091829020845181546001600160a01b0319166001600160a01b03909116178155928401516001840155908301519082019061119590826137b9565b50606082015160038201906111aa90826137b9565b506080820151600482015560a082015160058201805460ff191660018360028111156111d8576111d8613147565b021790555060c08201518160060155905050336001600160a01b0316817faa830c985894057f0d100743defcad006f0a1abc40d080c9a23acc9a81106849348a8a60405161122893929190613935565b60405180910390a39695505050505050565b611242612dbb565b60075481106112635760405162461bcd60e51b81526004016108b090613958565b60006007828154811061127857611278613983565b60009182526020909120600590910201600481015490915060ff16156112d25760405162461bcd60e51b815260206004820152600f60248201526e105b1c9958591e4818db185a5b5959608a1b60448201526064016108b0565b60006006826002016040516112e7919061375e565b908152604051908190036020019020546001600160a01b03169050806113595760405162461bcd60e51b815260206004820152602160248201527f496e737469747574696f6e2077616c6c6574206e6f74207265676973746572656044820152601960fa1b60648201526084016108b0565b8154600080845560048401805460ff191660011790556040516001600160a01b0384169083908381818185875af1925050503d80600081146113b7576040519150601f19603f3d011682016040523d82523d6000602084013e6113bc565b606091505b50509050806114065760405162461bcd60e51b8152602060048201526016602482015275115cd8dc9bddc81d1c985b9cd9995c8819985a5b195960521b60448201526064016108b0565b826001600160a01b0316857f264b84d6bb26c82423cfcb91b4220efaba80e38b8ea7a87b58a80fcaf09569128460405161144291815260200190565b60405180910390a350505050610f7560018055565b61145f612de5565b6103e88161ffff16111561149f5760405162461bcd60e51b81526020600482015260076024820152664d61782031302560c81b60448201526064016108b0565b6009805461ffff191661ffff92909216919091179055565b600082815260026020526040902080546001600160a01b031633146115175760405162461bcd60e51b815260206004820152601660248201527513db9b1e48199d5b99195c8818d85b881c995a9958dd60521b60448201526064016108b0565b6000600582015460ff16600281111561153257611532613147565b1461154f5760405162461bcd60e51b81526004016108b090613635565b806006015482106115985760405162461bcd60e51b8152602060048201526013602482015272092dcecc2d8d2c840c6d8c2d2da40d2dcc8caf606b1b60448201526064016108b0565b6000838152600460209081526040808320858452909152812090600382015460ff1660028111156115cb576115cb613147565b1461160c5760405162461bcd60e51b8152602060048201526011602482015270436c61696d206e6f742070656e64696e6760781b60448201526064016108b0565b60038101805460ff1916600217905560405183815284907f621ea19c1c391f183740fbd3d1b9f99b02a5726390a86366e23d2e729899bac1906020015b60405180910390a250505050565b61165f612e62565b6000838152600460209081526040808320858452825291829020825160a0810190935280546001600160a01b0316835260018101805491928401916116a3906135fb565b80601f01602080910402602001604051908101604052809291908181526020018280546116cf906135fb565b801561171c5780601f106116f15761010080835404028352916020019161171c565b820191906000526020600020905b8154815290600101906020018083116116ff57829003601f168201915b50505050508152602001600282018054611735906135fb565b80601f0160208091040260200160405190810160405280929190818152602001828054611761906135fb565b80156117ae5780601f10611783576101008083540402835291602001916117ae565b820191906000526020600020905b81548152906001019060200180831161179157829003601f168201915b5050509183525050600382015460209091019060ff1660028111156117d5576117d5613147565b60028111156117e6576117e6613147565b815260039190910154610100900461ffff1660209091015290505b92915050565b61180f612dbb565b60075481106118305760405162461bcd60e51b81526004016108b090613958565b60006007828154811061184557611845613983565b60009182526020909120600590910201600481015490915060ff161561189f5760405162461bcd60e51b815260206004820152600f60248201526e105b1c9958591e4818db185a5b5959608a1b60448201526064016108b0565b60018101546001600160a01b031633146118fb5760405162461bcd60e51b815260206004820152601b60248201527f4f6e6c7920736369656e746973742063616e207769746864726177000000000060448201526064016108b0565b600854816003015461190d9190613674565b42101561195c5760405162461bcd60e51b815260206004820152601960248201527f457363726f7720706572696f64206e6f7420656c61707365640000000000000060448201526064016108b0565b60006001600160a01b031660068260020160405161197a919061375e565b908152604051908190036020019020546001600160a01b0316146119f85760405162461bcd60e51b815260206004820152602f60248201527f496e737469747574696f6e2077616c6c65742072656769737465726564202d2060448201526e75736520636c61696d457363726f7760881b60648201526084016108b0565b8054600080835560048301805460ff19166001179055604051339083908381818185875af1925050503d8060008114611a4d576040519150601f19603f3d011682016040523d82523d6000602084013e611a52565b606091505b5050905080611a975760405162461bcd60e51b815260206004820152601160248201527015da5d1a191c985dd85b0819985a5b1959607a1b60448201526064016108b0565b604051828152339085907fd8edbf57d0b48888b6382178c02e40585a009d26e3b9cec26123b7572a38a34b9060200160405180910390a3505050610f7560018055565b611ae2612de5565b81611b1f5760405162461bcd60e51b815260206004820152600d60248201526c13985b59481c995c5d5a5c9959609a1b60448201526064016108b0565b6001600160a01b038116611b665760405162461bcd60e51b815260206004820152600e60248201526d125b9d985b1a59081dd85b1b195d60921b60448201526064016108b0565b8060068484604051611b79929190613999565b90815260405190819003602001812080546001600160a01b03939093166001600160a01b0319909316929092179091557fc5ec352c9f47aabf14e60792158a4ff9ddf3c74c52ab50e2bf9b5f9fa68cdd9e90611bda908590859085906139a9565b60405180910390a1505050565b600083815260026020526040902080546001600160a01b03163314611c4e5760405162461bcd60e51b815260206004820152601760248201527f4f6e6c792066756e6465722063616e20617070726f766500000000000000000060448201526064016108b0565b6000600582015460ff166002811115611c6957611c69613147565b14611c865760405162461bcd60e51b81526004016108b090613635565b80600601548310611ccf5760405162461bcd60e51b8152602060048201526013602482015272092dcecc2d8d2c840c6d8c2d2da40d2dcc8caf606b1b60448201526064016108b0565b6000848152600460209081526040808320868452909152812090600382015460ff166002811115611d0257611d02613147565b14611d435760405162461bcd60e51b8152602060048201526011602482015270436c61696d206e6f742070656e64696e6760781b60448201526064016108b0565b60008361ffff16118015611d5d57506127108361ffff1611155b611d995760405162461bcd60e51b815260206004820152600d60248201526c496e76616c696420736861726560981b60448201526064016108b0565b60038101805461ffff8516610100810262ffffff199092169190911760011790915560408051868152602081019290925286917f6a40df006eed64e4ef1101fad4a98474571d4a8f883db17a17768f8cd2629fe3910160405180910390a25050505050565b611e06612de5565b611e106000612e12565b565b611e4f6040518060a001604052806000815260200160006001600160a01b0316815260200160608152602001600081526020016000151581525090565b6007548210611e705760405162461bcd60e51b81526004016108b090613958565b60078281548110611e8357611e83613983565b90600052602060002090600502016040518060a0016040529081600082015481526020016001820160009054906101000a90046001600160a01b03166001600160a01b03166001600160a01b03168152602001600282018054611ee5906135fb565b80601f0160208091040260200160405190810160405280929190818152602001828054611f11906135fb565b8015611f5e5780601f10611f3357610100808354040283529160200191611f5e565b820191906000526020600020905b815481529060010190602001808311611f4157829003601f168201915b50505091835250506003820154602082015260049091015460ff16151560409091015292915050565b81611fd45760405162461bcd60e51b815260206004820152601960248201527f496e737469747574696f6e206e616d652072657175697265640000000000000060448201526064016108b0565b6127108161ffff16111561201f5760405162461bcd60e51b815260206004820152601260248201527153706c69742065786365656473203130302560701b60448201526064016108b0565b600060068484604051612033929190613999565b9081526040805191829003602090810183205460a0601f880183900490920284018201909252608083018681526001600160a01b0390921693508291908790879081908501838280828437600092018290525093855250505061ffff85166020808401919091526001600160a01b03851660408085019190915260016060909401939093523382526005905220815181906120ce90826137b9565b506020820151600190910180546040808501516060909501511515600160b01b0260ff60b01b196001600160a01b0390961662010000026001600160b01b031990931661ffff9095169490941791909117939093169190911790555133907f58f2326aff0feea69b09c6917f7a10e6901fe11ac31b655095fc012b713efd0b90611649908790879087906139d5565b600085815260026020526040812080546001600160a01b03166121ba5760405162461bcd60e51b8152602060048201526015602482015274109bdd5b9d1e48191bd95cc81b9bdd08195e1a5cdd605a1b60448201526064016108b0565b6000600582015460ff1660028111156121d5576121d5613147565b146121f25760405162461bcd60e51b81526004016108b090613635565b33600090815260056020526040902060010154600160b01b900460ff1661225b5760405162461bcd60e51b815260206004820181905260248201527f4d75737420726567697374657220617320736369656e7469737420666972737460448201526064016108b0565b846122995760405162461bcd60e51b815260206004820152600e60248201526d1493c81251081c995c5d5a5c995960921b60448201526064016108b0565b826122df5760405162461bcd60e51b8152602060048201526016602482015275129d5cdd1a599a58d85d1a5bdb881c995c5d5a5c995960521b60448201526064016108b0565b60005b81600601548110156123965786866040516122fe929190613999565b6040805191829003822060008b815260046020908152838220868352905291909120909161232f916001019061375e565b60405180910390200361238e5760405162461bcd60e51b815260206004820152602160248201527f524f20616c726561647920636c61696d6564206f6e207468697320626f756e746044820152607960f81b60648201526084016108b0565b6001016122e2565b50600681018054600091826123aa83613687565b9190505590506040518060a00160405280336001600160a01b0316815260200188888080601f016020809104026020016040519081016040528093929190818152602001838380828437600092019190915250505090825250604080516020601f89018190048102820181019092528781529181019190889088908190840183828082843760009201829052509385525050602090920191508152600060209182018190528a815260048252604080822085835283529020825181546001600160a01b0319166001600160a01b0390911617815590820151600182019061249190826137b9565b50604082015160028201906124a690826137b9565b50606082015160038201805460ff191660018360028111156124ca576124ca613147565b021790555060808201518160030160016101000a81548161ffff021916908361ffff160217905550905050336001600160a01b0316887fbee96127fc856f54721f3e15c7d0f27a7947ed6c05f35a313ef16b5ae6653a83838a8a60405161253393929190613935565b60405180910390a3979650505050505050565b61254e612de5565b600855565b60056020526000908152604090208054819061256e906135fb565b80601f016020809104026020016040519081016040528092919081815260200182805461259a906135fb565b80156125e75780601f106125bc576101008083540402835291602001916125e7565b820191906000526020600020905b8154815290600101906020018083116125ca57829003601f168201915b5050506001909301549192505061ffff8116906001600160a01b03620100008204169060ff600160b01b9091041684565b60026020819052600091825260409091208054600182015492820180546001600160a01b0390921693929161264c906135fb565b80601f0160208091040260200160405190810160405280929190818152602001828054612678906135fb565b80156126c55780601f1061269a576101008083540402835291602001916126c5565b820191906000526020600020905b8154815290600101906020018083116126a857829003601f168201915b5050505050908060030180546126da906135fb565b80601f0160208091040260200160405190810160405280929190818152602001828054612706906135fb565b80156127535780601f1061272857610100808354040283529160200191612753565b820191906000526020600020905b81548152906001019060200180831161273657829003601f168201915b50505050600483015460058401546006909401549293909260ff909116915087565b61277d612dbb565b600081815260026020526040902080546001600160a01b031633146127dd5760405162461bcd60e51b815260206004820152601660248201527513db9b1e48199d5b99195c8818d85b8818d85b98d95b60521b60448201526064016108b0565b6000600582015460ff1660028111156127f8576127f8613147565b146128155760405162461bcd60e51b81526004016108b090613635565b80600401544210156128695760405162461bcd60e51b815260206004820152601d60248201527f43616e6e6f742063616e63656c206265666f726520646561646c696e6500000060448201526064016108b0565b60005b816006015481101561290b576001600084815260046020908152604080832085845290915290206003015460ff1660028111156128ab576128ab613147565b036129035760405162461bcd60e51b815260206004820152602260248201527f43616e6e6f742063616e63656c207769746820617070726f76656420636c61696044820152616d7360f01b60648201526084016108b0565b60010161286c565b5060058101805460ff19166002179055600181015481546040516000916001600160a01b03169083908381818185875af1925050503d806000811461296c576040519150601f19603f3d011682016040523d82523d6000602084013e612971565b606091505b50509050806129b25760405162461bcd60e51b815260206004820152600d60248201526c1499599d5b990819985a5b1959609a1b60448201526064016108b0565b837f4fe522caf12f0adba1b0532093b34bea60fc859fb838ae075b44bcd15fcde9ff836040516129e491815260200190565b60405180910390a2505050610f7560018055565b612a00612eab565b600082815260026020818152604092839020835160e08101855281546001600160a01b0316815260018201549281019290925291820180549193840191612a46906135fb565b80601f0160208091040260200160405190810160405280929190818152602001828054612a72906135fb565b8015612abf5780601f10612a9457610100808354040283529160200191612abf565b820191906000526020600020905b815481529060010190602001808311612aa257829003601f168201915b50505050508152602001600382018054612ad8906135fb565b80601f0160208091040260200160405190810160405280929190818152602001828054612b04906135fb565b8015612b515780601f10612b2657610100808354040283529160200191612b51565b820191906000526020600020905b815481529060010190602001808311612b3457829003601f168201915b505050918352505060048201546020820152600582015460409091019060ff166002811115612b8257612b82613147565b6002811115612b9357612b93613147565b81526020016006820154815250509050919050565b612bb0612de5565b6001600160a01b038116612bf95760405162461bcd60e51b815260206004820152601060248201526f496e76616c696420747265617375727960801b60448201526064016108b0565b600980546001600160a01b03909216620100000262010000600160b01b0319909216919091179055565b612c2b612de5565b6001600160a01b038116612c5557604051631e4fbdf760e01b8152600060048201526024016108b0565b610f7581612e12565b6004602090815260009283526040808420909152908252902080546001820180546001600160a01b039092169291612c95906135fb565b80601f0160208091040260200160405190810160405280929190818152602001828054612cc1906135fb565b8015612d0e5780601f10612ce357610100808354040283529160200191612d0e565b820191906000526020600020905b815481529060010190602001808311612cf157829003601f168201915b505050505090806002018054612d23906135fb565b80601f0160208091040260200160405190810160405280929190818152602001828054612d4f906135fb565b8015612d9c5780601f10612d7157610100808354040283529160200191612d9c565b820191906000526020600020905b815481529060010190602001808311612d7f57829003601f168201915b5050506003909301549192505060ff81169061ffff6101009091041685565b600260015403612dde57604051633ee5aeb560e01b815260040160405180910390fd5b6002600155565b6000546001600160a01b03163314611e105760405163118cdaa760e01b81523360048201526024016108b0565b600080546001600160a01b038381166001600160a01b0319831681178455604051919092169283917f8be0079c531659141344cd1fd0a4f28419497f9722a3daafe3b4186f6b6457e09190a35050565b6040518060a0016040528060006001600160a01b03168152602001606081526020016060815260200160006002811115612e9e57612e9e613147565b8152600060209091015290565b6040518060e0016040528060006001600160a01b031681526020016000815260200160608152602001606081526020016000815260200160006002811115612ef557612ef5613147565b8152602001600081525090565b600060208284031215612f1457600080fd5b5035919050565b6000815180845260005b81811015612f4157602081850181015186830182015201612f25565b506000602082860101526020601f19601f83011685010191505092915050565b8581526001600160a01b038516602082015260a060408201819052600090612f8b90830186612f1b565b6060830194909452509015156080909101529392505050565b6001600160a01b0381168114610f7557600080fd5b600060208284031215612fcb57600080fd5b8135612fd681612fa4565b9392505050565b602081526000825160806020840152612ff960a0840182612f1b565b905061ffff602085015116604084015260018060a01b0360408501511660608401526060840151151560808401528091505092915050565b60008083601f84011261304357600080fd5b50813567ffffffffffffffff81111561305b57600080fd5b60208301915083602082850101111561307357600080fd5b9250929050565b60008060008060006060868803121561309257600080fd5b853567ffffffffffffffff8111156130a957600080fd5b6130b588828901613031565b909650945050602086013567ffffffffffffffff8111156130d557600080fd5b6130e188828901613031565b96999598509660400135949350505050565b803561ffff8116811461310557600080fd5b919050565b60006020828403121561311c57600080fd5b612fd6826130f3565b6000806040838503121561313857600080fd5b50508035926020909101359150565b634e487b7160e01b600052602160045260246000fd5b60038110610f7557634e487b7160e01b600052602160045260246000fd5b602080825282516001600160a01b03168282015282015160a060408301526000906131a960c0840182612f1b565b90506040840151601f198483030160608501526131c68282612f1b565b91505060608401516131d78161315d565b8060808501525061ffff60808501511660a08401528091505092915050565b60008060006040848603121561320b57600080fd5b833567ffffffffffffffff81111561322257600080fd5b61322e86828701613031565b909450925050602084013561324281612fa4565b809150509250925092565b60008060006060848603121561326257600080fd5b8335925060208401359150613279604085016130f3565b90509250925092565b602081528151602082015260018060a01b0360208301511660408201526000604083015160a060608401526132ba60c0840182612f1b565b9050606084015160808401526080840151151560a08401528091505092915050565b6000806000604084860312156132f157600080fd5b833567ffffffffffffffff81111561330857600080fd5b61331486828701613031565b90945092506132799050602085016130f3565b60008060008060006060868803121561333f57600080fd5b85359450602086013567ffffffffffffffff81111561335d57600080fd5b61336988828901613031565b909550935050604086013567ffffffffffffffff81111561338957600080fd5b61339588828901613031565b969995985093965092949392505050565b634e487b7160e01b600052604160045260246000fd5b6000602082840312156133ce57600080fd5b813567ffffffffffffffff8111156133e557600080fd5b8201601f810184136133f657600080fd5b803567ffffffffffffffff811115613410576134106133a6565b604051601f8201601f19908116603f0116810167ffffffffffffffff8111828210171561343f5761343f6133a6565b60405281815282820160200186101561345757600080fd5b81602084016020830137600091810160200191909152949350505050565b6080815260006134886080830187612f1b565b61ffff959095166020830152506001600160a01b039290921660408301521515606090910152919050565b60018060a01b038816815286602082015260e0604082015260006134da60e0830188612f1b565b82810360608401526134ec8188612f1b565b9150508460808301526134fe8461315d565b60a082019390935260c0015295945050505050565b6020815260018060a01b038251166020820152602082015160408201526000604083015160e0606084015261354c610100840182612f1b565b90506060840151601f198483030160808501526135698282612f1b565b915050608084015160a084015260a08401516135848161315d565b8060c08501525060c084015160e08401528091505092915050565b6001600160a01b038616815260a0602082018190526000906135c390830187612f1b565b82810360408401526135d58187612f1b565b9150506135e18461315d565b83606083015261ffff831660808301529695505050505050565b600181811c9082168061360f57607f821691505b60208210810361362f57634e487b7160e01b600052602260045260246000fd5b50919050565b6020808252600f908201526e2137bab73a3c903737ba1037b832b760891b604082015260600190565b634e487b7160e01b600052601160045260246000fd5b808201808211156118015761180161365e565b6000600182016136995761369961365e565b5060010190565b80820281158282048414176118015761180161365e565b6000826136d457634e487b7160e01b600052601260045260246000fd5b500490565b818103818111156118015761180161365e565b600081546136f9816135fb565b600182168015613710576001811461372557613755565b60ff1983168652811515820286019350613755565b84600052602060002060005b8381101561374d57815488820152600190910190602001613731565b505081860193505b50505092915050565b6000612fd682846136ec565b601f8211156137b457806000526020600020601f840160051c810160208510156137915750805b601f840160051c820191505b818110156137b1576000815560010161379d565b50505b505050565b815167ffffffffffffffff8111156137d3576137d36133a6565b6137e7816137e184546135fb565b8461376a565b6020601f82116001811461381b57600083156138035750848201515b600019600385901b1c1916600184901b1784556137b1565b600084815260208120601f198516915b8281101561384b578785015182556020948501946001909201910161382b565b50848210156138695786840151600019600387901b60f8161c191681555b50505050600190811b01905550565b60408152600080845461388a816135fb565b80604086015260018216600081146138a957600181146138c5576138f9565b60ff1983166060870152606082151560051b87010193506138f9565b87600052602060002060005b838110156138f0578154888201606001526001909101906020016138d1565b87016060019450505b5050506020929092019290925292915050565b81835281816020850137506000828201602090810191909152601f909101601f19169091010190565b83815260406020820152600061394f60408301848661390c565b95945050505050565b602080825260119082015270125b9d985b1a5908195cd8dc9bddc81251607a1b604082015260600190565b634e487b7160e01b600052603260045260246000fd5b8183823760009101908152919050565b6040815260006139bd60408301858761390c565b905060018060a01b0383166020830152949350505050565b6040815260006139e960408301858761390c565b905061ffff8316602083015294935050505056fea2646970667358221220405f2b38253bb3e70cafca42a9d535b37dd6abf35723f79083559b5a0495b4c764736f6c634300081c0033","opcodes":"PUSH1 0x80 PUSH1 0x40 MSTORE PUSH4 0x1E13380 PUSH1 0x8 SSTORE PUSH1 0x9 DUP1 SLOAD PUSH2 0xFFFF NOT AND PUSH1 0xFA OR SWAP1 SSTORE CALLVALUE DUP1 ISZERO PUSH2 0x26 JUMPI PUSH1 0x0 DUP1 REVERT JUMPDEST POP PUSH1 0x40 MLOAD PUSH2 0x3BEB CODESIZE SUB DUP1 PUSH2 0x3BEB DUP4 CODECOPY DUP2 ADD PUSH1 0x40 DUP2 SWAP1 MSTORE PUSH2 0x45 SWAP2 PUSH2 0x16F JUMP JUMPDEST DUP2 PUSH1 0x1 PUSH1 0x1 PUSH1 0xA0 SHL SUB DUP2 AND PUSH2 0x75 JUMPI PUSH1 0x40 MLOAD PUSH4 0x1E4FBDF7 PUSH1 0xE0 SHL DUP2 MSTORE PUSH1 0x0 PUSH1 0x4 DUP3 ADD MSTORE PUSH1 0x24 ADD JUMPDEST PUSH1 0x40 MLOAD DUP1 SWAP2 SUB SWAP1 REVERT JUMPDEST PUSH2 0x7E DUP2 PUSH2 0x107 JUMP JUMPDEST POP PUSH1 0x1 DUP1 SSTORE PUSH1 0x1 PUSH1 0x1 PUSH1 0xA0 SHL SUB DUP2 AND PUSH2 0xD9 JUMPI PUSH1 0x40 MLOAD PUSH3 0x461BCD PUSH1 0xE5 SHL DUP2 MSTORE PUSH1 0x20 PUSH1 0x4 DUP3 ADD MSTORE PUSH1 0x17 PUSH1 0x24 DUP3 ADD MSTORE PUSH32 0x54726561737572792063616E6E6F74206265207A65726F000000000000000000 PUSH1 0x44 DUP3 ADD MSTORE PUSH1 0x64 ADD PUSH2 0x6C JUMP JUMPDEST PUSH1 0x9 DUP1 SLOAD PUSH1 0x1 PUSH1 0x1 PUSH1 0xA0 SHL SUB SWAP1 SWAP3 AND PUSH3 0x10000 MUL PUSH3 0x10000 PUSH1 0x1 PUSH1 0xB0 SHL SUB NOT SWAP1 SWAP3 AND SWAP2 SWAP1 SWAP2 OR SWAP1 SSTORE POP PUSH2 0x1A9 JUMP JUMPDEST PUSH1 0x0 DUP1 SLOAD PUSH1 0x1 PUSH1 0x1 PUSH1 0xA0 SHL SUB DUP4 DUP2 AND PUSH1 0x1 PUSH1 0x1 PUSH1 0xA0 SHL SUB NOT DUP4 AND DUP2 OR DUP5 SSTORE PUSH1 0x40 MLOAD SWAP2 SWAP1 SWAP3 AND SWAP3 DUP4 SWAP2 PUSH32 0x8BE0079C531659141344CD1FD0A4F28419497F9722A3DAAFE3B4186F6B6457E0 SWAP2 SWAP1 LOG3 POP POP JUMP JUMPDEST PUSH1 0x1 PUSH1 0x1 PUSH1 0xA0 SHL SUB DUP2 AND DUP2 EQ PUSH2 0x16C JUMPI PUSH1 0x0 DUP1 REVERT JUMPDEST POP JUMP JUMPDEST PUSH1 0x0 DUP1 PUSH1 0x40 DUP4 DUP6 SUB SLT ISZERO PUSH2 0x182 JUMPI PUSH1 0x0 DUP1 REVERT JUMPDEST DUP3 MLOAD PUSH2 0x18D DUP2 PUSH2 0x157 JUMP JUMPDEST PUSH1 0x20 DUP5 ADD MLOAD SWAP1 SWAP3 POP PUSH2 0x19E DUP2 PUSH2 0x157 JUMP JUMPDEST DUP1 SWAP2 POP POP SWAP3 POP SWAP3 SWAP1 POP JUMP JUMPDEST PUSH2 0x3A33 DUP1 PUSH2 0x1B8 PUSH1 0x0 CODECOPY PUSH1 0x0 RETURN INVALID PUSH1 0x80 PUSH1 0x40 MSTORE PUSH1 0x4 CALLDATASIZE LT PUSH2 0x1D8 JUMPI PUSH1 0x0 CALLDATALOAD PUSH1 0xE0 SHR DUP1 PUSH4 0x7D19E596 GT PUSH2 0x102 JUMPI DUP1 PUSH4 0xDC2F8744 GT PUSH2 0x95 JUMPI DUP1 PUSH4 0xF16B51C1 GT PUSH2 0x64 JUMPI DUP1 PUSH4 0xF16B51C1 EQ PUSH2 0x5DB JUMPI DUP1 PUSH4 0xF2FDE38B EQ PUSH2 0x5F1 JUMPI DUP1 PUSH4 0xF894160E EQ PUSH2 0x611 JUMPI DUP1 PUSH4 0xFD14FAD4 EQ PUSH2 0x642 JUMPI PUSH1 0x0 DUP1 REVERT JUMPDEST DUP1 PUSH4 0xDC2F8744 EQ PUSH2 0x53B JUMPI DUP1 PUSH4 0xE5E5DFF1 EQ PUSH2 0x56E JUMPI DUP1 PUSH4 0xEE8C4BBF EQ PUSH2 0x58E JUMPI DUP1 PUSH4 0xF0F44260 EQ PUSH2 0x5BB JUMPI PUSH1 0x0 DUP1 REVERT JUMPDEST DUP1 PUSH4 0xB13FE055 GT PUSH2 0xD1 JUMPI DUP1 PUSH4 0xB13FE055 EQ PUSH2 0x48A JUMPI DUP1 PUSH4 0xB46F08BB EQ PUSH2 0x4AA JUMPI DUP1 PUSH4 0xCB9E9F1D EQ PUSH2 0x4CA JUMPI DUP1 PUSH4 0xD8E59749 EQ PUSH2 0x50B JUMPI PUSH1 0x0 DUP1 REVERT JUMPDEST DUP1 PUSH4 0x7D19E596 EQ PUSH2 0x40A JUMPI DUP1 PUSH4 0x80D2D7E5 EQ PUSH2 0x437 JUMPI DUP1 PUSH4 0x85FEEB23 EQ PUSH2 0x457 JUMPI DUP1 PUSH4 0x8DA5CB5B EQ PUSH2 0x46C JUMPI PUSH1 0x0 DUP1 REVERT JUMPDEST DUP1 PUSH4 0x3CB74917 GT PUSH2 0x17A JUMPI DUP1 PUSH4 0x61D027B3 GT PUSH2 0x149 JUMPI DUP1 PUSH4 0x61D027B3 EQ PUSH2 0x382 JUMPI DUP1 PUSH4 0x63FAF2D1 EQ PUSH2 0x3C0 JUMPI DUP1 PUSH4 0x675AC67A EQ PUSH2 0x3E0 JUMPI DUP1 PUSH4 0x715018A6 EQ PUSH2 0x3F5 JUMPI PUSH1 0x0 DUP1 REVERT JUMPDEST DUP1 PUSH4 0x3CB74917 EQ PUSH2 0x2F5 JUMPI DUP1 PUSH4 0x427A2FC2 EQ PUSH2 0x315 JUMPI DUP1 PUSH4 0x5102196B EQ PUSH2 0x342 JUMPI DUP1 PUSH4 0x5DC20323 EQ PUSH2 0x362 JUMPI PUSH1 0x0 DUP1 REVERT JUMPDEST DUP1 PUSH4 0x22DCD13E GT PUSH2 0x1B6 JUMPI DUP1 PUSH4 0x22DCD13E EQ PUSH2 0x266 JUMPI DUP1 PUSH4 0x2BFA7D60 EQ PUSH2 0x294 JUMPI DUP1 PUSH4 0x2CE947DB EQ PUSH2 0x2B5 JUMPI DUP1 PUSH4 0x3BC1F7B3 EQ PUSH2 0x2D5 JUMPI PUSH1 0x0 DUP1 REVERT JUMPDEST DUP1 PUSH4 0x12F52EE EQ PUSH2 0x1DD JUMPI DUP1 PUSH4 0x1681C04C EQ PUSH2 0x217 JUMPI DUP1 PUSH4 0x191634C3 EQ PUSH2 0x244 JUMPI JUMPDEST PUSH1 0x0 DUP1 REVERT JUMPDEST CALLVALUE DUP1 ISZERO PUSH2 0x1E9 JUMPI PUSH1 0x0 DUP1 REVERT JUMPDEST POP PUSH2 0x1FD PUSH2 0x1F8 CALLDATASIZE PUSH1 0x4 PUSH2 0x2F02 JUMP JUMPDEST PUSH2 0x658 JUMP JUMPDEST PUSH1 0x40 MLOAD PUSH2 0x20E SWAP6 SWAP5 SWAP4 SWAP3 SWAP2 SWAP1 PUSH2 0x2F61 JUMP JUMPDEST PUSH1 0x40 MLOAD DUP1 SWAP2 SUB SWAP1 RETURN JUMPDEST CALLVALUE DUP1 ISZERO PUSH2 0x223 JUMPI PUSH1 0x0 DUP1 REVERT JUMPDEST POP PUSH2 0x237 PUSH2 0x232 CALLDATASIZE PUSH1 0x4 PUSH2 0x2FB9 JUMP JUMPDEST PUSH2 0x731 JUMP JUMPDEST PUSH1 0x40 MLOAD PUSH2 0x20E SWAP2 SWAP1 PUSH2 0x2FDD JUMP JUMPDEST CALLVALUE DUP1 ISZERO PUSH2 0x250 JUMPI PUSH1 0x0 DUP1 REVERT JUMPDEST POP PUSH2 0x264 PUSH2 0x25F CALLDATASIZE PUSH1 0x4 PUSH2 0x2F02 JUMP JUMPDEST PUSH2 0x845 JUMP JUMPDEST STOP JUMPDEST CALLVALUE DUP1 ISZERO PUSH2 0x272 JUMPI PUSH1 0x0 DUP1 REVERT JUMPDEST POP PUSH1 0x9 SLOAD PUSH2 0x281 SWAP1 PUSH2 0xFFFF AND DUP2 JUMP JUMPDEST PUSH1 0x40 MLOAD PUSH2 0xFFFF SWAP1 SWAP2 AND DUP2 MSTORE PUSH1 0x20 ADD PUSH2 0x20E JUMP JUMPDEST PUSH2 0x2A7 PUSH2 0x2A2 CALLDATASIZE PUSH1 0x4 PUSH2 0x307A JUMP JUMPDEST PUSH2 0xF78 JUMP JUMPDEST PUSH1 0x40 MLOAD SWAP1 DUP2 MSTORE PUSH1 0x20 ADD PUSH2 0x20E JUMP JUMPDEST CALLVALUE DUP1 ISZERO PUSH2 0x2C1 JUMPI PUSH1 0x0 DUP1 REVERT JUMPDEST POP PUSH2 0x264 PUSH2 0x2D0 CALLDATASIZE PUSH1 0x4 PUSH2 0x2F02 JUMP JUMPDEST PUSH2 0x123A JUMP JUMPDEST CALLVALUE DUP1 ISZERO PUSH2 0x2E1 JUMPI PUSH1 0x0 DUP1 REVERT JUMPDEST POP PUSH2 0x264 PUSH2 0x2F0 CALLDATASIZE PUSH1 0x4 PUSH2 0x310A JUMP JUMPDEST PUSH2 0x1457 JUMP JUMPDEST CALLVALUE DUP1 ISZERO PUSH2 0x301 JUMPI PUSH1 0x0 DUP1 REVERT JUMPDEST POP PUSH2 0x264 PUSH2 0x310 CALLDATASIZE PUSH1 0x4 PUSH2 0x3125 JUMP JUMPDEST PUSH2 0x14B7 JUMP JUMPDEST CALLVALUE DUP1 ISZERO PUSH2 0x321 JUMPI PUSH1 0x0 DUP1 REVERT JUMPDEST POP PUSH2 0x335 PUSH2 0x330 CALLDATASIZE PUSH1 0x4 PUSH2 0x3125 JUMP JUMPDEST PUSH2 0x1657 JUMP JUMPDEST PUSH1 0x40 MLOAD PUSH2 0x20E SWAP2 SWAP1 PUSH2 0x317B JUMP JUMPDEST CALLVALUE DUP1 ISZERO PUSH2 0x34E JUMPI PUSH1 0x0 DUP1 REVERT JUMPDEST POP PUSH2 0x264 PUSH2 0x35D CALLDATASIZE PUSH1 0x4 PUSH2 0x2F02 JUMP JUMPDEST PUSH2 0x1807 JUMP JUMPDEST CALLVALUE DUP1 ISZERO PUSH2 0x36E JUMPI PUSH1 0x0 DUP1 REVERT JUMPDEST POP PUSH2 0x264 PUSH2 0x37D CALLDATASIZE PUSH1 0x4 PUSH2 0x31F6 JUMP JUMPDEST PUSH2 0x1ADA JUMP JUMPDEST CALLVALUE DUP1 ISZERO PUSH2 0x38E JUMPI PUSH1 0x0 DUP1 REVERT JUMPDEST POP PUSH1 0x9 SLOAD PUSH2 0x3A8 SWAP1 PUSH3 0x10000 SWAP1 DIV PUSH1 0x1 PUSH1 0x1 PUSH1 0xA0 SHL SUB AND DUP2 JUMP JUMPDEST PUSH1 0x40 MLOAD PUSH1 0x1 PUSH1 0x1 PUSH1 0xA0 SHL SUB SWAP1 SWAP2 AND DUP2 MSTORE PUSH1 0x20 ADD PUSH2 0x20E JUMP JUMPDEST CALLVALUE DUP1 ISZERO PUSH2 0x3CC JUMPI PUSH1 0x0 DUP1 REVERT JUMPDEST POP PUSH2 0x264 PUSH2 0x3DB CALLDATASIZE PUSH1 0x4 PUSH2 0x324D JUMP JUMPDEST PUSH2 0x1BE7 JUMP JUMPDEST CALLVALUE DUP1 ISZERO PUSH2 0x3EC JUMPI PUSH1 0x0 DUP1 REVERT JUMPDEST POP PUSH1 0x7 SLOAD PUSH2 0x2A7 JUMP JUMPDEST CALLVALUE DUP1 ISZERO PUSH2 0x401 JUMPI PUSH1 0x0 DUP1 REVERT JUMPDEST POP PUSH2 0x264 PUSH2 0x1DFE JUMP JUMPDEST CALLVALUE DUP1 ISZERO PUSH2 0x416 JUMPI PUSH1 0x0 DUP1 REVERT JUMPDEST POP PUSH2 0x42A PUSH2 0x425 CALLDATASIZE PUSH1 0x4 PUSH2 0x2F02 JUMP JUMPDEST PUSH2 0x1E12 JUMP JUMPDEST PUSH1 0x40 MLOAD PUSH2 0x20E SWAP2 SWAP1 PUSH2 0x3282 JUMP JUMPDEST CALLVALUE DUP1 ISZERO PUSH2 0x443 JUMPI PUSH1 0x0 DUP1 REVERT JUMPDEST POP PUSH2 0x264 PUSH2 0x452 CALLDATASIZE PUSH1 0x4 PUSH2 0x32DC JUMP JUMPDEST PUSH2 0x1F87 JUMP JUMPDEST CALLVALUE DUP1 ISZERO PUSH2 0x463 JUMPI PUSH1 0x0 DUP1 REVERT JUMPDEST POP PUSH1 0x3 SLOAD PUSH2 0x2A7 JUMP JUMPDEST CALLVALUE DUP1 ISZERO PUSH2 0x478 JUMPI PUSH1 0x0 DUP1 REVERT JUMPDEST POP PUSH1 0x0 SLOAD PUSH1 0x1 PUSH1 0x1 PUSH1 0xA0 SHL SUB AND PUSH2 0x3A8 JUMP JUMPDEST CALLVALUE DUP1 ISZERO PUSH2 0x496 JUMPI PUSH1 0x0 DUP1 REVERT JUMPDEST POP PUSH2 0x2A7 PUSH2 0x4A5 CALLDATASIZE PUSH1 0x4 PUSH2 0x3327 JUMP JUMPDEST PUSH2 0x215D JUMP JUMPDEST CALLVALUE DUP1 ISZERO PUSH2 0x4B6 JUMPI PUSH1 0x0 DUP1 REVERT JUMPDEST POP PUSH2 0x264 PUSH2 0x4C5 CALLDATASIZE PUSH1 0x4 PUSH2 0x2F02 JUMP JUMPDEST PUSH2 0x2546 JUMP JUMPDEST CALLVALUE DUP1 ISZERO PUSH2 0x4D6 JUMPI PUSH1 0x0 DUP1 REVERT JUMPDEST POP PUSH2 0x3A8 PUSH2 0x4E5 CALLDATASIZE PUSH1 0x4 PUSH2 0x33BC JUMP JUMPDEST DUP1 MLOAD PUSH1 0x20 DUP2 DUP4 ADD DUP2 ADD DUP1 MLOAD PUSH1 0x6 DUP3 MSTORE SWAP3 DUP3 ADD SWAP2 SWAP1 SWAP4 ADD KECCAK256 SWAP2 MSTORE SLOAD PUSH1 0x1 PUSH1 0x1 PUSH1 0xA0 SHL SUB AND DUP2 JUMP JUMPDEST CALLVALUE DUP1 ISZERO PUSH2 0x517 JUMPI PUSH1 0x0 DUP1 REVERT JUMPDEST POP PUSH2 0x52B PUSH2 0x526 CALLDATASIZE PUSH1 0x4 PUSH2 0x2FB9 JUMP JUMPDEST PUSH2 0x2553 JUMP JUMPDEST PUSH1 0x40 MLOAD PUSH2 0x20E SWAP5 SWAP4 SWAP3 SWAP2 SWAP1 PUSH2 0x3475 JUMP JUMPDEST CALLVALUE DUP1 ISZERO PUSH2 0x547 JUMPI PUSH1 0x0 DUP1 REVERT JUMPDEST POP PUSH2 0x55B PUSH2 0x556 CALLDATASIZE PUSH1 0x4 PUSH2 0x2F02 JUMP JUMPDEST PUSH2 0x2618 JUMP JUMPDEST PUSH1 0x40 MLOAD PUSH2 0x20E SWAP8 SWAP7 SWAP6 SWAP5 SWAP4 SWAP3 SWAP2 SWAP1 PUSH2 0x34B3 JUMP JUMPDEST CALLVALUE DUP1 ISZERO PUSH2 0x57A JUMPI PUSH1 0x0 DUP1 REVERT JUMPDEST POP PUSH2 0x264 PUSH2 0x589 CALLDATASIZE PUSH1 0x4 PUSH2 0x2F02 JUMP JUMPDEST PUSH2 0x2775 JUMP JUMPDEST CALLVALUE DUP1 ISZERO PUSH2 0x59A JUMPI PUSH1 0x0 DUP1 REVERT JUMPDEST POP PUSH2 0x5AE PUSH2 0x5A9 CALLDATASIZE PUSH1 0x4 PUSH2 0x2F02 JUMP JUMPDEST PUSH2 0x29F8 JUMP JUMPDEST PUSH1 0x40 MLOAD PUSH2 0x20E SWAP2 SWAP1 PUSH2 0x3513 JUMP JUMPDEST CALLVALUE DUP1 ISZERO PUSH2 0x5C7 JUMPI PUSH1 0x0 DUP1 REVERT JUMPDEST POP PUSH2 0x264 PUSH2 0x5D6 CALLDATASIZE PUSH1 0x4 PUSH2 0x2FB9 JUMP JUMPDEST PUSH2 0x2BA8 JUMP JUMPDEST CALLVALUE DUP1 ISZERO PUSH2 0x5E7 JUMPI PUSH1 0x0 DUP1 REVERT JUMPDEST POP PUSH2 0x2A7 PUSH1 0x8 SLOAD DUP2 JUMP JUMPDEST CALLVALUE DUP1 ISZERO PUSH2 0x5FD JUMPI PUSH1 0x0 DUP1 REVERT JUMPDEST POP PUSH2 0x264 PUSH2 0x60C CALLDATASIZE PUSH1 0x4 PUSH2 0x2FB9 JUMP JUMPDEST PUSH2 0x2C23 JUMP JUMPDEST CALLVALUE DUP1 ISZERO PUSH2 0x61D JUMPI PUSH1 0x0 DUP1 REVERT JUMPDEST POP PUSH2 0x631 PUSH2 0x62C CALLDATASIZE PUSH1 0x4 PUSH2 0x3125 JUMP JUMPDEST PUSH2 0x2C5E JUMP JUMPDEST PUSH1 0x40 MLOAD PUSH2 0x20E SWAP6 SWAP5 SWAP4 SWAP3 SWAP2 SWAP1 PUSH2 0x359F JUMP JUMPDEST CALLVALUE DUP1 ISZERO PUSH2 0x64E JUMPI PUSH1 0x0 DUP1 REVERT JUMPDEST POP PUSH2 0x2A7 PUSH1 0x3 SLOAD DUP2 JUMP JUMPDEST PUSH1 0x7 DUP2 DUP2 SLOAD DUP2 LT PUSH2 0x668 JUMPI PUSH1 0x0 DUP1 REVERT JUMPDEST PUSH1 0x0 SWAP2 DUP3 MSTORE PUSH1 0x20 SWAP1 SWAP2 KECCAK256 PUSH1 0x5 SWAP1 SWAP2 MUL ADD DUP1 SLOAD PUSH1 0x1 DUP3 ADD SLOAD PUSH1 0x2 DUP4 ADD DUP1 SLOAD SWAP3 SWAP5 POP PUSH1 0x1 PUSH1 0x1 PUSH1 0xA0 SHL SUB SWAP1 SWAP2 AND SWAP3 SWAP2 PUSH2 0x69E SWAP1 PUSH2 0x35FB JUMP JUMPDEST DUP1 PUSH1 0x1F ADD PUSH1 0x20 DUP1 SWAP2 DIV MUL PUSH1 0x20 ADD PUSH1 0x40 MLOAD SWAP1 DUP2 ADD PUSH1 0x40 MSTORE DUP1 SWAP3 SWAP2 SWAP1 DUP2 DUP2 MSTORE PUSH1 0x20 ADD DUP3 DUP1 SLOAD PUSH2 0x6CA SWAP1 PUSH2 0x35FB JUMP JUMPDEST DUP1 ISZERO PUSH2 0x717 JUMPI DUP1 PUSH1 0x1F LT PUSH2 0x6EC JUMPI PUSH2 0x100 DUP1 DUP4 SLOAD DIV MUL DUP4 MSTORE SWAP2 PUSH1 0x20 ADD SWAP2 PUSH2 0x717 JUMP JUMPDEST DUP3 ADD SWAP2 SWAP1 PUSH1 0x0 MSTORE PUSH1 0x20 PUSH1 0x0 KECCAK256 SWAP1 JUMPDEST DUP2 SLOAD DUP2 MSTORE SWAP1 PUSH1 0x1 ADD SWAP1 PUSH1 0x20 ADD DUP1 DUP4 GT PUSH2 0x6FA JUMPI DUP3 SWAP1 SUB PUSH1 0x1F AND DUP3 ADD SWAP2 JUMPDEST POP POP POP POP PUSH1 0x3 DUP4 ADD SLOAD PUSH1 0x4 SWAP1 SWAP4 ADD SLOAD SWAP2 SWAP3 SWAP2 PUSH1 0xFF AND SWAP1 POP DUP6 JUMP JUMPDEST PUSH1 0x40 DUP1 MLOAD PUSH1 0x80 DUP2 ADD DUP3 MSTORE PUSH1 0x60 DUP1 DUP3 MSTORE PUSH1 0x0 PUSH1 0x20 DUP4 ADD DUP2 SWAP1 MSTORE SWAP3 DUP3 ADD DUP4 SWAP1 MSTORE DUP2 ADD SWAP2 SWAP1 SWAP2 MSTORE PUSH1 0x1 PUSH1 0x1 PUSH1 0xA0 SHL SUB DUP3 AND PUSH1 0x0 SWAP1 DUP2 MSTORE PUSH1 0x5 PUSH1 0x20 MSTORE PUSH1 0x40 SWAP1 DUP2 SWAP1 KECCAK256 DUP2 MLOAD PUSH1 0x80 DUP2 ADD SWAP1 SWAP3 MSTORE DUP1 SLOAD DUP3 SWAP1 DUP3 SWAP1 PUSH2 0x787 SWAP1 PUSH2 0x35FB JUMP JUMPDEST DUP1 PUSH1 0x1F ADD PUSH1 0x20 DUP1 SWAP2 DIV MUL PUSH1 0x20 ADD PUSH1 0x40 MLOAD SWAP1 DUP2 ADD PUSH1 0x40 MSTORE DUP1 SWAP3 SWAP2 SWAP1 DUP2 DUP2 MSTORE PUSH1 0x20 ADD DUP3 DUP1 SLOAD PUSH2 0x7B3 SWAP1 PUSH2 0x35FB JUMP JUMPDEST DUP1 ISZERO PUSH2 0x800 JUMPI DUP1 PUSH1 0x1F LT PUSH2 0x7D5 JUMPI PUSH2 0x100 DUP1 DUP4 SLOAD DIV MUL DUP4 MSTORE SWAP2 PUSH1 0x20 ADD SWAP2 PUSH2 0x800 JUMP JUMPDEST DUP3 ADD SWAP2 SWAP1 PUSH1 0x0 MSTORE PUSH1 0x20 PUSH1 0x0 KECCAK256 SWAP1 JUMPDEST DUP2 SLOAD DUP2 MSTORE SWAP1 PUSH1 0x1 ADD SWAP1 PUSH1 0x20 ADD DUP1 DUP4 GT PUSH2 0x7E3 JUMPI DUP3 SWAP1 SUB PUSH1 0x1F AND DUP3 ADD SWAP2 JUMPDEST POP POP POP SWAP2 DUP4 MSTORE POP POP PUSH1 0x1 SWAP2 SWAP1 SWAP2 ADD SLOAD PUSH2 0xFFFF DUP2 AND PUSH1 0x20 DUP4 ADD MSTORE PUSH3 0x10000 DUP2 DIV PUSH1 0x1 PUSH1 0x1 PUSH1 0xA0 SHL SUB AND PUSH1 0x40 DUP4 ADD MSTORE PUSH1 0x1 PUSH1 0xB0 SHL SWAP1 DIV PUSH1 0xFF AND ISZERO ISZERO PUSH1 0x60 SWAP1 SWAP2 ADD MSTORE SWAP3 SWAP2 POP POP JUMP JUMPDEST PUSH2 0x84D PUSH2 0x2DBB JUMP JUMPDEST PUSH1 0x0 DUP2 DUP2 MSTORE PUSH1 0x2 PUSH1 0x20 MSTORE PUSH1 0x40 SWAP1 KECCAK256 DUP1 SLOAD PUSH1 0x1 PUSH1 0x1 PUSH1 0xA0 SHL SUB AND CALLER EQ PUSH2 0x8B9 JUMPI PUSH1 0x40 MLOAD PUSH3 0x461BCD PUSH1 0xE5 SHL DUP2 MSTORE PUSH1 0x20 PUSH1 0x4 DUP3 ADD MSTORE PUSH1 0x18 PUSH1 0x24 DUP3 ADD MSTORE PUSH32 0x4F6E6C792066756E6465722063616E2066696E616C697A650000000000000000 PUSH1 0x44 DUP3 ADD MSTORE PUSH1 0x64 ADD JUMPDEST PUSH1 0x40 MLOAD DUP1 SWAP2 SUB SWAP1 REVERT JUMPDEST PUSH1 0x0 PUSH1 0x5 DUP3 ADD SLOAD PUSH1 0xFF AND PUSH1 0x2 DUP2 GT ISZERO PUSH2 0x8D4 JUMPI PUSH2 0x8D4 PUSH2 0x3147 JUMP JUMPDEST EQ PUSH2 0x8F1 JUMPI PUSH1 0x40 MLOAD PUSH3 0x461BCD PUSH1 0xE5 SHL DUP2 MSTORE PUSH1 0x4 ADD PUSH2 0x8B0 SWAP1 PUSH2 0x3635 JUMP JUMPDEST PUSH1 0x0 DUP1 PUSH1 0x0 JUMPDEST DUP4 PUSH1 0x6 ADD SLOAD DUP2 LT ISZERO PUSH2 0x983 JUMPI PUSH1 0x1 PUSH1 0x0 DUP7 DUP2 MSTORE PUSH1 0x4 PUSH1 0x20 SWAP1 DUP2 MSTORE PUSH1 0x40 DUP1 DUP4 KECCAK256 DUP6 DUP5 MSTORE SWAP1 SWAP2 MSTORE SWAP1 KECCAK256 PUSH1 0x3 ADD SLOAD PUSH1 0xFF AND PUSH1 0x2 DUP2 GT ISZERO PUSH2 0x936 JUMPI PUSH2 0x936 PUSH2 0x3147 JUMP JUMPDEST SUB PUSH2 0x97B JUMPI PUSH1 0x0 DUP6 DUP2 MSTORE PUSH1 0x4 PUSH1 0x20 SWAP1 DUP2 MSTORE PUSH1 0x40 DUP1 DUP4 KECCAK256 DUP5 DUP5 MSTORE SWAP1 SWAP2 MSTORE SWAP1 KECCAK256 PUSH1 0x3 ADD SLOAD PUSH2 0x96B SWAP1 PUSH2 0x100 SWAP1 DIV PUSH2 0xFFFF AND DUP5 PUSH2 0x3674 JUMP JUMPDEST SWAP3 POP DUP2 PUSH2 0x977 DUP2 PUSH2 0x3687 JUMP JUMPDEST SWAP3 POP POP JUMPDEST PUSH1 0x1 ADD PUSH2 0x8F7 JUMP JUMPDEST POP PUSH1 0x0 DUP2 GT PUSH2 0x9C9 JUMPI PUSH1 0x40 MLOAD PUSH3 0x461BCD PUSH1 0xE5 SHL DUP2 MSTORE PUSH1 0x20 PUSH1 0x4 DUP3 ADD MSTORE PUSH1 0x12 PUSH1 0x24 DUP3 ADD MSTORE PUSH18 0x4E6F20617070726F76656420636C61696D73 PUSH1 0x70 SHL PUSH1 0x44 DUP3 ADD MSTORE PUSH1 0x64 ADD PUSH2 0x8B0 JUMP JUMPDEST DUP2 PUSH2 0x2710 EQ PUSH2 0xA24 JUMPI PUSH1 0x40 MLOAD PUSH3 0x461BCD PUSH1 0xE5 SHL DUP2 MSTORE PUSH1 0x20 PUSH1 0x4 DUP3 ADD MSTORE PUSH1 0x21 PUSH1 0x24 DUP3 ADD MSTORE PUSH32 0x417070726F76656420736861726573206D7573742073756D20746F2031303030 PUSH1 0x44 DUP3 ADD MSTORE PUSH1 0x3 PUSH1 0xFC SHL PUSH1 0x64 DUP3 ADD MSTORE PUSH1 0x84 ADD PUSH2 0x8B0 JUMP JUMPDEST PUSH1 0x5 DUP4 ADD DUP1 SLOAD PUSH1 0xFF NOT AND PUSH1 0x1 SWAP1 DUP2 OR SWAP1 SWAP2 SSTORE PUSH1 0x9 SLOAD SWAP1 DUP5 ADD SLOAD PUSH1 0x0 SWAP2 PUSH2 0x2710 SWAP2 PUSH2 0xA52 SWAP2 PUSH2 0xFFFF AND SWAP1 PUSH2 0x36A0 JUMP JUMPDEST PUSH2 0xA5C SWAP2 SWAP1 PUSH2 0x36B7 JUMP JUMPDEST SWAP1 POP PUSH1 0x0 DUP2 DUP6 PUSH1 0x1 ADD SLOAD PUSH2 0xA70 SWAP2 SWAP1 PUSH2 0x36D9 JUMP JUMPDEST SWAP1 POP DUP2 ISZERO PUSH2 0xB19 JUMPI PUSH1 0x9 SLOAD PUSH1 0x40 MLOAD PUSH1 0x0 SWAP2 PUSH3 0x10000 SWAP1 DIV PUSH1 0x1 PUSH1 0x1 PUSH1 0xA0 SHL SUB AND SWAP1 DUP5 SWAP1 DUP4 DUP2 DUP2 DUP2 DUP6 DUP8 GAS CALL SWAP3 POP POP POP RETURNDATASIZE DUP1 PUSH1 0x0 DUP2 EQ PUSH2 0xACB JUMPI PUSH1 0x40 MLOAD SWAP2 POP PUSH1 0x1F NOT PUSH1 0x3F RETURNDATASIZE ADD AND DUP3 ADD PUSH1 0x40 MSTORE RETURNDATASIZE DUP3 MSTORE RETURNDATASIZE PUSH1 0x0 PUSH1 0x20 DUP5 ADD RETURNDATACOPY PUSH2 0xAD0 JUMP JUMPDEST PUSH1 0x60 SWAP2 POP JUMPDEST POP POP SWAP1 POP DUP1 PUSH2 0xB17 JUMPI PUSH1 0x40 MLOAD PUSH3 0x461BCD PUSH1 0xE5 SHL DUP2 MSTORE PUSH1 0x20 PUSH1 0x4 DUP3 ADD MSTORE PUSH1 0x13 PUSH1 0x24 DUP3 ADD MSTORE PUSH19 0x119959481D1C985B9CD9995C8819985A5B1959 PUSH1 0x6A SHL PUSH1 0x44 DUP3 ADD MSTORE PUSH1 0x64 ADD PUSH2 0x8B0 JUMP JUMPDEST POP JUMPDEST PUSH1 0x0 DUP1 JUMPDEST DUP7 PUSH1 0x6 ADD SLOAD DUP2 LT ISZERO PUSH2 0xF2B JUMPI PUSH1 0x0 DUP9 DUP2 MSTORE PUSH1 0x4 PUSH1 0x20 SWAP1 DUP2 MSTORE PUSH1 0x40 DUP1 DUP4 KECCAK256 DUP5 DUP5 MSTORE SWAP1 SWAP2 MSTORE SWAP1 KECCAK256 PUSH1 0x1 PUSH1 0x3 DUP3 ADD SLOAD PUSH1 0xFF AND PUSH1 0x2 DUP2 GT ISZERO PUSH2 0xB5D JUMPI PUSH2 0xB5D PUSH2 0x3147 JUMP JUMPDEST EQ PUSH2 0xB68 JUMPI POP PUSH2 0xF23 JUMP JUMPDEST PUSH1 0x3 DUP2 ADD SLOAD PUSH1 0x0 SWAP1 PUSH2 0x2710 SWAP1 PUSH2 0xB87 SWAP1 PUSH2 0x100 SWAP1 DIV PUSH2 0xFFFF AND DUP8 PUSH2 0x36A0 JUMP JUMPDEST PUSH2 0xB91 SWAP2 SWAP1 PUSH2 0x36B7 JUMP JUMPDEST SWAP1 POP DUP1 PUSH1 0x0 SUB PUSH2 0xBA2 JUMPI POP POP PUSH2 0xF23 JUMP JUMPDEST DUP2 SLOAD PUSH1 0x1 PUSH1 0x1 PUSH1 0xA0 SHL SUB AND PUSH1 0x0 SWAP1 DUP2 MSTORE PUSH1 0x5 PUSH1 0x20 MSTORE PUSH1 0x40 DUP2 KECCAK256 PUSH1 0x1 DUP2 ADD SLOAD SWAP1 SWAP2 SWAP1 PUSH2 0x2710 SWAP1 PUSH2 0xBD5 SWAP1 PUSH2 0xFFFF AND DUP6 PUSH2 0x36A0 JUMP JUMPDEST PUSH2 0xBDF SWAP2 SWAP1 PUSH2 0x36B7 JUMP JUMPDEST SWAP1 POP PUSH1 0x0 PUSH2 0xBED DUP3 DUP6 PUSH2 0x36D9 JUMP JUMPDEST SWAP1 POP DUP1 ISZERO PUSH2 0xC99 JUMPI DUP5 SLOAD PUSH1 0x40 MLOAD PUSH1 0x0 SWAP2 PUSH1 0x1 PUSH1 0x1 PUSH1 0xA0 SHL SUB AND SWAP1 DUP4 SWAP1 DUP4 DUP2 DUP2 DUP2 DUP6 DUP8 GAS CALL SWAP3 POP POP POP RETURNDATASIZE DUP1 PUSH1 0x0 DUP2 EQ PUSH2 0xC41 JUMPI PUSH1 0x40 MLOAD SWAP2 POP PUSH1 0x1F NOT PUSH1 0x3F RETURNDATASIZE ADD AND DUP3 ADD PUSH1 0x40 MSTORE RETURNDATASIZE DUP3 MSTORE RETURNDATASIZE PUSH1 0x0 PUSH1 0x20 DUP5 ADD RETURNDATACOPY PUSH2 0xC46 JUMP JUMPDEST PUSH1 0x60 SWAP2 POP JUMPDEST POP POP SWAP1 POP DUP1 PUSH2 0xC97 JUMPI PUSH1 0x40 MLOAD PUSH3 0x461BCD PUSH1 0xE5 SHL DUP2 MSTORE PUSH1 0x20 PUSH1 0x4 DUP3 ADD MSTORE PUSH1 0x18 PUSH1 0x24 DUP3 ADD MSTORE PUSH32 0x536369656E74697374207061796D656E74206661696C65640000000000000000 PUSH1 0x44 DUP3 ADD MSTORE PUSH1 0x64 ADD PUSH2 0x8B0 JUMP JUMPDEST POP JUMPDEST DUP2 ISZERO PUSH2 0xF11 JUMPI PUSH1 0x0 PUSH1 0x6 DUP5 PUSH1 0x0 ADD PUSH1 0x40 MLOAD PUSH2 0xCB4 SWAP2 SWAP1 PUSH2 0x375E JUMP JUMPDEST SWAP1 DUP2 MSTORE PUSH1 0x40 MLOAD SWAP1 DUP2 SWAP1 SUB PUSH1 0x20 ADD SWAP1 KECCAK256 SLOAD PUSH1 0x1 PUSH1 0x1 PUSH1 0xA0 SHL SUB AND SWAP1 POP DUP1 ISZERO PUSH2 0xD7E JUMPI PUSH1 0x0 DUP2 PUSH1 0x1 PUSH1 0x1 PUSH1 0xA0 SHL SUB AND DUP5 PUSH1 0x40 MLOAD PUSH1 0x0 PUSH1 0x40 MLOAD DUP1 DUP4 SUB DUP2 DUP6 DUP8 GAS CALL SWAP3 POP POP POP RETURNDATASIZE DUP1 PUSH1 0x0 DUP2 EQ PUSH2 0xD22 JUMPI PUSH1 0x40 MLOAD SWAP2 POP PUSH1 0x1F NOT PUSH1 0x3F RETURNDATASIZE ADD AND DUP3 ADD PUSH1 0x40 MSTORE RETURNDATASIZE DUP3 MSTORE RETURNDATASIZE PUSH1 0x0 PUSH1 0x20 DUP5 ADD RETURNDATACOPY PUSH2 0xD27 JUMP JUMPDEST PUSH1 0x60 SWAP2 POP JUMPDEST POP POP SWAP1 POP DUP1 PUSH2 0xD78 JUMPI PUSH1 0x40 MLOAD PUSH3 0x461BCD PUSH1 0xE5 SHL DUP2 MSTORE PUSH1 0x20 PUSH1 0x4 DUP3 ADD MSTORE PUSH1 0x1A PUSH1 0x24 DUP3 ADD MSTORE PUSH32 0x496E737469747574696F6E207061796D656E74206661696C6564000000000000 PUSH1 0x44 DUP3 ADD MSTORE PUSH1 0x64 ADD PUSH2 0x8B0 JUMP JUMPDEST POP PUSH2 0xF0F JUMP JUMPDEST PUSH1 0x7 DUP1 SLOAD PUSH1 0x40 DUP1 MLOAD PUSH1 0xA0 DUP2 ADD DUP3 MSTORE DUP7 DUP2 MSTORE DUP10 SLOAD PUSH1 0x1 PUSH1 0x1 PUSH1 0xA0 SHL SUB AND PUSH1 0x20 DUP3 ADD MSTORE DUP8 SLOAD SWAP3 SWAP4 SWAP3 SWAP1 SWAP2 DUP3 ADD SWAP1 DUP9 SWAP1 PUSH2 0xDB4 SWAP1 PUSH2 0x35FB JUMP JUMPDEST DUP1 PUSH1 0x1F ADD PUSH1 0x20 DUP1 SWAP2 DIV MUL PUSH1 0x20 ADD PUSH1 0x40 MLOAD SWAP1 DUP2 ADD PUSH1 0x40 MSTORE DUP1 SWAP3 SWAP2 SWAP1 DUP2 DUP2 MSTORE PUSH1 0x20 ADD DUP3 DUP1 SLOAD PUSH2 0xDE0 SWAP1 PUSH2 0x35FB JUMP JUMPDEST DUP1 ISZERO PUSH2 0xE2D JUMPI DUP1 PUSH1 0x1F LT PUSH2 0xE02 JUMPI PUSH2 0x100 DUP1 DUP4 SLOAD DIV MUL DUP4 MSTORE SWAP2 PUSH1 0x20 ADD SWAP2 PUSH2 0xE2D JUMP JUMPDEST DUP3 ADD SWAP2 SWAP1 PUSH1 0x0 MSTORE PUSH1 0x20 PUSH1 0x0 KECCAK256 SWAP1 JUMPDEST DUP2 SLOAD DUP2 MSTORE SWAP1 PUSH1 0x1 ADD SWAP1 PUSH1 0x20 ADD DUP1 DUP4 GT PUSH2 0xE10 JUMPI DUP3 SWAP1 SUB PUSH1 0x1F AND DUP3 ADD SWAP2 JUMPDEST POP POP POP SWAP2 DUP4 MSTORE POP POP TIMESTAMP PUSH1 0x20 DUP1 DUP4 ADD SWAP2 SWAP1 SWAP2 MSTORE PUSH1 0x0 PUSH1 0x40 SWAP3 DUP4 ADD DUP2 SWAP1 MSTORE DUP5 SLOAD PUSH1 0x1 DUP1 DUP3 ADD DUP8 SSTORE SWAP6 DUP3 MSTORE SWAP1 DUP3 SWAP1 KECCAK256 DUP5 MLOAD PUSH1 0x5 SWAP1 SWAP3 MUL ADD SWAP1 DUP2 SSTORE SWAP1 DUP4 ADD MLOAD SWAP4 DUP2 ADD DUP1 SLOAD PUSH1 0x1 PUSH1 0x1 PUSH1 0xA0 SHL SUB NOT AND PUSH1 0x1 PUSH1 0x1 PUSH1 0xA0 SHL SUB SWAP1 SWAP6 AND SWAP5 SWAP1 SWAP5 OR SWAP1 SWAP4 SSTORE DUP2 ADD MLOAD SWAP1 SWAP2 SWAP1 PUSH1 0x2 DUP3 ADD SWAP1 PUSH2 0xE9E SWAP1 DUP3 PUSH2 0x37B9 JUMP JUMPDEST POP PUSH1 0x60 DUP3 ADD MLOAD PUSH1 0x3 DUP3 ADD SSTORE PUSH1 0x80 SWAP1 SWAP2 ADD MLOAD PUSH1 0x4 SWAP1 SWAP2 ADD DUP1 SLOAD PUSH1 0xFF NOT AND SWAP2 ISZERO ISZERO SWAP2 SWAP1 SWAP2 OR SWAP1 SSTORE DUP7 SLOAD PUSH1 0x40 MLOAD PUSH1 0x1 PUSH1 0x1 PUSH1 0xA0 SHL SUB SWAP1 SWAP2 AND SWAP1 DUP3 SWAP1 PUSH32 0xF3DFBA99B7FA142BF424D500B3D5FA25D30F8874511B7F3A64D7A8D8A24015AC SWAP1 PUSH2 0xF05 SWAP1 DUP10 SWAP1 DUP10 SWAP1 PUSH2 0x3878 JUMP JUMPDEST PUSH1 0x40 MLOAD DUP1 SWAP2 SUB SWAP1 LOG3 POP JUMPDEST POP JUMPDEST PUSH2 0xF1B DUP5 DUP9 PUSH2 0x3674 JUMP JUMPDEST SWAP7 POP POP POP POP POP POP JUMPDEST PUSH1 0x1 ADD PUSH2 0xB1D JUMP JUMPDEST POP DUP7 PUSH32 0x8CEBE0364FA3BE34DD31D9DE1E49C6F5AC7577378174D6B32C217CBC70F34374 DUP3 PUSH1 0x40 MLOAD PUSH2 0xF5E SWAP2 DUP2 MSTORE PUSH1 0x20 ADD SWAP1 JUMP JUMPDEST PUSH1 0x40 MLOAD DUP1 SWAP2 SUB SWAP1 LOG2 POP POP POP POP POP POP PUSH2 0xF75 PUSH1 0x1 DUP1 SSTORE JUMP JUMPDEST POP JUMP JUMPDEST PUSH1 0x0 DUP1 CALLVALUE GT PUSH2 0xFB9 JUMPI PUSH1 0x40 MLOAD PUSH3 0x461BCD PUSH1 0xE5 SHL DUP2 MSTORE PUSH1 0x20 PUSH1 0x4 DUP3 ADD MSTORE PUSH1 0xD PUSH1 0x24 DUP3 ADD MSTORE PUSH13 0x9AEAE6E840D8DEC6D6408AA89 PUSH1 0x9B SHL PUSH1 0x44 DUP3 ADD MSTORE PUSH1 0x64 ADD PUSH2 0x8B0 JUMP JUMPDEST DUP5 PUSH2 0xFFD JUMPI PUSH1 0x40 MLOAD PUSH3 0x461BCD PUSH1 0xE5 SHL DUP2 MSTORE PUSH1 0x20 PUSH1 0x4 DUP3 ADD MSTORE PUSH1 0x14 PUSH1 0x24 DUP3 ADD MSTORE PUSH20 0x111A5CD9585CD9481D1859C81C995C5D5A5C9959 PUSH1 0x62 SHL PUSH1 0x44 DUP3 ADD MSTORE PUSH1 0x64 ADD PUSH2 0x8B0 JUMP JUMPDEST DUP3 PUSH2 0x103E JUMPI PUSH1 0x40 MLOAD PUSH3 0x461BCD PUSH1 0xE5 SHL DUP2 MSTORE PUSH1 0x20 PUSH1 0x4 DUP3 ADD MSTORE PUSH1 0x11 PUSH1 0x24 DUP3 ADD MSTORE PUSH17 0x10DC9A5D195C9A58481C995C5D5A5C9959 PUSH1 0x7A SHL PUSH1 0x44 DUP3 ADD MSTORE PUSH1 0x64 ADD PUSH2 0x8B0 JUMP JUMPDEST TIMESTAMP DUP3 GT PUSH2 0x108D JUMPI PUSH1 0x40 MLOAD PUSH3 0x461BCD PUSH1 0xE5 SHL DUP2 MSTORE PUSH1 0x20 PUSH1 0x4 DUP3 ADD MSTORE PUSH1 0x1A PUSH1 0x24 DUP3 ADD MSTORE PUSH32 0x446561646C696E65206D75737420626520696E20667574757265000000000000 PUSH1 0x44 DUP3 ADD MSTORE PUSH1 0x64 ADD PUSH2 0x8B0 JUMP JUMPDEST PUSH1 0x3 DUP1 SLOAD PUSH1 0x0 SWAP2 DUP3 PUSH2 0x109E DUP4 PUSH2 0x3687 JUMP JUMPDEST SWAP2 SWAP1 POP SSTORE SWAP1 POP PUSH1 0x40 MLOAD DUP1 PUSH1 0xE0 ADD PUSH1 0x40 MSTORE DUP1 CALLER PUSH1 0x1 PUSH1 0x1 PUSH1 0xA0 SHL SUB AND DUP2 MSTORE PUSH1 0x20 ADD CALLVALUE DUP2 MSTORE PUSH1 0x20 ADD DUP9 DUP9 DUP1 DUP1 PUSH1 0x1F ADD PUSH1 0x20 DUP1 SWAP2 DIV MUL PUSH1 0x20 ADD PUSH1 0x40 MLOAD SWAP1 DUP2 ADD PUSH1 0x40 MSTORE DUP1 SWAP4 SWAP3 SWAP2 SWAP1 DUP2 DUP2 MSTORE PUSH1 0x20 ADD DUP4 DUP4 DUP1 DUP3 DUP5 CALLDATACOPY PUSH1 0x0 SWAP3 ADD SWAP2 SWAP1 SWAP2 MSTORE POP POP POP SWAP1 DUP3 MSTORE POP PUSH1 0x40 DUP1 MLOAD PUSH1 0x20 PUSH1 0x1F DUP10 ADD DUP2 SWAP1 DIV DUP2 MUL DUP3 ADD DUP2 ADD SWAP1 SWAP3 MSTORE DUP8 DUP2 MSTORE SWAP2 DUP2 ADD SWAP2 SWAP1 DUP9 SWAP1 DUP9 SWAP1 DUP2 SWAP1 DUP5 ADD DUP4 DUP3 DUP1 DUP3 DUP5 CALLDATACOPY PUSH1 0x0 SWAP3 ADD DUP3 SWAP1 MSTORE POP SWAP4 DUP6 MSTORE POP POP POP PUSH1 0x20 DUP3 ADD DUP7 SWAP1 MSTORE PUSH1 0x40 SWAP1 SWAP2 ADD SWAP1 DUP2 MSTORE PUSH1 0x0 PUSH1 0x20 SWAP2 DUP3 ADD DUP2 SWAP1 MSTORE DUP4 DUP2 MSTORE PUSH1 0x2 DUP1 DUP4 MSTORE PUSH1 0x40 SWAP2 DUP3 SWAP1 KECCAK256 DUP5 MLOAD DUP2 SLOAD PUSH1 0x1 PUSH1 0x1 PUSH1 0xA0 SHL SUB NOT AND PUSH1 0x1 PUSH1 0x1 PUSH1 0xA0 SHL SUB SWAP1 SWAP2 AND OR DUP2 SSTORE SWAP3 DUP5 ADD MLOAD PUSH1 0x1 DUP5 ADD SSTORE SWAP1 DUP4 ADD MLOAD SWAP1 DUP3 ADD SWAP1 PUSH2 0x1195 SWAP1 DUP3 PUSH2 0x37B9 JUMP JUMPDEST POP PUSH1 0x60 DUP3 ADD MLOAD PUSH1 0x3 DUP3 ADD SWAP1 PUSH2 0x11AA SWAP1 DUP3 PUSH2 0x37B9 JUMP JUMPDEST POP PUSH1 0x80 DUP3 ADD MLOAD PUSH1 0x4 DUP3 ADD SSTORE PUSH1 0xA0 DUP3 ADD MLOAD PUSH1 0x5 DUP3 ADD DUP1 SLOAD PUSH1 0xFF NOT AND PUSH1 0x1 DUP4 PUSH1 0x2 DUP2 GT ISZERO PUSH2 0x11D8 JUMPI PUSH2 0x11D8 PUSH2 0x3147 JUMP JUMPDEST MUL OR SWAP1 SSTORE POP PUSH1 0xC0 DUP3 ADD MLOAD DUP2 PUSH1 0x6 ADD SSTORE SWAP1 POP POP CALLER PUSH1 0x1 PUSH1 0x1 PUSH1 0xA0 SHL SUB AND DUP2 PUSH32 0xAA830C985894057F0D100743DEFCAD006F0A1ABC40D080C9A23ACC9A81106849 CALLVALUE DUP11 DUP11 PUSH1 0x40 MLOAD PUSH2 0x1228 SWAP4 SWAP3 SWAP2 SWAP1 PUSH2 0x3935 JUMP JUMPDEST PUSH1 0x40 MLOAD DUP1 SWAP2 SUB SWAP1 LOG3 SWAP7 SWAP6 POP POP POP POP POP POP JUMP JUMPDEST PUSH2 0x1242 PUSH2 0x2DBB JUMP JUMPDEST PUSH1 0x7 SLOAD DUP2 LT PUSH2 0x1263 JUMPI PUSH1 0x40 MLOAD PUSH3 0x461BCD PUSH1 0xE5 SHL DUP2 MSTORE PUSH1 0x4 ADD PUSH2 0x8B0 SWAP1 PUSH2 0x3958 JUMP JUMPDEST PUSH1 0x0 PUSH1 0x7 DUP3 DUP2 SLOAD DUP2 LT PUSH2 0x1278 JUMPI PUSH2 0x1278 PUSH2 0x3983 JUMP JUMPDEST PUSH1 0x0 SWAP2 DUP3 MSTORE PUSH1 0x20 SWAP1 SWAP2 KECCAK256 PUSH1 0x5 SWAP1 SWAP2 MUL ADD PUSH1 0x4 DUP2 ADD SLOAD SWAP1 SWAP2 POP PUSH1 0xFF AND ISZERO PUSH2 0x12D2 JUMPI PUSH1 0x40 MLOAD PUSH3 0x461BCD PUSH1 0xE5 SHL DUP2 MSTORE PUSH1 0x20 PUSH1 0x4 DUP3 ADD MSTORE PUSH1 0xF PUSH1 0x24 DUP3 ADD MSTORE PUSH15 0x105B1C9958591E4818DB185A5B5959 PUSH1 0x8A SHL PUSH1 0x44 DUP3 ADD MSTORE PUSH1 0x64 ADD PUSH2 0x8B0 JUMP JUMPDEST PUSH1 0x0 PUSH1 0x6 DUP3 PUSH1 0x2 ADD PUSH1 0x40 MLOAD PUSH2 0x12E7 SWAP2 SWAP1 PUSH2 0x375E JUMP JUMPDEST SWAP1 DUP2 MSTORE PUSH1 0x40 MLOAD SWAP1 DUP2 SWAP1 SUB PUSH1 0x20 ADD SWAP1 KECCAK256 SLOAD PUSH1 0x1 PUSH1 0x1 PUSH1 0xA0 SHL SUB AND SWAP1 POP DUP1 PUSH2 0x1359 JUMPI PUSH1 0x40 MLOAD PUSH3 0x461BCD PUSH1 0xE5 SHL DUP2 MSTORE PUSH1 0x20 PUSH1 0x4 DUP3 ADD MSTORE PUSH1 0x21 PUSH1 0x24 DUP3 ADD MSTORE PUSH32 0x496E737469747574696F6E2077616C6C6574206E6F7420726567697374657265 PUSH1 0x44 DUP3 ADD MSTORE PUSH1 0x19 PUSH1 0xFA SHL PUSH1 0x64 DUP3 ADD MSTORE PUSH1 0x84 ADD PUSH2 0x8B0 JUMP JUMPDEST DUP2 SLOAD PUSH1 0x0 DUP1 DUP5 SSTORE PUSH1 0x4 DUP5 ADD DUP1 SLOAD PUSH1 0xFF NOT AND PUSH1 0x1 OR SWAP1 SSTORE PUSH1 0x40 MLOAD PUSH1 0x1 PUSH1 0x1 PUSH1 0xA0 SHL SUB DUP5 AND SWAP1 DUP4 SWAP1 DUP4 DUP2 DUP2 DUP2 DUP6 DUP8 GAS CALL SWAP3 POP POP POP RETURNDATASIZE DUP1 PUSH1 0x0 DUP2 EQ PUSH2 0x13B7 JUMPI PUSH1 0x40 MLOAD SWAP2 POP PUSH1 0x1F NOT PUSH1 0x3F RETURNDATASIZE ADD AND DUP3 ADD PUSH1 0x40 MSTORE RETURNDATASIZE DUP3 MSTORE RETURNDATASIZE PUSH1 0x0 PUSH1 0x20 DUP5 ADD RETURNDATACOPY PUSH2 0x13BC JUMP JUMPDEST PUSH1 0x60 SWAP2 POP JUMPDEST POP POP SWAP1 POP DUP1 PUSH2 0x1406 JUMPI PUSH1 0x40 MLOAD PUSH3 0x461BCD PUSH1 0xE5 SHL DUP2 MSTORE PUSH1 0x20 PUSH1 0x4 DUP3 ADD MSTORE PUSH1 0x16 PUSH1 0x24 DUP3 ADD MSTORE PUSH22 0x115CD8DC9BDDC81D1C985B9CD9995C8819985A5B1959 PUSH1 0x52 SHL PUSH1 0x44 DUP3 ADD MSTORE PUSH1 0x64 ADD PUSH2 0x8B0 JUMP JUMPDEST DUP3 PUSH1 0x1 PUSH1 0x1 PUSH1 0xA0 SHL SUB AND DUP6 PUSH32 0x264B84D6BB26C82423CFCB91B4220EFABA80E38B8EA7A87B58A80FCAF0956912 DUP5 PUSH1 0x40 MLOAD PUSH2 0x1442 SWAP2 DUP2 MSTORE PUSH1 0x20 ADD SWAP1 JUMP JUMPDEST PUSH1 0x40 MLOAD DUP1 SWAP2 SUB SWAP1 LOG3 POP POP POP POP PUSH2 0xF75 PUSH1 0x1 DUP1 SSTORE JUMP JUMPDEST PUSH2 0x145F PUSH2 0x2DE5 JUMP JUMPDEST PUSH2 0x3E8 DUP2 PUSH2 0xFFFF AND GT ISZERO PUSH2 0x149F JUMPI PUSH1 0x40 MLOAD PUSH3 0x461BCD PUSH1 0xE5 SHL DUP2 MSTORE PUSH1 0x20 PUSH1 0x4 DUP3 ADD MSTORE PUSH1 0x7 PUSH1 0x24 DUP3 ADD MSTORE PUSH7 0x4D617820313025 PUSH1 0xC8 SHL PUSH1 0x44 DUP3 ADD MSTORE PUSH1 0x64 ADD PUSH2 0x8B0 JUMP JUMPDEST PUSH1 0x9 DUP1 SLOAD PUSH2 0xFFFF NOT AND PUSH2 0xFFFF SWAP3 SWAP1 SWAP3 AND SWAP2 SWAP1 SWAP2 OR SWAP1 SSTORE JUMP JUMPDEST PUSH1 0x0 DUP3 DUP2 MSTORE PUSH1 0x2 PUSH1 0x20 MSTORE PUSH1 0x40 SWAP1 KECCAK256 DUP1 SLOAD PUSH1 0x1 PUSH1 0x1 PUSH1 0xA0 SHL SUB AND CALLER EQ PUSH2 0x1517 JUMPI PUSH1 0x40 MLOAD PUSH3 0x461BCD PUSH1 0xE5 SHL DUP2 MSTORE PUSH1 0x20 PUSH1 0x4 DUP3 ADD MSTORE PUSH1 0x16 PUSH1 0x24 DUP3 ADD MSTORE PUSH22 0x13DB9B1E48199D5B99195C8818D85B881C995A9958DD PUSH1 0x52 SHL PUSH1 0x44 DUP3 ADD MSTORE PUSH1 0x64 ADD PUSH2 0x8B0 JUMP JUMPDEST PUSH1 0x0 PUSH1 0x5 DUP3 ADD SLOAD PUSH1 0xFF AND PUSH1 0x2 DUP2 GT ISZERO PUSH2 0x1532 JUMPI PUSH2 0x1532 PUSH2 0x3147 JUMP JUMPDEST EQ PUSH2 0x154F JUMPI PUSH1 0x40 MLOAD PUSH3 0x461BCD PUSH1 0xE5 SHL DUP2 MSTORE PUSH1 0x4 ADD PUSH2 0x8B0 SWAP1 PUSH2 0x3635 JUMP JUMPDEST DUP1 PUSH1 0x6 ADD SLOAD DUP3 LT PUSH2 0x1598 JUMPI PUSH1 0x40 MLOAD PUSH3 0x461BCD PUSH1 0xE5 SHL DUP2 MSTORE PUSH1 0x20 PUSH1 0x4 DUP3 ADD MSTORE PUSH1 0x13 PUSH1 0x24 DUP3 ADD MSTORE PUSH19 0x92DCECC2D8D2C840C6D8C2D2DA40D2DCC8CAF PUSH1 0x6B SHL PUSH1 0x44 DUP3 ADD MSTORE PUSH1 0x64 ADD PUSH2 0x8B0 JUMP JUMPDEST PUSH1 0x0 DUP4 DUP2 MSTORE PUSH1 0x4 PUSH1 0x20 SWAP1 DUP2 MSTORE PUSH1 0x40 DUP1 DUP4 KECCAK256 DUP6 DUP5 MSTORE SWAP1 SWAP2 MSTORE DUP2 KECCAK256 SWAP1 PUSH1 0x3 DUP3 ADD SLOAD PUSH1 0xFF AND PUSH1 0x2 DUP2 GT ISZERO PUSH2 0x15CB JUMPI PUSH2 0x15CB PUSH2 0x3147 JUMP JUMPDEST EQ PUSH2 0x160C JUMPI PUSH1 0x40 MLOAD PUSH3 0x461BCD PUSH1 0xE5 SHL DUP2 MSTORE PUSH1 0x20 PUSH1 0x4 DUP3 ADD MSTORE PUSH1 0x11 PUSH1 0x24 DUP3 ADD MSTORE PUSH17 0x436C61696D206E6F742070656E64696E67 PUSH1 0x78 SHL PUSH1 0x44 DUP3 ADD MSTORE PUSH1 0x64 ADD PUSH2 0x8B0 JUMP JUMPDEST PUSH1 0x3 DUP2 ADD DUP1 SLOAD PUSH1 0xFF NOT AND PUSH1 0x2 OR SWAP1 SSTORE PUSH1 0x40 MLOAD DUP4 DUP2 MSTORE DUP5 SWAP1 PUSH32 0x621EA19C1C391F183740FBD3D1B9F99B02A5726390A86366E23D2E729899BAC1 SWAP1 PUSH1 0x20 ADD JUMPDEST PUSH1 0x40 MLOAD DUP1 SWAP2 SUB SWAP1 LOG2 POP POP POP POP JUMP JUMPDEST PUSH2 0x165F PUSH2 0x2E62 JUMP JUMPDEST PUSH1 0x0 DUP4 DUP2 MSTORE PUSH1 0x4 PUSH1 0x20 SWAP1 DUP2 MSTORE PUSH1 0x40 DUP1 DUP4 KECCAK256 DUP6 DUP5 MSTORE DUP3 MSTORE SWAP2 DUP3 SWAP1 KECCAK256 DUP3 MLOAD PUSH1 0xA0 DUP2 ADD SWAP1 SWAP4 MSTORE DUP1 SLOAD PUSH1 0x1 PUSH1 0x1 PUSH1 0xA0 SHL SUB AND DUP4 MSTORE PUSH1 0x1 DUP2 ADD DUP1 SLOAD SWAP2 SWAP3 DUP5 ADD SWAP2 PUSH2 0x16A3 SWAP1 PUSH2 0x35FB JUMP JUMPDEST DUP1 PUSH1 0x1F ADD PUSH1 0x20 DUP1 SWAP2 DIV MUL PUSH1 0x20 ADD PUSH1 0x40 MLOAD SWAP1 DUP2 ADD PUSH1 0x40 MSTORE DUP1 SWAP3 SWAP2 SWAP1 DUP2 DUP2 MSTORE PUSH1 0x20 ADD DUP3 DUP1 SLOAD PUSH2 0x16CF SWAP1 PUSH2 0x35FB JUMP JUMPDEST DUP1 ISZERO PUSH2 0x171C JUMPI DUP1 PUSH1 0x1F LT PUSH2 0x16F1 JUMPI PUSH2 0x100 DUP1 DUP4 SLOAD DIV MUL DUP4 MSTORE SWAP2 PUSH1 0x20 ADD SWAP2 PUSH2 0x171C JUMP JUMPDEST DUP3 ADD SWAP2 SWAP1 PUSH1 0x0 MSTORE PUSH1 0x20 PUSH1 0x0 KECCAK256 SWAP1 JUMPDEST DUP2 SLOAD DUP2 MSTORE SWAP1 PUSH1 0x1 ADD SWAP1 PUSH1 0x20 ADD DUP1 DUP4 GT PUSH2 0x16FF JUMPI DUP3 SWAP1 SUB PUSH1 0x1F AND DUP3 ADD SWAP2 JUMPDEST POP POP POP POP POP DUP2 MSTORE PUSH1 0x20 ADD PUSH1 0x2 DUP3 ADD DUP1 SLOAD PUSH2 0x1735 SWAP1 PUSH2 0x35FB JUMP JUMPDEST DUP1 PUSH1 0x1F ADD PUSH1 0x20 DUP1 SWAP2 DIV MUL PUSH1 0x20 ADD PUSH1 0x40 MLOAD SWAP1 DUP2 ADD PUSH1 0x40 MSTORE DUP1 SWAP3 SWAP2 SWAP1 DUP2 DUP2 MSTORE PUSH1 0x20 ADD DUP3 DUP1 SLOAD PUSH2 0x1761 SWAP1 PUSH2 0x35FB JUMP JUMPDEST DUP1 ISZERO PUSH2 0x17AE JUMPI DUP1 PUSH1 0x1F LT PUSH2 0x1783 JUMPI PUSH2 0x100 DUP1 DUP4 SLOAD DIV MUL DUP4 MSTORE SWAP2 PUSH1 0x20 ADD SWAP2 PUSH2 0x17AE JUMP JUMPDEST DUP3 ADD SWAP2 SWAP1 PUSH1 0x0 MSTORE PUSH1 0x20 PUSH1 0x0 KECCAK256 SWAP1 JUMPDEST DUP2 SLOAD DUP2 MSTORE SWAP1 PUSH1 0x1 ADD SWAP1 PUSH1 0x20 ADD DUP1 DUP4 GT PUSH2 0x1791 JUMPI DUP3 SWAP1 SUB PUSH1 0x1F AND DUP3 ADD SWAP2 JUMPDEST POP POP POP SWAP2 DUP4 MSTORE POP POP PUSH1 0x3 DUP3 ADD SLOAD PUSH1 0x20 SWAP1 SWAP2 ADD SWAP1 PUSH1 0xFF AND PUSH1 0x2 DUP2 GT ISZERO PUSH2 0x17D5 JUMPI PUSH2 0x17D5 PUSH2 0x3147 JUMP JUMPDEST PUSH1 0x2 DUP2 GT ISZERO PUSH2 0x17E6 JUMPI PUSH2 0x17E6 PUSH2 0x3147 JUMP JUMPDEST DUP2 MSTORE PUSH1 0x3 SWAP2 SWAP1 SWAP2 ADD SLOAD PUSH2 0x100 SWAP1 DIV PUSH2 0xFFFF AND PUSH1 0x20 SWAP1 SWAP2 ADD MSTORE SWAP1 POP JUMPDEST SWAP3 SWAP2 POP POP JUMP JUMPDEST PUSH2 0x180F PUSH2 0x2DBB JUMP JUMPDEST PUSH1 0x7 SLOAD DUP2 LT PUSH2 0x1830 JUMPI PUSH1 0x40 MLOAD PUSH3 0x461BCD PUSH1 0xE5 SHL DUP2 MSTORE PUSH1 0x4 ADD PUSH2 0x8B0 SWAP1 PUSH2 0x3958 JUMP JUMPDEST PUSH1 0x0 PUSH1 0x7 DUP3 DUP2 SLOAD DUP2 LT PUSH2 0x1845 JUMPI PUSH2 0x1845 PUSH2 0x3983 JUMP JUMPDEST PUSH1 0x0 SWAP2 DUP3 MSTORE PUSH1 0x20 SWAP1 SWAP2 KECCAK256 PUSH1 0x5 SWAP1 SWAP2 MUL ADD PUSH1 0x4 DUP2 ADD SLOAD SWAP1 SWAP2 POP PUSH1 0xFF AND ISZERO PUSH2 0x189F JUMPI PUSH1 0x40 MLOAD PUSH3 0x461BCD PUSH1 0xE5 SHL DUP2 MSTORE PUSH1 0x20 PUSH1 0x4 DUP3 ADD MSTORE PUSH1 0xF PUSH1 0x24 DUP3 ADD MSTORE PUSH15 0x105B1C9958591E4818DB185A5B5959 PUSH1 0x8A SHL PUSH1 0x44 DUP3 ADD MSTORE PUSH1 0x64 ADD PUSH2 0x8B0 JUMP JUMPDEST PUSH1 0x1 DUP2 ADD SLOAD PUSH1 0x1 PUSH1 0x1 PUSH1 0xA0 SHL SUB AND CALLER EQ PUSH2 0x18FB JUMPI PUSH1 0x40 MLOAD PUSH3 0x461BCD PUSH1 0xE5 SHL DUP2 MSTORE PUSH1 0x20 PUSH1 0x4 DUP3 ADD MSTORE PUSH1 0x1B PUSH1 0x24 DUP3 ADD MSTORE PUSH32 0x4F6E6C7920736369656E746973742063616E2077697468647261770000000000 PUSH1 0x44 DUP3 ADD MSTORE PUSH1 0x64 ADD PUSH2 0x8B0 JUMP JUMPDEST PUSH1 0x8 SLOAD DUP2 PUSH1 0x3 ADD SLOAD PUSH2 0x190D SWAP2 SWAP1 PUSH2 0x3674 JUMP JUMPDEST TIMESTAMP LT ISZERO PUSH2 0x195C JUMPI PUSH1 0x40 MLOAD PUSH3 0x461BCD PUSH1 0xE5 SHL DUP2 MSTORE PUSH1 0x20 PUSH1 0x4 DUP3 ADD MSTORE PUSH1 0x19 PUSH1 0x24 DUP3 ADD MSTORE PUSH32 0x457363726F7720706572696F64206E6F7420656C617073656400000000000000 PUSH1 0x44 DUP3 ADD MSTORE PUSH1 0x64 ADD PUSH2 0x8B0 JUMP JUMPDEST PUSH1 0x0 PUSH1 0x1 PUSH1 0x1 PUSH1 0xA0 SHL SUB AND PUSH1 0x6 DUP3 PUSH1 0x2 ADD PUSH1 0x40 MLOAD PUSH2 0x197A SWAP2 SWAP1 PUSH2 0x375E JUMP JUMPDEST SWAP1 DUP2 MSTORE PUSH1 0x40 MLOAD SWAP1 DUP2 SWAP1 SUB PUSH1 0x20 ADD SWAP1 KECCAK256 SLOAD PUSH1 0x1 PUSH1 0x1 PUSH1 0xA0 SHL SUB AND EQ PUSH2 0x19F8 JUMPI PUSH1 0x40 MLOAD PUSH3 0x461BCD PUSH1 0xE5 SHL DUP2 MSTORE PUSH1 0x20 PUSH1 0x4 DUP3 ADD MSTORE PUSH1 0x2F PUSH1 0x24 DUP3 ADD MSTORE PUSH32 0x496E737469747574696F6E2077616C6C65742072656769737465726564202D20 PUSH1 0x44 DUP3 ADD MSTORE PUSH15 0x75736520636C61696D457363726F77 PUSH1 0x88 SHL PUSH1 0x64 DUP3 ADD MSTORE PUSH1 0x84 ADD PUSH2 0x8B0 JUMP JUMPDEST DUP1 SLOAD PUSH1 0x0 DUP1 DUP4 SSTORE PUSH1 0x4 DUP4 ADD DUP1 SLOAD PUSH1 0xFF NOT AND PUSH1 0x1 OR SWAP1 SSTORE PUSH1 0x40 MLOAD CALLER SWAP1 DUP4 SWAP1 DUP4 DUP2 DUP2 DUP2 DUP6 DUP8 GAS CALL SWAP3 POP POP POP RETURNDATASIZE DUP1 PUSH1 0x0 DUP2 EQ PUSH2 0x1A4D JUMPI PUSH1 0x40 MLOAD SWAP2 POP PUSH1 0x1F NOT PUSH1 0x3F RETURNDATASIZE ADD AND DUP3 ADD PUSH1 0x40 MSTORE RETURNDATASIZE DUP3 MSTORE RETURNDATASIZE PUSH1 0x0 PUSH1 0x20 DUP5 ADD RETURNDATACOPY PUSH2 0x1A52 JUMP JUMPDEST PUSH1 0x60 SWAP2 POP JUMPDEST POP POP SWAP1 POP DUP1 PUSH2 0x1A97 JUMPI PUSH1 0x40 MLOAD PUSH3 0x461BCD PUSH1 0xE5 SHL DUP2 MSTORE PUSH1 0x20 PUSH1 0x4 DUP3 ADD MSTORE PUSH1 0x11 PUSH1 0x24 DUP3 ADD MSTORE PUSH17 0x15DA5D1A191C985DD85B0819985A5B1959 PUSH1 0x7A SHL PUSH1 0x44 DUP3 ADD MSTORE PUSH1 0x64 ADD PUSH2 0x8B0 JUMP JUMPDEST PUSH1 0x40 MLOAD DUP3 DUP2 MSTORE CALLER SWAP1 DUP6 SWAP1 PUSH32 0xD8EDBF57D0B48888B6382178C02E40585A009D26E3B9CEC26123B7572A38A34B SWAP1 PUSH1 0x20 ADD PUSH1 0x40 MLOAD DUP1 SWAP2 SUB SWAP1 LOG3 POP POP POP PUSH2 0xF75 PUSH1 0x1 DUP1 SSTORE JUMP JUMPDEST PUSH2 0x1AE2 PUSH2 0x2DE5 JUMP JUMPDEST DUP2 PUSH2 0x1B1F JUMPI PUSH1 0x40 MLOAD PUSH3 0x461BCD PUSH1 0xE5 SHL DUP2 MSTORE PUSH1 0x20 PUSH1 0x4 DUP3 ADD MSTORE PUSH1 0xD PUSH1 0x24 DUP3 ADD MSTORE PUSH13 0x13985B59481C995C5D5A5C9959 PUSH1 0x9A SHL PUSH1 0x44 DUP3 ADD MSTORE PUSH1 0x64 ADD PUSH2 0x8B0 JUMP JUMPDEST PUSH1 0x1 PUSH1 0x1 PUSH1 0xA0 SHL SUB DUP2 AND PUSH2 0x1B66 JUMPI PUSH1 0x40 MLOAD PUSH3 0x461BCD PUSH1 0xE5 SHL DUP2 MSTORE PUSH1 0x20 PUSH1 0x4 DUP3 ADD MSTORE PUSH1 0xE PUSH1 0x24 DUP3 ADD MSTORE PUSH14 0x125B9D985B1A59081DD85B1B195D PUSH1 0x92 SHL PUSH1 0x44 DUP3 ADD MSTORE PUSH1 0x64 ADD PUSH2 0x8B0 JUMP JUMPDEST DUP1 PUSH1 0x6 DUP5 DUP5 PUSH1 0x40 MLOAD PUSH2 0x1B79 SWAP3 SWAP2 SWAP1 PUSH2 0x3999 JUMP JUMPDEST SWAP1 DUP2 MSTORE PUSH1 0x40 MLOAD SWAP1 DUP2 SWAP1 SUB PUSH1 0x20 ADD DUP2 KECCAK256 DUP1 SLOAD PUSH1 0x1 PUSH1 0x1 PUSH1 0xA0 SHL SUB SWAP4 SWAP1 SWAP4 AND PUSH1 0x1 PUSH1 0x1 PUSH1 0xA0 SHL SUB NOT SWAP1 SWAP4 AND SWAP3 SWAP1 SWAP3 OR SWAP1 SWAP2 SSTORE PUSH32 0xC5EC352C9F47AABF14E60792158A4FF9DDF3C74C52AB50E2BF9B5F9FA68CDD9E SWAP1 PUSH2 0x1BDA SWAP1 DUP6 SWAP1 DUP6 SWAP1 DUP6 SWAP1 PUSH2 0x39A9 JUMP JUMPDEST PUSH1 0x40 MLOAD DUP1 SWAP2 SUB SWAP1 LOG1 POP POP POP JUMP JUMPDEST PUSH1 0x0 DUP4 DUP2 MSTORE PUSH1 0x2 PUSH1 0x20 MSTORE PUSH1 0x40 SWAP1 KECCAK256 DUP1 SLOAD PUSH1 0x1 PUSH1 0x1 PUSH1 0xA0 SHL SUB AND CALLER EQ PUSH2 0x1C4E JUMPI PUSH1 0x40 MLOAD PUSH3 0x461BCD PUSH1 0xE5 SHL DUP2 MSTORE PUSH1 0x20 PUSH1 0x4 DUP3 ADD MSTORE PUSH1 0x17 PUSH1 0x24 DUP3 ADD MSTORE PUSH32 0x4F6E6C792066756E6465722063616E20617070726F7665000000000000000000 PUSH1 0x44 DUP3 ADD MSTORE PUSH1 0x64 ADD PUSH2 0x8B0 JUMP JUMPDEST PUSH1 0x0 PUSH1 0x5 DUP3 ADD SLOAD PUSH1 0xFF AND PUSH1 0x2 DUP2 GT ISZERO PUSH2 0x1C69 JUMPI PUSH2 0x1C69 PUSH2 0x3147 JUMP JUMPDEST EQ PUSH2 0x1C86 JUMPI PUSH1 0x40 MLOAD PUSH3 0x461BCD PUSH1 0xE5 SHL DUP2 MSTORE PUSH1 0x4 ADD PUSH2 0x8B0 SWAP1 PUSH2 0x3635 JUMP JUMPDEST DUP1 PUSH1 0x6 ADD SLOAD DUP4 LT PUSH2 0x1CCF JUMPI PUSH1 0x40 MLOAD PUSH3 0x461BCD PUSH1 0xE5 SHL DUP2 MSTORE PUSH1 0x20 PUSH1 0x4 DUP3 ADD MSTORE PUSH1 0x13 PUSH1 0x24 DUP3 ADD MSTORE PUSH19 0x92DCECC2D8D2C840C6D8C2D2DA40D2DCC8CAF PUSH1 0x6B SHL PUSH1 0x44 DUP3 ADD MSTORE PUSH1 0x64 ADD PUSH2 0x8B0 JUMP JUMPDEST PUSH1 0x0 DUP5 DUP2 MSTORE PUSH1 0x4 PUSH1 0x20 SWAP1 DUP2 MSTORE PUSH1 0x40 DUP1 DUP4 KECCAK256 DUP7 DUP5 MSTORE SWAP1 SWAP2 MSTORE DUP2 KECCAK256 SWAP1 PUSH1 0x3 DUP3 ADD SLOAD PUSH1 0xFF AND PUSH1 0x2 DUP2 GT ISZERO PUSH2 0x1D02 JUMPI PUSH2 0x1D02 PUSH2 0x3147 JUMP JUMPDEST EQ PUSH2 0x1D43 JUMPI PUSH1 0x40 MLOAD PUSH3 0x461BCD PUSH1 0xE5 SHL DUP2 MSTORE PUSH1 0x20 PUSH1 0x4 DUP3 ADD MSTORE PUSH1 0x11 PUSH1 0x24 DUP3 ADD MSTORE PUSH17 0x436C61696D206E6F742070656E64696E67 PUSH1 0x78 SHL PUSH1 0x44 DUP3 ADD MSTORE PUSH1 0x64 ADD PUSH2 0x8B0 JUMP JUMPDEST PUSH1 0x0 DUP4 PUSH2 0xFFFF AND GT DUP1 ISZERO PUSH2 0x1D5D JUMPI POP PUSH2 0x2710 DUP4 PUSH2 0xFFFF AND GT ISZERO JUMPDEST PUSH2 0x1D99 JUMPI PUSH1 0x40 MLOAD PUSH3 0x461BCD PUSH1 0xE5 SHL DUP2 MSTORE PUSH1 0x20 PUSH1 0x4 DUP3 ADD MSTORE PUSH1 0xD PUSH1 0x24 DUP3 ADD MSTORE PUSH13 0x496E76616C6964207368617265 PUSH1 0x98 SHL PUSH1 0x44 DUP3 ADD MSTORE PUSH1 0x64 ADD PUSH2 0x8B0 JUMP JUMPDEST PUSH1 0x3 DUP2 ADD DUP1 SLOAD PUSH2 0xFFFF DUP6 AND PUSH2 0x100 DUP2 MUL PUSH3 0xFFFFFF NOT SWAP1 SWAP3 AND SWAP2 SWAP1 SWAP2 OR PUSH1 0x1 OR SWAP1 SWAP2 SSTORE PUSH1 0x40 DUP1 MLOAD DUP7 DUP2 MSTORE PUSH1 0x20 DUP2 ADD SWAP3 SWAP1 SWAP3 MSTORE DUP7 SWAP2 PUSH32 0x6A40DF006EED64E4EF1101FAD4A98474571D4A8F883DB17A17768F8CD2629FE3 SWAP2 ADD PUSH1 0x40 MLOAD DUP1 SWAP2 SUB SWAP1 LOG2 POP POP POP POP POP JUMP JUMPDEST PUSH2 0x1E06 PUSH2 0x2DE5 JUMP JUMPDEST PUSH2 0x1E10 PUSH1 0x0 PUSH2 0x2E12 JUMP JUMPDEST JUMP JUMPDEST PUSH2 0x1E4F PUSH1 0x40 MLOAD DUP1 PUSH1 0xA0 ADD PUSH1 0x40 MSTORE DUP1 PUSH1 0x0 DUP2 MSTORE PUSH1 0x20 ADD PUSH1 0x0 PUSH1 0x1 PUSH1 0x1 PUSH1 0xA0 SHL SUB AND DUP2 MSTORE PUSH1 0x20 ADD PUSH1 0x60 DUP2 MSTORE PUSH1 0x20 ADD PUSH1 0x0 DUP2 MSTORE PUSH1 0x20 ADD PUSH1 0x0 ISZERO ISZERO DUP2 MSTORE POP SWAP1 JUMP JUMPDEST PUSH1 0x7 SLOAD DUP3 LT PUSH2 0x1E70 JUMPI PUSH1 0x40 MLOAD PUSH3 0x461BCD PUSH1 0xE5 SHL DUP2 MSTORE PUSH1 0x4 ADD PUSH2 0x8B0 SWAP1 PUSH2 0x3958 JUMP JUMPDEST PUSH1 0x7 DUP3 DUP2 SLOAD DUP2 LT PUSH2 0x1E83 JUMPI PUSH2 0x1E83 PUSH2 0x3983 JUMP JUMPDEST SWAP1 PUSH1 0x0 MSTORE PUSH1 0x20 PUSH1 0x0 KECCAK256 SWAP1 PUSH1 0x5 MUL ADD PUSH1 0x40 MLOAD DUP1 PUSH1 0xA0 ADD PUSH1 0x40 MSTORE SWAP1 DUP2 PUSH1 0x0 DUP3 ADD SLOAD DUP2 MSTORE PUSH1 0x20 ADD PUSH1 0x1 DUP3 ADD PUSH1 0x0 SWAP1 SLOAD SWAP1 PUSH2 0x100 EXP SWAP1 DIV PUSH1 0x1 PUSH1 0x1 PUSH1 0xA0 SHL SUB AND PUSH1 0x1 PUSH1 0x1 PUSH1 0xA0 SHL SUB AND PUSH1 0x1 PUSH1 0x1 PUSH1 0xA0 SHL SUB AND DUP2 MSTORE PUSH1 0x20 ADD PUSH1 0x2 DUP3 ADD DUP1 SLOAD PUSH2 0x1EE5 SWAP1 PUSH2 0x35FB JUMP JUMPDEST DUP1 PUSH1 0x1F ADD PUSH1 0x20 DUP1 SWAP2 DIV MUL PUSH1 0x20 ADD PUSH1 0x40 MLOAD SWAP1 DUP2 ADD PUSH1 0x40 MSTORE DUP1 SWAP3 SWAP2 SWAP1 DUP2 DUP2 MSTORE PUSH1 0x20 ADD DUP3 DUP1 SLOAD PUSH2 0x1F11 SWAP1 PUSH2 0x35FB JUMP JUMPDEST DUP1 ISZERO PUSH2 0x1F5E JUMPI DUP1 PUSH1 0x1F LT PUSH2 0x1F33 JUMPI PUSH2 0x100 DUP1 DUP4 SLOAD DIV MUL DUP4 MSTORE SWAP2 PUSH1 0x20 ADD SWAP2 PUSH2 0x1F5E JUMP JUMPDEST DUP3 ADD SWAP2 SWAP1 PUSH1 0x0 MSTORE PUSH1 0x20 PUSH1 0x0 KECCAK256 SWAP1 JUMPDEST DUP2 SLOAD DUP2 MSTORE SWAP1 PUSH1 0x1 ADD SWAP1 PUSH1 0x20 ADD DUP1 DUP4 GT PUSH2 0x1F41 JUMPI DUP3 SWAP1 SUB PUSH1 0x1F AND DUP3 ADD SWAP2 JUMPDEST POP POP POP SWAP2 DUP4 MSTORE POP POP PUSH1 0x3 DUP3 ADD SLOAD PUSH1 0x20 DUP3 ADD MSTORE PUSH1 0x4 SWAP1 SWAP2 ADD SLOAD PUSH1 0xFF AND ISZERO ISZERO PUSH1 0x40 SWAP1 SWAP2 ADD MSTORE SWAP3 SWAP2 POP POP JUMP JUMPDEST DUP2 PUSH2 0x1FD4 JUMPI PUSH1 0x40 MLOAD PUSH3 0x461BCD PUSH1 0xE5 SHL DUP2 MSTORE PUSH1 0x20 PUSH1 0x4 DUP3 ADD MSTORE PUSH1 0x19 PUSH1 0x24 DUP3 ADD MSTORE PUSH32 0x496E737469747574696F6E206E616D6520726571756972656400000000000000 PUSH1 0x44 DUP3 ADD MSTORE PUSH1 0x64 ADD PUSH2 0x8B0 JUMP JUMPDEST PUSH2 0x2710 DUP2 PUSH2 0xFFFF AND GT ISZERO PUSH2 0x201F JUMPI PUSH1 0x40 MLOAD PUSH3 0x461BCD PUSH1 0xE5 SHL DUP2 MSTORE PUSH1 0x20 PUSH1 0x4 DUP3 ADD MSTORE PUSH1 0x12 PUSH1 0x24 DUP3 ADD MSTORE PUSH18 0x53706C697420657863656564732031303025 PUSH1 0x70 SHL PUSH1 0x44 DUP3 ADD MSTORE PUSH1 0x64 ADD PUSH2 0x8B0 JUMP JUMPDEST PUSH1 0x0 PUSH1 0x6 DUP5 DUP5 PUSH1 0x40 MLOAD PUSH2 0x2033 SWAP3 SWAP2 SWAP1 PUSH2 0x3999 JUMP JUMPDEST SWAP1 DUP2 MSTORE PUSH1 0x40 DUP1 MLOAD SWAP2 DUP3 SWAP1 SUB PUSH1 0x20 SWAP1 DUP2 ADD DUP4 KECCAK256 SLOAD PUSH1 0xA0 PUSH1 0x1F DUP9 ADD DUP4 SWAP1 DIV SWAP1 SWAP3 MUL DUP5 ADD DUP3 ADD SWAP1 SWAP3 MSTORE PUSH1 0x80 DUP4 ADD DUP7 DUP2 MSTORE PUSH1 0x1 PUSH1 0x1 PUSH1 0xA0 SHL SUB SWAP1 SWAP3 AND SWAP4 POP DUP3 SWAP2 SWAP1 DUP8 SWAP1 DUP8 SWAP1 DUP2 SWAP1 DUP6 ADD DUP4 DUP3 DUP1 DUP3 DUP5 CALLDATACOPY PUSH1 0x0 SWAP3 ADD DUP3 SWAP1 MSTORE POP SWAP4 DUP6 MSTORE POP POP POP PUSH2 0xFFFF DUP6 AND PUSH1 0x20 DUP1 DUP5 ADD SWAP2 SWAP1 SWAP2 MSTORE PUSH1 0x1 PUSH1 0x1 PUSH1 0xA0 SHL SUB DUP6 AND PUSH1 0x40 DUP1 DUP6 ADD SWAP2 SWAP1 SWAP2 MSTORE PUSH1 0x1 PUSH1 0x60 SWAP1 SWAP5 ADD SWAP4 SWAP1 SWAP4 MSTORE CALLER DUP3 MSTORE PUSH1 0x5 SWAP1 MSTORE KECCAK256 DUP2 MLOAD DUP2 SWAP1 PUSH2 0x20CE SWAP1 DUP3 PUSH2 0x37B9 JUMP JUMPDEST POP PUSH1 0x20 DUP3 ADD MLOAD PUSH1 0x1 SWAP1 SWAP2 ADD DUP1 SLOAD PUSH1 0x40 DUP1 DUP6 ADD MLOAD PUSH1 0x60 SWAP1 SWAP6 ADD MLOAD ISZERO ISZERO PUSH1 0x1 PUSH1 0xB0 SHL MUL PUSH1 0xFF PUSH1 0xB0 SHL NOT PUSH1 0x1 PUSH1 0x1 PUSH1 0xA0 SHL SUB SWAP1 SWAP7 AND PUSH3 0x10000 MUL PUSH1 0x1 PUSH1 0x1 PUSH1 0xB0 SHL SUB NOT SWAP1 SWAP4 AND PUSH2 0xFFFF SWAP1 SWAP6 AND SWAP5 SWAP1 SWAP5 OR SWAP2 SWAP1 SWAP2 OR SWAP4 SWAP1 SWAP4 AND SWAP2 SWAP1 SWAP2 OR SWAP1 SSTORE MLOAD CALLER SWAP1 PUSH32 0x58F2326AFF0FEEA69B09C6917F7A10E6901FE11AC31B655095FC012B713EFD0B SWAP1 PUSH2 0x1649 SWAP1 DUP8 SWAP1 DUP8 SWAP1 DUP8 SWAP1 PUSH2 0x39D5 JUMP JUMPDEST PUSH1 0x0 DUP6 DUP2 MSTORE PUSH1 0x2 PUSH1 0x20 MSTORE PUSH1 0x40 DUP2 KECCAK256 DUP1 SLOAD PUSH1 0x1 PUSH1 0x1 PUSH1 0xA0 SHL SUB AND PUSH2 0x21BA JUMPI PUSH1 0x40 MLOAD PUSH3 0x461BCD PUSH1 0xE5 SHL DUP2 MSTORE PUSH1 0x20 PUSH1 0x4 DUP3 ADD MSTORE PUSH1 0x15 PUSH1 0x24 DUP3 ADD MSTORE PUSH21 0x109BDD5B9D1E48191BD95CC81B9BDD08195E1A5CDD PUSH1 0x5A SHL PUSH1 0x44 DUP3 ADD MSTORE PUSH1 0x64 ADD PUSH2 0x8B0 JUMP JUMPDEST PUSH1 0x0 PUSH1 0x5 DUP3 ADD SLOAD PUSH1 0xFF AND PUSH1 0x2 DUP2 GT ISZERO PUSH2 0x21D5 JUMPI PUSH2 0x21D5 PUSH2 0x3147 JUMP JUMPDEST EQ PUSH2 0x21F2 JUMPI PUSH1 0x40 MLOAD PUSH3 0x461BCD PUSH1 0xE5 SHL DUP2 MSTORE PUSH1 0x4 ADD PUSH2 0x8B0 SWAP1 PUSH2 0x3635 JUMP JUMPDEST CALLER PUSH1 0x0 SWAP1 DUP2 MSTORE PUSH1 0x5 PUSH1 0x20 MSTORE PUSH1 0x40 SWAP1 KECCAK256 PUSH1 0x1 ADD SLOAD PUSH1 0x1 PUSH1 0xB0 SHL SWAP1 DIV PUSH1 0xFF AND PUSH2 0x225B JUMPI PUSH1 0x40 MLOAD PUSH3 0x461BCD PUSH1 0xE5 SHL DUP2 MSTORE PUSH1 0x20 PUSH1 0x4 DUP3 ADD DUP2 SWAP1 MSTORE PUSH1 0x24 DUP3 ADD MSTORE PUSH32 0x4D75737420726567697374657220617320736369656E74697374206669727374 PUSH1 0x44 DUP3 ADD MSTORE PUSH1 0x64 ADD PUSH2 0x8B0 JUMP JUMPDEST DUP5 PUSH2 0x2299 JUMPI PUSH1 0x40 MLOAD PUSH3 0x461BCD PUSH1 0xE5 SHL DUP2 MSTORE PUSH1 0x20 PUSH1 0x4 DUP3 ADD MSTORE PUSH1 0xE PUSH1 0x24 DUP3 ADD MSTORE PUSH14 0x1493C81251081C995C5D5A5C9959 PUSH1 0x92 SHL PUSH1 0x44 DUP3 ADD MSTORE PUSH1 0x64 ADD PUSH2 0x8B0 JUMP JUMPDEST DUP3 PUSH2 0x22DF JUMPI PUSH1 0x40 MLOAD PUSH3 0x461BCD PUSH1 0xE5 SHL DUP2 MSTORE PUSH1 0x20 PUSH1 0x4 DUP3 ADD MSTORE PUSH1 0x16 PUSH1 0x24 DUP3 ADD MSTORE PUSH22 0x129D5CDD1A599A58D85D1A5BDB881C995C5D5A5C9959 PUSH1 0x52 SHL PUSH1 0x44 DUP3 ADD MSTORE PUSH1 0x64 ADD PUSH2 0x8B0 JUMP JUMPDEST PUSH1 0x0 JUMPDEST DUP2 PUSH1 0x6 ADD SLOAD DUP2 LT ISZERO PUSH2 0x2396 JUMPI DUP7 DUP7 PUSH1 0x40 MLOAD PUSH2 0x22FE SWAP3 SWAP2 SWAP1 PUSH2 0x3999 JUMP JUMPDEST PUSH1 0x40 DUP1 MLOAD SWAP2 DUP3 SWAP1 SUB DUP3 KECCAK256 PUSH1 0x0 DUP12 DUP2 MSTORE PUSH1 0x4 PUSH1 0x20 SWAP1 DUP2 MSTORE DUP4 DUP3 KECCAK256 DUP7 DUP4 MSTORE SWAP1 MSTORE SWAP2 SWAP1 SWAP2 KECCAK256 SWAP1 SWAP2 PUSH2 0x232F SWAP2 PUSH1 0x1 ADD SWAP1 PUSH2 0x375E JUMP JUMPDEST PUSH1 0x40 MLOAD DUP1 SWAP2 SUB SWAP1 KECCAK256 SUB PUSH2 0x238E JUMPI PUSH1 0x40 MLOAD PUSH3 0x461BCD PUSH1 0xE5 SHL DUP2 MSTORE PUSH1 0x20 PUSH1 0x4 DUP3 ADD MSTORE PUSH1 0x21 PUSH1 0x24 DUP3 ADD MSTORE PUSH32 0x524F20616C726561647920636C61696D6564206F6E207468697320626F756E74 PUSH1 0x44 DUP3 ADD MSTORE PUSH1 0x79 PUSH1 0xF8 SHL PUSH1 0x64 DUP3 ADD MSTORE PUSH1 0x84 ADD PUSH2 0x8B0 JUMP JUMPDEST PUSH1 0x1 ADD PUSH2 0x22E2 JUMP JUMPDEST POP PUSH1 0x6 DUP2 ADD DUP1 SLOAD PUSH1 0x0 SWAP2 DUP3 PUSH2 0x23AA DUP4 PUSH2 0x3687 JUMP JUMPDEST SWAP2 SWAP1 POP SSTORE SWAP1 POP PUSH1 0x40 MLOAD DUP1 PUSH1 0xA0 ADD PUSH1 0x40 MSTORE DUP1 CALLER PUSH1 0x1 PUSH1 0x1 PUSH1 0xA0 SHL SUB AND DUP2 MSTORE PUSH1 0x20 ADD DUP9 DUP9 DUP1 DUP1 PUSH1 0x1F ADD PUSH1 0x20 DUP1 SWAP2 DIV MUL PUSH1 0x20 ADD PUSH1 0x40 MLOAD SWAP1 DUP2 ADD PUSH1 0x40 MSTORE DUP1 SWAP4 SWAP3 SWAP2 SWAP1 DUP2 DUP2 MSTORE PUSH1 0x20 ADD DUP4 DUP4 DUP1 DUP3 DUP5 CALLDATACOPY PUSH1 0x0 SWAP3 ADD SWAP2 SWAP1 SWAP2 MSTORE POP POP POP SWAP1 DUP3 MSTORE POP PUSH1 0x40 DUP1 MLOAD PUSH1 0x20 PUSH1 0x1F DUP10 ADD DUP2 SWAP1 DIV DUP2 MUL DUP3 ADD DUP2 ADD SWAP1 SWAP3 MSTORE DUP8 DUP2 MSTORE SWAP2 DUP2 ADD SWAP2 SWAP1 DUP9 SWAP1 DUP9 SWAP1 DUP2 SWAP1 DUP5 ADD DUP4 DUP3 DUP1 DUP3 DUP5 CALLDATACOPY PUSH1 0x0 SWAP3 ADD DUP3 SWAP1 MSTORE POP SWAP4 DUP6 MSTORE POP POP PUSH1 0x20 SWAP1 SWAP3 ADD SWAP2 POP DUP2 MSTORE PUSH1 0x0 PUSH1 0x20 SWAP2 DUP3 ADD DUP2 SWAP1 MSTORE DUP11 DUP2 MSTORE PUSH1 0x4 DUP3 MSTORE PUSH1 0x40 DUP1 DUP3 KECCAK256 DUP6 DUP4 MSTORE DUP4 MSTORE SWAP1 KECCAK256 DUP3 MLOAD DUP2 SLOAD PUSH1 0x1 PUSH1 0x1 PUSH1 0xA0 SHL SUB NOT AND PUSH1 0x1 PUSH1 0x1 PUSH1 0xA0 SHL SUB SWAP1 SWAP2 AND OR DUP2 SSTORE SWAP1 DUP3 ADD MLOAD PUSH1 0x1 DUP3 ADD SWAP1 PUSH2 0x2491 SWAP1 DUP3 PUSH2 0x37B9 JUMP JUMPDEST POP PUSH1 0x40 DUP3 ADD MLOAD PUSH1 0x2 DUP3 ADD SWAP1 PUSH2 0x24A6 SWAP1 DUP3 PUSH2 0x37B9 JUMP JUMPDEST POP PUSH1 0x60 DUP3 ADD MLOAD PUSH1 0x3 DUP3 ADD DUP1 SLOAD PUSH1 0xFF NOT AND PUSH1 0x1 DUP4 PUSH1 0x2 DUP2 GT ISZERO PUSH2 0x24CA JUMPI PUSH2 0x24CA PUSH2 0x3147 JUMP JUMPDEST MUL OR SWAP1 SSTORE POP PUSH1 0x80 DUP3 ADD MLOAD DUP2 PUSH1 0x3 ADD PUSH1 0x1 PUSH2 0x100 EXP DUP2 SLOAD DUP2 PUSH2 0xFFFF MUL NOT AND SWAP1 DUP4 PUSH2 0xFFFF AND MUL OR SWAP1 SSTORE POP SWAP1 POP POP CALLER PUSH1 0x1 PUSH1 0x1 PUSH1 0xA0 SHL SUB AND DUP9 PUSH32 0xBEE96127FC856F54721F3E15C7D0F27A7947ED6C05F35A313EF16B5AE6653A83 DUP4 DUP11 DUP11 PUSH1 0x40 MLOAD PUSH2 0x2533 SWAP4 SWAP3 SWAP2 SWAP1 PUSH2 0x3935 JUMP JUMPDEST PUSH1 0x40 MLOAD DUP1 SWAP2 SUB SWAP1 LOG3 SWAP8 SWAP7 POP POP POP POP POP POP POP JUMP JUMPDEST PUSH2 0x254E PUSH2 0x2DE5 JUMP JUMPDEST PUSH1 0x8 SSTORE JUMP JUMPDEST PUSH1 0x5 PUSH1 0x20 MSTORE PUSH1 0x0 SWAP1 DUP2 MSTORE PUSH1 0x40 SWAP1 KECCAK256 DUP1 SLOAD DUP2 SWAP1 PUSH2 0x256E SWAP1 PUSH2 0x35FB JUMP JUMPDEST DUP1 PUSH1 0x1F ADD PUSH1 0x20 DUP1 SWAP2 DIV MUL PUSH1 0x20 ADD PUSH1 0x40 MLOAD SWAP1 DUP2 ADD PUSH1 0x40 MSTORE DUP1 SWAP3 SWAP2 SWAP1 DUP2 DUP2 MSTORE PUSH1 0x20 ADD DUP3 DUP1 SLOAD PUSH2 0x259A SWAP1 PUSH2 0x35FB JUMP JUMPDEST DUP1 ISZERO PUSH2 0x25E7 JUMPI DUP1 PUSH1 0x1F LT PUSH2 0x25BC JUMPI PUSH2 0x100 DUP1 DUP4 SLOAD DIV MUL DUP4 MSTORE SWAP2 PUSH1 0x20 ADD SWAP2 PUSH2 0x25E7 JUMP JUMPDEST DUP3 ADD SWAP2 SWAP1 PUSH1 0x0 MSTORE PUSH1 0x20 PUSH1 0x0 KECCAK256 SWAP1 JUMPDEST DUP2 SLOAD DUP2 MSTORE SWAP1 PUSH1 0x1 ADD SWAP1 PUSH1 0x20 ADD DUP1 DUP4 GT PUSH2 0x25CA JUMPI DUP3 SWAP1 SUB PUSH1 0x1F AND DUP3 ADD SWAP2 JUMPDEST POP POP POP PUSH1 0x1 SWAP1 SWAP4 ADD SLOAD SWAP2 SWAP3 POP POP PUSH2 0xFFFF DUP2 AND SWAP1 PUSH1 0x1 PUSH1 0x1 PUSH1 0xA0 SHL SUB PUSH3 0x10000 DUP3 DIV AND SWAP1 PUSH1 0xFF PUSH1 0x1 PUSH1 0xB0 SHL SWAP1 SWAP2 DIV AND DUP5 JUMP JUMPDEST PUSH1 0x2 PUSH1 0x20 DUP2 SWAP1 MSTORE PUSH1 0x0 SWAP2 DUP3 MSTORE PUSH1 0x40 SWAP1 SWAP2 KECCAK256 DUP1 SLOAD PUSH1 0x1 DUP3 ADD SLOAD SWAP3 DUP3 ADD DUP1 SLOAD PUSH1 0x1 PUSH1 0x1 PUSH1 0xA0 SHL SUB SWAP1 SWAP3 AND SWAP4 SWAP3 SWAP2 PUSH2 0x264C SWAP1 PUSH2 0x35FB JUMP JUMPDEST DUP1 PUSH1 0x1F ADD PUSH1 0x20 DUP1 SWAP2 DIV MUL PUSH1 0x20 ADD PUSH1 0x40 MLOAD SWAP1 DUP2 ADD PUSH1 0x40 MSTORE DUP1 SWAP3 SWAP2 SWAP1 DUP2 DUP2 MSTORE PUSH1 0x20 ADD DUP3 DUP1 SLOAD PUSH2 0x2678 SWAP1 PUSH2 0x35FB JUMP JUMPDEST DUP1 ISZERO PUSH2 0x26C5 JUMPI DUP1 PUSH1 0x1F LT PUSH2 0x269A JUMPI PUSH2 0x100 DUP1 DUP4 SLOAD DIV MUL DUP4 MSTORE SWAP2 PUSH1 0x20 ADD SWAP2 PUSH2 0x26C5 JUMP JUMPDEST DUP3 ADD SWAP2 SWAP1 PUSH1 0x0 MSTORE PUSH1 0x20 PUSH1 0x0 KECCAK256 SWAP1 JUMPDEST DUP2 SLOAD DUP2 MSTORE SWAP1 PUSH1 0x1 ADD SWAP1 PUSH1 0x20 ADD DUP1 DUP4 GT PUSH2 0x26A8 JUMPI DUP3 SWAP1 SUB PUSH1 0x1F AND DUP3 ADD SWAP2 JUMPDEST POP POP POP POP POP SWAP1 DUP1 PUSH1 0x3 ADD DUP1 SLOAD PUSH2 0x26DA SWAP1 PUSH2 0x35FB JUMP JUMPDEST DUP1 PUSH1 0x1F ADD PUSH1 0x20 DUP1 SWAP2 DIV MUL PUSH1 0x20 ADD PUSH1 0x40 MLOAD SWAP1 DUP2 ADD PUSH1 0x40 MSTORE DUP1 SWAP3 SWAP2 SWAP1 DUP2 DUP2 MSTORE PUSH1 0x20 ADD DUP3 DUP1 SLOAD PUSH2 0x2706 SWAP1 PUSH2 0x35FB JUMP JUMPDEST DUP1 ISZERO PUSH2 0x2753 JUMPI DUP1 PUSH1 0x1F LT PUSH2 0x2728 JUMPI PUSH2 0x100 DUP1 DUP4 SLOAD DIV MUL DUP4 MSTORE SWAP2 PUSH1 0x20 ADD SWAP2 PUSH2 0x2753 JUMP JUMPDEST DUP3 ADD SWAP2 SWAP1 PUSH1 0x0 MSTORE PUSH1 0x20 PUSH1 0x0 KECCAK256 SWAP1 JUMPDEST DUP2 SLOAD DUP2 MSTORE SWAP1 PUSH1 0x1 ADD SWAP1 PUSH1 0x20 ADD DUP1 DUP4 GT PUSH2 0x2736 JUMPI DUP3 SWAP1 SUB PUSH1 0x1F AND DUP3 ADD SWAP2 JUMPDEST POP POP POP POP PUSH1 0x4 DUP4 ADD SLOAD PUSH1 0x5 DUP5 ADD SLOAD PUSH1 0x6 SWAP1 SWAP5 ADD SLOAD SWAP3 SWAP4 SWAP1 SWAP3 PUSH1 0xFF SWAP1 SWAP2 AND SWAP2 POP DUP8 JUMP JUMPDEST PUSH2 0x277D PUSH2 0x2DBB JUMP JUMPDEST PUSH1 0x0 DUP2 DUP2 MSTORE PUSH1 0x2 PUSH1 0x20 MSTORE PUSH1 0x40 SWAP1 KECCAK256 DUP1 SLOAD PUSH1 0x1 PUSH1 0x1 PUSH1 0xA0 SHL SUB AND CALLER EQ PUSH2 0x27DD JUMPI PUSH1 0x40 MLOAD PUSH3 0x461BCD PUSH1 0xE5 SHL DUP2 MSTORE PUSH1 0x20 PUSH1 0x4 DUP3 ADD MSTORE PUSH1 0x16 PUSH1 0x24 DUP3 ADD MSTORE PUSH22 0x13DB9B1E48199D5B99195C8818D85B8818D85B98D95B PUSH1 0x52 SHL PUSH1 0x44 DUP3 ADD MSTORE PUSH1 0x64 ADD PUSH2 0x8B0 JUMP JUMPDEST PUSH1 0x0 PUSH1 0x5 DUP3 ADD SLOAD PUSH1 0xFF AND PUSH1 0x2 DUP2 GT ISZERO PUSH2 0x27F8 JUMPI PUSH2 0x27F8 PUSH2 0x3147 JUMP JUMPDEST EQ PUSH2 0x2815 JUMPI PUSH1 0x40 MLOAD PUSH3 0x461BCD PUSH1 0xE5 SHL DUP2 MSTORE PUSH1 0x4 ADD PUSH2 0x8B0 SWAP1 PUSH2 0x3635 JUMP JUMPDEST DUP1 PUSH1 0x4 ADD SLOAD TIMESTAMP LT ISZERO PUSH2 0x2869 JUMPI PUSH1 0x40 MLOAD PUSH3 0x461BCD PUSH1 0xE5 SHL DUP2 MSTORE PUSH1 0x20 PUSH1 0x4 DUP3 ADD MSTORE PUSH1 0x1D PUSH1 0x24 DUP3 ADD MSTORE PUSH32 0x43616E6E6F742063616E63656C206265666F726520646561646C696E65000000 PUSH1 0x44 DUP3 ADD MSTORE PUSH1 0x64 ADD PUSH2 0x8B0 JUMP JUMPDEST PUSH1 0x0 JUMPDEST DUP2 PUSH1 0x6 ADD SLOAD DUP2 LT ISZERO PUSH2 0x290B JUMPI PUSH1 0x1 PUSH1 0x0 DUP5 DUP2 MSTORE PUSH1 0x4 PUSH1 0x20 SWAP1 DUP2 MSTORE PUSH1 0x40 DUP1 DUP4 KECCAK256 DUP6 DUP5 MSTORE SWAP1 SWAP2 MSTORE SWAP1 KECCAK256 PUSH1 0x3 ADD SLOAD PUSH1 0xFF AND PUSH1 0x2 DUP2 GT ISZERO PUSH2 0x28AB JUMPI PUSH2 0x28AB PUSH2 0x3147 JUMP JUMPDEST SUB PUSH2 0x2903 JUMPI PUSH1 0x40 MLOAD PUSH3 0x461BCD PUSH1 0xE5 SHL DUP2 MSTORE PUSH1 0x20 PUSH1 0x4 DUP3 ADD MSTORE PUSH1 0x22 PUSH1 0x24 DUP3 ADD MSTORE PUSH32 0x43616E6E6F742063616E63656C207769746820617070726F76656420636C6169 PUSH1 0x44 DUP3 ADD MSTORE PUSH2 0x6D73 PUSH1 0xF0 SHL PUSH1 0x64 DUP3 ADD MSTORE PUSH1 0x84 ADD PUSH2 0x8B0 JUMP JUMPDEST PUSH1 0x1 ADD PUSH2 0x286C JUMP JUMPDEST POP PUSH1 0x5 DUP2 ADD DUP1 SLOAD PUSH1 0xFF NOT AND PUSH1 0x2 OR SWAP1 SSTORE PUSH1 0x1 DUP2 ADD SLOAD DUP2 SLOAD PUSH1 0x40 MLOAD PUSH1 0x0 SWAP2 PUSH1 0x1 PUSH1 0x1 PUSH1 0xA0 SHL SUB AND SWAP1 DUP4 SWAP1 DUP4 DUP2 DUP2 DUP2 DUP6 DUP8 GAS CALL SWAP3 POP POP POP RETURNDATASIZE DUP1 PUSH1 0x0 DUP2 EQ PUSH2 0x296C JUMPI PUSH1 0x40 MLOAD SWAP2 POP PUSH1 0x1F NOT PUSH1 0x3F RETURNDATASIZE ADD AND DUP3 ADD PUSH1 0x40 MSTORE RETURNDATASIZE DUP3 MSTORE RETURNDATASIZE PUSH1 0x0 PUSH1 0x20 DUP5 ADD RETURNDATACOPY PUSH2 0x2971 JUMP JUMPDEST PUSH1 0x60 SWAP2 POP JUMPDEST POP POP SWAP1 POP DUP1 PUSH2 0x29B2 JUMPI PUSH1 0x40 MLOAD PUSH3 0x461BCD PUSH1 0xE5 SHL DUP2 MSTORE PUSH1 0x20 PUSH1 0x4 DUP3 ADD MSTORE PUSH1 0xD PUSH1 0x24 DUP3 ADD MSTORE PUSH13 0x1499599D5B990819985A5B1959 PUSH1 0x9A SHL PUSH1 0x44 DUP3 ADD MSTORE PUSH1 0x64 ADD PUSH2 0x8B0 JUMP JUMPDEST DUP4 PUSH32 0x4FE522CAF12F0ADBA1B0532093B34BEA60FC859FB838AE075B44BCD15FCDE9FF DUP4 PUSH1 0x40 MLOAD PUSH2 0x29E4 SWAP2 DUP2 MSTORE PUSH1 0x20 ADD SWAP1 JUMP JUMPDEST PUSH1 0x40 MLOAD DUP1 SWAP2 SUB SWAP1 LOG2 POP POP POP PUSH2 0xF75 PUSH1 0x1 DUP1 SSTORE JUMP JUMPDEST PUSH2 0x2A00 PUSH2 0x2EAB JUMP JUMPDEST PUSH1 0x0 DUP3 DUP2 MSTORE PUSH1 0x2 PUSH1 0x20 DUP2 DUP2 MSTORE PUSH1 0x40 SWAP3 DUP4 SWAP1 KECCAK256 DUP4 MLOAD PUSH1 0xE0 DUP2 ADD DUP6 MSTORE DUP2 SLOAD PUSH1 0x1 PUSH1 0x1 PUSH1 0xA0 SHL SUB AND DUP2 MSTORE PUSH1 0x1 DUP3 ADD SLOAD SWAP3 DUP2 ADD SWAP3 SWAP1 SWAP3 MSTORE SWAP2 DUP3 ADD DUP1 SLOAD SWAP2 SWAP4 DUP5 ADD SWAP2 PUSH2 0x2A46 SWAP1 PUSH2 0x35FB JUMP JUMPDEST DUP1 PUSH1 0x1F ADD PUSH1 0x20 DUP1 SWAP2 DIV MUL PUSH1 0x20 ADD PUSH1 0x40 MLOAD SWAP1 DUP2 ADD PUSH1 0x40 MSTORE DUP1 SWAP3 SWAP2 SWAP1 DUP2 DUP2 MSTORE PUSH1 0x20 ADD DUP3 DUP1 SLOAD PUSH2 0x2A72 SWAP1 PUSH2 0x35FB JUMP JUMPDEST DUP1 ISZERO PUSH2 0x2ABF JUMPI DUP1 PUSH1 0x1F LT PUSH2 0x2A94 JUMPI PUSH2 0x100 DUP1 DUP4 SLOAD DIV MUL DUP4 MSTORE SWAP2 PUSH1 0x20 ADD SWAP2 PUSH2 0x2ABF JUMP JUMPDEST DUP3 ADD SWAP2 SWAP1 PUSH1 0x0 MSTORE PUSH1 0x20 PUSH1 0x0 KECCAK256 SWAP1 JUMPDEST DUP2 SLOAD DUP2 MSTORE SWAP1 PUSH1 0x1 ADD SWAP1 PUSH1 0x20 ADD DUP1 DUP4 GT PUSH2 0x2AA2 JUMPI DUP3 SWAP1 SUB PUSH1 0x1F AND DUP3 ADD SWAP2 JUMPDEST POP POP POP POP POP DUP2 MSTORE PUSH1 0x20 ADD PUSH1 0x3 DUP3 ADD DUP1 SLOAD PUSH2 0x2AD8 SWAP1 PUSH2 0x35FB JUMP JUMPDEST DUP1 PUSH1 0x1F ADD PUSH1 0x20 DUP1 SWAP2 DIV MUL PUSH1 0x20 ADD PUSH1 0x40 MLOAD SWAP1 DUP2 ADD PUSH1 0x40 MSTORE DUP1 SWAP3 SWAP2 SWAP1 DUP2 DUP2 MSTORE PUSH1 0x20 ADD DUP3 DUP1 SLOAD PUSH2 0x2B04 SWAP1 PUSH2 0x35FB JUMP JUMPDEST DUP1 ISZERO PUSH2 0x2B51 JUMPI DUP1 PUSH1 0x1F LT PUSH2 0x2B26 JUMPI PUSH2 0x100 DUP1 DUP4 SLOAD DIV MUL DUP4 MSTORE SWAP2 PUSH1 0x20 ADD SWAP2 PUSH2 0x2B51 JUMP JUMPDEST DUP3 ADD SWAP2 SWAP1 PUSH1 0x0 MSTORE PUSH1 0x20 PUSH1 0x0 KECCAK256 SWAP1 JUMPDEST DUP2 SLOAD DUP2 MSTORE SWAP1 PUSH1 0x1 ADD SWAP1 PUSH1 0x20 ADD DUP1 DUP4 GT PUSH2 0x2B34 JUMPI DUP3 SWAP1 SUB PUSH1 0x1F AND DUP3 ADD SWAP2 JUMPDEST POP POP POP SWAP2 DUP4 MSTORE POP POP PUSH1 0x4 DUP3 ADD SLOAD PUSH1 0x20 DUP3 ADD MSTORE PUSH1 0x5 DUP3 ADD SLOAD PUSH1 0x40 SWAP1 SWAP2 ADD SWAP1 PUSH1 0xFF AND PUSH1 0x2 DUP2 GT ISZERO PUSH2 0x2B82 JUMPI PUSH2 0x2B82 PUSH2 0x3147 JUMP JUMPDEST PUSH1 0x2 DUP2 GT ISZERO PUSH2 0x2B93 JUMPI PUSH2 0x2B93 PUSH2 0x3147 JUMP JUMPDEST DUP2 MSTORE PUSH1 0x20 ADD PUSH1 0x6 DUP3 ADD SLOAD DUP2 MSTORE POP POP SWAP1 POP SWAP2 SWAP1 POP JUMP JUMPDEST PUSH2 0x2BB0 PUSH2 0x2DE5 JUMP JUMPDEST PUSH1 0x1 PUSH1 0x1 PUSH1 0xA0 SHL SUB DUP2 AND PUSH2 0x2BF9 JUMPI PUSH1 0x40 MLOAD PUSH3 0x461BCD PUSH1 0xE5 SHL DUP2 MSTORE PUSH1 0x20 PUSH1 0x4 DUP3 ADD MSTORE PUSH1 0x10 PUSH1 0x24 DUP3 ADD MSTORE PUSH16 0x496E76616C6964207472656173757279 PUSH1 0x80 SHL PUSH1 0x44 DUP3 ADD MSTORE PUSH1 0x64 ADD PUSH2 0x8B0 JUMP JUMPDEST PUSH1 0x9 DUP1 SLOAD PUSH1 0x1 PUSH1 0x1 PUSH1 0xA0 SHL SUB SWAP1 SWAP3 AND PUSH3 0x10000 MUL PUSH3 0x10000 PUSH1 0x1 PUSH1 0xB0 SHL SUB NOT SWAP1 SWAP3 AND SWAP2 SWAP1 SWAP2 OR SWAP1 SSTORE JUMP JUMPDEST PUSH2 0x2C2B PUSH2 0x2DE5 JUMP JUMPDEST PUSH1 0x1 PUSH1 0x1 PUSH1 0xA0 SHL SUB DUP2 AND PUSH2 0x2C55 JUMPI PUSH1 0x40 MLOAD PUSH4 0x1E4FBDF7 PUSH1 0xE0 SHL DUP2 MSTORE PUSH1 0x0 PUSH1 0x4 DUP3 ADD MSTORE PUSH1 0x24 ADD PUSH2 0x8B0 JUMP JUMPDEST PUSH2 0xF75 DUP2 PUSH2 0x2E12 JUMP JUMPDEST PUSH1 0x4 PUSH1 0x20 SWAP1 DUP2 MSTORE PUSH1 0x0 SWAP3 DUP4 MSTORE PUSH1 0x40 DUP1 DUP5 KECCAK256 SWAP1 SWAP2 MSTORE SWAP1 DUP3 MSTORE SWAP1 KECCAK256 DUP1 SLOAD PUSH1 0x1 DUP3 ADD DUP1 SLOAD PUSH1 0x1 PUSH1 0x1 PUSH1 0xA0 SHL SUB SWAP1 SWAP3 AND SWAP3 SWAP2 PUSH2 0x2C95 SWAP1 PUSH2 0x35FB JUMP JUMPDEST DUP1 PUSH1 0x1F ADD PUSH1 0x20 DUP1 SWAP2 DIV MUL PUSH1 0x20 ADD PUSH1 0x40 MLOAD SWAP1 DUP2 ADD PUSH1 0x40 MSTORE DUP1 SWAP3 SWAP2 SWAP1 DUP2 DUP2 MSTORE PUSH1 0x20 ADD DUP3 DUP1 SLOAD PUSH2 0x2CC1 SWAP1 PUSH2 0x35FB JUMP JUMPDEST DUP1 ISZERO PUSH2 0x2D0E JUMPI DUP1 PUSH1 0x1F LT PUSH2 0x2CE3 JUMPI PUSH2 0x100 DUP1 DUP4 SLOAD DIV MUL DUP4 MSTORE SWAP2 PUSH1 0x20 ADD SWAP2 PUSH2 0x2D0E JUMP JUMPDEST DUP3 ADD SWAP2 SWAP1 PUSH1 0x0 MSTORE PUSH1 0x20 PUSH1 0x0 KECCAK256 SWAP1 JUMPDEST DUP2 SLOAD DUP2 MSTORE SWAP1 PUSH1 0x1 ADD SWAP1 PUSH1 0x20 ADD DUP1 DUP4 GT PUSH2 0x2CF1 JUMPI DUP3 SWAP1 SUB PUSH1 0x1F AND DUP3 ADD SWAP2 JUMPDEST POP POP POP POP POP SWAP1 DUP1 PUSH1 0x2 ADD DUP1 SLOAD PUSH2 0x2D23 SWAP1 PUSH2 0x35FB JUMP JUMPDEST DUP1 PUSH1 0x1F ADD PUSH1 0x20 DUP1 SWAP2 DIV MUL PUSH1 0x20 ADD PUSH1 0x40 MLOAD SWAP1 DUP2 ADD PUSH1 0x40 MSTORE DUP1 SWAP3 SWAP2 SWAP1 DUP2 DUP2 MSTORE PUSH1 0x20 ADD DUP3 DUP1 SLOAD PUSH2 0x2D4F SWAP1 PUSH2 0x35FB JUMP JUMPDEST DUP1 ISZERO PUSH2 0x2D9C JUMPI DUP1 PUSH1 0x1F LT PUSH2 0x2D71 JUMPI PUSH2 0x100 DUP1 DUP4 SLOAD DIV MUL DUP4 MSTORE SWAP2 PUSH1 0x20 ADD SWAP2 PUSH2 0x2D9C JUMP JUMPDEST DUP3 ADD SWAP2 SWAP1 PUSH1 0x0 MSTORE PUSH1 0x20 PUSH1 0x0 KECCAK256 SWAP1 JUMPDEST DUP2 SLOAD DUP2 MSTORE SWAP1 PUSH1 0x1 ADD SWAP1 PUSH1 0x20 ADD DUP1 DUP4 GT PUSH2 0x2D7F JUMPI DUP3 SWAP1 SUB PUSH1 0x1F AND DUP3 ADD SWAP2 JUMPDEST POP POP POP PUSH1 0x3 SWAP1 SWAP4 ADD SLOAD SWAP2 SWAP3 POP POP PUSH1 0xFF DUP2 AND SWAP1 PUSH2 0xFFFF PUSH2 0x100 SWAP1 SWAP2 DIV AND DUP6 JUMP JUMPDEST PUSH1 0x2 PUSH1 0x1 SLOAD SUB PUSH2 0x2DDE JUMPI PUSH1 0x40 MLOAD PUSH4 0x3EE5AEB5 PUSH1 0xE0 SHL DUP2 MSTORE PUSH1 0x4 ADD PUSH1 0x40 MLOAD DUP1 SWAP2 SUB SWAP1 REVERT JUMPDEST PUSH1 0x2 PUSH1 0x1 SSTORE JUMP JUMPDEST PUSH1 0x0 SLOAD PUSH1 0x1 PUSH1 0x1 PUSH1 0xA0 SHL SUB AND CALLER EQ PUSH2 0x1E10 JUMPI PUSH1 0x40 MLOAD PUSH4 0x118CDAA7 PUSH1 0xE0 SHL DUP2 MSTORE CALLER PUSH1 0x4 DUP3 ADD MSTORE PUSH1 0x24 ADD PUSH2 0x8B0 JUMP JUMPDEST PUSH1 0x0 DUP1 SLOAD PUSH1 0x1 PUSH1 0x1 PUSH1 0xA0 SHL SUB DUP4 DUP2 AND PUSH1 0x1 PUSH1 0x1 PUSH1 0xA0 SHL SUB NOT DUP4 AND DUP2 OR DUP5 SSTORE PUSH1 0x40 MLOAD SWAP2 SWAP1 SWAP3 AND SWAP3 DUP4 SWAP2 PUSH32 0x8BE0079C531659141344CD1FD0A4F28419497F9722A3DAAFE3B4186F6B6457E0 SWAP2 SWAP1 LOG3 POP POP JUMP JUMPDEST PUSH1 0x40 MLOAD DUP1 PUSH1 0xA0 ADD PUSH1 0x40 MSTORE DUP1 PUSH1 0x0 PUSH1 0x1 PUSH1 0x1 PUSH1 0xA0 SHL SUB AND DUP2 MSTORE PUSH1 0x20 ADD PUSH1 0x60 DUP2 MSTORE PUSH1 0x20 ADD PUSH1 0x60 DUP2 MSTORE PUSH1 0x20 ADD PUSH1 0x0 PUSH1 0x2 DUP2 GT ISZERO PUSH2 0x2E9E JUMPI PUSH2 0x2E9E PUSH2 0x3147 JUMP JUMPDEST DUP2 MSTORE PUSH1 0x0 PUSH1 0x20 SWAP1 SWAP2 ADD MSTORE SWAP1 JUMP JUMPDEST PUSH1 0x40 MLOAD DUP1 PUSH1 0xE0 ADD PUSH1 0x40 MSTORE DUP1 PUSH1 0x0 PUSH1 0x1 PUSH1 0x1 PUSH1 0xA0 SHL SUB AND DUP2 MSTORE PUSH1 0x20 ADD PUSH1 0x0 DUP2 MSTORE PUSH1 0x20 ADD PUSH1 0x60 DUP2 MSTORE PUSH1 0x20 ADD PUSH1 0x60 DUP2 MSTORE PUSH1 0x20 ADD PUSH1 0x0 DUP2 MSTORE PUSH1 0x20 ADD PUSH1 0x0 PUSH1 0x2 DUP2 GT ISZERO PUSH2 0x2EF5 JUMPI PUSH2 0x2EF5 PUSH2 0x3147 JUMP JUMPDEST DUP2 MSTORE PUSH1 0x20 ADD PUSH1 0x0 DUP2 MSTORE POP SWAP1 JUMP JUMPDEST PUSH1 0x0 PUSH1 0x20 DUP3 DUP5 SUB SLT ISZERO PUSH2 0x2F14 JUMPI PUSH1 0x0 DUP1 REVERT JUMPDEST POP CALLDATALOAD SWAP2 SWAP1 POP JUMP JUMPDEST PUSH1 0x0 DUP2 MLOAD DUP1 DUP5 MSTORE PUSH1 0x0 JUMPDEST DUP2 DUP2 LT ISZERO PUSH2 0x2F41 JUMPI PUSH1 0x20 DUP2 DUP6 ADD DUP2 ADD MLOAD DUP7 DUP4 ADD DUP3 ADD MSTORE ADD PUSH2 0x2F25 JUMP JUMPDEST POP PUSH1 0x0 PUSH1 0x20 DUP3 DUP7 ADD ADD MSTORE PUSH1 0x20 PUSH1 0x1F NOT PUSH1 0x1F DUP4 ADD AND DUP6 ADD ADD SWAP2 POP POP SWAP3 SWAP2 POP POP JUMP JUMPDEST DUP6 DUP2 MSTORE PUSH1 0x1 PUSH1 0x1 PUSH1 0xA0 SHL SUB DUP6 AND PUSH1 0x20 DUP3 ADD MSTORE PUSH1 0xA0 PUSH1 0x40 DUP3 ADD DUP2 SWAP1 MSTORE PUSH1 0x0 SWAP1 PUSH2 0x2F8B SWAP1 DUP4 ADD DUP7 PUSH2 0x2F1B JUMP JUMPDEST PUSH1 0x60 DUP4 ADD SWAP5 SWAP1 SWAP5 MSTORE POP SWAP1 ISZERO ISZERO PUSH1 0x80 SWAP1 SWAP2 ADD MSTORE SWAP4 SWAP3 POP POP POP JUMP JUMPDEST PUSH1 0x1 PUSH1 0x1 PUSH1 0xA0 SHL SUB DUP2 AND DUP2 EQ PUSH2 0xF75 JUMPI PUSH1 0x0 DUP1 REVERT JUMPDEST PUSH1 0x0 PUSH1 0x20 DUP3 DUP5 SUB SLT ISZERO PUSH2 0x2FCB JUMPI PUSH1 0x0 DUP1 REVERT JUMPDEST DUP2 CALLDATALOAD PUSH2 0x2FD6 DUP2 PUSH2 0x2FA4 JUMP JUMPDEST SWAP4 SWAP3 POP POP POP JUMP JUMPDEST PUSH1 0x20 DUP2 MSTORE PUSH1 0x0 DUP3 MLOAD PUSH1 0x80 PUSH1 0x20 DUP5 ADD MSTORE PUSH2 0x2FF9 PUSH1 0xA0 DUP5 ADD DUP3 PUSH2 0x2F1B JUMP JUMPDEST SWAP1 POP PUSH2 0xFFFF PUSH1 0x20 DUP6 ADD MLOAD AND PUSH1 0x40 DUP5 ADD MSTORE PUSH1 0x1 DUP1 PUSH1 0xA0 SHL SUB PUSH1 0x40 DUP6 ADD MLOAD AND PUSH1 0x60 DUP5 ADD MSTORE PUSH1 0x60 DUP5 ADD MLOAD ISZERO ISZERO PUSH1 0x80 DUP5 ADD MSTORE DUP1 SWAP2 POP POP SWAP3 SWAP2 POP POP JUMP JUMPDEST PUSH1 0x0 DUP1 DUP4 PUSH1 0x1F DUP5 ADD SLT PUSH2 0x3043 JUMPI PUSH1 0x0 DUP1 REVERT JUMPDEST POP DUP2 CALLDATALOAD PUSH8 0xFFFFFFFFFFFFFFFF DUP2 GT ISZERO PUSH2 0x305B JUMPI PUSH1 0x0 DUP1 REVERT JUMPDEST PUSH1 0x20 DUP4 ADD SWAP2 POP DUP4 PUSH1 0x20 DUP3 DUP6 ADD ADD GT ISZERO PUSH2 0x3073 JUMPI PUSH1 0x0 DUP1 REVERT JUMPDEST SWAP3 POP SWAP3 SWAP1 POP JUMP JUMPDEST PUSH1 0x0 DUP1 PUSH1 0x0 DUP1 PUSH1 0x0 PUSH1 0x60 DUP7 DUP9 SUB SLT ISZERO PUSH2 0x3092 JUMPI PUSH1 0x0 DUP1 REVERT JUMPDEST DUP6 CALLDATALOAD PUSH8 0xFFFFFFFFFFFFFFFF DUP2 GT ISZERO PUSH2 0x30A9 JUMPI PUSH1 0x0 DUP1 REVERT JUMPDEST PUSH2 0x30B5 DUP9 DUP3 DUP10 ADD PUSH2 0x3031 JUMP JUMPDEST SWAP1 SWAP7 POP SWAP5 POP POP PUSH1 0x20 DUP7 ADD CALLDATALOAD PUSH8 0xFFFFFFFFFFFFFFFF DUP2 GT ISZERO PUSH2 0x30D5 JUMPI PUSH1 0x0 DUP1 REVERT JUMPDEST PUSH2 0x30E1 DUP9 DUP3 DUP10 ADD PUSH2 0x3031 JUMP JUMPDEST SWAP7 SWAP10 SWAP6 SWAP9 POP SWAP7 PUSH1 0x40 ADD CALLDATALOAD SWAP5 SWAP4 POP POP POP POP JUMP JUMPDEST DUP1 CALLDATALOAD PUSH2 0xFFFF DUP2 AND DUP2 EQ PUSH2 0x3105 JUMPI PUSH1 0x0 DUP1 REVERT JUMPDEST SWAP2 SWAP1 POP JUMP JUMPDEST PUSH1 0x0 PUSH1 0x20 DUP3 DUP5 SUB SLT ISZERO PUSH2 0x311C JUMPI PUSH1 0x0 DUP1 REVERT JUMPDEST PUSH2 0x2FD6 DUP3 PUSH2 0x30F3 JUMP JUMPDEST PUSH1 0x0 DUP1 PUSH1 0x40 DUP4 DUP6 SUB SLT ISZERO PUSH2 0x3138 JUMPI PUSH1 0x0 DUP1 REVERT JUMPDEST POP POP DUP1 CALLDATALOAD SWAP3 PUSH1 0x20 SWAP1 SWAP2 ADD CALLDATALOAD SWAP2 POP JUMP JUMPDEST PUSH4 0x4E487B71 PUSH1 0xE0 SHL PUSH1 0x0 MSTORE PUSH1 0x21 PUSH1 0x4 MSTORE PUSH1 0x24 PUSH1 0x0 REVERT JUMPDEST PUSH1 0x3 DUP2 LT PUSH2 0xF75 JUMPI PUSH4 0x4E487B71 PUSH1 0xE0 SHL PUSH1 0x0 MSTORE PUSH1 0x21 PUSH1 0x4 MSTORE PUSH1 0x24 PUSH1 0x0 REVERT JUMPDEST PUSH1 0x20 DUP1 DUP3 MSTORE DUP3 MLOAD PUSH1 0x1 PUSH1 0x1 PUSH1 0xA0 SHL SUB AND DUP3 DUP3 ADD MSTORE DUP3 ADD MLOAD PUSH1 0xA0 PUSH1 0x40 DUP4 ADD MSTORE PUSH1 0x0 SWAP1 PUSH2 0x31A9 PUSH1 0xC0 DUP5 ADD DUP3 PUSH2 0x2F1B JUMP JUMPDEST SWAP1 POP PUSH1 0x40 DUP5 ADD MLOAD PUSH1 0x1F NOT DUP5 DUP4 SUB ADD PUSH1 0x60 DUP6 ADD MSTORE PUSH2 0x31C6 DUP3 DUP3 PUSH2 0x2F1B JUMP JUMPDEST SWAP2 POP POP PUSH1 0x60 DUP5 ADD MLOAD PUSH2 0x31D7 DUP2 PUSH2 0x315D JUMP JUMPDEST DUP1 PUSH1 0x80 DUP6 ADD MSTORE POP PUSH2 0xFFFF PUSH1 0x80 DUP6 ADD MLOAD AND PUSH1 0xA0 DUP5 ADD MSTORE DUP1 SWAP2 POP POP SWAP3 SWAP2 POP POP JUMP JUMPDEST PUSH1 0x0 DUP1 PUSH1 0x0 PUSH1 0x40 DUP5 DUP7 SUB SLT ISZERO PUSH2 0x320B JUMPI PUSH1 0x0 DUP1 REVERT JUMPDEST DUP4 CALLDATALOAD PUSH8 0xFFFFFFFFFFFFFFFF DUP2 GT ISZERO PUSH2 0x3222 JUMPI PUSH1 0x0 DUP1 REVERT JUMPDEST PUSH2 0x322E DUP7 DUP3 DUP8 ADD PUSH2 0x3031 JUMP JUMPDEST SWAP1 SWAP5 POP SWAP3 POP POP PUSH1 0x20 DUP5 ADD CALLDATALOAD PUSH2 0x3242 DUP2 PUSH2 0x2FA4 JUMP JUMPDEST DUP1 SWAP2 POP POP SWAP3 POP SWAP3 POP SWAP3 JUMP JUMPDEST PUSH1 0x0 DUP1 PUSH1 0x0 PUSH1 0x60 DUP5 DUP7 SUB SLT ISZERO PUSH2 0x3262 JUMPI PUSH1 0x0 DUP1 REVERT JUMPDEST DUP4 CALLDATALOAD SWAP3 POP PUSH1 0x20 DUP5 ADD CALLDATALOAD SWAP2 POP PUSH2 0x3279 PUSH1 0x40 DUP6 ADD PUSH2 0x30F3 JUMP JUMPDEST SWAP1 POP SWAP3 POP SWAP3 POP SWAP3 JUMP JUMPDEST PUSH1 0x20 DUP2 MSTORE DUP2 MLOAD PUSH1 0x20 DUP3 ADD MSTORE PUSH1 0x1 DUP1 PUSH1 0xA0 SHL SUB PUSH1 0x20 DUP4 ADD MLOAD AND PUSH1 0x40 DUP3 ADD MSTORE PUSH1 0x0 PUSH1 0x40 DUP4 ADD MLOAD PUSH1 0xA0 PUSH1 0x60 DUP5 ADD MSTORE PUSH2 0x32BA PUSH1 0xC0 DUP5 ADD DUP3 PUSH2 0x2F1B JUMP JUMPDEST SWAP1 POP PUSH1 0x60 DUP5 ADD MLOAD PUSH1 0x80 DUP5 ADD MSTORE PUSH1 0x80 DUP5 ADD MLOAD ISZERO ISZERO PUSH1 0xA0 DUP5 ADD MSTORE DUP1 SWAP2 POP POP SWAP3 SWAP2 POP POP JUMP JUMPDEST PUSH1 0x0 DUP1 PUSH1 0x0 PUSH1 0x40 DUP5 DUP7 SUB SLT ISZERO PUSH2 0x32F1 JUMPI PUSH1 0x0 DUP1 REVERT JUMPDEST DUP4 CALLDATALOAD PUSH8 0xFFFFFFFFFFFFFFFF DUP2 GT ISZERO PUSH2 0x3308 JUMPI PUSH1 0x0 DUP1 REVERT JUMPDEST PUSH2 0x3314 DUP7 DUP3 DUP8 ADD PUSH2 0x3031 JUMP JUMPDEST SWAP1 SWAP5 POP SWAP3 POP PUSH2 0x3279 SWAP1 POP PUSH1 0x20 DUP6 ADD PUSH2 0x30F3 JUMP JUMPDEST PUSH1 0x0 DUP1 PUSH1 0x0 DUP1 PUSH1 0x0 PUSH1 0x60 DUP7 DUP9 SUB SLT ISZERO PUSH2 0x333F JUMPI PUSH1 0x0 DUP1 REVERT JUMPDEST DUP6 CALLDATALOAD SWAP5 POP PUSH1 0x20 DUP7 ADD CALLDATALOAD PUSH8 0xFFFFFFFFFFFFFFFF DUP2 GT ISZERO PUSH2 0x335D JUMPI PUSH1 0x0 DUP1 REVERT JUMPDEST PUSH2 0x3369 DUP9 DUP3 DUP10 ADD PUSH2 0x3031 JUMP JUMPDEST SWAP1 SWAP6 POP SWAP4 POP POP PUSH1 0x40 DUP7 ADD CALLDATALOAD PUSH8 0xFFFFFFFFFFFFFFFF DUP2 GT ISZERO PUSH2 0x3389 JUMPI PUSH1 0x0 DUP1 REVERT JUMPDEST PUSH2 0x3395 DUP9 DUP3 DUP10 ADD PUSH2 0x3031 JUMP JUMPDEST SWAP7 SWAP10 SWAP6 SWAP9 POP SWAP4 SWAP7 POP SWAP3 SWAP5 SWAP4 SWAP3 POP POP POP JUMP JUMPDEST PUSH4 0x4E487B71 PUSH1 0xE0 SHL PUSH1 0x0 MSTORE PUSH1 0x41 PUSH1 0x4 MSTORE PUSH1 0x24 PUSH1 0x0 REVERT JUMPDEST PUSH1 0x0 PUSH1 0x20 DUP3 DUP5 SUB SLT ISZERO PUSH2 0x33CE JUMPI PUSH1 0x0 DUP1 REVERT JUMPDEST DUP2 CALLDATALOAD PUSH8 0xFFFFFFFFFFFFFFFF DUP2 GT ISZERO PUSH2 0x33E5 JUMPI PUSH1 0x0 DUP1 REVERT JUMPDEST DUP3 ADD PUSH1 0x1F DUP2 ADD DUP5 SGT PUSH2 0x33F6 JUMPI PUSH1 0x0 DUP1 REVERT JUMPDEST DUP1 CALLDATALOAD PUSH8 0xFFFFFFFFFFFFFFFF DUP2 GT ISZERO PUSH2 0x3410 JUMPI PUSH2 0x3410 PUSH2 0x33A6 JUMP JUMPDEST PUSH1 0x40 MLOAD PUSH1 0x1F DUP3 ADD PUSH1 0x1F NOT SWAP1 DUP2 AND PUSH1 0x3F ADD AND DUP2 ADD PUSH8 0xFFFFFFFFFFFFFFFF DUP2 GT DUP3 DUP3 LT OR ISZERO PUSH2 0x343F JUMPI PUSH2 0x343F PUSH2 0x33A6 JUMP JUMPDEST PUSH1 0x40 MSTORE DUP2 DUP2 MSTORE DUP3 DUP3 ADD PUSH1 0x20 ADD DUP7 LT ISZERO PUSH2 0x3457 JUMPI PUSH1 0x0 DUP1 REVERT JUMPDEST DUP2 PUSH1 0x20 DUP5 ADD PUSH1 0x20 DUP4 ADD CALLDATACOPY PUSH1 0x0 SWAP2 DUP2 ADD PUSH1 0x20 ADD SWAP2 SWAP1 SWAP2 MSTORE SWAP5 SWAP4 POP POP POP POP JUMP JUMPDEST PUSH1 0x80 DUP2 MSTORE PUSH1 0x0 PUSH2 0x3488 PUSH1 0x80 DUP4 ADD DUP8 PUSH2 0x2F1B JUMP JUMPDEST PUSH2 0xFFFF SWAP6 SWAP1 SWAP6 AND PUSH1 0x20 DUP4 ADD MSTORE POP PUSH1 0x1 PUSH1 0x1 PUSH1 0xA0 SHL SUB SWAP3 SWAP1 SWAP3 AND PUSH1 0x40 DUP4 ADD MSTORE ISZERO ISZERO PUSH1 0x60 SWAP1 SWAP2 ADD MSTORE SWAP2 SWAP1 POP JUMP JUMPDEST PUSH1 0x1 DUP1 PUSH1 0xA0 SHL SUB DUP9 AND DUP2 MSTORE DUP7 PUSH1 0x20 DUP3 ADD MSTORE PUSH1 0xE0 PUSH1 0x40 DUP3 ADD MSTORE PUSH1 0x0 PUSH2 0x34DA PUSH1 0xE0 DUP4 ADD DUP9 PUSH2 0x2F1B JUMP JUMPDEST DUP3 DUP2 SUB PUSH1 0x60 DUP5 ADD MSTORE PUSH2 0x34EC DUP2 DUP9 PUSH2 0x2F1B JUMP JUMPDEST SWAP2 POP POP DUP5 PUSH1 0x80 DUP4 ADD MSTORE PUSH2 0x34FE DUP5 PUSH2 0x315D JUMP JUMPDEST PUSH1 0xA0 DUP3 ADD SWAP4 SWAP1 SWAP4 MSTORE PUSH1 0xC0 ADD MSTORE SWAP6 SWAP5 POP POP POP POP POP JUMP JUMPDEST PUSH1 0x20 DUP2 MSTORE PUSH1 0x1 DUP1 PUSH1 0xA0 SHL SUB DUP3 MLOAD AND PUSH1 0x20 DUP3 ADD MSTORE PUSH1 0x20 DUP3 ADD MLOAD PUSH1 0x40 DUP3 ADD MSTORE PUSH1 0x0 PUSH1 0x40 DUP4 ADD MLOAD PUSH1 0xE0 PUSH1 0x60 DUP5 ADD MSTORE PUSH2 0x354C PUSH2 0x100 DUP5 ADD DUP3 PUSH2 0x2F1B JUMP JUMPDEST SWAP1 POP PUSH1 0x60 DUP5 ADD MLOAD PUSH1 0x1F NOT DUP5 DUP4 SUB ADD PUSH1 0x80 DUP6 ADD MSTORE PUSH2 0x3569 DUP3 DUP3 PUSH2 0x2F1B JUMP JUMPDEST SWAP2 POP POP PUSH1 0x80 DUP5 ADD MLOAD PUSH1 0xA0 DUP5 ADD MSTORE PUSH1 0xA0 DUP5 ADD MLOAD PUSH2 0x3584 DUP2 PUSH2 0x315D JUMP JUMPDEST DUP1 PUSH1 0xC0 DUP6 ADD MSTORE POP PUSH1 0xC0 DUP5 ADD MLOAD PUSH1 0xE0 DUP5 ADD MSTORE DUP1 SWAP2 POP POP SWAP3 SWAP2 POP POP JUMP JUMPDEST PUSH1 0x1 PUSH1 0x1 PUSH1 0xA0 SHL SUB DUP7 AND DUP2 MSTORE PUSH1 0xA0 PUSH1 0x20 DUP3 ADD DUP2 SWAP1 MSTORE PUSH1 0x0 SWAP1 PUSH2 0x35C3 SWAP1 DUP4 ADD DUP8 PUSH2 0x2F1B JUMP JUMPDEST DUP3 DUP2 SUB PUSH1 0x40 DUP5 ADD MSTORE PUSH2 0x35D5 DUP2 DUP8 PUSH2 0x2F1B JUMP JUMPDEST SWAP2 POP POP PUSH2 0x35E1 DUP5 PUSH2 0x315D JUMP JUMPDEST DUP4 PUSH1 0x60 DUP4 ADD MSTORE PUSH2 0xFFFF DUP4 AND PUSH1 0x80 DUP4 ADD MSTORE SWAP7 SWAP6 POP POP POP POP POP POP JUMP JUMPDEST PUSH1 0x1 DUP2 DUP2 SHR SWAP1 DUP3 AND DUP1 PUSH2 0x360F JUMPI PUSH1 0x7F DUP3 AND SWAP2 POP JUMPDEST PUSH1 0x20 DUP3 LT DUP2 SUB PUSH2 0x362F JUMPI PUSH4 0x4E487B71 PUSH1 0xE0 SHL PUSH1 0x0 MSTORE PUSH1 0x22 PUSH1 0x4 MSTORE PUSH1 0x24 PUSH1 0x0 REVERT JUMPDEST POP SWAP2 SWAP1 POP JUMP JUMPDEST PUSH1 0x20 DUP1 DUP3 MSTORE PUSH1 0xF SWAP1 DUP3 ADD MSTORE PUSH15 0x2137BAB73A3C903737BA1037B832B7 PUSH1 0x89 SHL PUSH1 0x40 DUP3 ADD MSTORE PUSH1 0x60 ADD SWAP1 JUMP JUMPDEST PUSH4 0x4E487B71 PUSH1 0xE0 SHL PUSH1 0x0 MSTORE PUSH1 0x11 PUSH1 0x4 MSTORE PUSH1 0x24 PUSH1 0x0 REVERT JUMPDEST DUP1 DUP3 ADD DUP1 DUP3 GT ISZERO PUSH2 0x1801 JUMPI PUSH2 0x1801 PUSH2 0x365E JUMP JUMPDEST PUSH1 0x0 PUSH1 0x1 DUP3 ADD PUSH2 0x3699 JUMPI PUSH2 0x3699 PUSH2 0x365E JUMP JUMPDEST POP PUSH1 0x1 ADD SWAP1 JUMP JUMPDEST DUP1 DUP3 MUL DUP2 ISZERO DUP3 DUP3 DIV DUP5 EQ OR PUSH2 0x1801 JUMPI PUSH2 0x1801 PUSH2 0x365E JUMP JUMPDEST PUSH1 0x0 DUP3 PUSH2 0x36D4 JUMPI PUSH4 0x4E487B71 PUSH1 0xE0 SHL PUSH1 0x0 MSTORE PUSH1 0x12 PUSH1 0x4 MSTORE PUSH1 0x24 PUSH1 0x0 REVERT JUMPDEST POP DIV SWAP1 JUMP JUMPDEST DUP2 DUP2 SUB DUP2 DUP2 GT ISZERO PUSH2 0x1801 JUMPI PUSH2 0x1801 PUSH2 0x365E JUMP JUMPDEST PUSH1 0x0 DUP2 SLOAD PUSH2 0x36F9 DUP2 PUSH2 0x35FB JUMP JUMPDEST PUSH1 0x1 DUP3 AND DUP1 ISZERO PUSH2 0x3710 JUMPI PUSH1 0x1 DUP2 EQ PUSH2 0x3725 JUMPI PUSH2 0x3755 JUMP JUMPDEST PUSH1 0xFF NOT DUP4 AND DUP7 MSTORE DUP2 ISZERO ISZERO DUP3 MUL DUP7 ADD SWAP4 POP PUSH2 0x3755 JUMP JUMPDEST DUP5 PUSH1 0x0 MSTORE PUSH1 0x20 PUSH1 0x0 KECCAK256 PUSH1 0x0 JUMPDEST DUP4 DUP2 LT ISZERO PUSH2 0x374D JUMPI DUP2 SLOAD DUP9 DUP3 ADD MSTORE PUSH1 0x1 SWAP1 SWAP2 ADD SWAP1 PUSH1 0x20 ADD PUSH2 0x3731 JUMP JUMPDEST POP POP DUP2 DUP7 ADD SWAP4 POP JUMPDEST POP POP POP SWAP3 SWAP2 POP POP JUMP JUMPDEST PUSH1 0x0 PUSH2 0x2FD6 DUP3 DUP5 PUSH2 0x36EC JUMP JUMPDEST PUSH1 0x1F DUP3 GT ISZERO PUSH2 0x37B4 JUMPI DUP1 PUSH1 0x0 MSTORE PUSH1 0x20 PUSH1 0x0 KECCAK256 PUSH1 0x1F DUP5 ADD PUSH1 0x5 SHR DUP2 ADD PUSH1 0x20 DUP6 LT ISZERO PUSH2 0x3791 JUMPI POP DUP1 JUMPDEST PUSH1 0x1F DUP5 ADD PUSH1 0x5 SHR DUP3 ADD SWAP2 POP JUMPDEST DUP2 DUP2 LT ISZERO PUSH2 0x37B1 JUMPI PUSH1 0x0 DUP2 SSTORE PUSH1 0x1 ADD PUSH2 0x379D JUMP JUMPDEST POP POP JUMPDEST POP POP POP JUMP JUMPDEST DUP2 MLOAD PUSH8 0xFFFFFFFFFFFFFFFF DUP2 GT ISZERO PUSH2 0x37D3 JUMPI PUSH2 0x37D3 PUSH2 0x33A6 JUMP JUMPDEST PUSH2 0x37E7 DUP2 PUSH2 0x37E1 DUP5 SLOAD PUSH2 0x35FB JUMP JUMPDEST DUP5 PUSH2 0x376A JUMP JUMPDEST PUSH1 0x20 PUSH1 0x1F DUP3 GT PUSH1 0x1 DUP2 EQ PUSH2 0x381B JUMPI PUSH1 0x0 DUP4 ISZERO PUSH2 0x3803 JUMPI POP DUP5 DUP3 ADD MLOAD JUMPDEST PUSH1 0x0 NOT PUSH1 0x3 DUP6 SWAP1 SHL SHR NOT AND PUSH1 0x1 DUP5 SWAP1 SHL OR DUP5 SSTORE PUSH2 0x37B1 JUMP JUMPDEST PUSH1 0x0 DUP5 DUP2 MSTORE PUSH1 0x20 DUP2 KECCAK256 PUSH1 0x1F NOT DUP6 AND SWAP2 JUMPDEST DUP3 DUP2 LT ISZERO PUSH2 0x384B JUMPI DUP8 DUP6 ADD MLOAD DUP3 SSTORE PUSH1 0x20 SWAP5 DUP6 ADD SWAP5 PUSH1 0x1 SWAP1 SWAP3 ADD SWAP2 ADD PUSH2 0x382B JUMP JUMPDEST POP DUP5 DUP3 LT ISZERO PUSH2 0x3869 JUMPI DUP7 DUP5 ADD MLOAD PUSH1 0x0 NOT PUSH1 0x3 DUP8 SWAP1 SHL PUSH1 0xF8 AND SHR NOT AND DUP2 SSTORE JUMPDEST POP POP POP POP PUSH1 0x1 SWAP1 DUP2 SHL ADD SWAP1 SSTORE POP JUMP JUMPDEST PUSH1 0x40 DUP2 MSTORE PUSH1 0x0 DUP1 DUP5 SLOAD PUSH2 0x388A DUP2 PUSH2 0x35FB JUMP JUMPDEST DUP1 PUSH1 0x40 DUP7 ADD MSTORE PUSH1 0x1 DUP3 AND PUSH1 0x0 DUP2 EQ PUSH2 0x38A9 JUMPI PUSH1 0x1 DUP2 EQ PUSH2 0x38C5 JUMPI PUSH2 0x38F9 JUMP JUMPDEST PUSH1 0xFF NOT DUP4 AND PUSH1 0x60 DUP8 ADD MSTORE PUSH1 0x60 DUP3 ISZERO ISZERO PUSH1 0x5 SHL DUP8 ADD ADD SWAP4 POP PUSH2 0x38F9 JUMP JUMPDEST DUP8 PUSH1 0x0 MSTORE PUSH1 0x20 PUSH1 0x0 KECCAK256 PUSH1 0x0 JUMPDEST DUP4 DUP2 LT ISZERO PUSH2 0x38F0 JUMPI DUP2 SLOAD DUP9 DUP3 ADD PUSH1 0x60 ADD MSTORE PUSH1 0x1 SWAP1 SWAP2 ADD SWAP1 PUSH1 0x20 ADD PUSH2 0x38D1 JUMP JUMPDEST DUP8 ADD PUSH1 0x60 ADD SWAP5 POP POP JUMPDEST POP POP POP PUSH1 0x20 SWAP3 SWAP1 SWAP3 ADD SWAP3 SWAP1 SWAP3 MSTORE SWAP3 SWAP2 POP POP JUMP JUMPDEST DUP2 DUP4 MSTORE DUP2 DUP2 PUSH1 0x20 DUP6 ADD CALLDATACOPY POP PUSH1 0x0 DUP3 DUP3 ADD PUSH1 0x20 SWAP1 DUP2 ADD SWAP2 SWAP1 SWAP2 MSTORE PUSH1 0x1F SWAP1 SWAP2 ADD PUSH1 0x1F NOT AND SWAP1 SWAP2 ADD ADD SWAP1 JUMP JUMPDEST DUP4 DUP2 MSTORE PUSH1 0x40 PUSH1 0x20 DUP3 ADD MSTORE PUSH1 0x0 PUSH2 0x394F PUSH1 0x40 DUP4 ADD DUP5 DUP7 PUSH2 0x390C JUMP JUMPDEST SWAP6 SWAP5 POP POP POP POP POP JUMP JUMPDEST PUSH1 0x20 DUP1 DUP3 MSTORE PUSH1 0x11 SWAP1 DUP3 ADD MSTORE PUSH17 0x125B9D985B1A5908195CD8DC9BDDC81251 PUSH1 0x7A SHL PUSH1 0x40 DUP3 ADD MSTORE PUSH1 0x60 ADD SWAP1 JUMP JUMPDEST PUSH4 0x4E487B71 PUSH1 0xE0 SHL PUSH1 0x0 MSTORE PUSH1 0x32 PUSH1 0x4 MSTORE PUSH1 0x24 PUSH1 0x0 REVERT JUMPDEST DUP2 DUP4 DUP3 CALLDATACOPY PUSH1 0x0 SWAP2 ADD SWAP1 DUP2 MSTORE SWAP2 SWAP1 POP JUMP JUMPDEST PUSH1 0x40 DUP2 MSTORE PUSH1 0x0 PUSH2 0x39BD PUSH1 0x40 DUP4 ADD DUP6 DUP8 PUSH2 0x390C JUMP JUMPDEST SWAP1 POP PUSH1 0x1 DUP1 PUSH1 0xA0 SHL SUB DUP4 AND PUSH1 0x20 DUP4 ADD MSTORE SWAP5 SWAP4 POP POP POP POP JUMP JUMPDEST PUSH1 0x40 DUP2 MSTORE PUSH1 0x0 PUSH2 0x39E9 PUSH1 0x40 DUP4 ADD DUP6 DUP8 PUSH2 0x390C JUMP JUMPDEST SWAP1 POP PUSH2 0xFFFF DUP4 AND PUSH1 0x20 DUP4 ADD MSTORE SWAP5 SWAP4 POP POP POP POP JUMP INVALID LOG2 PUSH5 0x6970667358 0x22 SLT KECCAK256 BLOCKHASH PUSH0 0x2B CODESIZE 0x25 EXTCODESIZE 0xB3 0xE7 0xC 0xAF 0xCA TIMESTAMP 0xA9 0xD5 CALLDATALOAD 0xB3 PUSH30 0xD6ABF35723F79083559B5A0495B4C764736F6C634300081C003300000000 "},"methodIdentifiers":{"approveClaim(uint256,uint256,uint16)":"63faf2d1","bounties(uint256)":"dc2f8744","cancelBounty(uint256)":"e5e5dff1","claimEscrow(uint256)":"2ce947db","claims(uint256,uint256)":"f894160e","createBounty(string,string,uint256)":"2bfa7d60","escrowCount()":"675ac67a","escrowPeriod()":"f16b51c1","escrows(uint256)":"012f52ee","finalizeBounty(uint256)":"191634c3","getBounty(uint256)":"ee8c4bbf","getClaim(uint256,uint256)":"427a2fc2","getEscrow(uint256)":"7d19e596","getScientist(address)":"1681c04c","institutionWallets(string)":"cb9e9f1d","nextBountyId()":"fd14fad4","owner()":"8da5cb5b","platformFeeBps()":"22dcd13e","registerInstitutionWallet(string,address)":"5dc20323","registerScientist(string,uint16)":"80d2d7e5","rejectClaim(uint256,uint256)":"3cb74917","renounceOwnership()":"715018a6","scientists(address)":"d8e59749","setEscrowPeriod(uint256)":"b46f08bb","setPlatformFeeBps(uint16)":"3bc1f7b3","setTreasury(address)":"f0f44260","submitClaim(uint256,string,string)":"b13fe055","totalBounties()":"85feeb23","transferOwnership(address)":"f2fde38b","treasury()":"61d027b3","withdrawExpiredEscrow(uint256)":"5102196b"}}}}}