{
  "_format": "hh-sol-artifact-1",
  "contractName": "CarrierwaveRO",
  "sourceName": "contracts/CarrierwaveRO.sol",
  "abi": [
    {
      "inputs": [
        {
          "internalType": "address",
          "name": "founderWallet",
          "type": "address"
        }
      ],
      "stateMutability": "nonpayable",
      "type": "constructor"
    },
    {
      "inputs": [
        {
          "internalType": "address",
          "name": "sender",
          "type": "address"
        },
        {
          "internalType": "uint256",
          "name": "tokenId",
          "type": "uint256"
        },
        {
          "internalType": "address",
          "name": "owner",
          "type": "address"
        }
      ],
      "name": "ERC721IncorrectOwner",
      "type": "error"
    },
    {
      "inputs": [
        {
          "internalType": "address",
          "name": "operator",
          "type": "address"
        },
        {
          "internalType": "uint256",
          "name": "tokenId",
          "type": "uint256"
        }
      ],
      "name": "ERC721InsufficientApproval",
      "type": "error"
    },
    {
      "inputs": [
        {
          "internalType": "address",
          "name": "approver",
          "type": "address"
        }
      ],
      "name": "ERC721InvalidApprover",
      "type": "error"
    },
    {
      "inputs": [
        {
          "internalType": "address",
          "name": "operator",
          "type": "address"
        }
      ],
      "name": "ERC721InvalidOperator",
      "type": "error"
    },
    {
      "inputs": [
        {
          "internalType": "address",
          "name": "owner",
          "type": "address"
        }
      ],
      "name": "ERC721InvalidOwner",
      "type": "error"
    },
    {
      "inputs": [
        {
          "internalType": "address",
          "name": "receiver",
          "type": "address"
        }
      ],
      "name": "ERC721InvalidReceiver",
      "type": "error"
    },
    {
      "inputs": [
        {
          "internalType": "address",
          "name": "sender",
          "type": "address"
        }
      ],
      "name": "ERC721InvalidSender",
      "type": "error"
    },
    {
      "inputs": [
        {
          "internalType": "uint256",
          "name": "tokenId",
          "type": "uint256"
        }
      ],
      "name": "ERC721NonexistentToken",
      "type": "error"
    },
    {
      "inputs": [
        {
          "internalType": "address",
          "name": "owner",
          "type": "address"
        }
      ],
      "name": "OwnableInvalidOwner",
      "type": "error"
    },
    {
      "inputs": [
        {
          "internalType": "address",
          "name": "account",
          "type": "address"
        }
      ],
      "name": "OwnableUnauthorizedAccount",
      "type": "error"
    },
    {
      "anonymous": false,
      "inputs": [
        {
          "indexed": true,
          "internalType": "address",
          "name": "owner",
          "type": "address"
        },
        {
          "indexed": true,
          "internalType": "address",
          "name": "approved",
          "type": "address"
        },
        {
          "indexed": true,
          "internalType": "uint256",
          "name": "tokenId",
          "type": "uint256"
        }
      ],
      "name": "Approval",
      "type": "event"
    },
    {
      "anonymous": false,
      "inputs": [
        {
          "indexed": true,
          "internalType": "address",
          "name": "owner",
          "type": "address"
        },
        {
          "indexed": true,
          "internalType": "address",
          "name": "operator",
          "type": "address"
        },
        {
          "indexed": false,
          "internalType": "bool",
          "name": "approved",
          "type": "bool"
        }
      ],
      "name": "ApprovalForAll",
      "type": "event"
    },
    {
      "anonymous": false,
      "inputs": [
        {
          "indexed": true,
          "internalType": "address",
          "name": "previousOwner",
          "type": "address"
        },
        {
          "indexed": true,
          "internalType": "address",
          "name": "newOwner",
          "type": "address"
        }
      ],
      "name": "OwnershipTransferred",
      "type": "event"
    },
    {
      "anonymous": false,
      "inputs": [
        {
          "indexed": true,
          "internalType": "uint256",
          "name": "tokenId",
          "type": "uint256"
        },
        {
          "indexed": true,
          "internalType": "address",
          "name": "submitter",
          "type": "address"
        },
        {
          "indexed": false,
          "internalType": "string",
          "name": "roId",
          "type": "string"
        },
        {
          "indexed": false,
          "internalType": "string",
          "name": "contentHash",
          "type": "string"
        }
      ],
      "name": "ROMinted",
      "type": "event"
    },
    {
      "anonymous": false,
      "inputs": [
        {
          "indexed": true,
          "internalType": "address",
          "name": "from",
          "type": "address"
        },
        {
          "indexed": true,
          "internalType": "address",
          "name": "to",
          "type": "address"
        },
        {
          "indexed": true,
          "internalType": "uint256",
          "name": "tokenId",
          "type": "uint256"
        }
      ],
      "name": "Transfer",
      "type": "event"
    },
    {
      "inputs": [
        {
          "internalType": "address",
          "name": "to",
          "type": "address"
        },
        {
          "internalType": "uint256",
          "name": "tokenId",
          "type": "uint256"
        }
      ],
      "name": "approve",
      "outputs": [],
      "stateMutability": "nonpayable",
      "type": "function"
    },
    {
      "inputs": [
        {
          "internalType": "address",
          "name": "owner",
          "type": "address"
        }
      ],
      "name": "balanceOf",
      "outputs": [
        {
          "internalType": "uint256",
          "name": "",
          "type": "uint256"
        }
      ],
      "stateMutability": "view",
      "type": "function"
    },
    {
      "inputs": [],
      "name": "baseURI",
      "outputs": [
        {
          "internalType": "string",
          "name": "",
          "type": "string"
        }
      ],
      "stateMutability": "view",
      "type": "function"
    },
    {
      "inputs": [
        {
          "internalType": "string",
          "name": "",
          "type": "string"
        }
      ],
      "name": "contentHashMinted",
      "outputs": [
        {
          "internalType": "bool",
          "name": "",
          "type": "bool"
        }
      ],
      "stateMutability": "view",
      "type": "function"
    },
    {
      "inputs": [
        {
          "internalType": "uint256",
          "name": "tokenId",
          "type": "uint256"
        }
      ],
      "name": "getApproved",
      "outputs": [
        {
          "internalType": "address",
          "name": "",
          "type": "address"
        }
      ],
      "stateMutability": "view",
      "type": "function"
    },
    {
      "inputs": [
        {
          "internalType": "uint256",
          "name": "tokenId",
          "type": "uint256"
        }
      ],
      "name": "getRecord",
      "outputs": [
        {
          "components": [
            {
              "internalType": "string",
              "name": "roId",
              "type": "string"
            },
            {
              "internalType": "string",
              "name": "contentHash",
              "type": "string"
            },
            {
              "internalType": "address",
              "name": "submitter",
              "type": "address"
            },
            {
              "internalType": "uint256",
              "name": "mintedAt",
              "type": "uint256"
            }
          ],
          "internalType": "struct CarrierwaveRO.RORecord",
          "name": "",
          "type": "tuple"
        }
      ],
      "stateMutability": "view",
      "type": "function"
    },
    {
      "inputs": [
        {
          "internalType": "address",
          "name": "owner",
          "type": "address"
        },
        {
          "internalType": "address",
          "name": "operator",
          "type": "address"
        }
      ],
      "name": "isApprovedForAll",
      "outputs": [
        {
          "internalType": "bool",
          "name": "",
          "type": "bool"
        }
      ],
      "stateMutability": "view",
      "type": "function"
    },
    {
      "inputs": [
        {
          "internalType": "string",
          "name": "roId",
          "type": "string"
        },
        {
          "internalType": "string",
          "name": "contentHash",
          "type": "string"
        }
      ],
      "name": "mintRO",
      "outputs": [
        {
          "internalType": "uint256",
          "name": "",
          "type": "uint256"
        }
      ],
      "stateMutability": "nonpayable",
      "type": "function"
    },
    {
      "inputs": [],
      "name": "mintingPaused",
      "outputs": [
        {
          "internalType": "bool",
          "name": "",
          "type": "bool"
        }
      ],
      "stateMutability": "view",
      "type": "function"
    },
    {
      "inputs": [],
      "name": "name",
      "outputs": [
        {
          "internalType": "string",
          "name": "",
          "type": "string"
        }
      ],
      "stateMutability": "view",
      "type": "function"
    },
    {
      "inputs": [],
      "name": "owner",
      "outputs": [
        {
          "internalType": "address",
          "name": "",
          "type": "address"
        }
      ],
      "stateMutability": "view",
      "type": "function"
    },
    {
      "inputs": [
        {
          "internalType": "uint256",
          "name": "tokenId",
          "type": "uint256"
        }
      ],
      "name": "ownerOf",
      "outputs": [
        {
          "internalType": "address",
          "name": "",
          "type": "address"
        }
      ],
      "stateMutability": "view",
      "type": "function"
    },
    {
      "inputs": [],
      "name": "renounceOwnership",
      "outputs": [],
      "stateMutability": "nonpayable",
      "type": "function"
    },
    {
      "inputs": [
        {
          "internalType": "string",
          "name": "",
          "type": "string"
        }
      ],
      "name": "roIdToTokenId",
      "outputs": [
        {
          "internalType": "uint256",
          "name": "",
          "type": "uint256"
        }
      ],
      "stateMutability": "view",
      "type": "function"
    },
    {
      "inputs": [
        {
          "internalType": "uint256",
          "name": "",
          "type": "uint256"
        }
      ],
      "name": "roRecords",
      "outputs": [
        {
          "internalType": "string",
          "name": "roId",
          "type": "string"
        },
        {
          "internalType": "string",
          "name": "contentHash",
          "type": "string"
        },
        {
          "internalType": "address",
          "name": "submitter",
          "type": "address"
        },
        {
          "internalType": "uint256",
          "name": "mintedAt",
          "type": "uint256"
        }
      ],
      "stateMutability": "view",
      "type": "function"
    },
    {
      "inputs": [
        {
          "internalType": "address",
          "name": "from",
          "type": "address"
        },
        {
          "internalType": "address",
          "name": "to",
          "type": "address"
        },
        {
          "internalType": "uint256",
          "name": "tokenId",
          "type": "uint256"
        }
      ],
      "name": "safeTransferFrom",
      "outputs": [],
      "stateMutability": "nonpayable",
      "type": "function"
    },
    {
      "inputs": [
        {
          "internalType": "address",
          "name": "from",
          "type": "address"
        },
        {
          "internalType": "address",
          "name": "to",
          "type": "address"
        },
        {
          "internalType": "uint256",
          "name": "tokenId",
          "type": "uint256"
        },
        {
          "internalType": "bytes",
          "name": "data",
          "type": "bytes"
        }
      ],
      "name": "safeTransferFrom",
      "outputs": [],
      "stateMutability": "nonpayable",
      "type": "function"
    },
    {
      "inputs": [
        {
          "internalType": "address",
          "name": "operator",
          "type": "address"
        },
        {
          "internalType": "bool",
          "name": "approved",
          "type": "bool"
        }
      ],
      "name": "setApprovalForAll",
      "outputs": [],
      "stateMutability": "nonpayable",
      "type": "function"
    },
    {
      "inputs": [
        {
          "internalType": "string",
          "name": "newBaseURI",
          "type": "string"
        }
      ],
      "name": "setBaseURI",
      "outputs": [],
      "stateMutability": "nonpayable",
      "type": "function"
    },
    {
      "inputs": [
        {
          "internalType": "bool",
          "name": "paused",
          "type": "bool"
        }
      ],
      "name": "setMintingPaused",
      "outputs": [],
      "stateMutability": "nonpayable",
      "type": "function"
    },
    {
      "inputs": [
        {
          "internalType": "bytes4",
          "name": "interfaceId",
          "type": "bytes4"
        }
      ],
      "name": "supportsInterface",
      "outputs": [
        {
          "internalType": "bool",
          "name": "",
          "type": "bool"
        }
      ],
      "stateMutability": "view",
      "type": "function"
    },
    {
      "inputs": [],
      "name": "symbol",
      "outputs": [
        {
          "internalType": "string",
          "name": "",
          "type": "string"
        }
      ],
      "stateMutability": "view",
      "type": "function"
    },
    {
      "inputs": [
        {
          "internalType": "uint256",
          "name": "tokenId",
          "type": "uint256"
        }
      ],
      "name": "tokenURI",
      "outputs": [
        {
          "internalType": "string",
          "name": "",
          "type": "string"
        }
      ],
      "stateMutability": "view",
      "type": "function"
    },
    {
      "inputs": [],
      "name": "totalMinted",
      "outputs": [
        {
          "internalType": "uint256",
          "name": "",
          "type": "uint256"
        }
      ],
      "stateMutability": "view",
      "type": "function"
    },
    {
      "inputs": [
        {
          "internalType": "address",
          "name": "from",
          "type": "address"
        },
        {
          "internalType": "address",
          "name": "to",
          "type": "address"
        },
        {
          "internalType": "uint256",
          "name": "tokenId",
          "type": "uint256"
        }
      ],
      "name": "transferFrom",
      "outputs": [],
      "stateMutability": "nonpayable",
      "type": "function"
    },
    {
      "inputs": [
        {
          "internalType": "address",
          "name": "newOwner",
          "type": "address"
        }
      ],
      "name": "transferOwnership",
      "outputs": [],
      "stateMutability": "nonpayable",
      "type": "function"
    }
  ],
  "bytecode": "0x608060405234801561001057600080fd5b5060405161390a38038061390a833981810160405281019061003291906102b7565b806040518060400160405280601b81526020017f4361727269657277617665205265736561726368204f626a65637400000000008152506040518060400160405280600481526020017f4357524f0000000000000000000000000000000000000000000000000000000081525081600090816100ae9190610534565b5080600190816100be9190610534565b505050600073ffffffffffffffffffffffffffffffffffffffff168173ffffffffffffffffffffffffffffffffffffffff16036101335760006040517f1e4fbdf700000000000000000000000000000000000000000000000000000000815260040161012a9190610615565b60405180910390fd5b6101428161018e60201b60201c565b506040518060400160405280601b81526020017f68747470733a2f2f63617272696572776176652e6f72672f726f2f0000000000815250600990816101879190610534565b5050610630565b6000600660009054906101000a900473ffffffffffffffffffffffffffffffffffffffff16905081600660006101000a81548173ffffffffffffffffffffffffffffffffffffffff021916908373ffffffffffffffffffffffffffffffffffffffff1602179055508173ffffffffffffffffffffffffffffffffffffffff168173ffffffffffffffffffffffffffffffffffffffff167f8be0079c531659141344cd1fd0a4f28419497f9722a3daafe3b4186f6b6457e060405160405180910390a35050565b600080fd5b600073ffffffffffffffffffffffffffffffffffffffff82169050919050565b600061028482610259565b9050919050565b61029481610279565b811461029f57600080fd5b50565b6000815190506102b18161028b565b92915050565b6000602082840312156102cd576102cc610254565b5b60006102db848285016102a2565b91505092915050565b600081519050919050565b7f4e487b7100000000000000000000000000000000000000000000000000000000600052604160045260246000fd5b7f4e487b7100000000000000000000000000000000000000000000000000000000600052602260045260246000fd5b6000600282049050600182168061036557607f821691505b6020821081036103785761037761031e565b5b50919050565b60008190508160005260206000209050919050565b60006020601f8301049050919050565b600082821b905092915050565b6000600883026103e07fffffffffffffffffffffffffffffffffffffffffffffffffffffffffffffffff826103a3565b6103ea86836103a3565b95508019841693508086168417925050509392505050565b6000819050919050565b6000819050919050565b600061043161042c61042784610402565b61040c565b610402565b9050919050565b6000819050919050565b61044b83610416565b61045f61045782610438565b8484546103b0565b825550505050565b600090565b610474610467565b61047f818484610442565b505050565b5b818110156104a35761049860008261046c565b600181019050610485565b5050565b601f8211156104e8576104b98161037e565b6104c284610393565b810160208510156104d1578190505b6104e56104dd85610393565b830182610484565b50505b505050565b600082821c905092915050565b600061050b600019846008026104ed565b1980831691505092915050565b600061052483836104fa565b9150826002028217905092915050565b61053d826102e4565b67ffffffffffffffff811115610556576105556102ef565b5b610560825461034d565b61056b8282856104a7565b600060209050601f83116001811461059e576000841561058c578287015190505b6105968582610518565b8655506105fe565b601f1984166105ac8661037e565b60005b828110156105d4578489015182556001820191506020850194506020810190506105af565b868310156105f157848901516105ed601f8916826104fa565b8355505b6001600288020188555050505b505050505050565b61060f81610279565b82525050565b600060208201905061062a6000830184610606565b92915050565b6132cb8061063f6000396000f3fe608060405234801561001057600080fd5b506004361061018e5760003560e01c8063715018a6116100de578063a322044e11610097578063c87b56dd11610071578063c87b56dd146104aa578063e1a283d6146104da578063e985e9c5146104f8578063f2fde38b146105285761018e565b8063a322044e14610442578063ad13419d14610472578063b88d4fde1461048e5761018e565b8063715018a6146103925780638da5cb5b1461039c5780639545efb4146103ba57806395d89b41146103ea578063a22cb46514610408578063a2309ff8146104245761018e565b80632bc8a2851161014b578063621a4d6d11610125578063621a4d6d146102e15780636352211e146103145780636c0360eb1461034457806370a08231146103625761018e565b80632bc8a2851461027957806342842e0e146102a957806355f804b3146102c55761018e565b806301ffc9a71461019357806303e9e609146101c357806306fdde03146101f3578063081812fc14610211578063095ea7b31461024157806323b872dd1461025d575b600080fd5b6101ad60048036038101906101a891906120d4565b610544565b6040516101ba919061211c565b60405180910390f35b6101dd60048036038101906101d8919061216d565b610626565b6040516101ea91906122e4565b60405180910390f35b6101fb6107e1565b6040516102089190612350565b60405180910390f35b61022b6004803603810190610226919061216d565b610873565b6040516102389190612381565b60405180910390f35b61025b600480360381019061025691906123c8565b61088f565b005b61027760048036038101906102729190612408565b6108a5565b005b610293600480360381019061028e9190612590565b6109a7565b6040516102a091906125e8565b60405180910390f35b6102c360048036038101906102be9190612408565b6109d5565b005b6102df60048036038101906102da9190612663565b6109f5565b005b6102fb60048036038101906102f6919061216d565b610a13565b60405161030b94939291906126b0565b60405180910390f35b61032e6004803603810190610329919061216d565b610b73565b60405161033b9190612381565b60405180910390f35b61034c610b85565b6040516103599190612350565b60405180910390f35b61037c60048036038101906103779190612703565b610c13565b60405161038991906125e8565b60405180910390f35b61039a610ccd565b005b6103a4610ce1565b6040516103b19190612381565b60405180910390f35b6103d460048036038101906103cf9190612730565b610d0b565b6040516103e191906125e8565b60405180910390f35b6103f26110ee565b6040516103ff9190612350565b60405180910390f35b610422600480360381019061041d91906127dd565b611180565b005b61042c611196565b60405161043991906125e8565b60405180910390f35b61045c60048036038101906104579190612590565b6111a0565b604051610469919061211c565b60405180910390f35b61048c6004803603810190610487919061281d565b6111d6565b005b6104a860048036038101906104a391906128eb565b6111fb565b005b6104c460048036038101906104bf919061216d565b611220565b6040516104d19190612350565b60405180910390f35b6104e261126b565b6040516104ef919061211c565b60405180910390f35b610512600480360381019061050d919061296e565b61127e565b60405161051f919061211c565b60405180910390f35b610542600480360381019061053d9190612703565b611312565b005b60007f80ac58cd000000000000000000000000000000000000000000000000000000007bffffffffffffffffffffffffffffffffffffffffffffffffffffffff1916827bffffffffffffffffffffffffffffffffffffffffffffffffffffffff1916148061060f57507f5b5e139f000000000000000000000000000000000000000000000000000000007bffffffffffffffffffffffffffffffffffffffffffffffffffffffff1916827bffffffffffffffffffffffffffffffffffffffffffffffffffffffff1916145b8061061f575061061e82611398565b5b9050919050565b61062e61202a565b61063782611402565b50600a6000838152602001908152602001600020604051806080016040529081600082018054610666906129dd565b80601f0160208091040260200160405190810160405280929190818152602001828054610692906129dd565b80156106df5780601f106106b4576101008083540402835291602001916106df565b820191906000526020600020905b8154815290600101906020018083116106c257829003601f168201915b505050505081526020016001820180546106f8906129dd565b80601f0160208091040260200160405190810160405280929190818152602001828054610724906129dd565b80156107715780601f1061074657610100808354040283529160200191610771565b820191906000526020600020905b81548152906001019060200180831161075457829003601f168201915b505050505081526020016002820160009054906101000a900473ffffffffffffffffffffffffffffffffffffffff1673ffffffffffffffffffffffffffffffffffffffff1673ffffffffffffffffffffffffffffffffffffffff1681526020016003820154815250509050919050565b6060600080546107f0906129dd565b80601f016020809104026020016040519081016040528092919081815260200182805461081c906129dd565b80156108695780601f1061083e57610100808354040283529160200191610869565b820191906000526020600020905b81548152906001019060200180831161084c57829003601f168201915b5050505050905090565b600061087e82611402565b506108888261148a565b9050919050565b6108a1828261089c6114c7565b6114cf565b5050565b600073ffffffffffffffffffffffffffffffffffffffff168273ffffffffffffffffffffffffffffffffffffffff16036109175760006040517f64a0ae9200000000000000000000000000000000000000000000000000000000815260040161090e9190612381565b60405180910390fd5b600061092b83836109266114c7565b6114e1565b90508373ffffffffffffffffffffffffffffffffffffffff168173ffffffffffffffffffffffffffffffffffffffff16146109a1578382826040517f64283d7b00000000000000000000000000000000000000000000000000000000815260040161099893929190612a0e565b60405180910390fd5b50505050565b600c818051602081018201805184825260208301602085012081835280955050505050506000915090505481565b6109f0838383604051806020016040528060008152506111fb565b505050565b6109fd6116fb565b818160099182610a0e929190612bfc565b505050565b600a602052806000526040600020600091509050806000018054610a36906129dd565b80601f0160208091040260200160405190810160405280929190818152602001828054610a62906129dd565b8015610aaf5780601f10610a8457610100808354040283529160200191610aaf565b820191906000526020600020905b815481529060010190602001808311610a9257829003601f168201915b505050505090806001018054610ac4906129dd565b80601f0160208091040260200160405190810160405280929190818152602001828054610af0906129dd565b8015610b3d5780601f10610b1257610100808354040283529160200191610b3d565b820191906000526020600020905b815481529060010190602001808311610b2057829003601f168201915b5050505050908060020160009054906101000a900473ffffffffffffffffffffffffffffffffffffffff16908060030154905084565b6000610b7e82611402565b9050919050565b60098054610b92906129dd565b80601f0160208091040260200160405190810160405280929190818152602001828054610bbe906129dd565b8015610c0b5780601f10610be057610100808354040283529160200191610c0b565b820191906000526020600020905b815481529060010190602001808311610bee57829003601f168201915b505050505081565b60008073ffffffffffffffffffffffffffffffffffffffff168273ffffffffffffffffffffffffffffffffffffffff1603610c865760006040517f89c62b64000000000000000000000000000000000000000000000000000000008152600401610c7d9190612381565b60405180910390fd5b600360008373ffffffffffffffffffffffffffffffffffffffff1673ffffffffffffffffffffffffffffffffffffffff168152602001908152602001600020549050919050565b610cd56116fb565b610cdf6000611782565b565b6000600660009054906101000a900473ffffffffffffffffffffffffffffffffffffffff16905090565b6000600860009054906101000a900460ff1615610d5d576040517f08c379a0000000000000000000000000000000000000000000000000000000008152600401610d5490612d18565b60405180910390fd5b60008585905011610da3576040517f08c379a0000000000000000000000000000000000000000000000000000000008152600401610d9a90612d84565b60405180910390fd5b60008383905011610de9576040517f08c379a0000000000000000000000000000000000000000000000000000000008152600401610de090612df0565b60405180910390fd5b600b8383604051610dfb929190612e40565b908152602001604051809103902060009054906101000a900460ff1615610e57576040517f08c379a0000000000000000000000000000000000000000000000000000000008152600401610e4e90612ea5565b60405180910390fd5b6000600c8686604051610e6b929190612e40565b90815260200160405180910390205414610eba576040517f08c379a0000000000000000000000000000000000000000000000000000000008152600401610eb190612f11565b60405180910390fd5b6000600760008154610ecb90612f60565b9190508190559050610edd3382611848565b604051806080016040528087878080601f016020809104026020016040519081016040528093929190818152602001838380828437600081840152601f19601f82011690508083019250505050505050815260200185858080601f016020809104026020016040519081016040528093929190818152602001838380828437600081840152601f19601f8201169050808301925050505050505081526020013373ffffffffffffffffffffffffffffffffffffffff16815260200142815250600a60008381526020019081526020016000206000820151816000019081610fc49190612fa8565b506020820151816001019081610fda9190612fa8565b5060408201518160020160006101000a81548173ffffffffffffffffffffffffffffffffffffffff021916908373ffffffffffffffffffffffffffffffffffffffff160217905550606082015181600301559050506001600b8585604051611043929190612e40565b908152602001604051809103902060006101000a81548160ff02191690831515021790555080600c878760405161107b929190612e40565b9081526020016040518091039020819055503373ffffffffffffffffffffffffffffffffffffffff16817fb942ed1fc9f7d5989884f587d70fbcc83453e9942b6bd2dcfefcd44fb4cfa18e888888886040516110da94939291906130a7565b60405180910390a380915050949350505050565b6060600180546110fd906129dd565b80601f0160208091040260200160405190810160405280929190818152602001828054611129906129dd565b80156111765780601f1061114b57610100808354040283529160200191611176565b820191906000526020600020905b81548152906001019060200180831161115957829003601f168201915b5050505050905090565b61119261118b6114c7565b8383611866565b5050565b6000600754905090565b600b818051602081018201805184825260208301602085012081835280955050505050506000915054906101000a900460ff1681565b6111de6116fb565b80600860006101000a81548160ff02191690831515021790555050565b6112068484846108a5565b61121a6112116114c7565b858585856119d5565b50505050565b606061122b82611402565b506009600a6000848152602001908152602001600020600001604051602001611255929190613165565b6040516020818303038152906040529050919050565b600860009054906101000a900460ff1681565b6000600560008473ffffffffffffffffffffffffffffffffffffffff1673ffffffffffffffffffffffffffffffffffffffff16815260200190815260200160002060008373ffffffffffffffffffffffffffffffffffffffff1673ffffffffffffffffffffffffffffffffffffffff16815260200190815260200160002060009054906101000a900460ff16905092915050565b61131a6116fb565b600073ffffffffffffffffffffffffffffffffffffffff168173ffffffffffffffffffffffffffffffffffffffff160361138c5760006040517f1e4fbdf70000000000000000000000000000000000000000000000000000000081526004016113839190612381565b60405180910390fd5b61139581611782565b50565b60007f01ffc9a7000000000000000000000000000000000000000000000000000000007bffffffffffffffffffffffffffffffffffffffffffffffffffffffff1916827bffffffffffffffffffffffffffffffffffffffffffffffffffffffff1916149050919050565b60008061140e83611b86565b9050600073ffffffffffffffffffffffffffffffffffffffff168173ffffffffffffffffffffffffffffffffffffffff160361148157826040517f7e27328900000000000000000000000000000000000000000000000000000000815260040161147891906125e8565b60405180910390fd5b80915050919050565b60006004600083815260200190815260200160002060009054906101000a900473ffffffffffffffffffffffffffffffffffffffff169050919050565b600033905090565b6114dc8383836001611bc3565b505050565b6000806114ed84611b86565b9050600073ffffffffffffffffffffffffffffffffffffffff168373ffffffffffffffffffffffffffffffffffffffff161461152f5761152e818486611d88565b5b600073ffffffffffffffffffffffffffffffffffffffff168173ffffffffffffffffffffffffffffffffffffffff16146115c057611571600085600080611bc3565b6001600360008373ffffffffffffffffffffffffffffffffffffffff1673ffffffffffffffffffffffffffffffffffffffff168152602001908152602001600020600082825403925050819055505b600073ffffffffffffffffffffffffffffffffffffffff168573ffffffffffffffffffffffffffffffffffffffff1614611643576001600360008773ffffffffffffffffffffffffffffffffffffffff1673ffffffffffffffffffffffffffffffffffffffff168152602001908152602001600020600082825401925050819055505b846002600086815260200190815260200160002060006101000a81548173ffffffffffffffffffffffffffffffffffffffff021916908373ffffffffffffffffffffffffffffffffffffffff160217905550838573ffffffffffffffffffffffffffffffffffffffff168273ffffffffffffffffffffffffffffffffffffffff167fddf252ad1be2c89b69c2b068fc378daa952ba7f163c4a11628f55a4df523b3ef60405160405180910390a4809150509392505050565b6117036114c7565b73ffffffffffffffffffffffffffffffffffffffff16611721610ce1565b73ffffffffffffffffffffffffffffffffffffffff1614611780576117446114c7565b6040517f118cdaa70000000000000000000000000000000000000000000000000000000081526004016117779190612381565b60405180910390fd5b565b6000600660009054906101000a900473ffffffffffffffffffffffffffffffffffffffff16905081600660006101000a81548173ffffffffffffffffffffffffffffffffffffffff021916908373ffffffffffffffffffffffffffffffffffffffff1602179055508173ffffffffffffffffffffffffffffffffffffffff168173ffffffffffffffffffffffffffffffffffffffff167f8be0079c531659141344cd1fd0a4f28419497f9722a3daafe3b4186f6b6457e060405160405180910390a35050565b611862828260405180602001604052806000815250611e4c565b5050565b600073ffffffffffffffffffffffffffffffffffffffff168273ffffffffffffffffffffffffffffffffffffffff16036118d757816040517f5b08ba180000000000000000000000000000000000000000000000000000000081526004016118ce9190612381565b60405180910390fd5b80600560008573ffffffffffffffffffffffffffffffffffffffff1673ffffffffffffffffffffffffffffffffffffffff16815260200190815260200160002060008473ffffffffffffffffffffffffffffffffffffffff1673ffffffffffffffffffffffffffffffffffffffff16815260200190815260200160002060006101000a81548160ff0219169083151502179055508173ffffffffffffffffffffffffffffffffffffffff168373ffffffffffffffffffffffffffffffffffffffff167f17307eab39ab6107e8899845ad3d59bd9653f200f220920489ca2b5937696c31836040516119c8919061211c565b60405180910390a3505050565b60008373ffffffffffffffffffffffffffffffffffffffff163b1115611b7f578273ffffffffffffffffffffffffffffffffffffffff1663150b7a02868685856040518563ffffffff1660e01b8152600401611a3494939291906131de565b6020604051808303816000875af1925050508015611a7057506040513d601f19601f82011682018060405250810190611a6d919061323f565b60015b611af4573d8060008114611aa0576040519150601f19603f3d011682016040523d82523d6000602084013e611aa5565b606091505b506000815103611aec57836040517f64a0ae92000000000000000000000000000000000000000000000000000000008152600401611ae39190612381565b60405180910390fd5b805160208201fd5b63150b7a0260e01b7bffffffffffffffffffffffffffffffffffffffffffffffffffffffff1916817bffffffffffffffffffffffffffffffffffffffffffffffffffffffff191614611b7d57836040517f64a0ae92000000000000000000000000000000000000000000000000000000008152600401611b749190612381565b60405180910390fd5b505b5050505050565b60006002600083815260200190815260200160002060009054906101000a900473ffffffffffffffffffffffffffffffffffffffff169050919050565b8080611bfc5750600073ffffffffffffffffffffffffffffffffffffffff168273ffffffffffffffffffffffffffffffffffffffff1614155b15611d30576000611c0c84611402565b9050600073ffffffffffffffffffffffffffffffffffffffff168373ffffffffffffffffffffffffffffffffffffffff1614158015611c7757508273ffffffffffffffffffffffffffffffffffffffff168173ffffffffffffffffffffffffffffffffffffffff1614155b8015611c8a5750611c88818461127e565b155b15611ccc57826040517fa9fbf51f000000000000000000000000000000000000000000000000000000008152600401611cc39190612381565b60405180910390fd5b8115611d2e57838573ffffffffffffffffffffffffffffffffffffffff168273ffffffffffffffffffffffffffffffffffffffff167f8c5be1e5ebec7d5bd14f71427d1e84f3dd0314c0f7b2291e5b200ac8c7c3b92560405160405180910390a45b505b836004600085815260200190815260200160002060006101000a81548173ffffffffffffffffffffffffffffffffffffffff021916908373ffffffffffffffffffffffffffffffffffffffff16021790555050505050565b611d93838383611e70565b611e4757600073ffffffffffffffffffffffffffffffffffffffff168373ffffffffffffffffffffffffffffffffffffffff1603611e0857806040517f7e273289000000000000000000000000000000000000000000000000000000008152600401611dff91906125e8565b60405180910390fd5b81816040517f177e802f000000000000000000000000000000000000000000000000000000008152600401611e3e92919061326c565b60405180910390fd5b505050565b611e568383611f31565b611e6b611e616114c7565b60008585856119d5565b505050565b60008073ffffffffffffffffffffffffffffffffffffffff168373ffffffffffffffffffffffffffffffffffffffff1614158015611f2857508273ffffffffffffffffffffffffffffffffffffffff168473ffffffffffffffffffffffffffffffffffffffff161480611ee95750611ee8848461127e565b5b80611f2757508273ffffffffffffffffffffffffffffffffffffffff16611f0f8361148a565b73ffffffffffffffffffffffffffffffffffffffff16145b5b90509392505050565b600073ffffffffffffffffffffffffffffffffffffffff168273ffffffffffffffffffffffffffffffffffffffff1603611fa35760006040517f64a0ae92000000000000000000000000000000000000000000000000000000008152600401611f9a9190612381565b60405180910390fd5b6000611fb1838360006114e1565b9050600073ffffffffffffffffffffffffffffffffffffffff168173ffffffffffffffffffffffffffffffffffffffff16146120255760006040517f73c6ac6e00000000000000000000000000000000000000000000000000000000815260040161201c9190612381565b60405180910390fd5b505050565b60405180608001604052806060815260200160608152602001600073ffffffffffffffffffffffffffffffffffffffff168152602001600081525090565b6000604051905090565b600080fd5b600080fd5b60007fffffffff0000000000000000000000000000000000000000000000000000000082169050919050565b6120b18161207c565b81146120bc57600080fd5b50565b6000813590506120ce816120a8565b92915050565b6000602082840312156120ea576120e9612072565b5b60006120f8848285016120bf565b91505092915050565b60008115159050919050565b61211681612101565b82525050565b6000602082019050612131600083018461210d565b92915050565b6000819050919050565b61214a81612137565b811461215557600080fd5b50565b60008135905061216781612141565b92915050565b60006020828403121561218357612182612072565b5b600061219184828501612158565b91505092915050565b600081519050919050565b600082825260208201905092915050565b60005b838110156121d45780820151818401526020810190506121b9565b60008484015250505050565b6000601f19601f8301169050919050565b60006121fc8261219a565b61220681856121a5565b93506122168185602086016121b6565b61221f816121e0565b840191505092915050565b600073ffffffffffffffffffffffffffffffffffffffff82169050919050565b60006122558261222a565b9050919050565b6122658161224a565b82525050565b61227481612137565b82525050565b6000608083016000830151848203600086015261229782826121f1565b915050602083015184820360208601526122b182826121f1565b91505060408301516122c6604086018261225c565b5060608301516122d9606086018261226b565b508091505092915050565b600060208201905081810360008301526122fe818461227a565b905092915050565b600082825260208201905092915050565b60006123228261219a565b61232c8185612306565b935061233c8185602086016121b6565b612345816121e0565b840191505092915050565b6000602082019050818103600083015261236a8184612317565b905092915050565b61237b8161224a565b82525050565b60006020820190506123966000830184612372565b92915050565b6123a58161224a565b81146123b057600080fd5b50565b6000813590506123c28161239c565b92915050565b600080604083850312156123df576123de612072565b5b60006123ed858286016123b3565b92505060206123fe85828601612158565b9150509250929050565b60008060006060848603121561242157612420612072565b5b600061242f868287016123b3565b9350506020612440868287016123b3565b925050604061245186828701612158565b9150509250925092565b600080fd5b600080fd5b7f4e487b7100000000000000000000000000000000000000000000000000000000600052604160045260246000fd5b61249d826121e0565b810181811067ffffffffffffffff821117156124bc576124bb612465565b5b80604052505050565b60006124cf612068565b90506124db8282612494565b919050565b600067ffffffffffffffff8211156124fb576124fa612465565b5b612504826121e0565b9050602081019050919050565b82818337600083830152505050565b600061253361252e846124e0565b6124c5565b90508281526020810184848401111561254f5761254e612460565b5b61255a848285612511565b509392505050565b600082601f8301126125775761257661245b565b5b8135612587848260208601612520565b91505092915050565b6000602082840312156125a6576125a5612072565b5b600082013567ffffffffffffffff8111156125c4576125c3612077565b5b6125d084828501612562565b91505092915050565b6125e281612137565b82525050565b60006020820190506125fd60008301846125d9565b92915050565b600080fd5b600080fd5b60008083601f8401126126235761262261245b565b5b8235905067ffffffffffffffff8111156126405761263f612603565b5b60208301915083600182028301111561265c5761265b612608565b5b9250929050565b6000806020838503121561267a57612679612072565b5b600083013567ffffffffffffffff81111561269857612697612077565b5b6126a48582860161260d565b92509250509250929050565b600060808201905081810360008301526126ca8187612317565b905081810360208301526126de8186612317565b90506126ed6040830185612372565b6126fa60608301846125d9565b95945050505050565b60006020828403121561271957612718612072565b5b6000612727848285016123b3565b91505092915050565b6000806000806040858703121561274a57612749612072565b5b600085013567ffffffffffffffff81111561276857612767612077565b5b6127748782880161260d565b9450945050602085013567ffffffffffffffff81111561279757612796612077565b5b6127a38782880161260d565b925092505092959194509250565b6127ba81612101565b81146127c557600080fd5b50565b6000813590506127d7816127b1565b92915050565b600080604083850312156127f4576127f3612072565b5b6000612802858286016123b3565b9250506020612813858286016127c8565b9150509250929050565b60006020828403121561283357612832612072565b5b6000612841848285016127c8565b91505092915050565b600067ffffffffffffffff82111561286557612864612465565b5b61286e826121e0565b9050602081019050919050565b600061288e6128898461284a565b6124c5565b9050828152602081018484840111156128aa576128a9612460565b5b6128b5848285612511565b509392505050565b600082601f8301126128d2576128d161245b565b5b81356128e284826020860161287b565b91505092915050565b6000806000806080858703121561290557612904612072565b5b6000612913878288016123b3565b9450506020612924878288016123b3565b935050604061293587828801612158565b925050606085013567ffffffffffffffff81111561295657612955612077565b5b612962878288016128bd565b91505092959194509250565b6000806040838503121561298557612984612072565b5b6000612993858286016123b3565b92505060206129a4858286016123b3565b9150509250929050565b7f4e487b7100000000000000000000000000000000000000000000000000000000600052602260045260246000fd5b600060028204905060018216806129f557607f821691505b602082108103612a0857612a076129ae565b5b50919050565b6000606082019050612a236000830186612372565b612a3060208301856125d9565b612a3d6040830184612372565b949350505050565b600082905092915050565b60008190508160005260206000209050919050565b60006020601f8301049050919050565b600082821b905092915050565b600060088302612ab27fffffffffffffffffffffffffffffffffffffffffffffffffffffffffffffffff82612a75565b612abc8683612a75565b95508019841693508086168417925050509392505050565b6000819050919050565b6000612af9612af4612aef84612137565b612ad4565b612137565b9050919050565b6000819050919050565b612b1383612ade565b612b27612b1f82612b00565b848454612a82565b825550505050565b600090565b612b3c612b2f565b612b47818484612b0a565b505050565b5b81811015612b6b57612b60600082612b34565b600181019050612b4d565b5050565b601f821115612bb057612b8181612a50565b612b8a84612a65565b81016020851015612b99578190505b612bad612ba585612a65565b830182612b4c565b50505b505050565b600082821c905092915050565b6000612bd360001984600802612bb5565b1980831691505092915050565b6000612bec8383612bc2565b9150826002028217905092915050565b612c068383612a45565b67ffffffffffffffff811115612c1f57612c1e612465565b5b612c2982546129dd565b612c34828285612b6f565b6000601f831160018114612c635760008415612c51578287013590505b612c5b8582612be0565b865550612cc3565b601f198416612c7186612a50565b60005b82811015612c9957848901358255600182019150602085019450602081019050612c74565b86831015612cb65784890135612cb2601f891682612bc2565b8355505b6001600288020188555050505b50505050505050565b7f4d696e74696e6720697320706175736564000000000000000000000000000000600082015250565b6000612d02601183612306565b9150612d0d82612ccc565b602082019050919050565b60006020820190508181036000830152612d3181612cf5565b9050919050565b7f726f496420726571756972656400000000000000000000000000000000000000600082015250565b6000612d6e600d83612306565b9150612d7982612d38565b602082019050919050565b60006020820190508181036000830152612d9d81612d61565b9050919050565b7f636f6e74656e7448617368207265717569726564000000000000000000000000600082015250565b6000612dda601483612306565b9150612de582612da4565b602082019050919050565b60006020820190508181036000830152612e0981612dcd565b9050919050565b600081905092915050565b6000612e278385612e10565b9350612e34838584612511565b82840190509392505050565b6000612e4d828486612e1b565b91508190509392505050565b7f416c7265616479206d696e746564000000000000000000000000000000000000600082015250565b6000612e8f600e83612306565b9150612e9a82612e59565b602082019050919050565b60006020820190508181036000830152612ebe81612e82565b9050919050565b7f524f20616c7265616479206d696e746564000000000000000000000000000000600082015250565b6000612efb601183612306565b9150612f0682612ec5565b602082019050919050565b60006020820190508181036000830152612f2a81612eee565b9050919050565b7f4e487b7100000000000000000000000000000000000000000000000000000000600052601160045260246000fd5b6000612f6b82612137565b91507fffffffffffffffffffffffffffffffffffffffffffffffffffffffffffffffff8203612f9d57612f9c612f31565b5b600182019050919050565b612fb18261219a565b67ffffffffffffffff811115612fca57612fc9612465565b5b612fd482546129dd565b612fdf828285612b6f565b600060209050601f8311600181146130125760008415613000578287015190505b61300a8582612be0565b865550613072565b601f19841661302086612a50565b60005b8281101561304857848901518255600182019150602085019450602081019050613023565b868310156130655784890151613061601f891682612bc2565b8355505b6001600288020188555050505b505050505050565b60006130868385612306565b9350613093838584612511565b61309c836121e0565b840190509392505050565b600060408201905081810360008301526130c281868861307a565b905081810360208301526130d781848661307a565b905095945050505050565b600081546130ef816129dd565b6130f98186612e10565b9450600182166000811461311457600181146131295761315c565b60ff198316865281151582028601935061315c565b61313285612a50565b60005b8381101561315457815481890152600182019150602081019050613135565b838801955050505b50505092915050565b600061317182856130e2565b915061317d82846130e2565b91508190509392505050565b600081519050919050565b600082825260208201905092915050565b60006131b082613189565b6131ba8185613194565b93506131ca8185602086016121b6565b6131d3816121e0565b840191505092915050565b60006080820190506131f36000830187612372565b6132006020830186612372565b61320d60408301856125d9565b818103606083015261321f81846131a5565b905095945050505050565b600081519050613239816120a8565b92915050565b60006020828403121561325557613254612072565b5b60006132638482850161322a565b91505092915050565b60006040820190506132816000830185612372565b61328e60208301846125d9565b939250505056fea26469706673582212206508331099738e9b0260ec6c9af81281a01012a9bcecae1bcb8ac302a1484ab264736f6c634300081c0033",
  "linkReferences": {},
  "deployedLinkReferences": {}
}