{
  "_format": "hh-sol-artifact-1",
  "contractName": "CWTreasury",
  "sourceName": "contracts/CWTreasury.sol",
  "abi": [
    {
      "inputs": [
        {
          "internalType": "address",
          "name": "founderWallet",
          "type": "address"
        }
      ],
      "stateMutability": "nonpayable",
      "type": "constructor"
    },
    {
      "inputs": [
        {
          "internalType": "address",
          "name": "owner",
          "type": "address"
        }
      ],
      "name": "OwnableInvalidOwner",
      "type": "error"
    },
    {
      "inputs": [
        {
          "internalType": "address",
          "name": "account",
          "type": "address"
        }
      ],
      "name": "OwnableUnauthorizedAccount",
      "type": "error"
    },
    {
      "anonymous": false,
      "inputs": [
        {
          "indexed": false,
          "internalType": "uint256",
          "name": "total",
          "type": "uint256"
        }
      ],
      "name": "Distributed",
      "type": "event"
    },
    {
      "anonymous": false,
      "inputs": [
        {
          "indexed": true,
          "internalType": "address",
          "name": "previousOwner",
          "type": "address"
        },
        {
          "indexed": true,
          "internalType": "address",
          "name": "newOwner",
          "type": "address"
        }
      ],
      "name": "OwnershipTransferred",
      "type": "event"
    },
    {
      "anonymous": false,
      "inputs": [],
      "name": "RecipientsUpdated",
      "type": "event"
    },
    {
      "inputs": [],
      "name": "distribute",
      "outputs": [],
      "stateMutability": "nonpayable",
      "type": "function"
    },
    {
      "inputs": [],
      "name": "owner",
      "outputs": [
        {
          "internalType": "address",
          "name": "",
          "type": "address"
        }
      ],
      "stateMutability": "view",
      "type": "function"
    },
    {
      "inputs": [],
      "name": "recipientCount",
      "outputs": [
        {
          "internalType": "uint256",
          "name": "",
          "type": "uint256"
        }
      ],
      "stateMutability": "view",
      "type": "function"
    },
    {
      "inputs": [
        {
          "internalType": "uint256",
          "name": "",
          "type": "uint256"
        }
      ],
      "name": "recipients",
      "outputs": [
        {
          "internalType": "address payable",
          "name": "wallet",
          "type": "address"
        },
        {
          "internalType": "uint16",
          "name": "bps",
          "type": "uint16"
        }
      ],
      "stateMutability": "view",
      "type": "function"
    },
    {
      "inputs": [],
      "name": "renounceOwnership",
      "outputs": [],
      "stateMutability": "nonpayable",
      "type": "function"
    },
    {
      "inputs": [
        {
          "components": [
            {
              "internalType": "address payable",
              "name": "wallet",
              "type": "address"
            },
            {
              "internalType": "uint16",
              "name": "bps",
              "type": "uint16"
            }
          ],
          "internalType": "struct CWTreasury.Recipient[]",
          "name": "_recipients",
          "type": "tuple[]"
        }
      ],
      "name": "setRecipients",
      "outputs": [],
      "stateMutability": "nonpayable",
      "type": "function"
    },
    {
      "inputs": [
        {
          "internalType": "address",
          "name": "newOwner",
          "type": "address"
        }
      ],
      "name": "transferOwnership",
      "outputs": [],
      "stateMutability": "nonpayable",
      "type": "function"
    },
    {
      "stateMutability": "payable",
      "type": "receive"
    }
  ],
  "bytecode": "0x608060405234801561001057600080fd5b5060405161096d38038061096d83398101604081905261002f916101aa565b806001600160a01b03811661005e57604051631e4fbdf760e01b81526000600482015260240160405180910390fd5b6100678161015a565b506040805180820182526001600160a01b039283168082526111946020808401828152600180548082018255600082815296517fb10e2d527612073b26eecdfd717e6a320cf44b4afac2b0732d9fcbe2b7fa0cf691820180549451918b166001600160b01b031995861617600160a01b61ffff9384168102919091179091558951808b018b5288815280870197885284548086018655858b52905190840180549851918d16988716989098179083168202179096558851808a019099529588526103e8938801938452815480830183559190965295519590940180549151959096169316929092179216021790556101da565b600080546001600160a01b038381166001600160a01b0319831681178455604051919092169283917f8be0079c531659141344cd1fd0a4f28419497f9722a3daafe3b4186f6b6457e09190a35050565b6000602082840312156101bc57600080fd5b81516001600160a01b03811681146101d357600080fd5b9392505050565b610784806101e96000396000f3fe6080604052600436106100745760003560e01c8063c1426d0e1161004e578063c1426d0e146100e2578063d1bc76a114610102578063e4fc6b6d14610144578063f2fde38b1461015957600080fd5b806322eabb8e14610080578063715018a6146100a35780638da5cb5b146100ba57600080fd5b3661007b57005b600080fd5b34801561008c57600080fd5b506001546040519081526020015b60405180910390f35b3480156100af57600080fd5b506100b8610179565b005b3480156100c657600080fd5b506000546040516001600160a01b03909116815260200161009a565b3480156100ee57600080fd5b506100b86100fd366004610579565b61018d565b34801561010e57600080fd5b5061012261011d3660046105f0565b6102c2565b604080516001600160a01b03909316835261ffff90911660208301520161009a565b34801561015057600080fd5b506100b86102f8565b34801561016557600080fd5b506100b861017436600461061e565b610482565b6101816104c0565b61018b60006104ed565b565b6101956104c0565b6000805b828110156101df578383828181106101b3576101b3610642565b90506040020160200160208101906101cb9190610668565b6101d5908361069b565b9150600101610199565b508061ffff16612710146102325760405162461bcd60e51b81526020600482015260156024820152744d7573742073756d20746f2031303030302062707360581b60448201526064015b60405180910390fd5b61023e6001600061053d565b60005b8281101561029357600184848381811061025d5761025d610642565b8354600181018555600094855260209094206040909102929092019291909101905061028982826106bb565b5050600101610241565b506040517ffe5aef2d5039cc39e0fd84b8d27c87e4c9a26afd5536199c456b29ad08d73d2d90600090a1505050565b600181815481106102d257600080fd5b6000918252602090912001546001600160a01b0381169150600160a01b900461ffff1682565b478061033e5760405162461bcd60e51b81526020600482015260156024820152744e6f7468696e6720746f206469737472696275746560581b6044820152606401610229565b60005b60015481101561044b5760006127106001838154811061036357610363610642565b60009182526020909120015461038490600160a01b900461ffff1685610715565b61038e919061072c565b90506000600183815481106103a5576103a5610642565b60009182526020822001546040516001600160a01b039091169184919081818185875af1925050503d80600081146103f9576040519150601f19603f3d011682016040523d82523d6000602084013e6103fe565b606091505b50509050806104415760405162461bcd60e51b815260206004820152600f60248201526e151c985b9cd9995c8819985a5b1959608a1b6044820152606401610229565b5050600101610341565b506040518181527fddc9c30275a04c48091f24199f9c405765de34d979d6847f5b9798a57232d2e59060200160405180910390a150565b61048a6104c0565b6001600160a01b0381166104b457604051631e4fbdf760e01b815260006004820152602401610229565b6104bd816104ed565b50565b6000546001600160a01b0316331461018b5760405163118cdaa760e01b8152336004820152602401610229565b600080546001600160a01b038381166001600160a01b0319831681178455604051919092169283917f8be0079c531659141344cd1fd0a4f28419497f9722a3daafe3b4186f6b6457e09190a35050565b50805460008255906000526020600020908101906104bd91905b808211156105755780546001600160b01b0319168155600101610557565b5090565b6000806020838503121561058c57600080fd5b823567ffffffffffffffff8111156105a357600080fd5b8301601f810185136105b457600080fd5b803567ffffffffffffffff8111156105cb57600080fd5b8560208260061b84010111156105e057600080fd5b6020919091019590945092505050565b60006020828403121561060257600080fd5b5035919050565b6001600160a01b03811681146104bd57600080fd5b60006020828403121561063057600080fd5b813561063b81610609565b9392505050565b634e487b7160e01b600052603260045260246000fd5b61ffff811681146104bd57600080fd5b60006020828403121561067a57600080fd5b813561063b81610658565b634e487b7160e01b600052601160045260246000fd5b61ffff81811683821601908111156106b5576106b5610685565b92915050565b81356106c681610609565b81546001600160a01b031981166001600160a01b0392909216918217835560208401356106f281610658565b6001600160b01b03199190911690911760a09190911b61ffff60a01b1617905550565b80820281158282048414176106b5576106b5610685565b60008261074957634e487b7160e01b600052601260045260246000fd5b50049056fea2646970667358221220135711275c9bb358a6a2e262c2b9099641a850efc417fea79787332eb4fdebcc64736f6c634300081c0033",
  "linkReferences": {},
  "deployedLinkReferences": {}
}