{
  "_format": "hh-sol-artifact-1",
  "contractName": "CarrierwaveROv2",
  "sourceName": "contracts/CarrierwaveROv2.sol",
  "abi": [
    {
      "inputs": [
        {
          "internalType": "address",
          "name": "founderWallet",
          "type": "address"
        },
        {
          "internalType": "address payable",
          "name": "_treasury",
          "type": "address"
        },
        {
          "internalType": "uint256",
          "name": "_mintFee",
          "type": "uint256"
        }
      ],
      "stateMutability": "nonpayable",
      "type": "constructor"
    },
    {
      "inputs": [
        {
          "internalType": "address",
          "name": "sender",
          "type": "address"
        },
        {
          "internalType": "uint256",
          "name": "tokenId",
          "type": "uint256"
        },
        {
          "internalType": "address",
          "name": "owner",
          "type": "address"
        }
      ],
      "name": "ERC721IncorrectOwner",
      "type": "error"
    },
    {
      "inputs": [
        {
          "internalType": "address",
          "name": "operator",
          "type": "address"
        },
        {
          "internalType": "uint256",
          "name": "tokenId",
          "type": "uint256"
        }
      ],
      "name": "ERC721InsufficientApproval",
      "type": "error"
    },
    {
      "inputs": [
        {
          "internalType": "address",
          "name": "approver",
          "type": "address"
        }
      ],
      "name": "ERC721InvalidApprover",
      "type": "error"
    },
    {
      "inputs": [
        {
          "internalType": "address",
          "name": "operator",
          "type": "address"
        }
      ],
      "name": "ERC721InvalidOperator",
      "type": "error"
    },
    {
      "inputs": [
        {
          "internalType": "address",
          "name": "owner",
          "type": "address"
        }
      ],
      "name": "ERC721InvalidOwner",
      "type": "error"
    },
    {
      "inputs": [
        {
          "internalType": "address",
          "name": "receiver",
          "type": "address"
        }
      ],
      "name": "ERC721InvalidReceiver",
      "type": "error"
    },
    {
      "inputs": [
        {
          "internalType": "address",
          "name": "sender",
          "type": "address"
        }
      ],
      "name": "ERC721InvalidSender",
      "type": "error"
    },
    {
      "inputs": [
        {
          "internalType": "uint256",
          "name": "tokenId",
          "type": "uint256"
        }
      ],
      "name": "ERC721NonexistentToken",
      "type": "error"
    },
    {
      "inputs": [
        {
          "internalType": "address",
          "name": "owner",
          "type": "address"
        }
      ],
      "name": "OwnableInvalidOwner",
      "type": "error"
    },
    {
      "inputs": [
        {
          "internalType": "address",
          "name": "account",
          "type": "address"
        }
      ],
      "name": "OwnableUnauthorizedAccount",
      "type": "error"
    },
    {
      "anonymous": false,
      "inputs": [
        {
          "indexed": true,
          "internalType": "address",
          "name": "owner",
          "type": "address"
        },
        {
          "indexed": true,
          "internalType": "address",
          "name": "approved",
          "type": "address"
        },
        {
          "indexed": true,
          "internalType": "uint256",
          "name": "tokenId",
          "type": "uint256"
        }
      ],
      "name": "Approval",
      "type": "event"
    },
    {
      "anonymous": false,
      "inputs": [
        {
          "indexed": true,
          "internalType": "address",
          "name": "owner",
          "type": "address"
        },
        {
          "indexed": true,
          "internalType": "address",
          "name": "operator",
          "type": "address"
        },
        {
          "indexed": false,
          "internalType": "bool",
          "name": "approved",
          "type": "bool"
        }
      ],
      "name": "ApprovalForAll",
      "type": "event"
    },
    {
      "anonymous": false,
      "inputs": [
        {
          "indexed": true,
          "internalType": "address",
          "name": "previousOwner",
          "type": "address"
        },
        {
          "indexed": true,
          "internalType": "address",
          "name": "newOwner",
          "type": "address"
        }
      ],
      "name": "OwnershipTransferred",
      "type": "event"
    },
    {
      "anonymous": false,
      "inputs": [
        {
          "indexed": true,
          "internalType": "uint256",
          "name": "tokenId",
          "type": "uint256"
        },
        {
          "indexed": true,
          "internalType": "address",
          "name": "submitter",
          "type": "address"
        },
        {
          "indexed": false,
          "internalType": "string",
          "name": "roId",
          "type": "string"
        },
        {
          "indexed": false,
          "internalType": "string",
          "name": "contentHash",
          "type": "string"
        }
      ],
      "name": "ROMinted",
      "type": "event"
    },
    {
      "anonymous": false,
      "inputs": [
        {
          "indexed": true,
          "internalType": "address",
          "name": "from",
          "type": "address"
        },
        {
          "indexed": true,
          "internalType": "address",
          "name": "to",
          "type": "address"
        },
        {
          "indexed": true,
          "internalType": "uint256",
          "name": "tokenId",
          "type": "uint256"
        }
      ],
      "name": "Transfer",
      "type": "event"
    },
    {
      "inputs": [
        {
          "internalType": "address",
          "name": "to",
          "type": "address"
        },
        {
          "internalType": "uint256",
          "name": "tokenId",
          "type": "uint256"
        }
      ],
      "name": "approve",
      "outputs": [],
      "stateMutability": "nonpayable",
      "type": "function"
    },
    {
      "inputs": [
        {
          "internalType": "address",
          "name": "owner",
          "type": "address"
        }
      ],
      "name": "balanceOf",
      "outputs": [
        {
          "internalType": "uint256",
          "name": "",
          "type": "uint256"
        }
      ],
      "stateMutability": "view",
      "type": "function"
    },
    {
      "inputs": [],
      "name": "baseURI",
      "outputs": [
        {
          "internalType": "string",
          "name": "",
          "type": "string"
        }
      ],
      "stateMutability": "view",
      "type": "function"
    },
    {
      "inputs": [
        {
          "internalType": "string",
          "name": "",
          "type": "string"
        }
      ],
      "name": "contentHashMinted",
      "outputs": [
        {
          "internalType": "bool",
          "name": "",
          "type": "bool"
        }
      ],
      "stateMutability": "view",
      "type": "function"
    },
    {
      "inputs": [
        {
          "internalType": "uint256",
          "name": "tokenId",
          "type": "uint256"
        }
      ],
      "name": "getApproved",
      "outputs": [
        {
          "internalType": "address",
          "name": "",
          "type": "address"
        }
      ],
      "stateMutability": "view",
      "type": "function"
    },
    {
      "inputs": [
        {
          "internalType": "uint256",
          "name": "tokenId",
          "type": "uint256"
        }
      ],
      "name": "getRecord",
      "outputs": [
        {
          "components": [
            {
              "internalType": "string",
              "name": "roId",
              "type": "string"
            },
            {
              "internalType": "string",
              "name": "contentHash",
              "type": "string"
            },
            {
              "internalType": "address",
              "name": "submitter",
              "type": "address"
            },
            {
              "internalType": "uint256",
              "name": "mintedAt",
              "type": "uint256"
            }
          ],
          "internalType": "struct CarrierwaveROv2.RORecord",
          "name": "",
          "type": "tuple"
        }
      ],
      "stateMutability": "view",
      "type": "function"
    },
    {
      "inputs": [
        {
          "internalType": "address",
          "name": "owner",
          "type": "address"
        },
        {
          "internalType": "address",
          "name": "operator",
          "type": "address"
        }
      ],
      "name": "isApprovedForAll",
      "outputs": [
        {
          "internalType": "bool",
          "name": "",
          "type": "bool"
        }
      ],
      "stateMutability": "view",
      "type": "function"
    },
    {
      "inputs": [],
      "name": "mintFee",
      "outputs": [
        {
          "internalType": "uint256",
          "name": "",
          "type": "uint256"
        }
      ],
      "stateMutability": "view",
      "type": "function"
    },
    {
      "inputs": [
        {
          "internalType": "string",
          "name": "roId",
          "type": "string"
        },
        {
          "internalType": "string",
          "name": "contentHash",
          "type": "string"
        }
      ],
      "name": "mintRO",
      "outputs": [
        {
          "internalType": "uint256",
          "name": "",
          "type": "uint256"
        }
      ],
      "stateMutability": "payable",
      "type": "function"
    },
    {
      "inputs": [],
      "name": "mintingPaused",
      "outputs": [
        {
          "internalType": "bool",
          "name": "",
          "type": "bool"
        }
      ],
      "stateMutability": "view",
      "type": "function"
    },
    {
      "inputs": [],
      "name": "name",
      "outputs": [
        {
          "internalType": "string",
          "name": "",
          "type": "string"
        }
      ],
      "stateMutability": "view",
      "type": "function"
    },
    {
      "inputs": [],
      "name": "owner",
      "outputs": [
        {
          "internalType": "address",
          "name": "",
          "type": "address"
        }
      ],
      "stateMutability": "view",
      "type": "function"
    },
    {
      "inputs": [
        {
          "internalType": "uint256",
          "name": "tokenId",
          "type": "uint256"
        }
      ],
      "name": "ownerOf",
      "outputs": [
        {
          "internalType": "address",
          "name": "",
          "type": "address"
        }
      ],
      "stateMutability": "view",
      "type": "function"
    },
    {
      "inputs": [],
      "name": "renounceOwnership",
      "outputs": [],
      "stateMutability": "nonpayable",
      "type": "function"
    },
    {
      "inputs": [
        {
          "internalType": "string",
          "name": "",
          "type": "string"
        }
      ],
      "name": "roIdToTokenId",
      "outputs": [
        {
          "internalType": "uint256",
          "name": "",
          "type": "uint256"
        }
      ],
      "stateMutability": "view",
      "type": "function"
    },
    {
      "inputs": [
        {
          "internalType": "uint256",
          "name": "",
          "type": "uint256"
        }
      ],
      "name": "roRecords",
      "outputs": [
        {
          "internalType": "string",
          "name": "roId",
          "type": "string"
        },
        {
          "internalType": "string",
          "name": "contentHash",
          "type": "string"
        },
        {
          "internalType": "address",
          "name": "submitter",
          "type": "address"
        },
        {
          "internalType": "uint256",
          "name": "mintedAt",
          "type": "uint256"
        }
      ],
      "stateMutability": "view",
      "type": "function"
    },
    {
      "inputs": [
        {
          "internalType": "address",
          "name": "from",
          "type": "address"
        },
        {
          "internalType": "address",
          "name": "to",
          "type": "address"
        },
        {
          "internalType": "uint256",
          "name": "tokenId",
          "type": "uint256"
        }
      ],
      "name": "safeTransferFrom",
      "outputs": [],
      "stateMutability": "nonpayable",
      "type": "function"
    },
    {
      "inputs": [
        {
          "internalType": "address",
          "name": "from",
          "type": "address"
        },
        {
          "internalType": "address",
          "name": "to",
          "type": "address"
        },
        {
          "internalType": "uint256",
          "name": "tokenId",
          "type": "uint256"
        },
        {
          "internalType": "bytes",
          "name": "data",
          "type": "bytes"
        }
      ],
      "name": "safeTransferFrom",
      "outputs": [],
      "stateMutability": "nonpayable",
      "type": "function"
    },
    {
      "inputs": [
        {
          "internalType": "address",
          "name": "operator",
          "type": "address"
        },
        {
          "internalType": "bool",
          "name": "approved",
          "type": "bool"
        }
      ],
      "name": "setApprovalForAll",
      "outputs": [],
      "stateMutability": "nonpayable",
      "type": "function"
    },
    {
      "inputs": [
        {
          "internalType": "string",
          "name": "newBaseURI",
          "type": "string"
        }
      ],
      "name": "setBaseURI",
      "outputs": [],
      "stateMutability": "nonpayable",
      "type": "function"
    },
    {
      "inputs": [
        {
          "internalType": "uint256",
          "name": "newFee",
          "type": "uint256"
        }
      ],
      "name": "setMintFee",
      "outputs": [],
      "stateMutability": "nonpayable",
      "type": "function"
    },
    {
      "inputs": [
        {
          "internalType": "bool",
          "name": "paused",
          "type": "bool"
        }
      ],
      "name": "setMintingPaused",
      "outputs": [],
      "stateMutability": "nonpayable",
      "type": "function"
    },
    {
      "inputs": [
        {
          "internalType": "address payable",
          "name": "newTreasury",
          "type": "address"
        }
      ],
      "name": "setTreasury",
      "outputs": [],
      "stateMutability": "nonpayable",
      "type": "function"
    },
    {
      "inputs": [
        {
          "internalType": "bytes4",
          "name": "interfaceId",
          "type": "bytes4"
        }
      ],
      "name": "supportsInterface",
      "outputs": [
        {
          "internalType": "bool",
          "name": "",
          "type": "bool"
        }
      ],
      "stateMutability": "view",
      "type": "function"
    },
    {
      "inputs": [],
      "name": "symbol",
      "outputs": [
        {
          "internalType": "string",
          "name": "",
          "type": "string"
        }
      ],
      "stateMutability": "view",
      "type": "function"
    },
    {
      "inputs": [
        {
          "internalType": "uint256",
          "name": "tokenId",
          "type": "uint256"
        }
      ],
      "name": "tokenURI",
      "outputs": [
        {
          "internalType": "string",
          "name": "",
          "type": "string"
        }
      ],
      "stateMutability": "view",
      "type": "function"
    },
    {
      "inputs": [],
      "name": "totalMinted",
      "outputs": [
        {
          "internalType": "uint256",
          "name": "",
          "type": "uint256"
        }
      ],
      "stateMutability": "view",
      "type": "function"
    },
    {
      "inputs": [
        {
          "internalType": "address",
          "name": "from",
          "type": "address"
        },
        {
          "internalType": "address",
          "name": "to",
          "type": "address"
        },
        {
          "internalType": "uint256",
          "name": "tokenId",
          "type": "uint256"
        }
      ],
      "name": "transferFrom",
      "outputs": [],
      "stateMutability": "nonpayable",
      "type": "function"
    },
    {
      "inputs": [
        {
          "internalType": "address",
          "name": "newOwner",
          "type": "address"
        }
      ],
      "name": "transferOwnership",
      "outputs": [],
      "stateMutability": "nonpayable",
      "type": "function"
    },
    {
      "inputs": [],
      "name": "treasury",
      "outputs": [
        {
          "internalType": "address payable",
          "name": "",
          "type": "address"
        }
      ],
      "stateMutability": "view",
      "type": "function"
    }
  ],
  "bytecode": "0x608060405234801561001057600080fd5b506040516122d73803806122d783398101604081905261002f916101b0565b826040518060400160405280601b81526020017f4361727269657277617665205265736561726368204f626a6563740000000000815250604051806040016040528060048152602001634357524f60e01b81525081600090816100929190610292565b50600161009f8282610292565b5050506001600160a01b0381166100d057604051631e4fbdf760e01b81526000600482015260240160405180910390fd5b6100d981610146565b5060408051808201909152601b81527f68747470733a2f2f63617272696572776176652e6f72672f726f2f0000000000602082015260099061011b9082610292565b50600b80546001600160a01b0319166001600160a01b039390931692909217909155600a5550610350565b600680546001600160a01b038381166001600160a01b0319831681179093556040519116919082907f8be0079c531659141344cd1fd0a4f28419497f9722a3daafe3b4186f6b6457e090600090a35050565b6001600160a01b03811681146101ad57600080fd5b50565b6000806000606084860312156101c557600080fd5b83516101d081610198565b60208501519093506101e181610198565b80925050604084015190509250925092565b634e487b7160e01b600052604160045260246000fd5b600181811c9082168061021d57607f821691505b60208210810361023d57634e487b7160e01b600052602260045260246000fd5b50919050565b601f82111561028d57806000526020600020601f840160051c8101602085101561026a5750805b601f840160051c820191505b8181101561028a5760008155600101610276565b50505b505050565b81516001600160401b038111156102ab576102ab6101f3565b6102bf816102b98454610209565b84610243565b6020601f8211600181146102f357600083156102db5750848201515b600019600385901b1c1916600184901b17845561028a565b600084815260208120601f198516915b828110156103235787850151825560209485019460019092019101610303565b50848210156103415786840151600019600387901b60f8161c191681555b50505050600190811b01905550565b611f788061035f6000396000f3fe6080604052600436106101cd5760003560e01c8063715018a6116100f7578063ad13419d11610095578063e985e9c511610064578063e985e9c514610556578063eddd0d9c14610576578063f0f4426014610596578063f2fde38b146105b657600080fd5b8063ad13419d146104dc578063b88d4fde146104fc578063c87b56dd1461051c578063e1a283d61461053c57600080fd5b806395d89b41116100d157806395d89b4114610457578063a22cb4651461046c578063a2309ff81461048c578063a322044e146104a157600080fd5b8063715018a6146104115780638da5cb5b146104265780639545efb41461044457600080fd5b80632bc8a2851161016f578063621a4d6d1161013e578063621a4d6d1461038c5780636352211e146103bc5780636c0360eb146103dc57806370a08231146103f157600080fd5b80632bc8a285146102f457806342842e0e1461032c57806355f804b31461034c57806361d027b31461036c57600080fd5b8063081812fc116101ab578063081812fc14610256578063095ea7b31461028e57806313966db5146102b057806323b872dd146102d457600080fd5b806301ffc9a7146101d257806303e9e6091461020757806306fdde0314610234575b600080fd5b3480156101de57600080fd5b506101f26101ed366004611700565b6105d6565b60405190151581526020015b60405180910390f35b34801561021357600080fd5b50610227610222366004611724565b610628565b6040516101fe9190611783565b34801561024057600080fd5b506102496107c6565b6040516101fe91906117e8565b34801561026257600080fd5b50610276610271366004611724565b610858565b6040516001600160a01b0390911681526020016101fe565b34801561029a57600080fd5b506102ae6102a9366004611810565b610881565b005b3480156102bc57600080fd5b506102c6600a5481565b6040519081526020016101fe565b3480156102e057600080fd5b506102ae6102ef36600461183c565b610890565b34801561030057600080fd5b506102c661030f36600461190d565b8051602081830181018051600e8252928201919093012091525481565b34801561033857600080fd5b506102ae61034736600461183c565b610920565b34801561035857600080fd5b506102ae61036736600461199f565b610940565b34801561037857600080fd5b50600b54610276906001600160a01b031681565b34801561039857600080fd5b506103ac6103a7366004611724565b610955565b6040516101fe94939291906119e1565b3480156103c857600080fd5b506102766103d7366004611724565b610a97565b3480156103e857600080fd5b50610249610aa2565b3480156103fd57600080fd5b506102c661040c366004611a23565b610b30565b34801561041d57600080fd5b506102ae610b78565b34801561043257600080fd5b506006546001600160a01b0316610276565b6102c6610452366004611a40565b610b8c565b34801561046357600080fd5b50610249610fc6565b34801561047857600080fd5b506102ae610487366004611ac6565b610fd5565b34801561049857600080fd5b506007546102c6565b3480156104ad57600080fd5b506101f26104bc36600461190d565b8051602081830181018051600d8252928201919093012091525460ff1681565b3480156104e857600080fd5b506102ae6104f7366004611afb565b610fe0565b34801561050857600080fd5b506102ae610517366004611b16565b610ffb565b34801561052857600080fd5b50610249610537366004611724565b611013565b34801561054857600080fd5b506008546101f29060ff1681565b34801561056257600080fd5b506101f2610571366004611b96565b611058565b34801561058257600080fd5b506102ae610591366004611724565b611086565b3480156105a257600080fd5b506102ae6105b1366004611a23565b611093565b3480156105c257600080fd5b506102ae6105d1366004611a23565b6110bd565b60006001600160e01b031982166380ac58cd60e01b148061060757506001600160e01b03198216635b5e139f60e01b145b8061062257506301ffc9a760e01b6001600160e01b03198316145b92915050565b61065c6040518060800160405280606081526020016060815260200160006001600160a01b03168152602001600081525090565b610665826110fb565b506000828152600c60205260409081902081516080810190925280548290829061068e90611bcf565b80601f01602080910402602001604051908101604052809291908181526020018280546106ba90611bcf565b80156107075780601f106106dc57610100808354040283529160200191610707565b820191906000526020600020905b8154815290600101906020018083116106ea57829003601f168201915b5050505050815260200160018201805461072090611bcf565b80601f016020809104026020016040519081016040528092919081815260200182805461074c90611bcf565b80156107995780601f1061076e57610100808354040283529160200191610799565b820191906000526020600020905b81548152906001019060200180831161077c57829003601f168201915b505050918352505060028201546001600160a01b0316602082015260039091015460409091015292915050565b6060600080546107d590611bcf565b80601f016020809104026020016040519081016040528092919081815260200182805461080190611bcf565b801561084e5780601f106108235761010080835404028352916020019161084e565b820191906000526020600020905b81548152906001019060200180831161083157829003601f168201915b5050505050905090565b6000610863826110fb565b506000828152600460205260409020546001600160a01b0316610622565b61088c828233611134565b5050565b6001600160a01b0382166108bf57604051633250574960e11b8152600060048201526024015b60405180910390fd5b60006108cc838333611141565b9050836001600160a01b0316816001600160a01b03161461091a576040516364283d7b60e01b81526001600160a01b03808616600483015260248201849052821660448201526064016108b6565b50505050565b61093b83838360405180602001604052806000815250610ffb565b505050565b61094861123a565b600961093b828483611c50565b600c6020526000908152604090208054819061097090611bcf565b80601f016020809104026020016040519081016040528092919081815260200182805461099c90611bcf565b80156109e95780601f106109be576101008083540402835291602001916109e9565b820191906000526020600020905b8154815290600101906020018083116109cc57829003601f168201915b5050505050908060010180546109fe90611bcf565b80601f0160208091040260200160405190810160405280929190818152602001828054610a2a90611bcf565b8015610a775780601f10610a4c57610100808354040283529160200191610a77565b820191906000526020600020905b815481529060010190602001808311610a5a57829003601f168201915b50505050600283015460039093015491926001600160a01b031691905084565b6000610622826110fb565b60098054610aaf90611bcf565b80601f0160208091040260200160405190810160405280929190818152602001828054610adb90611bcf565b8015610b285780601f10610afd57610100808354040283529160200191610b28565b820191906000526020600020905b815481529060010190602001808311610b0b57829003601f168201915b505050505081565b60006001600160a01b038216610b5c576040516322718ad960e21b8152600060048201526024016108b6565b506001600160a01b031660009081526003602052604090205490565b610b8061123a565b610b8a6000611267565b565b60085460009060ff1615610bd65760405162461bcd60e51b8152602060048201526011602482015270135a5b9d1a5b99c81a5cc81c185d5cd959607a1b60448201526064016108b6565b83610c135760405162461bcd60e51b815260206004820152600d60248201526c1c9bd259081c995c5d5a5c9959609a1b60448201526064016108b6565b81610c575760405162461bcd60e51b815260206004820152601460248201527318dbdb9d195b9d12185cda081c995c5d5a5c995960621b60448201526064016108b6565b600d8383604051610c69929190611d10565b9081526040519081900360200190205460ff1615610cba5760405162461bcd60e51b815260206004820152600e60248201526d105b1c9958591e481b5a5b9d195960921b60448201526064016108b6565b600e8585604051610ccc929190611d10565b908152602001604051809103902054600014610d1e5760405162461bcd60e51b81526020600482015260116024820152701493c8185b1c9958591e481b5a5b9d1959607a1b60448201526064016108b6565b600a54341015610d635760405162461bcd60e51b815260206004820152601060248201526f496e73756666696369656e742066656560801b60448201526064016108b6565b6000600760008154610d7490611d20565b91829055509050610d8533826112b9565b604051806080016040528087878080601f016020809104026020016040519081016040528093929190818152602001838380828437600092019190915250505090825250604080516020601f880181900481028201810190925286815291810191908790879081908401838280828437600092018290525093855250503360208085019190915242604094850152858352600c9052502081518190610e2a9082611d47565b5060208201516001820190610e3f9082611d47565b506040828101516002830180546001600160a01b0319166001600160a01b0390921691909117905560609092015160039091015551600190600d90610e879087908790611d10565b908152604051908190036020018120805492151560ff19909316929092179091558190600e90610eba9089908990611d10565b90815260405190819003602001812091909155600b546000916001600160a01b0390911690349060006040518083038185875af1925050503d8060008114610f1e576040519150601f19603f3d011682016040523d82523d6000602084013e610f23565b606091505b5050905080610f745760405162461bcd60e51b815260206004820152601860248201527f5472656173757279207472616e73666572206661696c6564000000000000000060448201526064016108b6565b336001600160a01b0316827fb942ed1fc9f7d5989884f587d70fbcc83453e9942b6bd2dcfefcd44fb4cfa18e89898989604051610fb49493929190611e2f565b60405180910390a35095945050505050565b6060600180546107d590611bcf565b61088c3383836112d3565b610fe861123a565b6008805460ff1916911515919091179055565b611006848484610890565b61091a3385858585611372565b606061101e826110fb565b506000828152600c6020908152604091829020915161104292600992909101611ed3565b6040516020818303038152906040529050919050565b6001600160a01b03918216600090815260056020908152604080832093909416825291909152205460ff1690565b61108e61123a565b600a55565b61109b61123a565b600b80546001600160a01b0319166001600160a01b0392909216919091179055565b6110c561123a565b6001600160a01b0381166110ef57604051631e4fbdf760e01b8152600060048201526024016108b6565b6110f881611267565b50565b6000818152600260205260408120546001600160a01b03168061062257604051637e27328960e01b8152600481018490526024016108b6565b61093b838383600161149d565b6000828152600260205260408120546001600160a01b039081169083161561116e5761116e8184866115a3565b6001600160a01b038116156111ac5761118b60008560008061149d565b6001600160a01b038116600090815260036020526040902080546000190190555b6001600160a01b038516156111db576001600160a01b0385166000908152600360205260409020805460010190555b60008481526002602052604080822080546001600160a01b0319166001600160a01b0389811691821790925591518793918516917fddf252ad1be2c89b69c2b068fc378daa952ba7f163c4a11628f55a4df523b3ef91a4949350505050565b6006546001600160a01b03163314610b8a5760405163118cdaa760e01b81523360048201526024016108b6565b600680546001600160a01b038381166001600160a01b0319831681179093556040519116919082907f8be0079c531659141344cd1fd0a4f28419497f9722a3daafe3b4186f6b6457e090600090a35050565b61088c828260405180602001604052806000815250611607565b6001600160a01b03821661130557604051630b61174360e31b81526001600160a01b03831660048201526024016108b6565b6001600160a01b03838116600081815260056020908152604080832094871680845294825291829020805460ff191686151590811790915591519182527f17307eab39ab6107e8899845ad3d59bd9653f200f220920489ca2b5937696c31910160405180910390a3505050565b6001600160a01b0383163b1561149657604051630a85bd0160e11b81526001600160a01b0384169063150b7a02906113b4908890889087908790600401611ee8565b6020604051808303816000875af19250505080156113ef575060408051601f3d908101601f191682019092526113ec91810190611f25565b60015b611458573d80801561141d576040519150601f19603f3d011682016040523d82523d6000602084013e611422565b606091505b50805160000361145057604051633250574960e11b81526001600160a01b03851660048201526024016108b6565b805160208201fd5b6001600160e01b03198116630a85bd0160e11b1461149457604051633250574960e11b81526001600160a01b03851660048201526024016108b6565b505b5050505050565b80806114b157506001600160a01b03821615155b156115735760006114c1846110fb565b90506001600160a01b038316158015906114ed5750826001600160a01b0316816001600160a01b031614155b801561150057506114fe8184611058565b155b156115295760405163a9fbf51f60e01b81526001600160a01b03841660048201526024016108b6565b81156115715783856001600160a01b0316826001600160a01b03167f8c5be1e5ebec7d5bd14f71427d1e84f3dd0314c0f7b2291e5b200ac8c7c3b92560405160405180910390a45b505b5050600090815260046020526040902080546001600160a01b0319166001600160a01b0392909216919091179055565b6115ae83838361161f565b61093b576001600160a01b0383166115dc57604051637e27328960e01b8152600481018290526024016108b6565b60405163177e802f60e01b81526001600160a01b0383166004820152602481018290526044016108b6565b6116118383611685565b61093b336000858585611372565b60006001600160a01b0383161580159061167d5750826001600160a01b0316846001600160a01b0316148061165957506116598484611058565b8061167d57506000828152600460205260409020546001600160a01b038481169116145b949350505050565b6001600160a01b0382166116af57604051633250574960e11b8152600060048201526024016108b6565b60006116bd83836000611141565b90506001600160a01b0381161561093b576040516339e3563760e11b8152600060048201526024016108b6565b6001600160e01b0319811681146110f857600080fd5b60006020828403121561171257600080fd5b813561171d816116ea565b9392505050565b60006020828403121561173657600080fd5b5035919050565b6000815180845260005b8181101561176357602081850181015186830182015201611747565b506000602082860101526020601f19601f83011685010191505092915050565b60208152600082516080602084015261179f60a084018261173d565b90506020840151601f198483030160408501526117bc828261173d565b60408601516001600160a01b031660608681019190915290950151608090940193909352509192915050565b60208152600061171d602083018461173d565b6001600160a01b03811681146110f857600080fd5b6000806040838503121561182357600080fd5b823561182e816117fb565b946020939093013593505050565b60008060006060848603121561185157600080fd5b833561185c816117fb565b9250602084013561186c816117fb565b929592945050506040919091013590565b634e487b7160e01b600052604160045260246000fd5b60008067ffffffffffffffff8411156118ae576118ae61187d565b50604051601f19601f85018116603f0116810181811067ffffffffffffffff821117156118dd576118dd61187d565b6040528381529050808284018510156118f557600080fd5b83836020830137600060208583010152509392505050565b60006020828403121561191f57600080fd5b813567ffffffffffffffff81111561193657600080fd5b8201601f8101841361194757600080fd5b61167d84823560208401611893565b60008083601f84011261196857600080fd5b50813567ffffffffffffffff81111561198057600080fd5b60208301915083602082850101111561199857600080fd5b9250929050565b600080602083850312156119b257600080fd5b823567ffffffffffffffff8111156119c957600080fd5b6119d585828601611956565b90969095509350505050565b6080815260006119f4608083018761173d565b8281036020840152611a06818761173d565b6001600160a01b0395909516604084015250506060015292915050565b600060208284031215611a3557600080fd5b813561171d816117fb565b60008060008060408587031215611a5657600080fd5b843567ffffffffffffffff811115611a6d57600080fd5b611a7987828801611956565b909550935050602085013567ffffffffffffffff811115611a9957600080fd5b611aa587828801611956565b95989497509550505050565b80358015158114611ac157600080fd5b919050565b60008060408385031215611ad957600080fd5b8235611ae4816117fb565b9150611af260208401611ab1565b90509250929050565b600060208284031215611b0d57600080fd5b61171d82611ab1565b60008060008060808587031215611b2c57600080fd5b8435611b37816117fb565b93506020850135611b47816117fb565b925060408501359150606085013567ffffffffffffffff811115611b6a57600080fd5b8501601f81018713611b7b57600080fd5b611b8a87823560208401611893565b91505092959194509250565b60008060408385031215611ba957600080fd5b8235611bb4816117fb565b91506020830135611bc4816117fb565b809150509250929050565b600181811c90821680611be357607f821691505b602082108103611c0357634e487b7160e01b600052602260045260246000fd5b50919050565b601f82111561093b57806000526020600020601f840160051c81016020851015611c305750805b601f840160051c820191505b818110156114965760008155600101611c3c565b67ffffffffffffffff831115611c6857611c6861187d565b611c7c83611c768354611bcf565b83611c09565b6000601f841160018114611cb05760008515611c985750838201355b600019600387901b1c1916600186901b178355611496565b600083815260209020601f19861690835b82811015611ce15786850135825560209485019460019092019101611cc1565b5086821015611cfe5760001960f88860031b161c19848701351681555b505060018560011b0183555050505050565b8183823760009101908152919050565b600060018201611d4057634e487b7160e01b600052601160045260246000fd5b5060010190565b815167ffffffffffffffff811115611d6157611d6161187d565b611d7581611d6f8454611bcf565b84611c09565b6020601f821160018114611da95760008315611d915750848201515b600019600385901b1c1916600184901b178455611496565b600084815260208120601f198516915b82811015611dd95787850151825560209485019460019092019101611db9565b5084821015611df75786840151600019600387901b60f8161c191681555b50505050600190811b01905550565b81835281816020850137506000828201602090810191909152601f909101601f19169091010190565b604081526000611e43604083018688611e06565b8281036020840152611e56818587611e06565b979650505050505050565b60008154611e6e81611bcf565b600182168015611e855760018114611e9a57611eca565b60ff1983168652811515820286019350611eca565b84600052602060002060005b83811015611ec257815488820152600190910190602001611ea6565b505081860193505b50505092915050565b600061167d611ee28386611e61565b84611e61565b6001600160a01b0385811682528416602082015260408101839052608060608201819052600090611f1b9083018461173d565b9695505050505050565b600060208284031215611f3757600080fd5b815161171d816116ea56fea2646970667358221220e123b6de81fdb0618fb5d8bf48f4a33ee5dd871d5672095f56301729fe63ae8664736f6c634300081c0033",
  "linkReferences": {},
  "deployedLinkReferences": {}
}