{
  "_format": "hh-sol-artifact-1",
  "contractName": "CarrierwaveRO",
  "sourceName": "contracts/CarrierwaveRO.sol",
  "abi": [
    {
      "inputs": [
        {
          "internalType": "address",
          "name": "founderWallet",
          "type": "address"
        }
      ],
      "stateMutability": "nonpayable",
      "type": "constructor"
    },
    {
      "inputs": [
        {
          "internalType": "address",
          "name": "sender",
          "type": "address"
        },
        {
          "internalType": "uint256",
          "name": "tokenId",
          "type": "uint256"
        },
        {
          "internalType": "address",
          "name": "owner",
          "type": "address"
        }
      ],
      "name": "ERC721IncorrectOwner",
      "type": "error"
    },
    {
      "inputs": [
        {
          "internalType": "address",
          "name": "operator",
          "type": "address"
        },
        {
          "internalType": "uint256",
          "name": "tokenId",
          "type": "uint256"
        }
      ],
      "name": "ERC721InsufficientApproval",
      "type": "error"
    },
    {
      "inputs": [
        {
          "internalType": "address",
          "name": "approver",
          "type": "address"
        }
      ],
      "name": "ERC721InvalidApprover",
      "type": "error"
    },
    {
      "inputs": [
        {
          "internalType": "address",
          "name": "operator",
          "type": "address"
        }
      ],
      "name": "ERC721InvalidOperator",
      "type": "error"
    },
    {
      "inputs": [
        {
          "internalType": "address",
          "name": "owner",
          "type": "address"
        }
      ],
      "name": "ERC721InvalidOwner",
      "type": "error"
    },
    {
      "inputs": [
        {
          "internalType": "address",
          "name": "receiver",
          "type": "address"
        }
      ],
      "name": "ERC721InvalidReceiver",
      "type": "error"
    },
    {
      "inputs": [
        {
          "internalType": "address",
          "name": "sender",
          "type": "address"
        }
      ],
      "name": "ERC721InvalidSender",
      "type": "error"
    },
    {
      "inputs": [
        {
          "internalType": "uint256",
          "name": "tokenId",
          "type": "uint256"
        }
      ],
      "name": "ERC721NonexistentToken",
      "type": "error"
    },
    {
      "inputs": [
        {
          "internalType": "address",
          "name": "owner",
          "type": "address"
        }
      ],
      "name": "OwnableInvalidOwner",
      "type": "error"
    },
    {
      "inputs": [
        {
          "internalType": "address",
          "name": "account",
          "type": "address"
        }
      ],
      "name": "OwnableUnauthorizedAccount",
      "type": "error"
    },
    {
      "anonymous": false,
      "inputs": [
        {
          "indexed": true,
          "internalType": "address",
          "name": "owner",
          "type": "address"
        },
        {
          "indexed": true,
          "internalType": "address",
          "name": "approved",
          "type": "address"
        },
        {
          "indexed": true,
          "internalType": "uint256",
          "name": "tokenId",
          "type": "uint256"
        }
      ],
      "name": "Approval",
      "type": "event"
    },
    {
      "anonymous": false,
      "inputs": [
        {
          "indexed": true,
          "internalType": "address",
          "name": "owner",
          "type": "address"
        },
        {
          "indexed": true,
          "internalType": "address",
          "name": "operator",
          "type": "address"
        },
        {
          "indexed": false,
          "internalType": "bool",
          "name": "approved",
          "type": "bool"
        }
      ],
      "name": "ApprovalForAll",
      "type": "event"
    },
    {
      "anonymous": false,
      "inputs": [
        {
          "indexed": true,
          "internalType": "address",
          "name": "previousOwner",
          "type": "address"
        },
        {
          "indexed": true,
          "internalType": "address",
          "name": "newOwner",
          "type": "address"
        }
      ],
      "name": "OwnershipTransferred",
      "type": "event"
    },
    {
      "anonymous": false,
      "inputs": [
        {
          "indexed": true,
          "internalType": "uint256",
          "name": "tokenId",
          "type": "uint256"
        },
        {
          "indexed": true,
          "internalType": "address",
          "name": "submitter",
          "type": "address"
        },
        {
          "indexed": false,
          "internalType": "string",
          "name": "roId",
          "type": "string"
        },
        {
          "indexed": false,
          "internalType": "string",
          "name": "contentHash",
          "type": "string"
        }
      ],
      "name": "ROMinted",
      "type": "event"
    },
    {
      "anonymous": false,
      "inputs": [
        {
          "indexed": true,
          "internalType": "address",
          "name": "from",
          "type": "address"
        },
        {
          "indexed": true,
          "internalType": "address",
          "name": "to",
          "type": "address"
        },
        {
          "indexed": true,
          "internalType": "uint256",
          "name": "tokenId",
          "type": "uint256"
        }
      ],
      "name": "Transfer",
      "type": "event"
    },
    {
      "inputs": [
        {
          "internalType": "address",
          "name": "to",
          "type": "address"
        },
        {
          "internalType": "uint256",
          "name": "tokenId",
          "type": "uint256"
        }
      ],
      "name": "approve",
      "outputs": [],
      "stateMutability": "nonpayable",
      "type": "function"
    },
    {
      "inputs": [
        {
          "internalType": "address",
          "name": "owner",
          "type": "address"
        }
      ],
      "name": "balanceOf",
      "outputs": [
        {
          "internalType": "uint256",
          "name": "",
          "type": "uint256"
        }
      ],
      "stateMutability": "view",
      "type": "function"
    },
    {
      "inputs": [],
      "name": "baseURI",
      "outputs": [
        {
          "internalType": "string",
          "name": "",
          "type": "string"
        }
      ],
      "stateMutability": "view",
      "type": "function"
    },
    {
      "inputs": [
        {
          "internalType": "string",
          "name": "",
          "type": "string"
        }
      ],
      "name": "contentHashMinted",
      "outputs": [
        {
          "internalType": "bool",
          "name": "",
          "type": "bool"
        }
      ],
      "stateMutability": "view",
      "type": "function"
    },
    {
      "inputs": [
        {
          "internalType": "uint256",
          "name": "tokenId",
          "type": "uint256"
        }
      ],
      "name": "getApproved",
      "outputs": [
        {
          "internalType": "address",
          "name": "",
          "type": "address"
        }
      ],
      "stateMutability": "view",
      "type": "function"
    },
    {
      "inputs": [
        {
          "internalType": "uint256",
          "name": "tokenId",
          "type": "uint256"
        }
      ],
      "name": "getRecord",
      "outputs": [
        {
          "components": [
            {
              "internalType": "string",
              "name": "roId",
              "type": "string"
            },
            {
              "internalType": "string",
              "name": "contentHash",
              "type": "string"
            },
            {
              "internalType": "address",
              "name": "submitter",
              "type": "address"
            },
            {
              "internalType": "uint256",
              "name": "mintedAt",
              "type": "uint256"
            }
          ],
          "internalType": "struct CarrierwaveRO.RORecord",
          "name": "",
          "type": "tuple"
        }
      ],
      "stateMutability": "view",
      "type": "function"
    },
    {
      "inputs": [
        {
          "internalType": "address",
          "name": "owner",
          "type": "address"
        },
        {
          "internalType": "address",
          "name": "operator",
          "type": "address"
        }
      ],
      "name": "isApprovedForAll",
      "outputs": [
        {
          "internalType": "bool",
          "name": "",
          "type": "bool"
        }
      ],
      "stateMutability": "view",
      "type": "function"
    },
    {
      "inputs": [
        {
          "internalType": "string",
          "name": "roId",
          "type": "string"
        },
        {
          "internalType": "string",
          "name": "contentHash",
          "type": "string"
        }
      ],
      "name": "mintRO",
      "outputs": [
        {
          "internalType": "uint256",
          "name": "",
          "type": "uint256"
        }
      ],
      "stateMutability": "nonpayable",
      "type": "function"
    },
    {
      "inputs": [],
      "name": "mintingPaused",
      "outputs": [
        {
          "internalType": "bool",
          "name": "",
          "type": "bool"
        }
      ],
      "stateMutability": "view",
      "type": "function"
    },
    {
      "inputs": [],
      "name": "name",
      "outputs": [
        {
          "internalType": "string",
          "name": "",
          "type": "string"
        }
      ],
      "stateMutability": "view",
      "type": "function"
    },
    {
      "inputs": [],
      "name": "owner",
      "outputs": [
        {
          "internalType": "address",
          "name": "",
          "type": "address"
        }
      ],
      "stateMutability": "view",
      "type": "function"
    },
    {
      "inputs": [
        {
          "internalType": "uint256",
          "name": "tokenId",
          "type": "uint256"
        }
      ],
      "name": "ownerOf",
      "outputs": [
        {
          "internalType": "address",
          "name": "",
          "type": "address"
        }
      ],
      "stateMutability": "view",
      "type": "function"
    },
    {
      "inputs": [],
      "name": "renounceOwnership",
      "outputs": [],
      "stateMutability": "nonpayable",
      "type": "function"
    },
    {
      "inputs": [
        {
          "internalType": "string",
          "name": "",
          "type": "string"
        }
      ],
      "name": "roIdToTokenId",
      "outputs": [
        {
          "internalType": "uint256",
          "name": "",
          "type": "uint256"
        }
      ],
      "stateMutability": "view",
      "type": "function"
    },
    {
      "inputs": [
        {
          "internalType": "uint256",
          "name": "",
          "type": "uint256"
        }
      ],
      "name": "roRecords",
      "outputs": [
        {
          "internalType": "string",
          "name": "roId",
          "type": "string"
        },
        {
          "internalType": "string",
          "name": "contentHash",
          "type": "string"
        },
        {
          "internalType": "address",
          "name": "submitter",
          "type": "address"
        },
        {
          "internalType": "uint256",
          "name": "mintedAt",
          "type": "uint256"
        }
      ],
      "stateMutability": "view",
      "type": "function"
    },
    {
      "inputs": [
        {
          "internalType": "address",
          "name": "from",
          "type": "address"
        },
        {
          "internalType": "address",
          "name": "to",
          "type": "address"
        },
        {
          "internalType": "uint256",
          "name": "tokenId",
          "type": "uint256"
        }
      ],
      "name": "safeTransferFrom",
      "outputs": [],
      "stateMutability": "nonpayable",
      "type": "function"
    },
    {
      "inputs": [
        {
          "internalType": "address",
          "name": "from",
          "type": "address"
        },
        {
          "internalType": "address",
          "name": "to",
          "type": "address"
        },
        {
          "internalType": "uint256",
          "name": "tokenId",
          "type": "uint256"
        },
        {
          "internalType": "bytes",
          "name": "data",
          "type": "bytes"
        }
      ],
      "name": "safeTransferFrom",
      "outputs": [],
      "stateMutability": "nonpayable",
      "type": "function"
    },
    {
      "inputs": [
        {
          "internalType": "address",
          "name": "operator",
          "type": "address"
        },
        {
          "internalType": "bool",
          "name": "approved",
          "type": "bool"
        }
      ],
      "name": "setApprovalForAll",
      "outputs": [],
      "stateMutability": "nonpayable",
      "type": "function"
    },
    {
      "inputs": [
        {
          "internalType": "string",
          "name": "newBaseURI",
          "type": "string"
        }
      ],
      "name": "setBaseURI",
      "outputs": [],
      "stateMutability": "nonpayable",
      "type": "function"
    },
    {
      "inputs": [
        {
          "internalType": "bool",
          "name": "paused",
          "type": "bool"
        }
      ],
      "name": "setMintingPaused",
      "outputs": [],
      "stateMutability": "nonpayable",
      "type": "function"
    },
    {
      "inputs": [
        {
          "internalType": "bytes4",
          "name": "interfaceId",
          "type": "bytes4"
        }
      ],
      "name": "supportsInterface",
      "outputs": [
        {
          "internalType": "bool",
          "name": "",
          "type": "bool"
        }
      ],
      "stateMutability": "view",
      "type": "function"
    },
    {
      "inputs": [],
      "name": "symbol",
      "outputs": [
        {
          "internalType": "string",
          "name": "",
          "type": "string"
        }
      ],
      "stateMutability": "view",
      "type": "function"
    },
    {
      "inputs": [
        {
          "internalType": "uint256",
          "name": "tokenId",
          "type": "uint256"
        }
      ],
      "name": "tokenURI",
      "outputs": [
        {
          "internalType": "string",
          "name": "",
          "type": "string"
        }
      ],
      "stateMutability": "view",
      "type": "function"
    },
    {
      "inputs": [],
      "name": "totalMinted",
      "outputs": [
        {
          "internalType": "uint256",
          "name": "",
          "type": "uint256"
        }
      ],
      "stateMutability": "view",
      "type": "function"
    },
    {
      "inputs": [
        {
          "internalType": "address",
          "name": "from",
          "type": "address"
        },
        {
          "internalType": "address",
          "name": "to",
          "type": "address"
        },
        {
          "internalType": "uint256",
          "name": "tokenId",
          "type": "uint256"
        }
      ],
      "name": "transferFrom",
      "outputs": [],
      "stateMutability": "nonpayable",
      "type": "function"
    },
    {
      "inputs": [
        {
          "internalType": "address",
          "name": "newOwner",
          "type": "address"
        }
      ],
      "name": "transferOwnership",
      "outputs": [],
      "stateMutability": "nonpayable",
      "type": "function"
    }
  ],
  "bytecode": "0x608060405234801561001057600080fd5b50604051611f4e380380611f4e83398101604081905261002f91610174565b806040518060400160405280601b81526020017f4361727269657277617665205265736561726368204f626a6563740000000000815250604051806040016040528060048152602001634357524f60e01b81525081600090816100929190610243565b50600161009f8282610243565b5050506001600160a01b0381166100d057604051631e4fbdf760e01b81526000600482015260240160405180910390fd5b6100d981610122565b5060408051808201909152601b81527f68747470733a2f2f63617272696572776176652e6f72672f726f2f0000000000602082015260099061011b9082610243565b5050610301565b600680546001600160a01b038381166001600160a01b0319831681179093556040519116919082907f8be0079c531659141344cd1fd0a4f28419497f9722a3daafe3b4186f6b6457e090600090a35050565b60006020828403121561018657600080fd5b81516001600160a01b038116811461019d57600080fd5b9392505050565b634e487b7160e01b600052604160045260246000fd5b600181811c908216806101ce57607f821691505b6020821081036101ee57634e487b7160e01b600052602260045260246000fd5b50919050565b601f82111561023e57806000526020600020601f840160051c8101602085101561021b5750805b601f840160051c820191505b8181101561023b5760008155600101610227565b50505b505050565b81516001600160401b0381111561025c5761025c6101a4565b6102708161026a84546101ba565b846101f4565b6020601f8211600181146102a4576000831561028c5750848201515b600019600385901b1c1916600184901b17845561023b565b600084815260208120601f198516915b828110156102d457878501518255602094850194600190920191016102b4565b50848210156102f25786840151600019600387901b60f8161c191681555b50505050600190811b01905550565b611c3e806103106000396000f3fe608060405234801561001057600080fd5b506004361061018e5760003560e01c8063715018a6116100de578063a322044e11610097578063c87b56dd11610071578063c87b56dd14610396578063e1a283d6146103a9578063e985e9c5146103b6578063f2fde38b146103c957600080fd5b8063a322044e14610342578063ad13419d14610370578063b88d4fde1461038357600080fd5b8063715018a6146102f35780638da5cb5b146102fb5780639545efb41461030c57806395d89b411461031f578063a22cb46514610327578063a2309ff81461033a57600080fd5b80632bc8a2851161014b578063621a4d6d11610125578063621a4d6d146102a25780636352211e146102c55780636c0360eb146102d857806370a08231146102e057600080fd5b80632bc8a2851461024357806342842e0e1461027c57806355f804b31461028f57600080fd5b806301ffc9a71461019357806303e9e609146101bb57806306fdde03146101db578063081812fc146101f0578063095ea7b31461021b57806323b872dd14610230575b600080fd5b6101a66101a13660046113e1565b6103dc565b60405190151581526020015b60405180910390f35b6101ce6101c9366004611405565b61042e565b6040516101b29190611464565b6101e36105cc565b6040516101b291906114c9565b6102036101fe366004611405565b61065e565b6040516001600160a01b0390911681526020016101b2565b61022e6102293660046114f8565b610687565b005b61022e61023e366004611522565b610696565b61026e6102513660046115ef565b8051602081830181018051600c8252928201919093012091525481565b6040519081526020016101b2565b61022e61028a366004611522565b610726565b61022e61029d366004611681565b610746565b6102b56102b0366004611405565b61075b565b6040516101b294939291906116c3565b6102036102d3366004611405565b61089d565b6101e36108a8565b61026e6102ee366004611705565b610936565b61022e61097e565b6006546001600160a01b0316610203565b61026e61031a366004611720565b610992565b6101e3610cde565b61022e6103353660046117a1565b610ced565b60075461026e565b6101a66103503660046115ef565b8051602081830181018051600b8252928201919093012091525460ff1681565b61022e61037e3660046117d4565b610cf8565b61022e6103913660046117ef565b610d13565b6101e36103a4366004611405565b610d2b565b6008546101a69060ff1681565b6101a66103c436600461186b565b610d70565b61022e6103d7366004611705565b610d9e565b60006001600160e01b031982166380ac58cd60e01b148061040d57506001600160e01b03198216635b5e139f60e01b145b8061042857506301ffc9a760e01b6001600160e01b03198316145b92915050565b6104626040518060800160405280606081526020016060815260200160006001600160a01b03168152602001600081525090565b61046b82610ddc565b506000828152600a60205260409081902081516080810190925280548290829061049490611895565b80601f01602080910402602001604051908101604052809291908181526020018280546104c090611895565b801561050d5780601f106104e25761010080835404028352916020019161050d565b820191906000526020600020905b8154815290600101906020018083116104f057829003601f168201915b5050505050815260200160018201805461052690611895565b80601f016020809104026020016040519081016040528092919081815260200182805461055290611895565b801561059f5780601f106105745761010080835404028352916020019161059f565b820191906000526020600020905b81548152906001019060200180831161058257829003601f168201915b505050918352505060028201546001600160a01b0316602082015260039091015460409091015292915050565b6060600080546105db90611895565b80601f016020809104026020016040519081016040528092919081815260200182805461060790611895565b80156106545780601f1061062957610100808354040283529160200191610654565b820191906000526020600020905b81548152906001019060200180831161063757829003601f168201915b5050505050905090565b600061066982610ddc565b506000828152600460205260409020546001600160a01b0316610428565b610692828233610e15565b5050565b6001600160a01b0382166106c557604051633250574960e11b8152600060048201526024015b60405180910390fd5b60006106d2838333610e22565b9050836001600160a01b0316816001600160a01b031614610720576040516364283d7b60e01b81526001600160a01b03808616600483015260248201849052821660448201526064016106bc565b50505050565b61074183838360405180602001604052806000815250610d13565b505050565b61074e610f1b565b6009610741828483611916565b600a6020526000908152604090208054819061077690611895565b80601f01602080910402602001604051908101604052809291908181526020018280546107a290611895565b80156107ef5780601f106107c4576101008083540402835291602001916107ef565b820191906000526020600020905b8154815290600101906020018083116107d257829003601f168201915b50505050509080600101805461080490611895565b80601f016020809104026020016040519081016040528092919081815260200182805461083090611895565b801561087d5780601f106108525761010080835404028352916020019161087d565b820191906000526020600020905b81548152906001019060200180831161086057829003601f168201915b50505050600283015460039093015491926001600160a01b031691905084565b600061042882610ddc565b600980546108b590611895565b80601f01602080910402602001604051908101604052809291908181526020018280546108e190611895565b801561092e5780601f106109035761010080835404028352916020019161092e565b820191906000526020600020905b81548152906001019060200180831161091157829003601f168201915b505050505081565b60006001600160a01b038216610962576040516322718ad960e21b8152600060048201526024016106bc565b506001600160a01b031660009081526003602052604090205490565b610986610f1b565b6109906000610f48565b565b60085460009060ff16156109dc5760405162461bcd60e51b8152602060048201526011602482015270135a5b9d1a5b99c81a5cc81c185d5cd959607a1b60448201526064016106bc565b83610a195760405162461bcd60e51b815260206004820152600d60248201526c1c9bd259081c995c5d5a5c9959609a1b60448201526064016106bc565b81610a5d5760405162461bcd60e51b815260206004820152601460248201527318dbdb9d195b9d12185cda081c995c5d5a5c995960621b60448201526064016106bc565b600b8383604051610a6f9291906119d6565b9081526040519081900360200190205460ff1615610ac05760405162461bcd60e51b815260206004820152600e60248201526d105b1c9958591e481b5a5b9d195960921b60448201526064016106bc565b600c8585604051610ad29291906119d6565b908152602001604051809103902054600014610b245760405162461bcd60e51b81526020600482015260116024820152701493c8185b1c9958591e481b5a5b9d1959607a1b60448201526064016106bc565b6000600760008154610b35906119e6565b91829055509050610b463382610f9a565b604051806080016040528087878080601f016020809104026020016040519081016040528093929190818152602001838380828437600092019190915250505090825250604080516020601f880181900481028201810190925286815291810191908790879081908401838280828437600092018290525093855250503360208085019190915242604094850152858352600a9052502081518190610beb9082611a0d565b5060208201516001820190610c009082611a0d565b506040828101516002830180546001600160a01b0319166001600160a01b0390921691909117905560609092015160039091015551600190600b90610c4890879087906119d6565b908152604051908190036020018120805492151560ff19909316929092179091558190600c90610c7b90899089906119d6565b908152602001604051809103902081905550336001600160a01b0316817fb942ed1fc9f7d5989884f587d70fbcc83453e9942b6bd2dcfefcd44fb4cfa18e88888888604051610ccd9493929190611af5565b60405180910390a395945050505050565b6060600180546105db90611895565b610692338383610fb4565b610d00610f1b565b6008805460ff1916911515919091179055565b610d1e848484610696565b6107203385858585611053565b6060610d3682610ddc565b506000828152600a60209081526040918290209151610d5a92600992909101611b99565b6040516020818303038152906040529050919050565b6001600160a01b03918216600090815260056020908152604080832093909416825291909152205460ff1690565b610da6610f1b565b6001600160a01b038116610dd057604051631e4fbdf760e01b8152600060048201526024016106bc565b610dd981610f48565b50565b6000818152600260205260408120546001600160a01b03168061042857604051637e27328960e01b8152600481018490526024016106bc565b610741838383600161117e565b6000828152600260205260408120546001600160a01b0390811690831615610e4f57610e4f818486611284565b6001600160a01b03811615610e8d57610e6c60008560008061117e565b6001600160a01b038116600090815260036020526040902080546000190190555b6001600160a01b03851615610ebc576001600160a01b0385166000908152600360205260409020805460010190555b60008481526002602052604080822080546001600160a01b0319166001600160a01b0389811691821790925591518793918516917fddf252ad1be2c89b69c2b068fc378daa952ba7f163c4a11628f55a4df523b3ef91a4949350505050565b6006546001600160a01b031633146109905760405163118cdaa760e01b81523360048201526024016106bc565b600680546001600160a01b038381166001600160a01b0319831681179093556040519116919082907f8be0079c531659141344cd1fd0a4f28419497f9722a3daafe3b4186f6b6457e090600090a35050565b6106928282604051806020016040528060008152506112e8565b6001600160a01b038216610fe657604051630b61174360e31b81526001600160a01b03831660048201526024016106bc565b6001600160a01b03838116600081815260056020908152604080832094871680845294825291829020805460ff191686151590811790915591519182527f17307eab39ab6107e8899845ad3d59bd9653f200f220920489ca2b5937696c31910160405180910390a3505050565b6001600160a01b0383163b1561117757604051630a85bd0160e11b81526001600160a01b0384169063150b7a0290611095908890889087908790600401611bae565b6020604051808303816000875af19250505080156110d0575060408051601f3d908101601f191682019092526110cd91810190611beb565b60015b611139573d8080156110fe576040519150601f19603f3d011682016040523d82523d6000602084013e611103565b606091505b50805160000361113157604051633250574960e11b81526001600160a01b03851660048201526024016106bc565b805160208201fd5b6001600160e01b03198116630a85bd0160e11b1461117557604051633250574960e11b81526001600160a01b03851660048201526024016106bc565b505b5050505050565b808061119257506001600160a01b03821615155b156112545760006111a284610ddc565b90506001600160a01b038316158015906111ce5750826001600160a01b0316816001600160a01b031614155b80156111e157506111df8184610d70565b155b1561120a5760405163a9fbf51f60e01b81526001600160a01b03841660048201526024016106bc565b81156112525783856001600160a01b0316826001600160a01b03167f8c5be1e5ebec7d5bd14f71427d1e84f3dd0314c0f7b2291e5b200ac8c7c3b92560405160405180910390a45b505b5050600090815260046020526040902080546001600160a01b0319166001600160a01b0392909216919091179055565b61128f838383611300565b610741576001600160a01b0383166112bd57604051637e27328960e01b8152600481018290526024016106bc565b60405163177e802f60e01b81526001600160a01b0383166004820152602481018290526044016106bc565b6112f28383611366565b610741336000858585611053565b60006001600160a01b0383161580159061135e5750826001600160a01b0316846001600160a01b0316148061133a575061133a8484610d70565b8061135e57506000828152600460205260409020546001600160a01b038481169116145b949350505050565b6001600160a01b03821661139057604051633250574960e11b8152600060048201526024016106bc565b600061139e83836000610e22565b90506001600160a01b03811615610741576040516339e3563760e11b8152600060048201526024016106bc565b6001600160e01b031981168114610dd957600080fd5b6000602082840312156113f357600080fd5b81356113fe816113cb565b9392505050565b60006020828403121561141757600080fd5b5035919050565b6000815180845260005b8181101561144457602081850181015186830182015201611428565b506000602082860101526020601f19601f83011685010191505092915050565b60208152600082516080602084015261148060a084018261141e565b90506020840151601f1984830301604085015261149d828261141e565b60408601516001600160a01b031660608681019190915290950151608090940193909352509192915050565b6020815260006113fe602083018461141e565b80356001600160a01b03811681146114f357600080fd5b919050565b6000806040838503121561150b57600080fd5b611514836114dc565b946020939093013593505050565b60008060006060848603121561153757600080fd5b611540846114dc565b925061154e602085016114dc565b929592945050506040919091013590565b634e487b7160e01b600052604160045260246000fd5b60008067ffffffffffffffff8411156115905761159061155f565b50604051601f19601f85018116603f0116810181811067ffffffffffffffff821117156115bf576115bf61155f565b6040528381529050808284018510156115d757600080fd5b83836020830137600060208583010152509392505050565b60006020828403121561160157600080fd5b813567ffffffffffffffff81111561161857600080fd5b8201601f8101841361162957600080fd5b61135e84823560208401611575565b60008083601f84011261164a57600080fd5b50813567ffffffffffffffff81111561166257600080fd5b60208301915083602082850101111561167a57600080fd5b9250929050565b6000806020838503121561169457600080fd5b823567ffffffffffffffff8111156116ab57600080fd5b6116b785828601611638565b90969095509350505050565b6080815260006116d6608083018761141e565b82810360208401526116e8818761141e565b6001600160a01b0395909516604084015250506060015292915050565b60006020828403121561171757600080fd5b6113fe826114dc565b6000806000806040858703121561173657600080fd5b843567ffffffffffffffff81111561174d57600080fd5b61175987828801611638565b909550935050602085013567ffffffffffffffff81111561177957600080fd5b61178587828801611638565b95989497509550505050565b803580151581146114f357600080fd5b600080604083850312156117b457600080fd5b6117bd836114dc565b91506117cb60208401611791565b90509250929050565b6000602082840312156117e657600080fd5b6113fe82611791565b6000806000806080858703121561180557600080fd5b61180e856114dc565b935061181c602086016114dc565b925060408501359150606085013567ffffffffffffffff81111561183f57600080fd5b8501601f8101871361185057600080fd5b61185f87823560208401611575565b91505092959194509250565b6000806040838503121561187e57600080fd5b611887836114dc565b91506117cb602084016114dc565b600181811c908216806118a957607f821691505b6020821081036118c957634e487b7160e01b600052602260045260246000fd5b50919050565b601f82111561074157806000526020600020601f840160051c810160208510156118f65750805b601f840160051c820191505b818110156111775760008155600101611902565b67ffffffffffffffff83111561192e5761192e61155f565b6119428361193c8354611895565b836118cf565b6000601f841160018114611976576000851561195e5750838201355b600019600387901b1c1916600186901b178355611177565b600083815260209020601f19861690835b828110156119a75786850135825560209485019460019092019101611987565b50868210156119c45760001960f88860031b161c19848701351681555b505060018560011b0183555050505050565b8183823760009101908152919050565b600060018201611a0657634e487b7160e01b600052601160045260246000fd5b5060010190565b815167ffffffffffffffff811115611a2757611a2761155f565b611a3b81611a358454611895565b846118cf565b6020601f821160018114611a6f5760008315611a575750848201515b600019600385901b1c1916600184901b178455611177565b600084815260208120601f198516915b82811015611a9f5787850151825560209485019460019092019101611a7f565b5084821015611abd5786840151600019600387901b60f8161c191681555b50505050600190811b01905550565b81835281816020850137506000828201602090810191909152601f909101601f19169091010190565b604081526000611b09604083018688611acc565b8281036020840152611b1c818587611acc565b979650505050505050565b60008154611b3481611895565b600182168015611b4b5760018114611b6057611b90565b60ff1983168652811515820286019350611b90565b84600052602060002060005b83811015611b8857815488820152600190910190602001611b6c565b505081860193505b50505092915050565b600061135e611ba88386611b27565b84611b27565b6001600160a01b0385811682528416602082015260408101839052608060608201819052600090611be19083018461141e565b9695505050505050565b600060208284031215611bfd57600080fd5b81516113fe816113cb56fea2646970667358221220f65fbb8bc3fe14d1066c00ae511afe2c3125718bd1b2ef35a76fb4557cd30e6064736f6c634300081c0033",
  "linkReferences": {},
  "deployedLinkReferences": {}
}